:1000000000000420B5020000DD020000DF02000055
:10001000E1020000E3020000E50200000000000031
:100020000000000000000000000000003910000087
:10003000E90200000000000059100000ED0200007D
:10004000053C0000EF02000051520000EF020000EA
:10005000EF020000EF020000693C0000EF02000028
:10006000EF020000EF020000EF020000EF020000CC
:10007000EF020000EF020000EF020000EF020000BC
:10008000EF02000061110000EF020000EF0200002B
:10009000EF020000EF020000EF020000EF0200009C
:1000A000EF020000EF020000EF020000EF0200008C
:1000B000EF020000EF02000000000000000000005E
:1000C000EF020000EF020000EF020000EF0200006C
:1000D00045430000EF020000EF020000EF020000C5
:1000E000EF020000EF020000EF020000000000003D
:1000F00000000000EF02000000000000EF0200001E
:1001000000000000000000000000000000000000EF
:1001100000000000000000000000000000000000DF
:1001200000000000000000000000000000000000CF
:1001300000000000000000000000000000000000BF
:1001400000000000000000000000000000000000AF
:10015000000000000000000000000000000000009F
:10016000000000000000000000000000000000008F
:10017000000000000000000000000000000000007F
:10018000000000000000000000000000000000006F
:10019000000000000000000000000000000000005F
:1001A000000000000000000000000000000000004F
:1001B000000000000000000000000000000000003F
:1001C000000000000000000000000000000000002F
:1001D000000000000000000000000000000000001F
:1001E000000000000000000000000000000000000F
:1001F00000000000000000000000000000000000FF
:1002000010B5054C237833B9044B13B10448AFF350
:1002100000800123237010BD880000200000000032
:100220008456000008B5034B1BB103490348AFF3E4
:10023000008008BD000000008C00002084560000F3
:10024000154B002B08BF134B9D46A3F5803A0021A8
:100250008B460F461348144A121A05F06FF80F4BDD
:10026000002B00D098470E4B002B00D09847002061
:10027000002104000D000D48002802D00C48AFF307
:10028000008005F029F82000290004F02BF905F082
:100290000FF800BF0000080000000420000000006C
:1002A0000000000088000020B818002000000000B6
:1002B000000000000649074A074B9B1A03DD043B78
:1002C000C858D050FBDC04F04FF9FFF7B9FF00002D
:1002D000F45600000000002088000020FEE7FEE742
:1002E000FEE7FEE7FEE7FEE7FEE7FEE7FEE7FEE7E6
:1002F000F0B595B0002415460F4608461E4603F09B
:100300003BFB384623460895082205A91A9D099605
:100310000D950A948DF82C400C9403F091FB9DF8F8
:1003200014308DF81140DDE9061003F00302012AB4
:10033000CDE9020127D0022A04D0384603F020FB81
:1003400015B0F0BDBDF81650C3F3C2038DF81030E0
:10035000AD090826082D2C4628BF0824334622461E
:100360000EA9384603F06CFB2D1B214608AB02AAF0
:100370000EA8264400F016FD002DEBD1384603F000
:10038000FFFA15B0F0BDBDF81460059DC6F38316E5
:10039000C3F3C204B2000EA9384608238DF81040FA
:1003A000C5F3952503F04CFB08AB324628460EA951
:1003B000009302AB00F080FC384603F0E1FA15B080
:1003C000F0BD00BF014B01221A707047E800002009
:1003D000704700BF00B583B0044B0093044A40232C
:1003E000FFF786FF03B05DF804FB00BFF5030000D4
:1003F000A800002038B50E480E4D03780E4CEB5C7B
:100400000025D2B2257053B1043004F0CFFE58B9A4
:100410000A4B1B7813B12378002BFCD038BD0C306D
:1004200004F04AFC0028F3D002F006FDF0E700BF1C
:1004300000000020B4180020E8000020A4000020E4
:1004400030B51448144A0378D35C89B0BBB104308A
:1004500004F02CFE114D0FCD6C460FC495E80F0033
:10046000062584E80F00002269460A48009504F03A
:1004700091F940B90A4B00221A7009B030BD0C3016
:1004800004F09CFBE6E702F0D7FC054B00221A7053
:1004900009B030BD00000020B418002078530000DF
:1004A000A400002030B50E4D0FCD89B06C460FC4AE
:1004B00095E80F00062584E80F000A4A0A480095CF
:1004C000694604F067F920B9084B01221A7009B097
:1004D00030BD02F0B1FC054B01221A7009B030BDED
:1004E00078530000C503000000000020A400002095
:1004F00008B5FFF7D7FF0421034800F04DFB034B7D
:1005000001225A7108BD00BFC85600001400002027
:1005100038B50C4B0C48002400250022FF21C3E90C
:100520000045C3F81824996083F82024C3F81424E4
:1005300003F0D4F9044610B9044803F0B5FA204694
:1005400038BD00BFC0010020D8560000B8530000DD
:10055000A9B1124B12495B1ADB081AD030B4114C06
:100560002288824217D0002203E034F822508542CC
:100570000AD001329342F8D1002030BC7047084ABB
:1005800002EBC0021068704701EBC202106830BC79
:100590007047184670470A46F8E700BFC856000083
:1005A0008856000088000020094B013903EBC00089
:1005B00003290BD8DFE801F0020806040220704787
:1005C00040797047007970470420704700207047D9
:1005D000885600002DE9F04F9D4CD4E900239A4243
:1005E00089B000F030810023C4F81834BFF34F8F76
:1005F000D4E9013503EA0501CA1C04EB820614F8AC
:10060000222050071BD52768327802F00302012A06
:1006100000F00781022A03D17288023303EB9213A0
:1006200003EA0501D4F81804CA1C04EB820630B9A9
:100630009F4240F2048114F822205207E4D404EBD4
:1006400081015A1CC96802912A4004EB820201F020
:100650000301D2680392022903F1020600F002812D
:10066000012900F06581D4F810543DB12B6828466B
:100670009B689847EB681D68002DF7D1754A764B4B
:10068000D4F808809B1ADB080020019302F01CFCC0
:10069000D4E90132D4F8009013440133A3EB0903E9
:1006A000012B00F294816D4D2F1FA5F10806012149
:1006B000284602F025FC384602F03AFC304602F0AB
:1006C00037FCD4E9013E03EA0E01C81C04EB8002AA
:1006D00014F8200010F0040000F0A08003F1020CD8
:1006E00092F800B00BF0030BBBF1010FE24600F0F3
:1006F0009080BBF1020F7CD0CA1C04EB8202002860
:10070000EED104EB81010133CA68059203EA0E03BE
:1007100004EB830302F00302012AD96800F087800A
:10072000022A5CD1BDF816309B0903334FEA114B06
:100730000AEB930A304602F007FC5946002856D0CF
:100740002846C4F804A002F0DBFBD4E9013221689A
:10075000134401335B1A012BA9D90A400332052344
:100760000231002044F82230216002F0B5FB002164
:100770003A4802F0BBFB80F3100009F1010303EAE1
:100780000803BDF8042004EB830308EA090808F114
:10079000030842EA0042DA6054F82820304B63F341
:1007A0009F2222F47F7323F0030343F0110344F8E4
:1007B000282024F8283094F820343BB9D4E90030BC
:1007C000C01A18BF012009B0BDE8F08FFFF702FF83
:1007D0000028F3D0FFF7FEFE0028F7D1EEE7304601
:1007E00002F0B2FB4FF0000B59460028A8D1284672
:1007F000A9E753880CEB93130EEA0301CA1C03F11B
:10080000020C14F82200E24604EB820200F004001D
:1008100075E71388C3F383136344EDE703F1020A1A
:100820006FE732880233C2F383121344F8E6BDF84F
:100830001430C3F383134FEA114B9A447AE767608D
:1008400009B0BDE8F08F002009B0BDE8F08F00BF0F
:10085000C001002088560000B8560000DC050020CA
:10086000C4530000BDF80A305F484FEA9319B9F14C
:10087000500FC84628BF4FF0500868F38F1308F197
:100880000801ADF80A3003F02BF8074600283FF4C2
:10089000EAAE03F071F8082200230DEB020138469E
:1008A00003F09AF825EA060301339B0098457BD9AB
:1008B000002B00F08E8005EA0601A8EB0308DDB2EC
:1008C000033104EB81012A46082338465FFA88F891
:1008D00003F082F8424605F108034449384603F024
:1008E0007BF809F1030906EB9909D4F81834002BB9
:1008F00069D1D4F8105465B1EB685A792846394665
:10090000002A5CD02B681B689847EB681D68002D97
:10091000F2D1384603F034F8002002F0D5FAD4F8CA
:1009200018340BB9C4F80490002002F0D5FA45E75A
:10093000BDF808202C48C2F38313062B28BF0623DA
:1009400063F3891202339900ADF8082002F0C8FF62
:10095000074600283FF487AE03F00EF80822002374
:100960000DEB0201384603F037F8BDF8083013F4F8
:10097000707F36D04FF0000805EA06014FEA880381
:100980000331083304EB81010422384603F024F8D4
:10099000BDF8083008F10108C3F3831306F101091B
:1009A00043454E46E8D8A0E705EA0601033104EBCB
:1009B000810142460823384603F00EF891E71D688E
:1009C000002D99D1A5E7384602F0DAFFF6E6494650
:1009D000C3E65FFA88F208230449384602F0FCFFB8
:1009E0007FE7B14681E700BFD8560000CC01002068
:1009F0002DE9F04F654C87B0804600200191A56835
:100A000002F062FAD4E9012326681A440132921BEB
:100A1000012A00F2B88004F21C4704F214490121B3
:100A2000384602F06DFA5A4802F082FA484602F05F
:100A30007FFAD4E9013E03EA0E00C21C04EB8201F6
:100A400014F8222012F0040200F09A8003F1020C44
:100A500091F800B00BF0030BBBF1010FE24600F080
:100A60008A80BBF1020F00F1030B74D004EB8B0101
:100A7000002AEDD104EB80000133C268039203EA3F
:100A80000E0304EB830302F00302012AD9685AD053
:100A9000022A55D1BDF80E309B0903334FEA114BA2
:100AA0000AEB930A484602F04FFA5946002845D00F
:100AB0003846C4F804A002F023FAD4E901132268EE
:100AC00019440131891A0129A9D91340033302328B
:100AD0000521002044F82310226002F0FDF90021D6
:100AE0002C4802F003FA80F31000731C2B4004EB37
:100AF000830300043540033540EA1840D86014F8F9
:100B0000253068F3C50304F82530019B54F82520EF
:100B100063F39F2222F4717323F0030343F0010374
:100B200044F8252024F8253094F820341BB1FFF731
:100B300051FD0028FBD107B0BDE8F08F3846BAE779
:100B40004FF0000BAEE7BDF80C30C3F383134FEA50
:100B5000114B9A44A6E74B880CEB93130EEA030063
:100B6000C11C03F1020C14F82120E24604EB8101C0
:100B700002F004027CE70B88C3F383136344EDE7C0
:100B800003F1020A76E732469FE700BFC00100206A
:100B9000D8050020DC050020F0B41B4ED6F8103438
:100BA0000746002B2DD0DC6825790021A942084694
:100BB00017D0234603E0DB681A798A4211D01B68FC
:100BC000002BF8D1FB681871D6F810349BB1DA68A5
:100BD000FB6812681A60D6F81034DB681F60F0BC3E
:100BE0007047092901F1010301D01946DEE74FF0F2
:100BF000FF30F0BC7047C6F81074FA681360F0BCA0
:100C000070471846DEE700BFC001002038B5094B29
:100C1000D3F81044012583F820544CB1E3685D718A
:100C2000236820465B689847E3681C68002CF5D170
:100C300038BD00BFC001002030B5C38883B0044672
:100C40000D4613BB217A05291DD0637AA08873B99C
:100C5000124B53F821400021FFF77AFC104903465C
:100C60002246284603B0BDE8304002F0DDB9FFF768
:100C70009BFC0C4B0C4953F82020284602F0D4F979
:100C8000217AA088E4E703B030BD084A0092084901
:100C9000084A284602F0C8F9D4E700BF50540000C3
:100CA00044540000DC53000040540000385400005D
:100CB00020540000185400002DE9F04385B01D4673
:100CC0000C9C002381460E46174694F80C80237333
:100CD00021462846FFF7B0FF062F09D8DFE807F0C6
:100CE000042E343B444F1F004946204602F09CF935
:100CF0002B7A052B05D06B7A5BB92749204602F089
:100D000093F9204602F084F984F80C8005B0BDE820
:100D1000F083224A2249204602F086F9EDE7D6E91F
:100D20000413F2680393B3680291CDE90032494697
:100D3000D6E90023204602F077F9D9E73268494620
:100D4000204602F071F9D3E74946D6E90023204650
:100D500002F06AF9CCE7B36800934946D6E900236C
:100D6000204602F061F9C3E7D6E90232019200930E
:100D70004946D6E90023204602F056F9B8E7D6E9FD
:100D80000321B3680291CDE900324946D6E9002338
:100D9000204602F049F9ABE7145400003854000033
:100DA00040540000082900D970472DE9F04F1D4636
:100DB00083B000241B7B2C7307460E461046294641
:100DC00091460193DFF8C8A0DFF8C880FFF734FF31
:100DD00005E03A5D013402F027F9082C09D0A6425B
:100DE00041462846F5D85146013402F01DF9082C39
:100DF000F5D12249DFF8A0A0214CDFF8A0802846D9
:100E000002F012F94FF0000B0EE012F8081011F08A
:100E1000970F08BF2E22214628460BF1010B02F046
:100E200003F9BBF1080F10D05E4505D917F80B2068
:100E30007E2AEAD92E22EEE7514628460BF1010B15
:100E400002F0F2F8BBF1080FEED199F80830052B4B
:100E500002D099F809305BB90A49284602F0E4F853
:100E6000284602F0D5F8019B2B7303B0BDE8F08F44
:100E7000054A0649284602F0D7F8EDE70C54000071
:100E80001054000014540000385400004054000076
:100E900008540000005400004C5400007D55000030
:100EA0000A4B185C1F288ABF09494FF0A04100F087
:100EB0001F00D1F804350122824022EA03001340CA
:100EC000C1F80805C1F80C35704700BFBC540000DC
:100ED00000030050C20730B40ED483070AD54FF088
:100EE000A0430C22C3F82C27C3F83027C3F860278F
:100EF000C3F8642730BC70474FF0A0430322C3F807
:100F000034274FF40055C3F838274FF48044C3F812
:100F10003C274FF40041C3F840274FF48032C3F818
:100F20000855C3F80845C3F80815C3F80825D4E7E1
:100F300038B5430704461CBF20F00704083401F00D
:100F4000A1F90E4A13689BB10D4A156840F6F77176
:100F50002C448C4207D8A54205D21D44146001F0F0
:100F60003BFA284638BD002501F036FA284638BD40
:100F7000044B23F007031360E6E700BF7C06002064
:100F80008016002088060020704700BF00F108038B
:100F90004FF0FF310022816002604360C0E90333FB
:100FA000704700BF00230361704700BF43684B6078
:100FB0009A688A6051609960086103680133036030
:100FC000704700BF30B40D686B1C11D000F10802EF
:100FD00000E01A4653681C68AC42FAD94B6099602D
:100FE0008A605160086103680133036030BC704758
:100FF00002695368F2E700BFD0E9011203698A6011
:10100000416851605A68824204BF82685A60002277
:1010100002611A68013A1A6018687047054800684A
:1010200080F3088862B661B6BFF34F8FBFF36F8F4E
:1010300000DF00BF00000000064B19680868B0E838
:10104000F04F80F30988BFF36F8F4FF0000080F3FB
:101050001188704788160020EFF30980BFF36F8F67
:10106000144B1A681EF0100F08BF20ED108A20E9FB
:10107000F04F10604DF8043D4FF0400080F31188B0
:10108000BFF34F8FBFF36F8F01F0BEFA4FF0000038
:1010900080F3118808BC19680868B0E8F04F1EF0AA
:1010A000100F08BFB0EC108A80F30988BFF36F8F70
:1010B000704700BF88160020402383F31188FEE7A5
:1010C00030B46FF002034FF08075074C40F8081CF5
:1010D00040F8202C40F8045C40F80C4C40F8243CCC
:1010E00030BC4438704700BFB91000000F4C08B541
:1010F000E02384F8223000F077F80D4B0D4A0021F0
:101100001960D4F8883043F47003C4F88830536809
:1011100043F040435360236943F010032361FFF71A
:101120007DFF402383F31188FEE700BF00ED00E060
:101130008416002030EF00E0402383F31188024A38
:10114000136801331360704784160020034A136844
:10115000013B13600BB983F311887047841600209C
:1011600070B51D4B00221A6082B01B680193019B71
:10117000EFF31186402383F311881849184BD1F8F7
:1011800004451A601B680093009B01F083F8201A45
:1011900020F07F4323F0010320F07F459BB96C1EB4
:1011A0006DB1002501F084F8013C631C45EA00059F
:1011B000F8D125B10B4B4FF080525A6040BF86F3F7
:1011C000118802B070BD01F09DFB0228E7D001F04C
:1011D0006FF80546EDE700BF4011014000100140E7
:1011E0000011014000ED00E038B5002002F0A6FC3F
:1011F0000A4B0B480B4901221F24C3F8084502255E
:10120000C3F80423E02402604FF400301A60C3F8EE
:10121000445381F81143086038BD00BF00100140FD
:101220000810014000E100E0F0B5054685B072B657
:10123000314CD4F8046501F049FB002842D02F4816
:101240002F4BA84228BF2846321822F07F420121A6
:101250000027C4F80813C4F840251F601A680192DB
:101260004FF48032019FC4F80423BFF34F8F65B35E
:10127000244B20BFD3F80011D3F804210A43F8D03F
:101280001D4A1F4D20494FF48034C2F80843002402
:101290002C602D680395039D0C6009680291012163
:1012A000029CC2F80413D2F80425921B22F07F425C
:1012B000904228BF10464FF40032C3F8802108B195
:1012C00000F0EEFF62B605B0F0BDC4F808231D6063
:1012D0001A680D4B0392039A1D601B680293094B19
:1012E000029AC4F804134FF40032D4F80415C3F87A
:1012F000802162B605B0F0BD00100140FDFFFF0087
:101300004011014000E100E00011014070B50646C7
:101310000D4651B100FB01F04830FFF709FE0446CD
:1013200058B300F14803036005E04820FFF700FED2
:10133000044610B32460C4E90F65FFF7FDFED4E94D
:101340000F132268A26001FB03F1CB1A13440020A3
:101350000A44FF21A063E36084F84410626084F8CB
:10136000451004F11000FFF711FE04F12400FFF70F
:101370000DFEFFF7EBFE204670BD0024204670BD39
:101380002DE9F04F044685B01D4601928846FFF7CF
:10139000D3FEA26BE36BA74F4FF000099A424E4673
:1013A000C0F08B80022D00F013810198002800F01E
:1013B0002D81B9F1000F00F00781FFF7C7FE00F0A3
:1013C00061FFFFF7B9FE94F84430FF2B08BF84F8A3
:1013D000446094F84530FF2B08BF84F84560FFF760
:1013E000B5FE01A902A801F031FA002840F01581EC
:1013F000FFF7A2FEA26BE36B9A427FD0FFF7A6FE37
:10140000FFF79AFE94F845304FFA83FABAF1000FCD
:101410001ADD636AC3B104F1240907E00AF1FF335E
:10142000DBB24FFA83FA7BB1636A6BB1484601F0D5
:10143000B1F90028F2D001F043FA0AF1FF33DBB230
:101440004FFA83FA002BEFD1FF2384F84530FFF7E2
:101450007DFEFFF771FE94F844304FFA83FABAF13B
:10146000000F1ADD2369C3B104F1100907E00AF186
:10147000FF33DBB24FFA83FA7BB123696BB1484685
:1014800001F088F90028F2D001F01AFA0AF1FF33CE
:10149000DBB24FFA83FA002BEFD1FF2384F84430FC
:1014A000FFF754FE00F098FFFFF746FEA26BE36BD8
:1014B0009A424FF00109BFF475AF226CA66B002A67
:1014C00000F08A804146002D40F02581A06803F09D
:1014D00027FFA368216C62680B44934206F1010662
:1014E000A3607ED3A663636A2268A260002B7CD1CE
:1014F000FFF72CFE012005B0BDE8F08F04F11009C4
:10150000FFF724FE4846019901F0AAF8FFF714FE00
:1015100094F845A04FFA8AFABAF1000F1CDD636A0D
:10152000D3B104F1240B08E00AF1FF3A5FFA8AF321
:101530004FFA83FA83B1636A73B1584601F02AF90E
:101540000028F1D00AF1FF3A01F0BAF95FFA8AF304
:101550004FFA83FA002BEED1FF2384F84530FFF7D2
:10156000F5FDFFF7E9FD94F844304FFA83FABAF13C
:10157000000F06DC15E00AF1FF33DBB24FFA83FA05
:101580007BB123696BB1484601F004F90028F2D021
:1015900001F096F90AF1FF33DBB24FFA83FA002B20
:1015A000EFD1FF2384F84430FFF7D0FD00F014FFA3
:1015B00000287FF479AF4FF080537B6040BFBFF3CA
:1015C0004F8FBFF36F8F6FE702A801F033F9F4E696
:1015D000226CA66B002A6FD125680136002D00F021
:1015E0008380A663636A002B82D004F1240001F09B
:1015F000D1F800283FF47CAF0E4B4FF080525A6078
:1016000040BFBFF34F8FBFF36F8F71E70090FFF7BD
:101610009DFD009805B0BDE8F08FFFF78DFD94F8B3
:1016200045506DB2002D19DD636ABBB104F124068B
:1016300008E000BF00ED00E0013DEBB25DB26BB130
:10164000636A5BB1304601F0A5F80028F4D0013D93
:1016500001F036F9EBB25DB2002BF1D1FF2384F833
:101660004530FFF773FDFFF767FD94F844506DB206
:10167000002D16DD2369A3B104F1100605E0013D3C
:10168000EBB25DB26BB123695BB1304601F082F819
:101690000028F4D0013D01F013F9EBB25DB2002B4C
:1016A000F1D1FF2384F84430FFF750FD00F094FEA1
:1016B000002005B0BDE8F08F4146E06803F030FE41
:1016C000226CE3682168524213448B42E36018D2D3
:1016D00063681344E360022D13D00136A663636A86
:1016E000002B3FF405AF80E7606801F071F9A66355
:1016F000636A6560002B7FF478AF00287FF47CAFCD
:10170000F6E6002E7FF46DAF0123A363636A002B1E
:101710003FF4EEAE69E7E06803F002FE226CE36896
:101720002168524213448B42E360D4D2D0E700BF19
:1017300038B5EFF31184402383F31188826BC36BB8
:1017400093420ED990F8453001325BB282635A1C45
:101750000BD001335BB280F84530012084F311884F
:1017600038BD002084F3118838BD436A002BF4D0C3
:1017700024300D4601F00EF80028EED0002DECD0FC
:1017800001202860EEE700BF2DE9F047044684B051
:1017900088460192FFF7D0FCD4F83890B9F1000FD9
:1017A00040F04C81019B002B00F0E98002A801F081
:1017B00041F8AE4F4E4604F12405FFF7C7FC00F098
:1017C00061FDFFF7B9FC94F84430FF2B08BF84F8A3
:1017D000446094F84530FF2B08BF84F84560FFF75C
:1017E000B5FC01A902A801F031F8002866D1FFF785
:1017F000A3FCA36B002B40F0C880FFF7A7FC019966
:10180000284600F02DFFFFF797FC94F845304FFA7B
:1018100083F9B9F1000F06DC15E009F1FF33DBB203
:101820004FFA83F97BB1636A6BB1284600F0B2FFCF
:101830000028F2D001F044F809F1FF33DBB24FFA8F
:1018400083F9002BEFD1FF2384F84530FFF77EFCAE
:10185000FFF772FC94F844304FFA83FABAF1000FA4
:101860001ADD2369C3B104F1100907E00AF1FF335F
:10187000DBB24FFA83FA7BB123696BB1484600F0C3
:1018800089FF0028F2D001F01BF80AF1FF33DBB228
:101890004FFA83FA002BEFD1FF2384F84430FFF78F
:1018A00055FC00F099FD00285ED14FF080537B601D
:1018B00040BFBFF34F8FBFF36F8F55E0FFF73CFC86
:1018C00094F845304FFA83F9B9F1000F06DC15E0C2
:1018D00009F1FF33DBB24FFA83F97BB1636A6BB175
:1018E000284600F057FF0028F2D000F0E9FF09F188
:1018F000FF33DBB24FFA83F9002BEFD1FF2384F8DB
:101900004530FFF723FCFFF717FC94F844304FFAFB
:1019100083FABAF1000F1ADD2369C3B104F110098B
:1019200007E00AF1FF33DBB24FFA83FA7BB1236998
:101930006BB1484600F02EFF0028F2D000F0C0FF47
:101940000AF1FF33DBB24FFA83FA002BEFD1FF230A
:1019500084F84430FFF7FAFB00F03EFDFFF7ECFBA4
:10196000A36B63B1FFF7F2FBFFF7E6FBD4F8389007
:10197000B9F1000F62D1019B002B7FF41EAFFFF77E
:10198000E5FB002004B0BDE8F087FFF7DFFBFFF7C1
:10199000D3FB94F845304FFA83F9B9F1000F06DC18
:1019A00015E009F1FF33DBB24FFA83F97BB1636ACB
:1019B0006BB1284600F0EEFE0028F2D000F080FF68
:1019C00009F1FF33DBB24FFA83F9002BEFD1FF238C
:1019D00084F84530FFF7BAFBFFF7AEFB94F84430CC
:1019E0004FFA83FABAF1000F1ADD2369C3B104F18B
:1019F000100907E00AF1FF33DBB24FFA83FA7BB13B
:101A000023696BB1484600F0C5FE0028F2D000F013
:101A100057FF0AF1FF33DBB24FFA83FA002BEFD105
:101A2000FF2384F84430FFF791FB00F0D5FCFFF76B
:101A300083FBD4F83890B9F1000F9CD0226C52B1DE
:101A4000E168636811449942E16024BF2168E16064
:101A5000404603F065FC09F1FF33A36323693BB9FA
:101A6000FFF774FB012004B0BDE8F08700ED00E053
:101A700004F1100000F08EFE0028F1D0044B4FF06E
:101A800080525A6040BFBFF34F8FBFF36F8FE7E7BD
:101A900000ED00E02DE9F043044685B000250191FA
:101AA000FFF74AFBA36BA64FA8462E46002B40F03B
:101AB000FD80019B002B00F07E81B8F1000F00F04B
:101AC000E780FFF743FB00F0DDFBFFF735FB94F801
:101AD0004430FF2B08BF84F8446094F84530FF2B56
:101AE00008BF84F84560FFF731FB01A902A800F0A8
:101AF000ADFE00286CD1FFF71FFBA36B002B40F05D
:101B0000E680FFF723FB2368002B00F04B8104F1F4
:101B100024094846019900F0A3FDFFF70DFB94F856
:101B200045304FFA83F8B8F1000F06DC15E008F1F4
:101B3000FF33DBB24FFA83F87BB1636A6BB148467F
:101B400000F028FE0028F2D000F0BAFE08F1FF33C2
:101B5000DBB24FFA83F8002BEFD1FF2384F8453036
:101B6000FFF7F4FAFFF7E8FA94F844304FFA83F8F5
:101B7000B8F1000F1ADD2369C3B104F1100907E0C1
:101B800008F1FF33DBB24FFA83F87BB123696BB105
:101B9000484600F0FFFD0028F2D000F091FE08F169
:101BA000FF33DBB24FFA83F8002BEFD1FF2384F829
:101BB0004430FFF7CBFA00F00FFC00286ED14FF055
:101BC00080537B6040BFBFF34F8FBFF36F8F65E0E3
:101BD000FFF7B2FA94F845304FFA83F8B8F1000FE6
:101BE0001ADD636AC3B104F1240907E008F1FF3389
:101BF000DBB24FFA83F87BB1636A6BB1484600F001
:101C0000C9FD0028F2D000F05BFE08F1FF33DBB223
:101C10004FFA83F8002BEFD1FF2384F84530FFF70C
:101C200095FAFFF789FA94F844304FFA83F8B8F13F
:101C3000000F1ADD2369C3B104F1100907E008F1B0
:101C4000FF33DBB24FFA83F87BB123696BB14846AF
:101C500000F0A0FD0028F2D000F032FE08F1FF33C2
:101C6000DBB24FFA83F8002BEFD1FF2384F8443026
:101C7000FFF76CFA00F0B0FBFFF75EFAA36B5BB9FD
:101C8000FFF764FA002D7BD1284605B0BDE8F0834C
:101C900002A800F0CFFD14E7FFF758FAFFF74CFA5F
:101CA000A36B4FF00108002B3FF403AF2268013B08
:101CB000A363002A00F099802369002B40F0848000
:101CC000FFF744FA0125284605B0BDE8F083FFF789
:101CD0003DFAFFF731FA94F845304FFA83F8B8F13E
:101CE000000F1ADD636AC3B104F1240907E008F1AB
:101CF000FF33DBB24FFA83F87BB1636A6BB14846BE
:101D000000F048FD0028F2D000F0DAFD08F1FF33C2
:101D1000DBB24FFA83F8002BEFD1FF2384F8453074
:101D2000FFF714FAFFF708FA94F844304FFA83F8F3
:101D3000B8F1000F1CDD2369D3B104F1100909E0EB
:101D400000ED00E008F1FF33DBB24FFA83F87BB11E
:101D500023696BB1484600F01DFD0028F2D000F069
:101D6000AFFD08F1FF33DBB24FFA83F8002BEFD160
:101D7000FF2384F84430FFF7E9F900F02DFB8DE7ED
:101D8000FFF7DAF9616A19B1236B1968C1F1030130
:101D9000606800F05FFEFFF7D9F90025284605B01E
:101DA000BDE8F083FFF7C8F9606800F0BBFD0546A9
:101DB000FFF7CCF9ABE60093FFF7C8F9009B1D468F
:101DC000284605B0BDE8F08304F1100000F0E2FC05
:101DD00000283FF475AF074B4FF080525A6040BF68
:101DE000BFF34F8FBFF36F8F6AE700F079FE60603B
:101DF00062E700BF00ED00E0074B1A681AB19A686D
:101E000002B17047012210B403EBC20443F8321050
:101E100060605DF8044B7047A418002070B504465C
:101E20000D461646FFF788F994F84430FF2B04BF9F
:101E3000002384F8443094F84530FF2B04BF00237E
:101E400084F84530FFF782F9A36B002B47D0FFF7EA
:101E500073F994F845506DB2002D16DD636AA3B195
:101E600004F1240605E0013DEBB25DB26BB1636A9B
:101E70005BB1304600F08EFC0028F4D0013D00F04C
:101E80001FFDEBB25DB2002BF1D1FF2384F845308A
:101E9000FFF75CF9FFF750F994F844506DB2002D4C
:101EA00016DD2369A3B104F1100605E0013DEBB294
:101EB0005DB26BB123695BB1304600F06BFC00286A
:101EC000F4D0013D00F0FCFCEBB25DB2002BF1D18F
:101ED000FF2384F84430BDE87040FFF737B932463D
:101EE000294604F1240000F003FCB0E72DE9F84F87
:101EF00095000746284689469846FFF719F80028B6
:101F000000F08C8006464820FFF712F804460028AF
:101F100000F0888006632A463046A52103F00EFAB9
:101F200099F8003084F83430D4F830B043B199F8DF
:101F3000013084F835301BB199F8023084F836301E
:101F40000A9E022E28BF02264FF0000A04F104095F
:101F5000E662A663484684F837A0C4F83CA0043D76
:101F6000FFF720F8C6F1030604F118005D44FFF7FF
:101F700019F8C4F840A0A66125F0070084F844A031
:101F80002461646242463946FFF79AF80B9B206051
:101F900003B11C60FFF7D0F83A4A3B4F1368013396
:101FA00013603B68002B43D0DFF81081E36AD8F858
:101FB000002022B93A68D26A9A4298BF3C60334AFC
:101FC000DFF8FCC01668DCF800E0314801252E443B
:101FD000166005FA03F203EB830342EA0E0200EBFC
:101FE00083004946CCF80020FEF7E0FFFFF7AEF88B
:101FF000D8F800307BB13A68E36AD26A9A420AD2D2
:10200000244B4FF080525A6040BFBFF34F8FBFF355
:102010006F8F284600E02846BDE8F88F4FF0FF306C
:10202000BDE8F88F3046FEF7AFFF4FF0FF30F3E723
:102030003C601368012B03D0E36ADFF88080BEE7C1
:102040001348154E154DDFF87480FEF79FFF1448B6
:10205000FEF79CFF1348FEF799FF3046FEF796FF08
:102060002846FEF793FF1048FEF790FF0F48FEF753
:102070008DFF0F48FEF78AFF0E4B0F4A16601D605A
:10208000E36A9CE7D016002088160020E0160020A6
:102090009416002000ED00E0E8160020FC16002059
:1020A000A8160020BC1600201C170020481700208E
:1020B00034170020901600208C16002030170020C6
:1020C000E41600202DE9F843F020FEF731FF002848
:1020D0006DD005464820FEF72BFF0446002868D047
:1020E000F022A5210563284603F028F90025504B6E
:1020F000636304F104084046266BE562C4E90E55AB
:10210000FEF750FF04F11800FEF74CFF032306F121
:10211000EC002A462564A3614649246120F00700AB
:1021200084F844506462FEF7CBFF434B20601C6090
:10213000FFF702F8414A424F1368013313603B68CE
:10214000002B4AD03F4DE36A2A6822B93A68D26A26
:102150009A4298BF3C603C4ADFF820C11668DCF820
:1021600000E03A480136166001229A4003EB8303EF
:1021700042EA0E0200EB83004146CCF80020FEF755
:1021800015FFFEF7E3FF2B686BB13A68E36AD26A8A
:102190009A4208D22E4B4FF080525A6040BFBFF394
:1021A0004F8FBFF36F8F00F005FE012806D0BDE80A
:1021B000F8832846BDE8F843FEF7E6BE402383F3E4
:1021C0001188244B24494FF0FF3400220C60286012
:1021D0001A60BDE8F843FEF789BF3C601368012B25
:1021E00002D0E36A174DB6E71848DFF894901B4E0B
:1021F000144DFEF7CBFE1A48FEF7C8FE1948FEF74D
:10220000C5FE4846FEF7C2FE3046FEF7BFFE164842
:10221000FEF7BCFE1548FEF7B9FE1548FEF7B6FE00
:10222000144B154AC2F800901E60E36A93E700BFA2
:1022300049444C000D25000010170020D016002046
:102240008816002030170020E01600209416002089
:1022500000ED00E05C17002014170020FC160020A1
:10226000A8160020BC1600201C17002048170020CC
:1022700034170020901600208C160020E416002051
:10228000E8160020024A136801331360704700BF4C
:10229000DC160020014B1868704700BF5C17002057
:1022A000024A136818441060704700BF5C17002092
:1022B0002DE9F04F3D4B1B6883B0002B64D13C4BA4
:1022C0001F6801371F60002F3DD03A4B01931B68F8
:1022D000BB424FD8384EDFF8F480DFF8F4A0DFF8C7
:1022E000F490002526E03368DB68DC68636804F15D
:1022F000040B9F42584655D3FEF77EFEA36A04F1B5
:1023000018000BB1FEF778FEE06AD8F80020012330
:10231000834000EB8000134359460AEB8000C8F865
:102320000030FEF743FED9F80030E26ADB6A9A42D9
:1023300028BF012533681B68002BD4D1019A4FF0C8
:10234000FF33136017E01C4E1C4B31681C4A1868A1
:102350003060196013680133136033681B68C3B9B8
:10236000144B01931A464FF0FF33136013461B685A
:10237000BB42AFD90025134B1B68002B0CBF28466E
:10238000012003B0BDE8F08F0F4A136801331360DA
:10239000F0E73368074ADB680192DB685B6813602B
:1023A000134694E7019A1360E5E700BFDC160020AE
:1023B0005C170020141700208C16002090160020B7
:1023C0001817002060170020D8160020E4160020FF
:1023D00094160020881600202DE9F84FFEF7ACFE79
:1023E0003F4B1A68013A1A601B68002B60D13D4BC5
:1023F0001B68002B5CD0DFF808B1DBF80030002B45
:102400006AD0394DDFF8FC80384FDFF8FC900126A8
:10241000DBF80C30D3F80CA00AF104040AF1180020
:10242000FEF7EAFD2046FEF7E7FDDAF82C002A6801
:1024300006FA00F300EB80001343214608EB80000E
:102440002B60FEF7B3FD3B68DAF82C20DB6A9A427A
:1024500034D3C9F80060DBF80030002BD8D1244B0E
:102460001A681268002A32D01A68224BD268D268E1
:1024700052681A60204E346844B10125FFF718FFF6
:1024800008B1C9F80050013CF8D13460D9F80030E7
:1024900073B11A4B4FF080525A6040BFBFF34F8F59
:1024A000BFF36F8F0124FEF751FE2046BDE8F88F81
:1024B0000024FEF74BFE2046BDE8F88FDBF8003025
:1024C000002BA5D10A4B1A681268002ACCD1094BFF
:1024D0004FF0FF321A60CDE7DFF82C90CAE700BF5B
:1024E000DC160020D0160020E416002088160020FC
:1024F0008C16002014170020D816002000ED00E0F4
:102500001C17002094160020601700202DE9F84FBA
:10251000334CDFF8E890334D334E344FDFF8E08032
:10252000DFF8E0B018E0FEF707FED9F80C30D3F87A
:102530000CA00AF10400FEF75FFD2B68013B2B6045
:102540002368013B2360FEF701FEDAF83000FEF756
:102550001BFD5046FEF718FD2368002BE3D13368BE
:10256000012B08D94FF08053CBF8043040BFBFF3A4
:102570004F8FBFF36F8F3B68012BD8F80030DB6AB9
:1025800003D9002BE8D13368E6E7002BE4D13368A8
:10259000012BE1D8164B174A1B6812689B1A012BB6
:1025A000DAD9154A1368013313603B68012BD8F858
:1025B0000030DB6A04D903B93368FFF70DFFCBE7BE
:1025C000002BFAD13368012BF7D8094B1868094B57
:1025D0001B68C01A0128F0D9FEF726FEEDE700BF00
:1025E000D4160020D016002094160020E4160020F7
:1025F000141700205C170020DC160020481700206C
:102600008816002000ED00E0104B1B681BB1104B3A
:1026100001221A6070470E490E4A0B6013680E4A79
:10262000B3FA83F3C3F11F0303EB83039B00D018BA
:1026300008334168496841601344994204BF4968BE
:102640004160064BCA681A60704700BFDC16002064
:1026500060170020E4160020941600208816002041
:1026600070B51C4D2B680C4603F11801FEF7AAFC4F
:10267000194B1E6828680430FEF7BEFC40B92B6871
:102680001649D86A0B680122824023EA02030B60D4
:10269000631C17D02B68A4195C6007D3104B186813
:1026A0002968BDE870400431FEF78CBC0D4B1868FA
:1026B00029680431FEF786FC0B4B1A68944238BF38
:1026C0001C6070BD296809480431BDE87040FEF700
:1026D0006DBC00BF881600205C170020E4160020A7
:1026E000901600208C1600201417002034170020AC
:1026F000F8B5214D2B680C4603F118011746FEF77B
:1027000055FC1E4B1E68286804302FBBFEF774FC76
:1027100050B92B681A49D86A0B680122824023EA13
:1027200002030B60631C1DD02B6834195C600BD254
:10273000144B186829680431FEF744FC124B1A68E0
:10274000944200D21C60F8BD104B18682968BDE89F
:10275000F8400431FEF736BCFEF74EFC20B94FF0CE
:10276000FF34D6E7002FDFD0296809480431BDE8DF
:10277000F840FEF71BBC00BF881600205C17002045
:10278000E41600208C16002014170020901600205C
:1027900034170020F8B5C368DC6804F11805284632
:1027A000FEF72AFC1B4B1B68002B2DD1261D1A4D52
:1027B0003046FEF721FCE26A2F6818480123934057
:1027C00002EB82023B43314600EB82002B60FEF7B6
:1027D000EDFB134BE26A1B68DB6A9A4282BF114B26
:1027E00001201860104B1A68126898BF002022B9A7
:1027F0000E4B4FF0FF321A60F8BD1A680B4BD268CF
:10280000D26852681A60F8BD29460948FEF7CEFB27
:10281000DFE700BFDC160020E4160020941600203D
:1028200088160020601700208C1600201417002046
:102830001C170020034A044B12681B68C0E90023E0
:10284000704700BF181700205C170020F8B50D4630
:102850000446FEF771FC2B68174A581C11681ED0FD
:10286000DFF858C0D4E90060DCF80070BE4206D042
:10287000884204D80125FEF769FC2846F8BD0F1AE6
:10288000BB4211D95B1ADCF80010126803442B60BC
:102890000025C4E90012FEF759FC2846F8BD0025C2
:1028A000FEF754FC2846F8BD00232B600125FEF7F7
:1028B0004DFC2846F8BD00BF5C170020181700200B
:1028C000014B01221A60704760170020094B1868FD
:1028D00018B9094B1B6813B1704700207047074AAD
:1028E000074B10681B68013B984214BF012002206F
:1028F000704700BF1C17002060170020341700200D
:10290000D0160020054B1B6833B1054B1B68002B0C
:102910000CBF0220002070470120704730170020B4
:10292000DC16002018B3F8B5264CC36A2268D26AB8
:10293000934214D28269002A04DB2268D26AC2F16F
:1029400003028261204D426903EB830305EB83039D
:102950009A420DD02368DB6AC3620120F8BD236868
:10296000806BDB6A98422CBF00200120F8BD7047C5
:10297000071D06463846FEF73FFB70B9F16A134A59
:1029800001EB81039B00EB5843B91368012000FA67
:1029900001F123EA0103136000E00C4A2368D2F836
:1029A00000C0D86AF062012404FA00F300EB800052
:1029B00005EB800043EA0C0339461360FEF7F6FA94
:1029C0002046F8BD8816002094160020E41600204A
:1029D00050B1F8B5C36BC16A826B013B9142C363CE
:1029E00000D01BB10020F8BD00207047071D044631
:1029F0003846FEF701FBC0B11448154EA36BD6F85C
:102A000000E0E3620125C3F1030C05FA03F203EBD6
:102A1000830342EA0E0200EB83003946C4F818C073
:102A20003260FEF7C3FA2846F8BDE26A0748084E4E
:102A300002EB82039B00C358002BDFD133680121D6
:102A400001FA02F223EA02023260D7E7941600206C
:102A5000E416002058B1F8B5826BC36A914238BFC2
:102A600011468B4202D0C26B012A01D0F8BD7047DB
:102A70008269194DC162002A03EB83034269A8BF32
:102A8000C1F1030105EB8303A8BF81619A42EDD137
:102A9000071D04463846FEF7AFFAE36A70B101221B
:102AA0000E4E9A40980034681844224305EB80008B
:102AB00039463260BDE8F840FEF778BA9800C11890
:102AC000890001226958054E9A400029EBD13168EE
:102AD00021EA02013160E6E794160020E4160020A6
:102AE000044B1A681AB11968CA6B0132CA631868B4
:102AF000704700BF881600202DE9F0431D4EDFF817
:102B00007C9085B04FF000080CE0DB68DC681F6843
:102B1000251D2846FEF770FA636A20469847E36948
:102B2000012B0AD033681A68002AEED1124A1168C4
:102B30003160136005B0BDE8F083A3693B449F4258
:102B4000294610D3D9F80030002BEBD0CDE900870F
:102B50000294FFF7D7FE00231A466946D9F8000011
:102B6000FEF70EFCDEE7636024613068FEF72AFAA8
:102B7000D8E700BF641700206817002098170020CE
:102B80002DE9F04F864E874CDFF82482864D8BB0BE
:102B900001273368D3F80090B9F1000F56D0DB68F5
:102BA000D3F80090FFF76EFBFFF774FB23688342B6
:102BB00083465CD88145206063D90022A9EB0B01D4
:102BC0002868FFF72BF9FFF707FC40B9774B4FF068
:102BD00080525A6040BFBFF34F8FBFF36F8F28689A
:102BE000002202A9FEF7D0FD0028D2D0029BDDF81A
:102BF00010A0002B20DBDAF814301BB10AF104001E
:102C0000FEF7FAF9FFF746FB23689842834635D36F
:102C1000029BC4F800B0092BE1D807FA03F313F4C0
:102C2000047F52D113F0C70F65D19B06D7D550460C
:102C3000FEF7AAF92868D3E7039B05995046984701
:102C4000029B002BCBDBDDF810A0D4E7FFF71AFBCB
:102C5000FFF720FB23689842834608D3D8F800305A
:102C6000C4F800B01A68B2FA82F25209A6E7FFF778
:102C700043FFC4F800B0FFF7AFFBB0E7FFF73CFF3E
:102C8000C6E7FFF7A9FB3368DB68D3F80CA00AF1AD
:102C9000040108460191FEF7AFF9DAF81C2001990A
:102CA000012A04D0DAF824305046984797E7DAF83A
:102CB0001800CAF810A009EB00025A45CAF804200F
:102CC00049D93068FEF77EF9ECE7039BCAF810A0FB
:102CD00003EB0B025A45CAF81830CAF8042053D83F
:102CE000002B3FF47CAFD8F800000AF10401FEF796
:102CF00069F9286874E7039BDAF81820CAF810A06D
:102D000099182CBF012000205945CAF8041037D863
:102D1000ABEB03039A42E6D8DAF8243050469847E2
:102D2000DAF81C302868012B7FF45AAF00283FF4F2
:102D300057AFDAF81820039B002113440691CDE920
:102D4000073AFFF7DFFD00231A4606A92868FEF7B9
:102D500017FB286844E7ABEB090B58451BD82B68D9
:102D6000002B9FD00023CDE90639CDF820A0FFF736
:102D7000C9FD00231A4606A92868FEF701FB91E762
:102D80005B4501D90028C7D030680AF10401FEF77D
:102D900019F9286824E7D8F80000FEF713F981E74D
:102DA00064170020941700209817002000ED00E021
:102DB00068170020F0B5174C83B0FEF7BDF9256801
:102DC0007DB1FEF7C3F9206848B1134B019302238C
:102DD00000935022002311491148FFF787F803B0F0
:102DE000F0BD104F104E3846FEF7D0F83046FEF7D3
:102DF000CDF80E4A0E4B176010212A4620201E6087
:102E0000FEF784FA20600028DBD00A49FEF7F4FFC1
:102E1000D7E700BF981700209C170020C854000077
:102E2000812B00006C170020801700206417002001
:102E300068170020C054000000B585B0002303903F
:102E4000194601AA44F20100CDE9013300F004F86B
:102E500005B05DF804FB00BF10B572B6FDF7D6FEF5
:102E6000FDF7B8FB0028FBD1104B114C1149E41AB7
:102E7000E408240444F00100FDF7BAFD0E4B1B6882
:102E8000DB0700D500BE44F002000C49FDF7B0FDA1
:102E9000BFF34F8F0A490B4BCA6802F4E062134339
:102EA000CB60BFF34F8F00BFFDE700BF8856000027
:102EB000B8560000D0540000F0ED00E0DC540000F3
:102EC00000ED00E00400FA0572B6024A136801330F
:102ED00013607047A0170020034A1368013B13607A
:102EE00003B962B6704700BFA017002050E8002F5A
:102EF0000B4640E8003C9CF0000FF7D110467047AD
:102F000050E8003F03EB010240E8002C9CF0000F6A
:102F1000F6D11046704700BF50E8003FA3EB010216
:102F200040E8002C9CF0000FF6D11046704700BF1F
:102F3000012350E8002F42EA030C40E800C191F061
:102F4000000FF6D160467047002350E800CF0CEA2E
:102F5000030240E8002191F0000FF6D1604670476F
:102F6000B8B130B4D0E90112521A0468D2B2531E7B
:102F70002160DBB242B101680A685C1E551C0D601D
:102F80001370E3B2FF2BF6D103680020187130BC38
:102F900070470E20704700BF38B504460020FFF789
:102FA00093FFD4E900311A688A4215D9511E19607D
:102FB0002168A3680868258A12F8012CE4681B1AA6
:102FC0000879DBB2984205FB024400D20B71002065
:102FD000FFF782FF204638BD00240020FFF77CFF6A
:102FE000204638BD38B5054600200C46FFF76CFF7B
:102FF0002A681368591C1160E9682A8A641AB4FBAC
:10300000F2F41C700020BDE83840FFF765BF00BF38
:10301000826842B110B50446436901680069984767
:103020000023A36010BD70470EB400B582B00399B1
:1030300021B104AB01AA019300F0B2F802B05DF82F
:1030400004EB03B0704700BF2DE9F04F8A4683B010
:103050009245164605469846DDE90CB1C0F09C80C5
:1030600053460127B3FBF6F39E4207F10107F9D956
:10307000474538BF474611F00103AA68009302D1C3
:10308000BBF1000F68D1012403E008F1FF3806FB13
:1030900004F4B8F1010FF8D8BAFBF4F08642F6D97F
:1030A000DFF8F8904FF00D0807E0B442B4FBF6F3F8
:1030B0001CD3BAFBF3F0AA681C4619F80030296843
:1030C0000A2B04FB10AA01EB020E02F1010028D02A
:1030D000A8608EF80030D5E901329A42E5D328463F
:1030E000FFF796FFB4FBF6F3B442E2D2009BABB11C
:1030F000BBF1000F12D0BB4510D92024AB682A6861
:10310000591CA960D454D5E901329A420BF1FF3B16
:103110001ED2BBF1000F01D0BB45EFD103B0BDE81B
:10312000F08FA86001F80280D5E90120904204D216
:103130002A6802EB000E0130CAE728460193FFF728
:1031400067FFAA682968019B501C01EB020EBFE7CC
:103150002846FFF75DFFDCE78B0717D42024BB452B
:1031600091D92B68511CA9609C54D5E901329A422F
:103170000BF1FF3B05D2BBF1000F84D0BB45F0D172
:1031800081E72846FFF744FFAA68F4E7B8F1000F8B
:103190000CBF30242024E2E7012769E7EC5400004B
:1031A000002900F0E9822DE9F04F054685B09146EF
:1031B0000C460E78DFF81CA74FF00D0B13E0AB6840
:1031C00028680A2E03F1010200EB030100F02681BA
:1031D000AA600E70D5E901329A4280F011812678FA
:1031E000002E00F014810134002E00F01081252EF5
:1031F000E5D12146002711F8012B2D2A00F0E580AA
:10320000302A00F0E6802B2A00F0D6802A2A00F02F
:103210001181A2F13006F3B2092B03D922E2A3F106
:1032200030060146084606EB860310F8012BA2F192
:103230003004092C02EB4303F1D92E2A00F0068159
:103240004FF0000802F0FB03682B01F1010405D1E7
:1032500014F8012B02F0FB03682BF9D0253A532A0E
:10326000BDD801A353F822F0FD350000DF31000086
:10327000DF310000DF310000DF310000DF3100000E
:10328000DF310000DF310000DF310000DF310000FE
:10329000DF310000DF310000DF310000DF310000EE
:1032A000DF310000DF310000DF310000DF310000DE
:1032B000DF310000DF310000DF310000DF310000CE
:1032C000DF310000DF310000DF310000DF310000BE
:1032D000DF310000DF310000DF310000DF310000AE
:1032E000DF310000DF310000DF310000DF3100009E
:1032F000DF310000DF310000DF310000DF3100008E
:10330000DF310000DF310000DF310000DF3100007D
:10331000DF310000DF310000DF310000DF3100006D
:10332000DF310000DF310000DF310000DF3100005D
:10333000DF31000015360000DF310000DF31000012
:10334000DF310000DF310000DF310000DF3100003D
:10335000DF310000DF310000DF310000DF3100002D
:10336000DB33000077350000DF310000DF31000083
:10337000DF310000DF31000077350000DF31000071
:10338000DF310000DF310000DF310000DF310000FD
:10339000DF310000EF340000DF310000DF310000DA
:1033A00095340000DF31000079340000DF31000087
:1033B000DF3100001536000047F004070C462146B7
:1033C00011F8012B2D2A7FF41BAF47F001070C46A3
:1033D000F5E747F002070C46F1E7D9F800301A1D6F
:1033E000C9F800201E78AB680A2E00F04F822A68C8
:1033F000591CA960D654D5E901329A42FFF4EFAEC8
:103400002846FFF705FE2678002E7FF4ECAE2B7BD6
:10341000002B40F0218105B0BDE8F08FAA6000F8D4
:1034200003B0D5E901329A4280F00E812968114437
:103430000132CDE6D9F800301A1DC9F800206278B3
:103440001E682E2A04F102007FF4FAAE4A78A2F137
:103450003003092B01464FF000083FF6F3AE08EBAE
:10346000880802EB480811F8012FA2F13003092B5C
:10347000A8F13008F3D9E5E6D9F800301A1DC9F8EB
:10348000002019680197434600960A222846FFF754
:10349000DBFDA4E6D9F800301A1DC9F80020D3F8E6
:1034A0000080FB0700F1EB80B8F1000F00F0EC8129
:1034B000404601F04BFF0746BE4240F25E81002EBF
:1034C00000F05B81202102E0BE4200F05681AA6834
:1034D0002B68501CA8609954D5E90123934206F14A
:1034E000FF36F1D32846FFF793FD2021ECE7D9F80A
:1034F0000020131DC9F80030AB6829681768581CF4
:103500003022A860CA54D5E90123934280F0F180AB
:103510002A68581C7821A860D154D5E90123934228
:1035200080F0E2800F2F03D93A4612090F2AFCD807
:103530004FF0805606E00F2E4FEA16137FF64FAE7F
:103540001E46AB68B7FBF6F21AF802802868B8F19D
:103550000A0F06FB127700EB030103F1010267D0AB
:10356000AA6081F80080D5E901329A42E3D3284667
:10357000FFF74EFDDFE7D9F800301A1DC9F800202B
:10358000196881EAE172A2EBE172092A4FF00100A9
:103590000BDDDFF844C300E01A46ACFB02E3632A0C
:1035A00000F101004FEAD303F6DC4045034638BF83
:1035B0004346029307F00203002E57D00029C0F2C1
:1035C0009D807A0700F19A80002B00F09980B8F175
:1035D000000F40F095800029C0F237817A0700F192
:1035E000478107F00303022B00F0FE80CDE900675E
:1035F00043460A222846FFF727FDF0E5AB682A6814
:10360000581C2521A860D154D5E901329A42FFF413
:10361000E6ADF5E6D9F800301A1DC9F800201968A2
:1036200001974346009610222846FFF70DFDD6E588
:10363000AA6000F803B0D5E901329A4280F0948084
:103640002B68991801328BE72846FFF7E1FCAB683D
:1036500029685A1C1944BBE5284605B0BDE8F04F5F
:10366000FFF7D6BC084600262146E6E52BB1B8F1A7
:10367000000F00F02881F807ADD40026ABE798F8DA
:103680000020002A00F02381AB684746C8F1010101
:10369000D5F800E00A2A01EB07080EEB030C03F152
:1036A000010055D0A8608CF80020D5E90123934291
:1036B00043D217F8012F002AEAD146457FF68FAD95
:1036C000202702E046453FF48AADAA682B68511CCA
:1036D000A9609F54D5E901329A4206F1FF36F1D331
:1036E0002846FFF795FCEDE72846FFF791FCAB680D
:1036F00018E72846FFF78CFCAB6809E7013E63E753
:10370000F8073FF568AF002EB7D0029BB342BFF475
:1037100062AF2023AA68501CA86028688354D5E9AA
:103720000102824206F1FF3680F0BF80002EA4D055
:10373000029AB242EED116464DE728460291FFF7B3
:1037400067FC17F8012F002AB7D0AB6802999FE7F2
:10375000A8600EF803B0D5E90130984260D22B681A
:1037600003EB000C01309DE72846FFF751FCA968E8
:103770002B684A1C1944F3E6704798F80060002E45
:103780003FF42DADAB6828680A2E03F1010200EB6F
:10379000030111D0AA600E70D5E9012393421BD218
:1037A00018F8016F002E3FF41AAD28680A2E03F1B5
:1037B000010200EB0301EDD1AA6000F803B0D5E9E6
:1037C00001329A4239D2296811440132AA600E703E
:1037D000D5E901239342E3D32846FFF719FC18F8F3
:1037E000016F002ECED1FAE4B8F1000F7FF4FEAEE7
:1037F000002E6AD0029BB342BFF4F8AE3023AA6811
:10380000501CA86028688354D5E90102824206F161
:10381000FF3651D2002E58D0029AB242EFD1E5E6DF
:103820002846CDE90221FFF7F3FBAB682A68581C54
:1038300002EB030CDDE9022134E72846FFF7E8FB41
:10384000AB6829685A1C1944A4E7AA68531CAB60EA
:103850002B682D209854D5E901329A42C1F100011C
:10386000FFF4BFAE28460391FFF7D2FB0399B8E6F9
:10387000AA68531CAB602B682B209854D5E9013201
:103880009A42FFF4AEAEEDE7474615E62A68591CAA
:10389000A96002F803B0D5E901239342FFF4A7AD74
:1038A0002846FFF7B5FBAB68A1E528460391FFF773
:1038B000AFFB2023039939E728460391FFF7A8FBC4
:1038C00030230399A6E7464685E600268EE6904615
:1038D000F3E600BFEC540000CDCCCCCCFFF740BBEE
:1038E0002DE9F041058ACF1C043D2F440646B7FB65
:1038F000F5F7FFF751FB002834D0FFB24FF4807387
:10390000013F0446C580066083802CD08046002598
:1039100009E06379AF4203F101036371C8F8000065
:10392000066080461FD03046FFF736FB0135002881
:10393000EFD194F805802768B8F1010316D03D4611
:10394000013083422D68FBD1B8F1000F0AD0002668
:1039500001E03C463F68214601362846FFF742FB1E
:10396000B045F6D800242046BDE8F081214638460F
:10397000FFF738FBF6E700BF04300121FFF7C0BABC
:103980002DE9F041012104460430FFF7C5FAC0B229
:1039900008B1BDE8F08194F805802568B8F101030D
:1039A00014D02E46013083423668FBD1B8F1000FA7
:1039B000EFD0002701E02C462D6821460137304624
:1039C000FFF710FBB845F6D8BDE8F0812146284640
:1039D000BDE8F041FFF706BB2DE9F8430546C68870
:1039E0004079144606FB00F2043A04EB030C1F1D59
:1039F000624538BFD41ABE428846B7FBF6F106FBD3
:103A0000117002D801392D68FCD1371AA74228BF9E
:103A100027469CB14FF000090430E41B28443A4685
:103A200008EB090101F07CFCA642B9442D68374639
:103A30004FF0000028BF2746002CEDD1BDE8F883E9
:103A40002DE9F8430546C6884079144606FB00F286
:103A5000043A04EB030C1F1D624538BFD41ABE4262
:103A60008846B7FBF6F006FB107102D801382D68C6
:103A7000FCD1771AA74228BF27469CB14FF0000916
:103A800004312944E41B3A4608EB090001F048FCE4
:103A9000A642B9442D6837464FF0000128BF27469B
:103AA000002CEDD1BDE8F883826800239360826822
:103AB0001361826853618268D36082685360826850
:103AC0001360704710B568B90E4CA368012262708C
:103AD0003BB1D3E900230020A2609847A368002BE4
:103AE000F7D110BD0128FCD1064C2369A070002B32
:103AF000F7D0D3E900230120226198472369002BE6
:103B0000F7D110BDA417002038B50A4C237813B1A3
:103B10008525284638BD08486360A3602361E360BB
:103B200000F03AF8054600F043F8012323702846D8
:103B300038BD00BFA4170020C53A000038B5154DA8
:103B4000AB78044673B110B1436801209847002058
:103B5000FFF7BAF9EB680133EB600020BDE83840AD
:103B6000FFF7BAB903F0FF00FFF7AEF964B12A69B5
:103B700042B1944208D0134601E09C4204D01B6835
:103B8000002BFAD122602C61EB68002BE2D100F00F
:103B900021F8DFE7A4170020044A137923B9012193
:103BA000106091801846704785207047B817002034
:103BB000074B1A68D20704D4C021012283F80013EE
:103BC0001A604FF080430122C3F81825704700BFE8
:103BD00000E100E010B4094B094A0021196083B0EC
:103BE0001B680193019C4FF0804102200123C1F822
:103BF0000403136003B05DF8044B704704010040F8
:103C00000800004010B5154B1A6882B062B100215F
:103C1000134A19601B68507900934FF080410123CB
:103C2000009CC1F80833A8B10E4B1A6882B100227B
:103C30001A601B6801934FF080420221084B0198E3
:103C4000C2F808131B68012002B0BDE810401847F5
:103C500002B010BD116853718847E5E700010040CC
:103C6000B8170020040100402DE9F047002388B078
:103C7000CDE90233C84A1668012E00F047821E467D
:103C8000C64B1A68012A00F03382C54B1A68012A14
:103C900000F02082C34B1A68012A00F00D82C24B4B
:103CA0001A68012A00F0FA81C04B1A68012A00F054
:103CB000E781BF4B1A68012A00F0D481BD4B1A6816
:103CC000012A08D0BC4B1A68012A00F02A820EBBD8
:103CD00008B0BDE8F087B94AD2F804231706F1D539
:103CE00000221A6019680091603319680098012950
:103CF00046F080060ED11A601B6801934FF0A04277
:103D0000019BD2F81025AE4B0292D3F810350393E5
:103D100046F00046AB4F00240125A30003F1804389
:103D20002E4203F5C0434FEA45050BD0D3F81005EA
:103D300057F82420D3F81015C0F30520C1F3014132
:103D400002B190470134082CE7D1002EC0DA0DF102
:103D500010089C4C9A4F0023C8F80430049394F93F
:103D600060304FF0FF304FF0FF315D1CCDE90601B0
:103D70004FF0010600F0F5805FFA83FC2CF0C000E4
:103D800008AB4FEAD00903EB090E0CF007031EF84D
:103D9000082C06FA03F312EA030521D022184FEA91
:103DA0009C1192F9302054F82220002A00F034812E
:103DB000032900F033811F2800F2E98005464FF007
:103DC000A04C0CEB850C1EF8185CDCF800E71D40DD
:103DD000CEF3014E40F0CF80BEF1030F00F0B3816F
:103DE00094F96130581C32D0DBB223F0C00008AA2D
:103DF0004FEAD00E02EB0E0C03F007011CF8082C62
:103E000006FA01F912EA090F21D02218990992F94C
:103E1000302054F82220002A00F01081032900F0FD
:103E200010811F2800F2F48003464FF0A04E0EEBE5
:103E300083031CF818ECD3F800C71EEA090FCCF373
:103E4000014C40F0D980BCF1030F00F08E8194F951
:103E50006230591C32D0DBB223F0C00008AA4FEA0E
:103E6000D00E02EB0E0C03F007011CF8082C06FA2A
:103E700001F912EA090F21D02218990992F930208C
:103E800054F82220002A00F0CF80032900F0CF80D0
:103E90001F2800F2A58003464FF0A04E0EEB8303CF
:103EA0001CF818ECD3F800C71EEA090FCCF3014C3C
:103EB00040F08A80BCF1030F00F06B8194F963300D
:103EC0005A1C33D0DBB223F0C00008AA4FEAD00E50
:103ED00002EB0E0C03F007021CF8081C06FA02F2B3
:103EE000114223D004EB0009990999F9309054F854
:103EF0002990B9F1000F00F0AB80032900F0AB80EE
:103F00001F288BBFBE464FF0A04E03F01F03034691
:103F10000EEB83031CF818ECD3F800C71EEA020F5F
:103F2000CCF3014C60D1BCF1030F1CD0002D3FF449
:103F3000CFAE4FF0A042029BD2F81015D7F8100573
:103F40008B4203D1039B83423FF4C2AEDDE90423DD
:103F5000CDE9062394F960305D1CCDE902107FF4B1
:103F60000BAF00253CE7032900F02981B9F1000FD0
:103F7000DCD0C847DAE7BEF1020FF2D1032900F026
:103F800039810025002A3FF42BAF904728E70CF039
:103F90001F05BC4615E700BF0061004004610040FA
:103FA000086100400C610040106100401461004055
:103FB000186100401C6100407C61004000600040CE
:103FC00000030050C0170020BCF1020F7FF476AF51
:103FD000032900F00C81002A3FF470AF90476DE791
:103FE00003F01F03BE4659E7BCF1020F9ED103291F
:103FF000BCD14FF4403CE4E0BCF1020F7FF427AFAA
:10400000032900F0F180002A3FF421AF90471EE71A
:1040100003F01F03BE460AE70329A2D118F809508E
:104020001D4308F80950C6E603297FF447AF18F886
:104030000EA04AEA090A08F80EA029E703297FF42E
:1040400006AF18F80EA04AEA090A08F80EA0E8E63A
:1040500003297FF46BAF18F80EA04AEA020A08F8A9
:104060000EA04DE7654AD2F8042352067FF526AE2E
:1040700000221A601B680093009B46F040061DE674
:104080005E4AD2F8042391067FF513AE00221A602F
:104090001B680093009B46F020060AE6574AD2F8B8
:1040A0000423D0067FF500AE00221A601B6800933F
:1040B000009B46F01006F7E5504AD2F80423140797
:1040C0007FF5EDAD00221A601B680093009B46F05F
:1040D0000806E4E5494AD2F8042355077FF5DAAD2E
:1040E00000221A601B680093009B46F00406D1E58D
:1040F000424AD2F8042397077FF5C7AD00221A6021
:104100001B680093009B46F00206BEE53B49D1F8D0
:10411000041311F0010150D0136013680093009B49
:10412000AEE500221A601B6801934FF0A042019B8C
:10413000D2F81025324B0292D3F810350393002E9B
:104140003FF405AEE4E503297FF41CAF4FF40035DE
:10415000DCF8003723F44033CCF80037DCF80037C4
:104160002B43CCF8003701250CE703297FF44BAF34
:104170004FF4003ED3F800C72CF4403CC3F800C70E
:10418000D3F800C701354EEA0C0CEDB2C3F800C7F6
:1041900039E703297FF41FAF4FF4003ED3F800C77F
:1041A0002CF4403CC3F800C7D3F800C701354EEAF1
:1041B0000C0CEDB2C3F800C70DE70E4660E54FF4F6
:1041C000003CD3F8002722F44032C3F80027D3F88C
:1041D0000027013542EA0C02EDB2C3F80027B9F11D
:1041E000000F7FF4C6AEA4E64FF4403EC2E74FF4A2
:1041F000403ED3E74FF44035AAE700BF00600040DF
:104200000003005070B41D4D43791D4C45F8232028
:1042100003EB4303E35C6BBB8A7890F904305201F3
:10422000002BD2B220DB03F1604303F5614383F836
:10423000002390F90430134E012503F01F025B099F
:1042400005FA02F246F8232003680A88C3F8082515
:1042500043790879C97803EB4303E218E5545070B9
:104260009170002070BC7047074D03F00F031D4490
:104270002A76DEE7082070BC704700BF30180020A7
:104280002C18002000E100E0FCEC00E00368044A88
:1042900001211960437903EB43030221D154704794
:1042A0002C180020F0B44FF480350468244E8D4063
:1042B000C4F848530468C4F80853447904EB440430
:1042C000344482B0647822F07F425CB3046801F524
:1042D000A87744F827200468D4F804C5ACEB02079B
:1042E0009445427902EB4202164438BF07F1FF17AA
:1042F000B27838BF07F57F47BA421CDC2BB90020E3
:10430000C4F8445302B0F0BC70475031890089B200
:1043100000236350625803680192019AC3F8045362
:104320000468ECE7046801F5A87644F826200468E0
:10433000002BE4D0E9E70D2002B0F0BC704700BFCD
:104340002C1800202DE9F041274F284EDFF8A080DF
:1043500084B000244FF48035D7F804332B4211D0B9
:1043600056F824200023E0B262B1C7F84853C7F8DA
:10437000085346F8243056F824300393D8F8003018
:10438000039A98470134042C4FEA4505E4D1164BB3
:10439000D3F80423D10702D5D3F80021C2B9124BB8
:1043A000D3F80423920710D5D3F804216AB1002270
:1043B000C3F80421D3F804210D4B0192019A1B6824
:1043C000052004B0BDE8F041184704B0BDE8F08115
:1043D0000022C3F80021064AD3F800310293204698
:1043E0001368029A9847DAE70040024040410240D1
:1043F0003018002070B51B4A1B491C48FFF702FF0C
:1044000050BB01234FF4804200211848FFF74AFFB8
:1044100028BB1648164C174D174EFFF737FF0322DF
:1044200000210120FCF772FF144B28601C1BE408DC
:10443000240444F0030420463146FCF7D9FA002056
:10444000FCF72EFDFCF7C6F80028FBD14FF0FF313A
:104450002868FDF71FFBEEE7FEF7EEFCD1E7FEF75D
:10446000EBFCD6E7814400003055000028550000E1
:10447000885600003418002018550000B856000077
:1044800010B582B0002401200194FCF709FD114B06
:104490001148D3F8402502F58042214622F07F42A0
:1044A0000123FFF7FFFE88B90C4B01A91868FDF73F
:1044B0003FF9019B43B10A4B4FF080525A6040BF15
:1044C000BFF34F8FBFF36F8F02B010BDFEF7B4FC88
:1044D000EAE700BF004002402855000034180020E1
:1044E00000ED00E000B583B0FFF70EFB38BB012004
:1044F000FCF7F0FC4FF400410020FCF709F808BB82
:10450000FBF7F6FF114B12481249C01AC00800040D
:1045100040F00300FCF76CFA0F4B01930223009369
:104520004FF4827200230D490D48FDF7DFFC0D4A60
:10453000136943F004031361FDF7C4FDFEE7FEF7C2
:104540007BFCD4E7FEF778FCDAE700BF8856000072
:10455000B85600003855000038180020605500009B
:10456000F543000000ED00E010B44FF080414FF043
:1045700080520020C1F80C015E4BC1F81001C1F857
:104580003805D2F80414C3F82015D2F80814C3F87B
:104590002415D2F80C14C3F82815D2F81014C3F857
:1045A0002C15D2F81414C3F83015D2F81814C3F827
:1045B0003415D2F81C14C3F84015D2F82014C3F8EF
:1045C0004415D2F82414C3F84815D2F82814C3F8B7
:1045D0004C15D2F82C14C3F85015D2F83014C3F887
:1045E0005415D2F83414C3F86015D2F83814C3F84F
:1045F0006415D2F83C04C3F86805D2F840043E497B
:10460000C3F86C050968D2F84424C3F8702508295A
:1046100024D04FF08043D3F80024D20744BF6FF07A
:104620000102C3F80024354AD2F8883043F47003FD
:10463000C2F88830BFF34F8FBFF36F8F4FF0102356
:10464000D3F80022002A23DBD3F80432002B1FDB2F
:104650002B4B2C4A1A605DF8044B70472A4B1B68A1
:10466000002BD6D129482A4A2A4C04602A492B4BD0
:10467000FB20C2F818050A681B68294822F00F02BF
:1046800003F00F0313434FF400720B600260C0E7A6
:10469000244A0123C2F80435D2F80034002BFBD0A1
:1046A0004FF0102312211F4AC3F80012D2F8003431
:1046B000002BFBD04FF0102312211A4AC3F804122A
:1046C000D2F80034002BFBD000231649C2F8043581
:1046D000D1F80034002BFBD0BFF34F8F0749124BAA
:1046E000CA6802F4E0621343CB60BFF34F8F00BF90
:1046F000FDE700BF00C000403001001000ED00E009
:104700001C0000200090D003340100108C560040A3
:1047100000F0004048810300E40E00405802001001
:104720004096024000E001400400FA0530B585B033
:10473000047845688DF80040D0E90240064A074BEE
:10474000039053F8213001958DF8084052F821105C
:104750006846984705B030BD3C180020441800203A
:1047600030B585B0047845688DF80040D0E9024046
:10477000064A074B039053F8213001958DF8084005
:1047800052F821106846984705B030BD3C1800200B
:10479000441800202DE9F043DFF8748006784B7F41
:1047A00008F806300D46074696460FCD89B06C4690
:1047B0000FC495E80F003D78DFF85890DFF858C037
:1047C00018F8055049F826E084E80F004CF8260058
:1047D000049665B1BEF1000F0B4A694607F104006B
:1047E00008BF002200F060FB09B0BDE8F083BEF115
:1047F000000F064A694607F10C0008BF002200F0CE
:10480000EDF809B0BDE8F0832D47000061470000D6
:10481000B4180020441800203C18002030B56D4A20
:10482000D2F8043399058BB066D5D2F82431002B29
:1048300062D00023C2F82431D2F8243103934FF41C
:104840000171654B0398C2F8081393F8291009B950
:10485000012151605F4902228DF81820D1F880248F
:10486000C1F880249869D96809920022CDE907101F
:10487000C3E90622D3E9001406A8A047554AD2F896
:104880001C31C3B1544B186A5969884269D293F8F4
:10489000280000F0FF04002863D1C2F81C41D2F8C0
:1048A0001C11029102999C68186A196A205C0131F6
:1048B0001962C2F81C05474AD2F84431D3B100212D
:1048C000454BC2F84411D2F8440193F829100090E6
:1048D000009800295AD19A6962B10022586AD968B1
:1048E0009A610122CDE907108DF8182006A8D3E9B6
:1048F000001290470BB030BD364AD2F804335B0744
:10490000BCD5D2F80831002BB8D0334B99690029B7
:104910003FD00021C2F80811D2F80811049104997F
:10492000D868596AD2F8182542545A6A99690132EE
:104930005A625A6A8A42A1D1DA691968002A31D0CA
:10494000D8685D6A1C699A61079000220120DC60CA
:10495000DA615A628DF8180008955B6806A89847D6
:104960008CE71C4A0020C2F81C01D2F81C210192DD
:10497000019A00299FD09A688DF818000891586113
:10498000079206A8D3E90012904794E7012111602D
:10499000A1E7C2F80811D2F8080105900598D2F8ED
:1049A0001825C6E793F8292012B90A4A0120506059
:1049B000084A4FF40170C2F80803586ADA68089090
:1049C0000024012007928DF818005A689C6106A8FF
:1049D000904753E7002000404C1800202DE9F0419B
:1049E000DFF8D48107792C2606FB078682B096F87B
:1049F0002A30002B40F098800C4605466949006833
:104A0000164600F02BFC002840F08A802368591CD1
:104A100019D01F2B4FF001028ABF63494FF0A0410C
:104A200003F01F0302FA03F3C1F8083523681F2BB4
:104A300086BF03F01F035C4A4FF0A04203F5E0730A
:104A4000032142F8231063685A1C0BD01F2B86BF2A
:104A500003F01F03544A4FF0A04203F5E073002116
:104A600042F823102B68A269C3F82425217D637DB9
:104A70002A680B43C2F86C35D4E900122B68C3F8DE
:104A80001425C3F80C15237D012B57D02C2303FBD1
:104A900007F308EB03025660226948F8032066B367
:104AA0002A68237F414C0021C2F81C11D2F81C2136
:104AB00000922A68009EC2F84411D2F844112A6874
:104AC00001910199C2F804432A68120B51B25B01AB
:104AD0000029DBB22CDB01F1604101F5614181F875
:104AE00000332B68324C1B0B5AB2520903F01F03E0
:104AF000012101FA03F344F822302C232C6803FB34
:104B00000783002204250121C4F8005583F82A10E8
:104B1000C3E9062283F829205A6102B0BDE8F0817A
:104B2000112002B0BDE8F081082002B0BDE8F0819C
:104B3000204902F00F0211440B76D2E7A368591CFA
:104B40000BD01F2B86BF03F01F0317494FF0A04166
:104B500003F5E073002241F82320E3685A1C1AD0C1
:104B60001F2B8ABF10494FF0A04103F01F03012201
:104B700002FA03F3C1F80835E3681F2B88BF03F07E
:104B80001F0303F5E0738CBF07494FF0A0410322D8
:104B900041F82320E3682A68A168C2F80835C2F802
:104BA000101573E71D48000000030050800002004C
:104BB00000E100E0FCEC00E04C180020F8B53A4FB2
:104BC000047902682C2303FB047300215B68C2F89C
:104BD000001583B10368354AC3F808230368344DD0
:104BE0001B0B5AB25209203203F01F03012101FAB4
:104BF00003F345F8223003684FF0FF3CD3F80C650F
:104C0000D3F81455D3F80825D3F81015C3F814C5F4
:104C1000C3F80CC503686645C3F808C5C3F810C5DA
:104C20000CD01F2E86BF06F01F06224B4FF0A0436C
:104C300006F5E0764FF0020C43F826C06E1C0BD050
:104C40001F2D86BF05F01F051A4B4FF0A04305F539
:104C5000E075022643F825604D1C0BD01F2986BF46
:104C600001F01F01134B4FF0A04301F5E071022545
:104C700043F82150531C0BD01F2A86BF02F01F029D
:104C80000C4B4FF0A04302F5E072022143F82210D2
:104C9000006800F001FB2C2303FB0474002384F85C
:104CA0002A306360F8BD00BF4C1800208402020067
:104CB00000E100E000030050F0B5314E05792C23EF
:104CC00003FB056385B05C69002C4DD11C629960C3
:104CD00083F828405A610268C2F81C41D2F81C11BE
:104CE000026802910121029F91600268D3F808C016
:104CF000C2F81C41D2F81C1101910199D3F820E0AF
:104D0000196A5F681CF80EE001311962C2F81CE5EF
:104D100017B1204605B0F0BD1A6A5C69016894427B
:104D200003D819E093F828200ABBD1F81C21002AE7
:104D3000F8D0C1F81C71D1F81C210392039AD3F862
:104D400020E01A6A1CF80EE001321A62C1F81CE574
:104D50001A6AA242E9D30168D1F81C31002BFBD0BA
:104D60000123CB60002003E0112005B0F0BD0F202F
:104D70002C2303FB056500236B6105B0F0BD00BF6C
:104D80004C180020F0B5464BD3F8242189B0002AF6
:104D900055D00021C3F82411D3F824210292022215
:104DA0008DF81020029AD3F880043E4AC3F880049C
:104DB0000790D3F83C05D3680690C2E90611059325
:104DC0001168536804A89847354BD3F844214AB179
:104DD0000021344AC3F84411D3F844019169019089
:104DE0000198D9B92E4BD3F82021AAB10021C3F8DC
:104DF0002011D3F820012B4A00900098506958B137
:104E0000D3F84C05936806908DF810105161059306
:104E100004A8D2E90013984709B0F0BDD3F83C3597
:104E2000D168069300240025012305918DF81030E8
:104E3000C2E90645D2E9001304A89847D2E7D3F89F
:104E400010110029C0D0C3F81021D3F81011154853
:104E5000039103998169D3F83C458C42B4D1C5696B
:104E6000C768D0E900168DB1D3F800C285612CF077
:104E70002005C261C3F800520369C3600122CDE975
:104E800005748DF8102004A8B0479DE701238561C3
:104E9000CDE905748DF8103004A8B04794E700BF41
:104EA00000200040781800202DE9F0430779794E62
:104EB0004FEAC70808EB070306EB830385B093F8B6
:104EC0002030002B40F0A8800D460446724900684F
:104ED000914600F0C3F9002840F09A802B68591CD5
:104EE00019D01F2B4FF001028ABF6C494FF0A0412F
:104EF00003F01F0302FA03F3C1F808352B681F2BD8
:104F000086BF03F01F03654A4FF0A04203F5E0732C
:104F1000032142F823106B685A1C0BD01F2B86BF4D
:104F200003F01F035D4A4FF0A04203F5E073002138
:104F300042F823102368AA69C3F82425297D6A7DD5
:104F400023680A43C3F86C25D5E900312268C2F80A
:104F50000C35C2F814152B7D012B67D008EB070226
:104F60009200B318C3F804902B69B350B9F1000F45
:104F70003DD021682B7F4A4D0022C1F81021D1F885
:104F8000101100912168DDF800C0C1F82021D1F88E
:104F9000201101912168DDF804C0C1F82421D1F865
:104FA000241102912168DDF808C0C1F84421D1F82C
:104FB0004411226803910399C2F804532268120B2A
:104FC00051B25B010029DBB22ADB01F1604101F53E
:104FD000614181F800332368324D1B0B5AB25209EC
:104FE00003F01F03012101FA03F345F8223047447F
:104FF000226806EB8706002301240821C2F8001569
:1050000086F82040C6E90633736105B0BDE8F08339
:10501000112005B0BDE8F083082005B0BDE8F0839D
:10502000214902F00F0211440B76D4E7AB68591CFA
:105030000BD01F2B86BF03F01F0318494FF0A04170
:1050400003F5E073002241F82320EB685A1C1AD0C4
:105050001F2B8ABF11494FF0A04103F01F0301220B
:1050600002FA03F3C1F80835EB681F2B88BF03F081
:105070001F0303F5E0738CBF08494FF0A0410322E2
:1050800041F82320EB682268A968C2F80835C2F805
:10509000101563E778180020854D000000030050CC
:1050A0001003020000E100E0FCEC00E0F8B5077935
:1050B0003A4C0268FE00F31904EB830300215B689D
:1050C000C2F8001583B10368354AC3F808230368A2
:1050D000344D1B0B5AB25209203203F01F03012139
:1050E00001FA03F345F8223003684FF0FF3ED3F88E
:1050F0000CC5D3F81455D3F80825D3F81015C3F808
:105100000CE5C3F814E50368F445C3F808E5C3F8F3
:1051100010E50DD0BCF11F0F86BF0CF01F0C224B09
:105120004FF0A0430CF5E07C4FF0020E43F82CE06A
:105130006B1C0CD01F2D86BF05F01F051A4B4FF0BE
:10514000A04305F5E0754FF0020C43F825C04D1C57
:105150000BD01F2986BF01F01F01134B4FF0A04356
:1051600001F5E071022543F82150531C0BD01F2A92
:1051700086BF02F01F020C4B4FF0A04302F5E07215
:10518000022143F822103E4404EB8604006800F03C
:1051900083F8002384F820306360F8BD781800207D
:1051A0001003020000E100E00003005001F0604342
:1051B000B3F1005F2DD1F0B40579244EEF007C19D6
:1051C00006EB840482B06369002B39D16261A1606F
:1051D0000268C2F82031D2F820C10268CDF804C0BC
:1051E000DDF804C0C2F85831D2F8582100920268A4
:1051F000DDF800C0D4F814C0C2F84415C2F848C5A0
:1052000002680121916062682AB1184602B0F0BCC0
:10521000704710207047036800E0AAB9D3F8201146
:10522000D3F858210029F8D0002A14BF0F200020FD
:105230007B1906EB830300225A6102B0F0BC704771
:10524000112002B0F0BC70470F20F1E77818002061
:10525000014B1B68184700BF9C18002038B50C4B49
:10526000984213D100200D46FDF72EFE094B1C7904
:1052700024B10020FDF730FE112038BD0122204668
:105280001D601A71FDF728FE204638BD002038BD8C
:10529000002000409C180020034B984203D1034B90
:1052A00000221A601A717047002000409C180020EC
:1052B00008B5074B044613B10021AFF30080054B3E
:1052C0001868836A03B19847204600F047F800BF8A
:1052D000000000008056000070B50D4D0D4C641BA1
:1052E000A4100026A64209D10B4D0C4C00F038F852
:1052F000641BA4100026A64205D170BD55F8043BDE
:1053000098470136EEE755F8043B98470136F2E737
:105310008000002080000020800000208400002009
:105320000A44914200F1FF3300D1704710B511F8E3
:10533000014B03F8014F9142F9D110BD02440346DD
:10534000934200D1704703F8011BF9E7034613F8B5
:10535000012B002AFBD1181A01387047FEE700BF65
:10536000F8B500BFF8BC08BC9E467047F8B500BF52
:10537000F8BC08BC9E467047FFFFFFFFFFFFFFFF22
:10538000FFFFFFFFFFFFFFFF000000000000000025
:105390000000D60106010000D50300004104000012
:1053A000D1030000756172745F6C6F675F62616347
:1053B0006B656E6400000000E40500207F000000C3
:1053C000640600204261636B656E647320666C75D1
:1053D000736865640000000061707000385400005C
:1053E00064540000185400006C5400007454000011
:1053F0007C540000845400008C540000945400003D
:105400002025303278000000202020007C000000A1
:10541000256300000D0A00001B5B313B33316D003A
:1054200025734C6F67732064726F707065642028F9
:1054300025642925730D0A001B5B306D00000000F8
:10544000257300003C25733E2025733A20000000A0
:10545000000000009C540000A4540000AC54000064
:10546000B45400001B5B313B33306D001B5B313BA0
:1054700033326D001B5B313B33336D001B5B313BC3
:1054800033346D001B5B313B33356D001B5B313BAF
:1054900033366D001B5B313B33376D006572726FC5
:1054A000720000007761726E696E6700696E666FE8
:1054B0000000000064656275670000000D0E0F10AB
:1054C000546D725100000000546D722053766300D9
:1054D000466174616C206572726F720053797374E7
:1054E000656D2072657365740000000030313233E1
:1054F000343536373839414243444546636C6F632F
:105500006B000000434C4F434B0000004750494F95
:105510005445000052544300546869732069732055
:105520006120746573740000004002402400040090
:1055300000000641000000004672656552544F535A
:105540002052544320626C696E6B79206578616DDE
:10555000706C6520737461727465642E00000000C5
:105560004C454430000000005541525400000000FA
:105570005541525445000000505253000020202055
:1055800020202020202028282828282020202020F3
:1055900020202020202020202020202020881010C3
:1055A000101010101010101010101010100404041F
:1055B00004040404040404101010101010104141DD
:1055C00041414141010101010101010101010101CB
:1055D00001010101010101011010101010104242DF
:1055E000424242420202020202020202020202029B
:1055F000020202020202020210101010200000003B
:10560000000000000000000000000000000000009A
:10561000000000000000000000000000000000008A
:10562000000000000000000000000000000000007A
:10563000000000000000000000000000000000006A
:10564000000000000000000000000000000000005A
:10565000000000000000000000000000000000004A
:10566000000000000000000000000000000000003A
:10567000000000000000000000000000000000002A
:085680002000002000000000E2
:1056880004550000000000000C5500000000000058
:1056980078550000000000001455000000000000CC
:1056A8006855000000000000705500000000000070
:1056B800D853000000000303FC5400000000000061
:1056C8009853000000000000A453000014000020BC
:1056D800EC000020B4010020BC010020F4000020F0
:0456E80018000000A6
:0856EC0054ABFF7F0100000038
:1056F40000000000002000400000000000200040E6
:105704000000000000000000FF0000000090D00333
:105714000000000000000000000000000000000085
:105724000000000000000000000000000000000075
:105734000000000000000000000000000000000065
:105744000000000000000000000000000000000055
:105754000000000000000000000000000000000045
:105764000000000000000000000000000000000035
:08577400250200000102000003
:04000003000002B542
:00000001FF
