:1000000000000420B5020000DD020000DF02000055
:10001000E1020000E3020000E50200000000000031
:10002000000000000000000000000000E7020000E7
:10003000E902000000000000EB020000ED020000F9
:10004000EF020000EF020000CD260000EF020000EA
:10005000EF020000EF02000031210000EF0200007B
:10006000EF020000EF020000EF020000EF020000CC
:10007000EF020000EF020000EF020000EF020000BC
:10008000EF020000C10F0000EF020000EF020000CD
:1000900061100000EF020000EF020000EF0200001C
:1000A000EF020000EF020000EF020000EF0200008C
:1000B000EF020000EF02000000000000000000005E
:1000C000EF020000EF020000EF020000EF0200006C
:1000D000EF020000EF020000EF020000EF0200005C
:1000E000EF020000EF020000EF020000000000003D
:1000F00000000000EF02000000000000EF0200001E
:1001000000000000000000000000000000000000EF
:1001100000000000000000000000000000000000DF
:1001200000000000000000000000000000000000CF
:1001300000000000000000000000000000000000BF
:1001400000000000000000000000000000000000AF
:10015000000000000000000000000000000000009F
:10016000000000000000000000000000000000008F
:10017000000000000000000000000000000000007F
:10018000000000000000000000000000000000006F
:10019000000000000000000000000000000000005F
:1001A000000000000000000000000000000000004F
:1001B000000000000000000000000000000000003F
:1001C000000000000000000000000000000000002F
:1001D000000000000000000000000000000000001F
:1001E000000000000000000000000000000000000F
:1001F00000000000000000000000000000000000FF
:1002000010B5054C237833B9044B13B10448AFF350
:1002100000800123237010BD880000200000000032
:100220003837000008B5034B1BB103490348AFF34F
:10023000008008BD000000008C000020383700005E
:10024000154B002B08BF134B9D46A3F5803A0021A8
:100250008B460F461348144A121A03F0E5F80F4B69
:10026000002B00D098470E4B002B00D09847002061
:10027000002104000D000D48002802D00C48AFF307
:10028000008003F09FF82000290002F069FF03F0CE
:1002900085F800BF000008000000042000000000F6
:1002A00000000000880000208008002000000000FE
:1002B000000000000649074A074B9B1A03DD043B78
:1002C000C858D050FBDC02F087FFFFF7B9FF0000F1
:1002D000903700000000002088000020FEE7FEE7C5
:1002E000FEE7FEE7FEE7FEE7FEE7FEE7FEE7FEE7E6
:1002F000F0B595B0002415460F4608461E4601F09D
:10030000F9FD384623460895082205A91A9D099645
:100310000D950A948DF82C400C9401F04FFE9DF839
:1003200014308DF81140DDE9061003F00302012AB4
:10033000CDE9020127D0022A04D0384601F0DEFDC3
:1003400015B0F0BDBDF81650C3F3C2038DF81030E0
:10035000AD090826082D2C4628BF0824334622461E
:100360000EA9384601F02AFE2D1B214608AB02AA31
:100370000EA8264400F016FD002DEBD1384601F002
:10038000BDFD15B0F0BDBDF81460059DC6F3831624
:10039000C3F3C204B2000EA9384608238DF81040FA
:1003A000C5F3952501F00AFE08AB324628460EA992
:1003B000009302AB00F080FC384601F09FFD15B0C1
:1003C000F0BD00BF014B01221A707047E800002009
:1003D000704700BF00B583B0044B0093044A40232C
:1003E000FFF786FF03B05DF804FB00BFF5030000D4
:1003F000A800002038B50E480E4D03780E4CEB5C7B
:100400000025D2B2257053B1043002F057FE58B91E
:100410000A4B1B7813B12378002BFCD038BD0C306D
:1004200002F0D2FB0028F3D000F082FDF0E700BF1D
:10043000000000207C080020E8000020A40000202C
:1004400030B51448144A0378D35C89B0BBB104308A
:1004500002F0B4FD114D0FCD6C460FC495E80F00AE
:10046000062584E80F00002269460A48009501F03D
:100470001BFE40B90A4B00221A7009B030BD0C3087
:1004800002F024FBE6E700F053FD054B00221A7052
:1004900009B030BD000000207C080020643400005A
:1004A000A400002030B50E4D0FCD89B06C460FC4AE
:1004B00095E80F00062584E80F000A4A0A480095CF
:1004C000694601F0F1FD20B9084B01221A7009B00C
:1004D00030BD00F02DFD054B01221A7009B030BD72
:1004E00064340000C503000000000020A4000020C8
:1004F00008B5FFF7D7FF0421034800F04DFB034B7D
:1005000001225A7108BD00BF6437000014000020AA
:1005100038B50C4B0C48002400250022FF21C3E90C
:100520000045C3F81824996083F82024C3F81424E4
:1005300001F092FC044610B9044801F073FD204616
:1005400038BD00BFC001002074370000A434000093
:10055000A9B1124B12495B1ADB081AD030B4114C06
:100560002288824217D0002203E034F822508542CC
:100570000AD001329342F8D1002030BC7047084ABB
:1005800002EBC0021068704701EBC202106830BC79
:100590007047184670470A46F8E700BF6437000006
:1005A0003C37000088000020094B013903EBC000F4
:1005B00003290BD8DFE801F0020806040220704787
:1005C00040797047007970470420704700207047D9
:1005D0003C3700002DE9F04F9D4CD4E900239A42AE
:1005E00089B000F030810023C4F81834BFF34F8F76
:1005F000D4E9013503EA0501CA1C04EB820614F8AC
:10060000222050071BD52768327802F00302012A06
:1006100000F00781022A03D17288023303EB9213A0
:1006200003EA0501D4F81804CA1C04EB820630B9A9
:100630009F4240F2048114F822205207E4D404EBD4
:1006400081015A1CC96802912A4004EB820201F020
:100650000301D2680392022903F1020600F002812D
:10066000012900F06581D4F810543DB12B6828466B
:100670009B689847EB681D68002DF7D1754A764B4B
:10068000D4F808809B1ADB080020019300F0DAFE02
:10069000D4E90132D4F8009013440133A3EB0903E9
:1006A000012B00F294816D4D2F1FA5F10806012149
:1006B000284600F0E3FE384600F0F8FE304600F031
:1006C000F5FED4E9013E03EA0E01C81C04EB8002EA
:1006D00014F8200010F0040000F0A08003F1020CD8
:1006E00092F800B00BF0030BBBF1010FE24600F0F3
:1006F0009080BBF1020F7CD0CA1C04EB8202002860
:10070000EED104EB81010133CA68059203EA0E03BE
:1007100004EB830302F00302012AD96800F087800A
:10072000022A5CD1BDF816309B0903334FEA114B06
:100730000AEB930A304600F0C5FE5946002856D011
:100740002846C4F804A000F099FED4E901322168DB
:10075000134401335B1A012BA9D90A400332052344
:100760000231002044F82230216000F073FE0021A5
:100770003A4800F079FE80F3100009F1010303EA22
:100780000803BDF8042004EB830308EA090808F114
:10079000030842EA0042DA6054F82820304B63F341
:1007A0009F2222F47F7323F0030343F0110344F8E4
:1007B000282024F8283094F820343BB9D4E90030BC
:1007C000C01A18BF012009B0BDE8F08FFFF702FF83
:1007D0000028F3D0FFF7FEFE0028F7D1EEE7304601
:1007E00000F070FE4FF0000B59460028A8D12846B3
:1007F000A9E753880CEB93130EEA0301CA1C03F11B
:10080000020C14F82200E24604EB820200F004001D
:1008100075E71388C3F383136344EDE703F1020A1A
:100820006FE732880233C2F383121344F8E6BDF84F
:100830001430C3F383134FEA114B9A447AE767608D
:1008400009B0BDE8F08F002009B0BDE8F08F00BF0F
:10085000C00100203C3700005C370000DC050020B0
:10086000B0340000BDF80A305F484FEA9319B9F17F
:10087000500FC84628BF4FF0500868F38F1308F197
:100880000801ADF80A3001F0E9FA074600283FF404
:10089000EAAE01F02FFB082200230DEB02013846DF
:1008A00001F058FB25EA060301339B0098457BD9EC
:1008B000002B00F08E8005EA0601A8EB0308DDB2EC
:1008C000033104EB81012A46082338465FFA88F891
:1008D00001F040FB424605F108034449384601F067
:1008E00039FB09F1030906EB9909D4F81834002BF8
:1008F00069D1D4F8105465B1EB685A792846394665
:10090000002A5CD02B681B689847EB681D68002D97
:10091000F2D1384601F0F2FA002000F093FDD4F84D
:1009200018340BB9C4F80490002000F093FD45E79B
:10093000BDF808202C48C2F38313062B28BF0623DA
:1009400063F3891202339900ADF8082001F086FAAA
:10095000074600283FF487AE01F0CCFA08220023B6
:100960000DEB0201384601F0F5FABDF8083013F43A
:10097000707F36D04FF0000805EA06014FEA880381
:100980000331083304EB81010422384601F0E2FA16
:10099000BDF8083008F10108C3F3831306F101091B
:1009A00043454E46E8D8A0E705EA0601033104EBCB
:1009B000810142460823384601F0CCFA91E71D68D0
:1009C000002D99D1A5E7384601F098FAF6E6494698
:1009D000C3E65FFA88F208230449384601F0BAFA00
:1009E0007FE7B14681E700BF74370000CC010020EB
:1009F0002DE9F04F654C87B0804600200191A56835
:100A000000F020FDD4E9012326681A440132921B2C
:100A1000012A00F2B88004F21C4704F214490121B3
:100A2000384600F02BFD5A4800F040FD484600F0E3
:100A30003DFDD4E9013E03EA0E00C21C04EB820135
:100A400014F8222012F0040200F09A8003F1020C44
:100A500091F800B00BF0030BBBF1010FE24600F080
:100A60008A80BBF1020F00F1030B74D004EB8B0101
:100A7000002AEDD104EB80000133C268039203EA3F
:100A80000E0304EB830302F00302012AD9685AD053
:100A9000022A55D1BDF80E309B0903334FEA114BA2
:100AA0000AEB930A484600F00DFD5946002845D050
:100AB0003846C4F804A000F0E1FCD4E90113226830
:100AC00019440131891A0129A9D91340033302328B
:100AD0000521002044F82310226000F0BBFC002117
:100AE0002C4800F0C1FC80F31000731C2B4004EB79
:100AF000830300043540033540EA1840D86014F8F9
:100B0000253068F3C50304F82530019B54F82520EF
:100B100063F39F2222F4717323F0030343F0010374
:100B200044F8252024F8253094F820341BB1FFF731
:100B300051FD0028FBD107B0BDE8F08F3846BAE779
:100B40004FF0000BAEE7BDF80C30C3F383134FEA50
:100B5000114B9A44A6E74B880CEB93130EEA030063
:100B6000C11C03F1020C14F82120E24604EB8101C0
:100B700002F004027CE70B88C3F383136344EDE7C0
:100B800003F1020A76E732469FE700BFC00100206A
:100B9000D8050020DC050020F0B41B4ED6F8103438
:100BA0000746002B2DD0DC6825790021A942084694
:100BB00017D0234603E0DB681A798A4211D01B68FC
:100BC000002BF8D1FB681871D6F810349BB1DA68A5
:100BD000FB6812681A60D6F81034DB681F60F0BC3E
:100BE0007047092901F1010301D01946DEE74FF0F2
:100BF000FF30F0BC7047C6F81074FA681360F0BCA0
:100C000070471846DEE700BFC001002038B5094B29
:100C1000D3F81044012583F820544CB1E3685D718A
:100C2000236820465B689847E3681C68002CF5D170
:100C300038BD00BFC001002030B5C38883B0044672
:100C40000D4613BB217A05291DD0637AA08873B99C
:100C5000124B53F821400021FFF77AFC104903465C
:100C60002246284603B0BDE8304000F09BBCFFF7A9
:100C70009BFC0C4B0C4953F82020284600F092FCBA
:100C8000217AA088E4E703B030BD084A0092084901
:100C9000084A284600F086FCD4E700BF3C35000037
:100CA00030350000C83400002C3500002435000029
:100CB0000C350000043500002DE9F04385B01D46D9
:100CC0000C9C002381460E46174694F80C80237333
:100CD00021462846FFF7B0FF062F09D8DFE807F0C6
:100CE000042E343B444F1F004946204600F05AFC76
:100CF0002B7A052B05D06B7A5BB92749204600F08B
:100D000051FC204600F042FC84F80C8005B0BDE8A0
:100D1000F083224A2249204600F044FCEDE7D6E960
:100D20000413F2680393B3680291CDE90032494697
:100D3000D6E90023204600F035FCD9E73268494661
:100D4000204600F02FFCD3E74946D6E90023204691
:100D500000F028FCCCE7B36800934946D6E90023AD
:100D6000204600F01FFCC3E7D6E90232019200934F
:100D70004946D6E90023204600F014FCB8E7D6E93E
:100D80000321B3680291CDE900324946D6E9002338
:100D9000204600F007FCABE70035000024350000DA
:100DA0002C350000082900D970472DE9F04F1D4669
:100DB00083B000241B7B2C7307460E461046294641
:100DC00091460193DFF8C8A0DFF8C880FFF734FF31
:100DD00005E03A5D013400F0E5FB082C09D0A6429D
:100DE00041462846F5D85146013400F0DBFB082C7B
:100DF000F5D12249DFF8A0A0214CDFF8A0802846D9
:100E000000F0D0FB4FF0000B0EE012F8081011F0CC
:100E1000970F08BF2E22214628460BF1010B00F048
:100E2000C1FBBBF1080F10D05E4505D917F80B20A8
:100E30007E2AEAD92E22EEE7514628460BF1010B15
:100E400000F0B0FBBBF1080FEED199F80830052B8C
:100E500002D099F809305BB90A49284600F0A2FB94
:100E6000284600F093FB019B2B7303B0BDE8F08F85
:100E7000054A0649284600F095FBEDE7F8340000E6
:100E8000FC34000000350000243500002C35000043
:100E9000F4340000EC340000383500003136000036
:100EA0000A4B185C1F288ABF09494FF0A04100F087
:100EB0001F00D1F804350122824022EA03001340CA
:100EC000C1F80805C1F80C35704700BFA83500000F
:100ED00000030050C20730B40ED483070AD54FF088
:100EE000A0430C22C3F82C27C3F83027C3F860278F
:100EF000C3F8642730BC70474FF0A0430322C3F807
:100F000034274FF40055C3F838274FF48044C3F812
:100F10003C274FF40041C3F840274FF48032C3F818
:100F20000855C3F80845C3F80815C3F80825D4E7E1
:100F300000B585B000230390194601AA44F20100D0
:100F4000CDE9013300F004F805B05DF804FB00BF03
:100F500010B572B6FFF75AFEFFF73CFB0028FBD135
:100F6000104B114C1149E41AE408240444F0010028
:100F7000FFF73EFD0E4B1B68DB0700D500BE44F0BB
:100F800002000C49FFF734FDBFF34F8F0A490B4BAA
:100F9000CA6802F4E0621343CB60BFF34F8F00BF17
:100FA000FDE700BF3C3700005C370000AC350000B7
:100FB000F0ED00E0B835000000ED00E00400FA05B7
:100FC000F8B52049204B0024C1F84041C1F8444104
:100FD000C1F84841C1F84C41C1F80041C1F8044191
:100FE0001B6833B31948D1F8045501681A686D1AA3
:100FF00025F07F45AA4227460DD8197CDE69AD1A37
:10100000144419B11F74D3E9052090471EB133462B
:101010001A68AA42F1D90E490E4A0B7812789A4200
:1010200008D00D490D4A41F823404FF48013C2F80F
:101030000031F8BD531CDBB2022B08BF00230B703C
:10104000EFE700BF001001409C0700209807002038
:1010500095070020940700208C07002000E100E0A5
:101060002DE9F04FB14AB24913780978B14E99424F
:1010700085B0356800F089810133DBB2022B08BFEF
:101080000023AD491370AD4AD1F800C052F82320B7
:101090000CEB020323F07F430B60002D00F0C281B4
:1010A0002B689A42C0F0C08100273846BE4603E054
:1010B0000B68934200F26C81EC68C5F800E0D21A2C
:1010C0001844E9693CB10CEB000323F07F43C5E908
:1010D0000134EF612F460D460029E9D1316000252A
:1010E0004FF0010A964B9749DFF86C9243F00103E9
:1010F00001934FF00008002F33D0D7E901BE3C46E2
:10110000FF698D4B90481A68ABEB020323F07F43D5
:10111000834200F201817344236000203268E06161
:10112000C4E9010001202074002A00F0F380106857
:10113000984208D3DFE0DEF800C0DC4580F0E080B4
:1011400072465B466046D2F81CE0A3EB000BBEF192
:10115000000FF0D1C4F800B0C4F81CE0D461002F37
:10116000CBD191F801E0087870454AD084460CEB69
:101170004C0C8B7801EBCC0C421CD0B283429CF817
:101180000430087004BF00200870022BDCF808400F
:1011900025D0032B19D0012BE6D1237C002BE3D1E2
:1011A000DCF80CB0C4F804B0DCF810E0C4F808E0D7
:1011B000DCF81420E26099F80020DCF81800A06147
:1011C000002A9ED063609B469BE73368002BCBD000
:1011D00000221A74DB69002BFBD13360C1E733684E
:1011E0005BB19C4200F0BA809B4602E0944261D021
:1011F0009346DBF81C20002AF8D1002323747045A5
:10120000B4D13668B8F1000F01D1B5422CD086B305
:10121000494A4E4B1468D3F80475DFF838813668B4
:1012200098F800203D1B25F07F450335002A00F08B
:10123000B680AE422CBFA4196419444A24F07F44FE
:10124000C2F84045D2F80435DB1BE41B23F07F4392
:1012500024F07F440333A34200F2BA80002389F8CC
:10126000003005B0BDE8F08FBAF1000FF6D0002EC7
:10127000CED1364D364A324C4FF400314FF48033E4
:101280000127C2F880103C43C5F848334FF43C6056
:10129000C5F808336F60A047274BAF604FF43C6040
:1012A0001E60A0472B4B1E70002389F8003005B04C
:1012B000BDE8F08F5C4553D0E069D4F800E0CBF88E
:1012C0001C0000285BD09C460268724402606345A3
:1012D00018BF4FF001080023087891F801E023744B
:1012E0008DE7326800230120C4E90033A360E36185
:1012F00020747AB110683460C31A1360E261FAE6B0
:101300006044C31ACEF80030C4F800B0C4F81CE042
:10131000D46124E73460EEE6A2EB0B0222F07F42B8
:101320007245DED2AEEB02032360F6E6940700209E
:10133000950700209C070020980700208C070020BC
:10134000D03500007C060020FEFF7F000010014029
:1013500000E100E08907002088070020A34622461C
:10136000D3F81CC0C6F800C0BCF1000F45D0D0694E
:10137000D2F800E0CBF81C000028A5D1A7E7002395
:10138000087891F801E0237439E70027BA46A9E606
:1013900031600D469B1A0B604FF0010AA2E624490A
:1013A000244A4FF48030C3F844034FF0010AC3F8D5
:1013B00004034FF40030C1F8800142F001020860DC
:1013C000C3F800A04FF43C60904788F800A030E7D5
:1013D000184BD2F80415C2F8401543F001034FF43E
:1013E0003C609847124B4FF40032C3F800210023B1
:1013F00089F8003005B0BDE8F08FCDE902320E4B20
:10140000DFF83CE001209860019B89F80000CEF8ED
:1014100000C04FF43C609847D6F800C00749DDE9AA
:101420000232A4E72F465AE629460027B2E700BF5A
:1014300000E100E0D0350000001001407C060020F3
:101440009807002072B6024A136801331360704790
:10145000A0070020034A1368013B136003B962B67A
:10146000704700BFA007002050E8002F0B4640E85F
:10147000003C9CF0000FF7D11046704750E8003F49
:1014800003EB010240E8002C9CF0000FF6D110465F
:10149000704700BF50E8003FA3EB010240E8002C7A
:1014A0009CF0000FF6D11046704700BF012350E8B2
:1014B000002F42EA030C40E800C191F0000FF6D182
:1014C00060467047002350E800CF0CEA030240E872
:1014D000002191F0000FF6D160467047B8B130B4EA
:1014E000D0E90112521A0468D2B2531E2160DBB255
:1014F00042B101680A685C1E551C0D601370E3B2AE
:10150000FF2BF6D103680020187130BC70470E2005
:10151000704700BF38B504460020FFF793FFD4E9B9
:1015200000311A688A4215D9511E19602168A368D2
:101530000868258A12F8012CE4681B1A0879DBB2C6
:10154000984205FB024400D20B710020FFF782FF96
:10155000204638BD00240020FFF77CFF204638BD20
:1015600038B5054600200C46FFF76CFF2A68136863
:10157000591C1160E9682A8A641AB4FBF2F41C70E1
:101580000020BDE83840FFF765BF00BF826842B168
:1015900010B5044643690168006998470023A360B9
:1015A00010BD70470EB400B582B0039921B104ABF1
:1015B00001AA019300F0B2F802B05DF804EB03B0A9
:1015C000704700BF2DE9F04F8A4683B0924516461A
:1015D00005469846DDE90CB1C0F09C8053460127D2
:1015E000B3FBF6F39E4207F10107F9D9474538BF2F
:1015F000474611F00103AA68009302D1BBF1000F26
:1016000068D1012403E008F1FF3806FB04F4B8F1C7
:10161000010FF8D8BAFBF4F08642F6D9DFF8F8905B
:101620004FF00D0807E0B442B4FBF6F31CD3BAFB4D
:10163000F3F0AA681C4619F8003029680A2B04FB4D
:1016400010AA01EB020E02F1010028D0A8608EF86A
:101650000030D5E901329A42E5D32846FFF796FFDC
:10166000B4FBF6F3B442E2D2009BABB1BBF1000F86
:1016700012D0BB4510D92024AB682A68591CA96038
:10168000D454D5E901329A420BF1FF3B1ED2BBF193
:10169000000F01D0BB45EFD103B0BDE8F08FA860CB
:1016A00001F80280D5E90120904204D22A6802EBB9
:1016B000000E0130CAE728460193FFF767FFAA68CA
:1016C0002968019B501C01EB020EBFE72846FFF77B
:1016D0005DFFDCE78B0717D42024BB4591D92B682D
:1016E000511CA9609C54D5E901329A420BF1FF3B91
:1016F00005D2BBF1000F84D0BB45F0D181E728466D
:10170000FFF744FFAA68F4E7B8F1000F0CBF3024DC
:101710002024E2E7012769E7D8350000002900F01E
:10172000E9822DE9F04F054685B091460C460E78CA
:10173000DFF81CA74FF00D0B13E0AB6828680A2EEA
:1017400003F1010200EB030100F02681AA600E7094
:10175000D5E901329A4280F011812678002E00F0FE
:1017600014810134002E00F01081252EE5D1214690
:10177000002711F8012B2D2A00F0E580302A00F017
:10178000E6802B2A00F0D6802A2A00F01181A2F1EF
:101790003006F3B2092B03D922E2A3F13006014649
:1017A000084606EB860310F8012BA2F13004092C41
:1017B00002EB4303F1D92E2A00F006814FF0000816
:1017C00002F0FB03682B01F1010405D114F8012B91
:1017D00002F0FB03682BF9D0253A532ABDD801A3A8
:1017E00053F822F0791B00005B1700005B17000024
:1017F0005B1700005B1700005B1700005B17000021
:101800005B1700005B1700005B1700005B17000010
:101810005B1700005B1700005B1700005B17000000
:101820005B1700005B1700005B1700005B170000F0
:101830005B1700005B1700005B1700005B170000E0
:101840005B1700005B1700005B1700005B170000D0
:101850005B1700005B1700005B1700005B170000C0
:101860005B1700005B1700005B1700005B170000B0
:101870005B1700005B1700005B1700005B170000A0
:101880005B1700005B1700005B1700005B17000090
:101890005B1700005B1700005B1700005B17000080
:1018A0005B1700005B1700005B1700005B17000070
:1018B000911B00005B1700005B1700005B17000026
:1018C0005B1700005B1700005B1700005B17000050
:1018D0005B1700005B1700005B1700005719000042
:1018E000F31A00005B1700005B1700005B17000095
:1018F0005B170000F31A00005B1700005B17000085
:101900005B1700005B1700005B1700005B1700000F
:101910006B1A00005B1700005B170000111A000033
:101920005B170000F51900005B1700005B17000053
:10193000911B000047F004070C46214611F8012BCB
:101940002D2A7FF41BAF47F001070C46F5E747F05F
:1019500002070C46F1E7D9F800301A1DC9F800203B
:101960001E78AB680A2E00F04F822A68591CA960C5
:10197000D654D5E901329A42FFF4EFAE2846FFF77C
:1019800005FE2678002E7FF4ECAE2B7B002B40F07A
:10199000218105B0BDE8F08FAA6000F803B0D5E959
:1019A00001329A4280F00E81296811440132CDE65D
:1019B000D9F800301A1DC9F8002062781E682E2A56
:1019C00004F102007FF4FAAE4A78A2F13003092B49
:1019D00001464FF000083FF6F3AE08EB880802EB33
:1019E000480811F8012FA2F13003092BA8F13008A3
:1019F000F3D9E5E6D9F800301A1DC9F800201968B6
:101A00000197434600960A222846FFF7DBFDA4E62D
:101A1000D9F800301A1DC9F80020D3F80080FB0760
:101A200000F1EB80B8F1000F00F0EC81404601F0CE
:101A300003FD0746BE4240F25E81002E00F05B814E
:101A4000202102E0BE4200F05681AA682B68501C9B
:101A5000A8609954D5E90123934206F1FF36F1D3EA
:101A60002846FFF793FD2021ECE7D9F80020131D4D
:101A7000C9F80030AB6829681768581C3022A86084
:101A8000CA54D5E90123934280F0F1802A68581C9A
:101A90007821A860D154D5E90123934280F0E280F7
:101AA0000F2F03D93A4612090F2AFCD84FF080565F
:101AB00006E00F2E4FEA16137FF64FAE1E46AB68B8
:101AC000B7FBF6F21AF802802868B8F10A0F06FB95
:101AD000127700EB030103F1010267D0AA6081F8DD
:101AE0000080D5E901329A42E3D32846FFF74EFD44
:101AF000DFE7D9F800301A1DC9F80020196881EA1B
:101B0000E172A2EBE172092A4FF001000BDDDFF870
:101B100044C300E01A46ACFB02E3632A00F1010073
:101B20004FEAD303F6DC4045034638BF43460293F1
:101B300007F00203002E57D00029C0F29D807A07DB
:101B400000F19A80002B00F09980B8F1000F40F06E
:101B500095800029C0F237817A0700F1478107F0AC
:101B60000303022B00F0FE80CDE9006743460A2202
:101B70002846FFF727FDF0E5AB682A68581C2521A9
:101B8000A860D154D5E901329A42FFF4E6ADF5E6FA
:101B9000D9F800301A1DC9F800201968019743468A
:101BA000009610222846FFF70DFDD6E5AA6000F842
:101BB00003B0D5E901329A4280F094802B689918DD
:101BC00001328BE72846FFF7E1FCAB6829685A1C15
:101BD0001944BBE5284605B0BDE8F04FFFF7D6BC79
:101BE000084600262146E6E52BB1B8F1000F00F0CB
:101BF0002881F807ADD40026ABE798F80020002A2A
:101C000000F02381AB684746C8F10101D5F800E038
:101C10000A2A01EB07080EEB030C03F1010055D073
:101C2000A8608CF80020D5E90123934243D217F82D
:101C3000012F002AEAD146457FF68FAD202702E02A
:101C400046453FF48AADAA682B68511CA9609F5491
:101C5000D5E901329A4206F1FF36F1D32846FFF763
:101C600095FCEDE72846FFF791FCAB6818E728469E
:101C7000FFF78CFCAB6809E7013E63E7F8073FF527
:101C800068AF002EB7D0029BB342BFF462AF2023EF
:101C9000AA68501CA86028688354D5E901028242D2
:101CA00006F1FF3680F0BF80002EA4D0029AB24227
:101CB000EED116464DE728460291FFF767FC17F86C
:101CC000012F002AB7D0AB6802999FE7A8600EF8F1
:101CD00003B0D5E90130984260D22B6803EB000CC9
:101CE00001309DE72846FFF751FCA9682B684A1C84
:101CF0001944F3E6704798F80060002E3FF42DADCC
:101D0000AB6828680A2E03F1010200EB030111D031
:101D1000AA600E70D5E9012393421BD218F8016F17
:101D2000002E3FF41AAD28680A2E03F1010200EBE1
:101D30000301EDD1AA6000F803B0D5E901329A425F
:101D400039D2296811440132AA600E70D5E9012305
:101D50009342E3D32846FFF719FC18F8016F002ED1
:101D6000CED1FAE4B8F1000F7FF4FEAE002E6AD0B7
:101D7000029BB342BFF4F8AE3023AA68501CA8609F
:101D800028688354D5E90102824206F1FF3651D218
:101D9000002E58D0029AB242EFD1E5E62846CDE9AE
:101DA0000221FFF7F3FBAB682A68581C02EB030C17
:101DB000DDE9022134E72846FFF7E8FBAB68296834
:101DC0005A1C1944A4E7AA68531CAB602B682D2049
:101DD0009854D5E901329A42C1F10001FFF4BFAE37
:101DE00028460391FFF7D2FB0399B8E6AA68531C73
:101DF000AB602B682B209854D5E901329A42FFF44E
:101E0000AEAEEDE7474615E62A68591CA96002F810
:101E100003B0D5E901239342FFF4A7AD2846FFF7AD
:101E2000B5FBAB68A1E528460391FFF7AFFB202384
:101E3000039939E728460391FFF7A8FB302303995C
:101E4000A6E7464685E600268EE69046F3E600BF06
:101E5000D8350000CDCCCCCCFFF740BB2DE9F0410C
:101E6000058ACF1C043D2F440646B7FBF5F7FFF764
:101E700051FB002834D0FFB24FF48073013F044679
:101E8000C580066083802CD08046002509E06379F8
:101E9000AF4203F101036371C8F800000660804699
:101EA0001FD03046FFF736FB01350028EFD194F8FC
:101EB00005802768B8F1010316D03D460130834202
:101EC0002D68FBD1B8F1000F0AD0002601E03C4696
:101ED0003F68214601362846FFF742FBB045F6D859
:101EE00000242046BDE8F08121463846FFF738FB44
:101EF000F6E700BF04300121FFF7C0BA2DE9F04139
:101F0000012104460430FFF7C5FAC0B208B1BDE8AC
:101F1000F08194F805802568B8F1010314D02E46AD
:101F2000013083423668FBD1B8F1000FEFD00027B3
:101F300001E02C462D68214601373046FFF710FBA3
:101F4000B845F6D8BDE8F08121462846BDE8F04105
:101F5000FFF706BB2DE9F8430546C68840791446CD
:101F600006FB00F2043A04EB030C1F1D624538BF68
:101F7000D41ABE428846B7FBF6F106FB117002D8B0
:101F800001392D68FCD1371AA74228BF27469CB1DA
:101F90004FF000090430E41B28443A4608EB0901DD
:101FA00001F034FAA642B9442D6837464FF00000DC
:101FB00028BF2746002CEDD1BDE8F8832DE9F84372
:101FC0000546C6884079144606FB00F2043A04EB45
:101FD000030C1F1D624538BFD41ABE428846B7FBAA
:101FE000F6F006FB107102D801382D68FCD1771A83
:101FF000A74228BF27469CB14FF00009043129446D
:10200000E41B3A4608EB090001F000FAA642B94485
:102010002D6837464FF0000128BF2746002CEDD130
:10202000BDE8F88382680023936082681361826848
:1020300053618268D360826853608268136070471E
:1020400030B585B0047845688DF80040D0E902408D
:10205000064A074B039053F8213001958DF808404C
:1020600052F821106846984705B030BDA4070020FB
:10207000AC07002030B585B0047845688DF8004085
:10208000D0E90240064A074B039053F821300195EE
:102090008DF8084052F821106846984705B030BDC9
:1020A000A4070020AC0700202DE9F043DFF874807E
:1020B00006784B7F08F806300D46074696460FCD4A
:1020C00089B06C460FC495E80F003D78DFF8589052
:1020D000DFF858C018F8055049F826E084E80F00EA
:1020E0004CF82600049665B1BEF1000F0B4A694614
:1020F00007F1040008BF002200F05EFE09B0BDE851
:10210000F083BEF1000F064A694607F10C0008BFD4
:10211000002200F0EBFB09B0BDE8F0834120000095
:10212000752000007C080020AC070020A4070020D8
:102130002DE9F047002388B0CDE90233C84A16687C
:10214000012E00F047821E46C64B1A68012A00F095
:102150003382C54B1A68012A00F02082C34B1A68EB
:10216000012A00F00D82C24B1A68012A00F0FA81A0
:10217000C04B1A68012A00F0E781BF4B1A68012A98
:1021800000F0D481BD4B1A68012A08D0BC4B1A68F4
:10219000012A00F02A820EBB08B0BDE8F087B94AD8
:1021A000D2F804231706F1D500221A6019680091AD
:1021B000603319680098012946F080060ED11A6034
:1021C0001B6801934FF0A042019BD2F81025AE4B43
:1021D0000292D3F81035039346F00046AB4F00242B
:1021E0000125A30003F180432E4203F5C0434FEACB
:1021F00045050BD0D3F8100557F82420D3F8101557
:10220000C0F30520C1F3014102B190470134082C0D
:10221000E7D1002EC0DA0DF110089C4C9A4F002334
:10222000C8F80430049394F960304FF0FF304FF059
:10223000FF315D1CCDE906014FF0010600F0F5808D
:102240005FFA83FC2CF0C00008AB4FEAD00903EB27
:10225000090E0CF007031EF8082C06FA03F312EA25
:10226000030521D022184FEA9C1192F9302054F82E
:102270002220002A00F03481032900F033811F2836
:1022800000F2E98005464FF0A04C0CEB850C1EF8DF
:10229000185CDCF800E71D40CEF3014E40F0CF8023
:1022A000BEF1030F00F0B38194F96130581C32D0B5
:1022B000DBB223F0C00008AA4FEAD00E02EB0E0CEE
:1022C00003F007011CF8082C06FA01F912EA090FBD
:1022D00021D02218990992F9302054F82220002A9E
:1022E00000F01081032900F010811F2800F2F48013
:1022F00003464FF0A04E0EEB83031CF818ECD3F806
:1023000000C71EEA090FCCF3014C40F0D980BCF1A4
:10231000030F00F08E8194F96230591C32D0DBB289
:1023200023F0C00008AA4FEAD00E02EB0E0C03F017
:1023300007011CF8082C06FA01F912EA090F21D04E
:102340002218990992F9302054F82220002A00F02E
:10235000CF80032900F0CF801F2800F2A58003461C
:102360004FF0A04E0EEB83031CF818ECD3F800C717
:102370001EEA090FCCF3014C40F08A80BCF1030F38
:1023800000F06B8194F963305A1C33D0DBB223F038
:10239000C00008AA4FEAD00E02EB0E0C03F00702B1
:1023A0001CF8081C06FA02F2114223D004EB0009C3
:1023B000990999F9309054F82990B9F1000F00F07B
:1023C000AB80032900F0AB801F288BBFBE464FF0C7
:1023D000A04E03F01F0303460EEB83031CF818EC1A
:1023E000D3F800C71EEA020FCCF3014C60D1BCF158
:1023F000030F1CD0002D3FF4CFAE4FF0A042029B44
:10240000D2F81015D7F810058B4203D1039B8342F5
:102410003FF4C2AEDDE90423CDE9062394F9603030
:102420005D1CCDE902107FF40BAF00253CE70329CA
:1024300000F02981B9F1000FDCD0C847DAE7BEF11E
:10244000020FF2D1032900F039810025002A3FF460
:102450002BAF904728E70CF01F05BC4615E700BFDF
:102460000061004004610040086100400C610040D0
:102470001061004014610040186100401C61004080
:102480007C6100400060004000030050B80700205D
:10249000BCF1020F7FF476AF032900F00C81002A13
:1024A0003FF470AF90476DE703F01F03BE4659E756
:1024B000BCF1020F9ED10329BCD14FF4403CE4E0B3
:1024C000BCF1020F7FF427AF032900F0F180002A4E
:1024D0003FF421AF90471EE703F01F03BE460AE713
:1024E0000329A2D118F809501D4308F80950C6E67F
:1024F00003297FF447AF18F80EA04AEA090A08F842
:102500000EA029E703297FF406AF18F80EA04AEAC7
:10251000090A08F80EA0E8E603297FF46BAF18F863
:102520000EA04AEA020A08F80EA04DE7654AD2F862
:10253000042352067FF526AE00221A601B68009322
:10254000009B46F040061DE65E4AD2F80423910641
:102550007FF513AE00221A601B680093009B46F0C3
:1025600020060AE6574AD2F80423D0067FF500AECB
:1025700000221A601B680093009B46F01006F7E5E6
:10258000504AD2F8042314077FF5EDAD00221A60FB
:102590001B680093009B46F00806E4E5494AD2F820
:1025A000042355077FF5DAAD00221A601B680093FB
:1025B000009B46F00406D1E5424AD2F8042397076F
:1025C0007FF5C7AD00221A601B680093009B46F0A0
:1025D0000206BEE53B49D1F8041311F0010150D0C9
:1025E000136013680093009BAEE500221A601B681D
:1025F00001934FF0A042019BD2F81025324B02927A
:10260000D3F810350393002E3FF405AEE4E503291B
:102610007FF41CAF4FF40035DCF8003723F440336F
:10262000CCF80037DCF800372B43CCF80037012515
:102630000CE703297FF44BAF4FF4003ED3F800C7FB
:102640002CF4403CC3F800C7D3F800C701354EEA6C
:102650000C0CEDB2C3F800C739E703297FF41FAFB4
:102660004FF4003ED3F800C72CF4403CC3F800C739
:10267000D3F800C701354EEA0C0CEDB2C3F800C721
:102680000DE70E4660E54FF4003CD3F8002722F436
:102690004032C3F80027D3F80027013542EA0C0284
:1026A000EDB2C3F80027B9F1000F7FF4C6AEA4E67F
:1026B0004FF4403EC2E74FF4403ED3E74FF440357D
:1026C000AAE700BF0060004000030050014B1B68F8
:1026D000184700BF2408002038B50C4B984213D18E
:1026E00000200D46FEF7AEFE094B1C7924B10020F8
:1026F000FEF7B0FE112038BD012220461D601A7180
:10270000FEF7A8FE204638BD002038BD002000405E
:1027100024080020034B984203D1034B00221A6087
:102720001A717047002000402408002030B56D4A1F
:10273000D2F8043399058BB066D5D2F82431002B3A
:1027400062D00023C2F82431D2F8243103934FF42D
:102750000171654B0398C2F8081393F8291009B961
:10276000012151605F4902228DF81820D1F88024A0
:10277000C1F880249869D96809920022CDE9071030
:10278000C3E90622D3E9001406A8A047554AD2F8A7
:102790001C31C3B1544B186A5969884269D293F805
:1027A000280000F0FF04002863D1C2F81C41D2F8D1
:1027B0001C11029102999C68186A196A205C013107
:1027C0001962C2F81C05474AD2F84431D3B100213E
:1027D000454BC2F84411D2F8440193F829100090F7
:1027E000009800295AD19A6962B10022586AD968C2
:1027F0009A610122CDE907108DF8182006A8D3E9C7
:10280000001290470BB030BD364AD2F804335B0754
:10281000BCD5D2F80831002BB8D0334B99690029C8
:102820003FD00021C2F80811D2F808110491049990
:10283000D868596AD2F8182542545A6A99690132FF
:102840005A625A6A8A42A1D1DA691968002A31D0DB
:10285000D8685D6A1C699A61079000220120DC60DB
:10286000DA615A628DF8180008955B6806A89847E7
:102870008CE71C4A0020C2F81C01D2F81C210192EE
:10288000019A00299FD09A688DF818000891586124
:10289000079206A8D3E90012904794E7012111603E
:1028A000A1E7C2F80811D2F8080105900598D2F8FE
:1028B0001825C6E793F8292012B90A4A012050606A
:1028C000084A4FF40170C2F80803586ADA680890A1
:1028D0000024012007928DF818005A689C6106A810
:1028E000904753E7002000402C0800202DE9F041DC
:1028F000DFF8D48107792C2606FB078682B096F88C
:102900002A30002B40F098800C4605466949006843
:102910001646FFF7E1FE002840F08A802368591C24
:1029200019D01F2B4FF001028ABF63494FF0A0411D
:1029300003F01F0302FA03F3C1F8083523681F2BC5
:1029400086BF03F01F035C4A4FF0A04203F5E0731B
:10295000032142F8231063685A1C0BD01F2B86BF3B
:1029600003F01F03544A4FF0A04203F5E073002127
:1029700042F823102B68A269C3F82425217D637DCA
:102980002A680B43C2F86C35D4E900122B68C3F8EF
:102990001425C3F80C15237D012B57D02C2303FBE2
:1029A00007F308EB03025660226948F8032066B378
:1029B0002A68237F414C0021C2F81C11D2F81C2147
:1029C00000922A68009EC2F84411D2F844112A6885
:1029D00001910199C2F804432A68120B51B25B01BC
:1029E0000029DBB22CDB01F1604101F5614181F886
:1029F00000332B68324C1B0B5AB2520903F01F03F1
:102A0000012101FA03F344F822302C232C6803FB44
:102A10000783002204250121C4F8005583F82A10F9
:102A2000C3E9062283F829205A6102B0BDE8F0818B
:102A3000112002B0BDE8F081082002B0BDE8F081AD
:102A4000204902F00F0211440B76D2E7A368591C0B
:102A50000BD01F2B86BF03F01F0317494FF0A04177
:102A600003F5E073002241F82320E3685A1C1AD0D2
:102A70001F2B8ABF10494FF0A04103F01F03012212
:102A800002FA03F3C1F80835E3681F2B88BF03F08F
:102A90001F0303F5E0738CBF07494FF0A0410322E9
:102AA00041F82320E3682A68A168C2F80835C2F813
:102AB000101573E72D27000000030050800002006E
:102AC00000E100E0FCEC00E02C080020F8B53A4FF3
:102AD000047902682C2303FB047300215B68C2F8AD
:102AE000001583B10368354AC3F808230368344DE1
:102AF0001B0B5AB25209203203F01F03012101FAC5
:102B000003F345F8223003684FF0FF3CD3F80C651F
:102B1000D3F81455D3F80825D3F81015C3F814C505
:102B2000C3F80CC503686645C3F808C5C3F810C5EB
:102B30000CD01F2E86BF06F01F06224B4FF0A0437D
:102B400006F5E0764FF0020C43F826C06E1C0BD061
:102B50001F2D86BF05F01F051A4B4FF0A04305F54A
:102B6000E075022643F825604D1C0BD01F2986BF57
:102B700001F01F01134B4FF0A04301F5E071022556
:102B800043F82150531C0BD01F2A86BF02F01F02AE
:102B90000C4B4FF0A04302F5E072022143F82210E3
:102BA0000068FFF7B7FD2C2303FB0474002384F8AF
:102BB0002A306360F8BD00BF2C08002084020200A8
:102BC00000E100E000030050F0B5314E05792C2300
:102BD00003FB056385B05C69002C4DD11C629960D4
:102BE00083F828405A610268C2F81C41D2F81C11CF
:102BF000026802910121029F91600268D3F808C027
:102C0000C2F81C41D2F81C1101910199D3F820E0BF
:102C1000196A5F681CF80EE001311962C2F81CE500
:102C200017B1204605B0F0BD1A6A5C69016894428C
:102C300003D819E093F828200ABBD1F81C21002AF8
:102C4000F8D0C1F81C71D1F81C210392039AD3F873
:102C500020E01A6A1CF80EE001321A62C1F81CE585
:102C60001A6AA242E9D30168D1F81C31002BFBD0CB
:102C70000123CB60002003E0112005B0F0BD0F2040
:102C80002C2303FB056500236B6105B0F0BD00BF7D
:102C90002C080020F0B5464BD3F8242189B0002A37
:102CA00055D00021C3F82411D3F824210292022226
:102CB0008DF81020029AD3F880043E4AC3F88004AD
:102CC0000790D3F83C05D3680690C2E90611059336
:102CD0001168536804A89847354BD3F844214AB18A
:102CE0000021344AC3F84411D3F84401916901909A
:102CF0000198D9B92E4BD3F82021AAB10021C3F8ED
:102D00002011D3F820012B4A00900098506958B147
:102D1000D3F84C05936806908DF810105161059317
:102D200004A8D2E90013984709B0F0BDD3F83C35A8
:102D3000D168069300240025012305918DF81030F9
:102D4000C2E90645D2E9001304A89847D2E7D3F8B0
:102D500010110029C0D0C3F81021D3F81011154864
:102D6000039103998169D3F83C458C42B4D1C5697C
:102D7000C768D0E900168DB1D3F800C285612CF088
:102D80002005C261C3F800520369C3600122CDE986
:102D900005748DF8102004A8B0479DE701238561D4
:102DA000CDE905748DF8103004A8B04794E700BF52
:102DB00000200040580800202DE9F0430779794EA3
:102DC0004FEAC70808EB070306EB830385B093F8C7
:102DD0002030002B40F0A8800D4604467249006860
:102DE0009146FFF779FC002840F09A802B68591C27
:102DF00019D01F2B4FF001028ABF6C494FF0A04140
:102E000003F01F0302FA03F3C1F808352B681F2BE8
:102E100086BF03F01F03654A4FF0A04203F5E0733D
:102E2000032142F823106B685A1C0BD01F2B86BF5E
:102E300003F01F035D4A4FF0A04203F5E073002149
:102E400042F823102368AA69C3F82425297D6A7DE6
:102E500023680A43C3F86C25D5E900312268C2F81B
:102E60000C35C2F814152B7D012B67D008EB070237
:102E70009200B318C3F804902B69B350B9F1000F56
:102E80003DD021682B7F4A4D0022C1F81021D1F896
:102E9000101100912168DDF800C0C1F82021D1F89F
:102EA000201101912168DDF804C0C1F82421D1F876
:102EB000241102912168DDF808C0C1F84421D1F83D
:102EC0004411226803910399C2F804532268120B3B
:102ED00051B25B010029DBB22ADB01F1604101F54F
:102EE000614181F800332368324D1B0B5AB25209FD
:102EF00003F01F03012101FA03F345F82230474490
:102F0000226806EB8706002301240821C2F8001579
:102F100086F82040C6E90633736105B0BDE8F0834A
:102F2000112005B0BDE8F083082005B0BDE8F083AE
:102F3000214902F00F0211440B76D4E7AB68591C0B
:102F40000BD01F2B86BF03F01F0318494FF0A04181
:102F500003F5E073002241F82320EB685A1C1AD0D5
:102F60001F2B8ABF11494FF0A04103F01F0301221C
:102F700002FA03F3C1F80835EB681F2B88BF03F092
:102F80001F0303F5E0738CBF08494FF0A0410322F3
:102F900041F82320EB682268A968C2F80835C2F816
:102FA000101563E758080020952C0000000300501E
:102FB0001003020000E100E0FCEC00E0F8B5077946
:102FC0003A4C0268FE00F31904EB830300215B68AE
:102FD000C2F8001583B10368354AC3F808230368B3
:102FE000344D1B0B5AB25209203203F01F0301214A
:102FF00001FA03F345F8223003684FF0FF3ED3F89F
:103000000CC5D3F81455D3F80825D3F81015C3F818
:103010000CE5C3F814E50368F445C3F808E5C3F804
:1030200010E50DD0BCF11F0F86BF0CF01F0C224B1A
:103030004FF0A0430CF5E07C4FF0020E43F82CE07B
:103040006B1C0CD01F2D86BF05F01F051A4B4FF0CF
:10305000A04305F5E0754FF0020C43F825C04D1C68
:103060000BD01F2986BF01F01F01134B4FF0A04367
:1030700001F5E071022543F82150531C0BD01F2AA3
:1030800086BF02F01F020C4B4FF0A04302F5E07226
:10309000022143F822103E4404EB86040068FFF747
:1030A00039FB002384F820306360F8BD5808002005
:1030B0001003020000E100E00003005001F0604353
:1030C000B3F1005F2DD1F0B40579244EEF007C19E7
:1030D00006EB840482B06369002B39D16261A16080
:1030E0000268C2F82031D2F820C10268CDF804C0CD
:1030F000DDF804C0C2F85831D2F8582100920268B5
:10310000DDF800C0D4F814C0C2F84415C2F848C5B0
:1031100002680121916062682AB1184602B0F0BCD1
:10312000704710207047036800E0AAB9D3F8201157
:10313000D3F858210029F8D0002A14BF0F2000200E
:103140007B1906EB830300225A6102B0F0BC704782
:10315000112002B0F0BC70470F20F1E758080020A2
:1031600070B50120FDF7B6FE4FF400410020FDF7D9
:10317000CFF928BBFDF7BCF9134B14481449154D82
:10318000C01AC008000440F00300FDF731FC45F010
:10319000010500263046FDF783FE4FF4FA744FF424
:1031A0007A40A847013CFAD10136042EF2D1FDF74E
:1031B00011FA0028EDD0FDF70DFA0028F7D1E8E765
:1031C000FDF7B6FED6E700BF3C3700005C370000D5
:1031D000183600001036000010B44FF080414FF058
:1031E00080520020C1F80C015E4BC1F81001C1F8FB
:1031F0003805D2F80414C3F82015D2F80814C3F81F
:103200002415D2F80C14C3F82815D2F81014C3F8FA
:103210002C15D2F81414C3F83015D2F81814C3F8CA
:103220003415D2F81C14C3F84015D2F82014C3F892
:103230004415D2F82414C3F84815D2F82814C3F85A
:103240004C15D2F82C14C3F85015D2F83014C3F82A
:103250005415D2F83414C3F86015D2F83814C3F8F2
:103260006415D2F83C04C3F86805D2F840043E491E
:10327000C3F86C050968D2F84424C3F870250829FE
:1032800024D04FF08043D3F80024D20744BF6FF01E
:103290000102C3F80024354AD2F8883043F47003A1
:1032A000C2F88830BFF34F8FBFF36F8F4FF01023FA
:1032B000D3F80022002A23DBD3F80432002B1FDBD3
:1032C0002B4B2C4A1A605DF8044B70472A4B1B6845
:1032D000002BD6D129482A4A2A4C04602A492B4B74
:1032E000FB20C2F818050A681B68294822F00F0263
:1032F00003F00F0313434FF400720B600260C0E74A
:10330000244A0123C2F80435D2F80034002BFBD044
:103310004FF0102312211F4AC3F80012D2F80034D4
:10332000002BFBD04FF0102312211A4AC3F80412CD
:10333000D2F80034002BFBD000231649C2F8043524
:10334000D1F80034002BFBD0BFF34F8F0749124B4D
:10335000CA6802F4E0621343CB60BFF34F8F00BF33
:10336000FDE700BF00C000403001001000ED00E0AC
:103370001C0000200090D003340100108C56004047
:1033800000F0004048810300E40E004058020010A5
:103390004096024000E001400400FA0508B5074BE2
:1033A000044613B10021AFF30080054B1868836A0F
:1033B00003B19847204600F047F800BF0000000026
:1033C0003437000070B50D4D0D4C641BA410002661
:1033D000A64209D10B4D0C4C00F038F8641BA41028
:1033E0000026A64205D170BD55F8043B984701362A
:1033F000EEE755F8043B98470136F2E780000020DD
:103400008000002080000020840000200A449142B7
:1034100000F1FF3300D1704710B511F8014B03F8EC
:10342000014F9142F9D110BD02440346934200D1AD
:10343000704703F8011BF9E7034613F8012B002A34
:10344000FBD1181A01387047FEE700BFF8B500BF7E
:10345000F8BC08BC9E467047F8B500BFF8BC08BC75
:103460009E467047FFFFFFFFFFFFFFFFFFFFFFFFCD
:10347000FFFFFFFF00000000000000000000D60179
:1034800006010000D503000041040000D103000044
:10349000756172745F6C6F675F6261636B656E64A8
:1034A00000000000E40500207F000000640600200A
:1034B0004261636B656E647320666C7573686564E6
:1034C00000000000617070002435000050350000DD
:1034D00004350000583500006035000068350000F4
:1034E000703500007835000080350000202530322E
:1034F00078000000202020007C00000025630000F0
:103500000D0A00001B5B313B33316D0025734C6F9E
:1035100067732064726F70706564202825642925A4
:10352000730D0A001B5B306D000000002573000066
:103530003C25733E2025733A200000000000000067
:10354000883500009035000098350000A035000057
:103550001B5B313B33306D001B5B313B33326D0005
:103560001B5B313B33336D001B5B313B33346D00F0
:103570001B5B313B33356D001B5B313B33366D00DC
:103580001B5B313B33376D006572726F7200000058
:103590007761726E696E6700696E666F0000000089
:1035A00064656275670000000D0E0F10466174615E
:1035B0006C206572726F720053797374656D20723E
:1035C000657365740000000000000000000000004A
:1035D0000338FDD870470000303132333435363788
:1035E00038394142434445464750494F544500000D
:1035F000505253005541525400000000554152545E
:103600004500000000000000000000000000000075
:103610000338FDD870470000426C696E6B792065F5
:1036200078616D706C6520737461727465642E00CE
:103630000020202020202020202028282828282082
:10364000202020202020202020202020202020207A
:1036500020881010101010101010101010101010E2
:1036600010040404040404040404041010101010D2
:10367000101041414141414101010101010101019C
:1036800001010101010101010101010110101010EE
:10369000101042424242424202020202020202026E
:1036A00002020202020202020202020210101010C2
:1036B00020000000000000000000000000000000EA
:1036C00000000000000000000000000000000000FA
:1036D00000000000000000000000000000000000EA
:1036E00000000000000000000000000000000000DA
:1036F00000000000000000000000000000000000CA
:1037000000000000000000000000000000000000B9
:1037100000000000000000000000000000000000A9
:103720000000000000000000000000000000000099
:0C3730000000000020000020000000004D
:10373C00E835000000000000F0350000000000003B
:10374C00F435000000000000FC3500000000000013
:08375C00C43400000000030367
:1037640084340000000000009034000014000020A5
:10377400EC000020B4010020BC010020F400002073
:043784001800000029
:08378800B8CAFF7F0100000038
:103790000000000000200040000000000020004069
:1037A0000000000000000000FF0000000090D003B7
:1037B0000000000000000000000000000000000009
:1037C00000000000000000000000000000000000F9
:1037D00000000000000000000000000000000000E9
:1037E00000000000000000000000000000000000D9
:1037F00000000000000000000000000000000000C9
:1038000000000000000000000000000000000000B8
:08381000250200000102000086
:04000003000002B542
:00000001FF
