:1000000000000420B5020000DD020000DF02000055
:10001000E1020000E3020000E50200000000000031
:1000200000000000000000000000000005100000BB
:10003000E90200000000000025100000ED020000B1
:10004000BD370000EF020000ED4B0000EF020000A2
:10005000EF020000EF02000021380000EF02000074
:10006000EF020000EF020000EF020000EF020000CC
:10007000EF020000EF020000EF020000EF020000BC
:10008000EF0200002D110000EF020000EF0200005F
:10009000EF020000EF020000EF020000EF0200009C
:1000A000EF020000EF020000EF020000EF0200008C
:1000B000EF020000EF02000000000000000000005E
:1000C000EF020000EF020000EF020000EF0200006C
:1000D000EF020000EF020000EF020000EF0200005C
:1000E000EF020000EF020000EF020000000000003D
:1000F00000000000EF02000000000000EF0200001E
:1001000000000000000000000000000000000000EF
:1001100000000000000000000000000000000000DF
:1001200000000000000000000000000000000000CF
:1001300000000000000000000000000000000000BF
:1001400000000000000000000000000000000000AF
:10015000000000000000000000000000000000009F
:10016000000000000000000000000000000000008F
:10017000000000000000000000000000000000007F
:10018000000000000000000000000000000000006F
:10019000000000000000000000000000000000005F
:1001A000000000000000000000000000000000004F
:1001B000000000000000000000000000000000003F
:1001C000000000000000000000000000000000002F
:1001D000000000000000000000000000000000001F
:1001E000000000000000000000000000000000000F
:1001F00000000000000000000000000000000000FF
:1002000010B5054C237833B9044B13B10448AFF350
:1002100000800123237010BD880000200000000032
:100220006050000008B5034B1BB103490348AFF30E
:10023000008008BD000000008C000020605000001D
:10024000154B002B08BF134B9D46A3F5803A0021A8
:100250008B460F461348144A121A04F03DFD0F4B0B
:10026000002B00D098470E4B002B00D09847002061
:10027000002104000D000D48002802D00C48AFF307
:10028000008004F0F7FC2000290003F0E9FD04F0F1
:10029000DDFC00BF0000080000000420000000009A
:1002A0000000000088000020B018002000000000BE
:1002B000000000000649074A074B9B1A03DD043B78
:1002C000C858D050FBDC03F01DFEFFF7B9FF00005B
:1002D000C85000000000002088000020FEE7FEE774
:1002E000FEE7FEE7FEE7FEE7FEE7FEE7FEE7FEE7E6
:1002F000F0B595B0002415460F4608461E4603F09B
:1003000017F9384623460895082205A91A9D09962B
:100310000D950A948DF82C400C9403F06DF99DF81E
:1003200014308DF81140DDE9061003F00302012AB4
:10033000CDE9020127D0022A04D0384603F0FCF8A8
:1003400015B0F0BDBDF81650C3F3C2038DF81030E0
:10035000AD090826082D2C4628BF0824334622461E
:100360000EA9384603F048F92D1B214608AB02AA16
:100370000EA8264400F016FD002DEBD1384603F000
:10038000DBF815B0F0BDBDF81460059DC6F383160B
:10039000C3F3C204B2000EA9384608238DF81040FA
:1003A000C5F3952503F028F908AB324628460EA977
:1003B000009302AB00F080FC384603F0BDF815B0A6
:1003C000F0BD00BF014B01221A707047E800002009
:1003D000704700BF00B583B0044B0093044A40232C
:1003E000FFF786FF03B05DF804FB00BFF5030000D4
:1003F000A800002038B50E480E4D03780E4CEB5C7B
:100400000025D2B2257053B1043004F09DFB58B9D9
:100410000A4B1B7813B12378002BFCD038BD0C306D
:1004200004F018F90028F3D002F0E2FAF0E700BF78
:1004300000000020AC180020E8000020A4000020EC
:1004400030B51448144A0378D35C89B0BBB104308A
:1004500004F0FAFA114D0FCD6C460FC495E80F0069
:10046000062584E80F00002269460A48009503F03B
:100470005FFE40B90A4B00221A7009B030BD0C3043
:1004800004F06AF8E6E702F0B3FA054B00221A70AE
:1004900009B030BD00000020AC180020144D000051
:1004A000A400002030B50E4D0FCD89B06C460FC4AE
:1004B00095E80F00062584E80F000A4A0A480095CF
:1004C000694603F035FE20B9084B01221A7009B0C5
:1004D00030BD02F08DFA054B01221A7009B030BD13
:1004E000144D0000C503000000000020A4000020FF
:1004F00008B5FFF7D7FF0421034800F04DFB034B7D
:1005000001225A7108BD00BF9C5000001400002059
:1005100038B50C4B0C48002400250022FF21C3E90C
:100520000045C3F81824996083F82024C3F81424E4
:1005300002F0B0FF044610B9044803F091F82046D9
:1005400038BD00BFC0010020AC500000544D000079
:10055000A9B1124B12495B1ADB081AD030B4114C06
:100560002288824217D0002203E034F822508542CC
:100570000AD001329342F8D1002030BC7047084ABB
:1005800002EBC0021068704701EBC202106830BC79
:100590007047184670470A46F8E700BF9C500000B5
:1005A0006450000088000020094B013903EBC000B3
:1005B00003290BD8DFE801F0020806040220704787
:1005C00040797047007970470420704700207047D9
:1005D000645000002DE9F04F9D4CD4E900239A426D
:1005E00089B000F030810023C4F81834BFF34F8F76
:1005F000D4E9013503EA0501CA1C04EB820614F8AC
:10060000222050071BD52768327802F00302012A06
:1006100000F00781022A03D17288023303EB9213A0
:1006200003EA0501D4F81804CA1C04EB820630B9A9
:100630009F4240F2048114F822205207E4D404EBD4
:1006400081015A1CC96802912A4004EB820201F020
:100650000301D2680392022903F1020600F002812D
:10066000012900F06581D4F810543DB12B6828466B
:100670009B689847EB681D68002DF7D1754A764B4B
:10068000D4F808809B1ADB080020019302F0F8F9E7
:10069000D4E90132D4F8009013440133A3EB0903E9
:1006A000012B00F294816D4D2F1FA5F10806012149
:1006B000284602F001FA384602F016FA304602F0F7
:1006C00013FAD4E9013E03EA0E01C81C04EB8002D0
:1006D00014F8200010F0040000F0A08003F1020CD8
:1006E00092F800B00BF0030BBBF1010FE24600F0F3
:1006F0009080BBF1020F7CD0CA1C04EB8202002860
:10070000EED104EB81010133CA68059203EA0E03BE
:1007100004EB830302F00302012AD96800F087800A
:10072000022A5CD1BDF816309B0903334FEA114B06
:100730000AEB930A304602F0E3F95946002856D0F6
:100740002846C4F804A002F0B7F9D4E901322168C0
:10075000134401335B1A012BA9D90A400332052344
:100760000231002044F82230216002F091F900218A
:100770003A4802F097F980F3100009F1010303EA07
:100780000803BDF8042004EB830308EA090808F114
:10079000030842EA0042DA6054F82820304B63F341
:1007A0009F2222F47F7323F0030343F0110344F8E4
:1007B000282024F8283094F820343BB9D4E90030BC
:1007C000C01A18BF012009B0BDE8F08FFFF702FF83
:1007D0000028F3D0FFF7FEFE0028F7D1EEE7304601
:1007E00002F08EF94FF0000B59460028A8D1284698
:1007F000A9E753880CEB93130EEA0301CA1C03F11B
:10080000020C14F82200E24604EB820200F004001D
:1008100075E71388C3F383136344EDE703F1020A1A
:100820006FE732880233C2F383121344F8E6BDF84F
:100830001430C3F383134FEA114B9A447AE767608D
:1008400009B0BDE8F08F002009B0BDE8F08F00BF0F
:10085000C0010020645000008C500000DC05002026
:10086000604D0000BDF80A305F484FEA9319B9F1B6
:10087000500FC84628BF4FF0500868F38F1308F197
:100880000801ADF80A3002F007FE074600283FF4E1
:10089000EAAE02F04DFE082200230DEB02013846BD
:1008A00002F076FE25EA060301339B0098457BD9CA
:1008B000002B00F08E8005EA0601A8EB0308DDB2EC
:1008C000033104EB81012A46082338465FFA88F891
:1008D00002F05EFE424605F108034449384602F044
:1008E00057FE09F1030906EB9909D4F81834002BD7
:1008F00069D1D4F8105465B1EB685A792846394665
:10090000002A5CD02B681B689847EB681D68002D97
:10091000F2D1384602F010FE002002F0B1F8D4F80F
:1009200018340BB9C4F80490002002F0B1F845E780
:10093000BDF808202C48C2F38313062B28BF0623DA
:1009400063F3891202339900ADF8082002F0A4FD88
:10095000074600283FF487AE02F0EAFD0822002394
:100960000DEB0201384602F013FEBDF8083013F417
:10097000707F36D04FF0000805EA06014FEA880381
:100980000331083304EB81010422384602F000FEF3
:10099000BDF8083008F10108C3F3831306F101091B
:1009A00043454E46E8D8A0E705EA0601033104EBCB
:1009B000810142460823384602F0EAFD91E71D68AE
:1009C000002D99D1A5E7384602F0B6FDF6E6494676
:1009D000C3E65FFA88F208230449384602F0D8FDDE
:1009E0007FE7B14681E700BFAC500000CC0100209A
:1009F0002DE9F04F654C87B0804600200191A56835
:100A000002F03EF8D4E9012326681A440132921B11
:100A1000012A00F2B88004F21C4704F214490121B3
:100A2000384602F049F85A4802F05EF8484602F0AB
:100A30005BF8D4E9013E03EA0E00C21C04EB82011C
:100A400014F8222012F0040200F09A8003F1020C44
:100A500091F800B00BF0030BBBF1010FE24600F080
:100A60008A80BBF1020F00F1030B74D004EB8B0101
:100A7000002AEDD104EB80000133C268039203EA3F
:100A80000E0304EB830302F00302012AD9685AD053
:100A9000022A55D1BDF80E309B0903334FEA114BA2
:100AA0000AEB930A484602F02BF85946002845D035
:100AB0003846C4F804A001F0FFFFD4E9011322680E
:100AC00019440131891A0129A9D91340033302328B
:100AD0000521002044F82310226001F0D9FF0021F5
:100AE0002C4801F0DFFF80F31000731C2B4004EB57
:100AF000830300043540033540EA1840D86014F8F9
:100B0000253068F3C50304F82530019B54F82520EF
:100B100063F39F2222F4717323F0030343F0010374
:100B200044F8252024F8253094F820341BB1FFF731
:100B300051FD0028FBD107B0BDE8F08F3846BAE779
:100B40004FF0000BAEE7BDF80C30C3F383134FEA50
:100B5000114B9A44A6E74B880CEB93130EEA030063
:100B6000C11C03F1020C14F82120E24604EB8101C0
:100B700002F004027CE70B88C3F383136344EDE7C0
:100B800003F1020A76E732469FE700BFC00100206A
:100B9000D8050020DC050020F0B41B4ED6F8103438
:100BA0000746002B2DD0DC6825790021A942084694
:100BB00017D0234603E0DB681A798A4211D01B68FC
:100BC000002BF8D1FB681871D6F810349BB1DA68A5
:100BD000FB6812681A60D6F81034DB681F60F0BC3E
:100BE0007047092901F1010301D01946DEE74FF0F2
:100BF000FF30F0BC7047C6F81074FA681360F0BCA0
:100C000070471846DEE700BFC001002038B5094B29
:100C1000D3F81044012583F820544CB1E3685D718A
:100C2000236820465B689847E3681C68002CF5D170
:100C300038BD00BFC001002030B5C38883B0044672
:100C40000D4613BB217A05291DD0637AA08873B99C
:100C5000124B53F821400021FFF77AFC104903465C
:100C60002246284603B0BDE8304001F0B9BFFFF787
:100C70009BFC0C4B0C4953F82020284601F0B0FF98
:100C8000217AA088E4E703B030BD084A0092084901
:100C9000084A284601F0A4FFD4E700BFEC4D00004D
:100CA000E04D0000784D0000DC4D0000D44D000008
:100CB000BC4D0000B44D00002DE9F04385B01D4649
:100CC0000C9C002381460E46174694F80C80237333
:100CD00021462846FFF7B0FF062F09D8DFE807F0C6
:100CE000042E343B444F1F004946204601F078FF54
:100CF0002B7A052B05D06B7A5BB92749204601F08A
:100D00006FFF204601F060FF84F80C8005B0BDE85D
:100D1000F083224A2249204601F062FFEDE7D6E93E
:100D20000413F2680393B3680291CDE90032494697
:100D3000D6E90023204601F053FFD9E7326849463F
:100D4000204601F04DFFD3E74946D6E9002320466F
:100D500001F046FFCCE7B36800934946D6E900238B
:100D6000204601F03DFFC3E7D6E90232019200932D
:100D70004946D6E90023204601F032FFB8E7D6E91C
:100D80000321B3680291CDE900324946D6E9002338
:100D9000204601F025FFABE7B04D0000D44D000028
:100DA000DC4D0000082900D970472DE9F04F1D46A1
:100DB00083B000241B7B2C7307460E461046294641
:100DC00091460193DFF8C8A0DFF8C880FFF734FF31
:100DD00005E03A5D013401F003FF082C09D0A6427A
:100DE00041462846F5D85146013401F0F9FE082C59
:100DF000F5D12249DFF8A0A0214CDFF8A0802846D9
:100E000001F0EEFE4FF0000B0EE012F8081011F0AA
:100E1000970F08BF2E22214628460BF1010B01F047
:100E2000DFFEBBF1080F10D05E4505D917F80B2087
:100E30007E2AEAD92E22EEE7514628460BF1010B15
:100E400001F0CEFEBBF1080FEED199F80830052B6A
:100E500002D099F809305BB90A49284601F0C0FE72
:100E6000284601F0B1FE019B2B7303B0BDE8F08F63
:100E7000054A0649284601F0B3FEEDE7A84D0000FB
:100E8000AC4D0000B04D0000D44D0000DC4D000022
:100E9000A44D00009C4D0000E84D0000594F00009B
:100EA000C20730B40ED483070AD54FF0A0430C22FA
:100EB000C3F82C27C3F83027C3F86027C3F864278A
:100EC00030BC70474FF0A0430322C3F834274FF4DF
:100ED0000055C3F838274FF48044C3F83C274FF43B
:100EE0000041C3F840274FF48032C3F80855C3F8D7
:100EF0000845C3F80815C3F80825D4E738B54307F3
:100F000004461CBF20F00704083401F03FF80E4AE5
:100F100013689BB10D4A156840F6F7712C448C425A
:100F200007D8A54205D21D44146001F0D9F828461F
:100F300038BD002501F0D4F8284638BD044B23F015
:100F400007031360E6E700BF7C0600208016002040
:100F500088060020704700BF00F108034FF0FF3102
:100F60000022816002604360C0E90333704700BF24
:100F700000230361704700BF43684B609A688A6032
:100F8000516099600861036801330360704700BFD6
:100F900030B40D686B1C11D000F1080200E01A4655
:100FA00053681C68AC42FAD94B6099608A60516002
:100FB000086103680133036030BC704702695368FD
:100FC000F2E700BFD0E9011203698A60416851600D
:100FD0005A68824204BF82685A60002202611A681D
:100FE000013A1A60186870470548006880F308885D
:100FF00062B661B6BFF34F8FBFF36F8F00DF00BFE4
:1010000000000000064B19680868B0E8F04F80F354
:101010000988BFF36F8F4FF0000080F3118870478D
:1010200088160020EFF30980BFF36F8F144B1A6806
:101030001EF0100F08BF20ED108A20E9F04F10605D
:101040004DF8043D4FF0400080F31188BFF34F8FFF
:10105000BFF36F8F01F05CF94FF0000080F311884F
:1010600008BC19680868B0E8F04F1EF0100F08BF00
:10107000B0EC108A80F30988BFF36F8F704700BF10
:1010800088160020402383F31188FEE730B46FF008
:1010900002034FF08075074C40F8081C40F8202CE4
:1010A00040F8045C40F80C4C40F8243C30BC443818
:1010B000704700BF851000000F4C08B5E02384F88E
:1010C000223000F077F80D4B0D4A00211960D4F85A
:1010D000883043F47003C4F88830536843F04043C9
:1010E0005360236943F010032361FFF77DFF402322
:1010F00083F31188FEE700BF00ED00E084160020B6
:1011000030EF00E0402383F31188024A1368013373
:101110001360704784160020034A1368013B136074
:101120000BB983F3118870478416002070B51D4BEE
:1011300000221A6082B01B680193019BEFF31186B5
:10114000402383F311881849184BD1F804451A60DD
:101150001B680093009B00F021FF201A20F07F43C2
:1011600023F0010320F07F459BB96C1E6DB1002573
:1011700000F022FF013C631C45EA0005F8D125B1CF
:101180000B4B4FF080525A6040BF86F3118802B07B
:1011900070BD01F03BFA0228E7D000F00DFF0546D4
:1011A000EDE700BF40110140001001400011014077
:1011B00000ED00E038B5002002F09CFA0A4B0B4825
:1011C0000B4901221F24C3F808450225C3F8042354
:1011D000E02402604FF400301A60C3F8445381F8F1
:1011E0001143086038BD00BF0010014008100140E5
:1011F00000E100E0F0B5054685B072B6314CD4F898
:10120000046501F0E7F9002842D02F482F4BA8428F
:1012100028BF2846321822F07F4201210027C4F857
:101220000813C4F840251F601A6801924FF48032F9
:10123000019FC4F80423BFF34F8F65B3244B20BF35
:10124000D3F80011D3F804210A43F8D01D4A1F4DEA
:1012500020494FF48034C2F8084300242C602D68E4
:101260000395039D0C60096802910121029CC2F85C
:101270000413D2F80425921B22F07F42904228BF2B
:1012800010464FF40032C3F8802108B100F08CFE04
:1012900062B605B0F0BDC4F808231D601A680D4B96
:1012A0000392039A1D601B680293094B029AC4F8CB
:1012B00004134FF40032D4F80415C3F8802162B649
:1012C00005B0F0BD00100140FDFFFF0040110140DE
:1012D00000E100E00011014070B506460D4651B135
:1012E00000FB01F04830FFF709FE044658B300F157
:1012F0004803036005E04820FFF700FE044610B3F2
:101300002460C4E90F65FFF7FDFED4E90F132268DE
:10131000A26001FB03F1CB1A134400200A44FF2111
:10132000A063E36084F84410626084F8451004F11F
:101330001000FFF711FE04F12400FFF70DFEFFF788
:10134000EBFE204670BD0024204670BD2DE9F04F15
:10135000044685B01D4601928846FFF7D3FEA26B76
:10136000E36BA74F4FF000099A424E46C0F08B80C6
:10137000022D00F013810198002800F02D81B9F1B1
:10138000000F00F00781FFF7C7FE00F0FFFDFFF739
:10139000B9FE94F84430FF2B08BF84F8446094F8F9
:1013A0004530FF2B08BF84F84560FFF7B5FE01A963
:1013B00002A801F0CFF8002840F01581FFF7A2FE47
:1013C000A26BE36B9A427FD0FFF7A6FEFFF79AFE6F
:1013D00094F845304FFA83FABAF1000F1ADD636AC8
:1013E000C3B104F1240907E00AF1FF33DBB24FFA7D
:1013F00083FA7BB1636A6BB1484601F04FF800286D
:10140000F2D001F0E1F80AF1FF33DBB24FFA83FAD0
:10141000002BEFD1FF2384F84530FFF77DFEFFF767
:1014200071FE94F844304FFA83FABAF1000F1ADDD6
:101430002369C3B104F1100907E00AF1FF33DBB2FD
:101440004FFA83FA7BB123696BB1484601F026F865
:101450000028F2D001F0B8F80AF1FF33DBB24FFAFE
:1014600083FA002BEFD1FF2384F84430FFF754FEBA
:1014700000F036FEFFF746FEA26BE36B9A424FF098
:101480000109BFF475AF226CA66B002A00F08A80B8
:101490004146002D40F02581A06803F00FFCA368B1
:1014A000216C62680B44934206F10106A3607ED36F
:1014B000A663636A2268A260002B7CD1FFF72CFE32
:1014C000012005B0BDE8F08F04F11009FFF724FEFC
:1014D0004846019900F048FFFFF714FE94F845A034
:1014E0004FFA8AFABAF1000F1CDD636AD3B104F136
:1014F000240B08E00AF1FF3A5FFA8AF34FFA83FA05
:1015000083B1636A73B1584600F0C8FF0028F1D078
:101510000AF1FF3A01F058F85FFA8AF34FFA83FABA
:10152000002BEED1FF2384F84530FFF7F5FDFFF7E0
:10153000E9FD94F844304FFA83FABAF1000F06DC63
:1015400015E00AF1FF33DBB24FFA83FA7BB123696E
:101550006BB1484600F0A2FF0028F2D001F034F849
:101560000AF1FF33DBB24FFA83FA002BEFD1FF23EE
:1015700084F84430FFF7D0FD00F0B2FD00287FF47E
:1015800079AF4FF080537B6040BFBFF34F8FBFF305
:101590006F8F6FE702A800F0D1FFF4E6226CA66B14
:1015A000002A6FD125680136002D00F08380A663E4
:1015B000636A002B82D004F1240000F06FFF002842
:1015C0003FF47CAF0E4B4FF080525A6040BFBFF3E8
:1015D0004F8FBFF36F8F71E70090FFF79DFD00986D
:1015E00005B0BDE8F08FFFF78DFD94F845506DB262
:1015F000002D19DD636ABBB104F1240608E000BFC9
:1016000000ED00E0013DEBB25DB26BB1636A5BB12E
:10161000304600F043FF0028F4D0013D00F0D4FF35
:10162000EBB25DB2002BF1D1FF2384F84530FFF718
:1016300073FDFFF767FD94F844506DB2002D16DD81
:101640002369A3B104F1100605E0013DEBB25DB2E0
:101650006BB123695BB1304600F020FF0028F4D065
:10166000013D00F0B1FFEBB25DB2002BF1D1FF23E1
:1016700084F84430FFF750FD00F032FD002005B043
:10168000BDE8F08F4146E06803F018FB226CE36888
:101690002168524213448B42E36018D263681344BA
:1016A000E360022D13D00136A663636A002B3FF47A
:1016B00005AF80E7606800F0B9FFA663636A656004
:1016C000002B7FF478AF00287FF47CAFF6E6002E85
:1016D0007FF46DAF0123A363636A002B3FF4EEAE8A
:1016E00069E7E06803F0EAFA226CE3682168524295
:1016F00013448B42E360D4D2D0E700BF2DE9F0471A
:10170000044684B088460192FFF7FCFCD4F8389078
:10171000B9F1000F40F04C81019B002B00F0E980F3
:1017200002A800F00BFFAE4F4E4604F12405FFF770
:10173000F3FC00F02BFCFFF7E5FC94F84430FF2BA2
:1017400008BF84F8446094F84530FF2B08BF84F844
:101750004560FFF7E1FC01A902A800F0FBFE0028AC
:1017600066D1FFF7CFFCA36B002B40F0C880FFF7DA
:10177000D3FC0199284600F0F7FDFFF7C3FC94F86D
:1017800045304FFA83F9B9F1000F06DC15E009F195
:10179000FF33DBB24FFA83F97BB1636A6BB1284642
:1017A00000F07CFE0028F2D000F00EFF09F1FF33BC
:1017B000DBB24FFA83F9002BEFD1FF2384F84530D9
:1017C000FFF7AAFCFFF79EFC94F844304FFA83FA27
:1017D000BAF1000F1ADD2369C3B104F1100907E063
:1017E0000AF1FF33DBB24FFA83FA7BB123696BB1A5
:1017F000484600F053FE0028F2D000F0E5FE0AF162
:10180000FF33DBB24FFA83FA002BEFD1FF2384F8CA
:101810004430FFF781FC00F063FC00285ED14FF0FC
:1018200080537B6040BFBFF34F8FBFF36F8F55E096
:10183000FFF768FC94F845304FFA83F9B9F1000FCF
:1018400006DC15E009F1FF33DBB24FFA83F97BB117
:10185000636A6BB1284600F021FE0028F2D000F048
:10186000B3FE09F1FF33DBB24FFA83F9002BEFD15E
:10187000FF2384F84530FFF74FFCFFF743FC94F853
:1018800044304FFA83FABAF1000F1ADD2369C3B16D
:1018900004F1100907E00AF1FF33DBB24FFA83FAD3
:1018A0007BB123696BB1484600F0F8FD0028F2D007
:1018B00000F08AFE0AF1FF33DBB24FFA83FA002B05
:1018C000EFD1FF2384F84430FFF726FC00F008FC3A
:1018D000FFF718FCA36B63B1FFF71EFCFFF712FCC8
:1018E000D4F83890B9F1000F62D1019B002B7FF43E
:1018F0001EAFFFF711FC002004B0BDE8F087FFF732
:101900000BFCFFF7FFFB94F845304FFA83F9B9F170
:10191000000F06DC15E009F1FF33DBB24FFA83F963
:101920007BB1636A6BB1284600F0B8FD0028F2D0A5
:1019300000F04AFE09F1FF33DBB24FFA83F9002BC6
:10194000EFD1FF2384F84530FFF7E6FBFFF7DAFB22
:1019500094F844304FFA83FABAF1000F1ADD236984
:10196000C3B104F1100907E00AF1FF33DBB24FFA0B
:1019700083FA7BB123696BB1484600F08FFD0028E4
:10198000F2D000F021FE0AF1FF33DBB24FFA83FA06
:10199000002BEFD1FF2384F84430FFF7BDFB00F0AC
:1019A0009FFBFFF7AFFBD4F83890B9F1000F9CD044
:1019B000226C52B1E168636811449942E16024BF2E
:1019C0002168E160404603F079F909F1FF33A36330
:1019D00023693BB9FFF7A0FB012004B0BDE8F08705
:1019E00000ED00E004F1100000F058FD0028F1D0F7
:1019F000044B4FF080525A6040BFBFF34F8FBFF38C
:101A00006F8FE7E700ED00E0074B1A681AB19A689C
:101A100002B17047012210B403EBC20443F8321044
:101A200060605DF8044B70479C18002070B5044658
:101A30000D461646FFF766FB94F84430FF2B04BFB3
:101A4000002384F8443094F84530FF2B04BF002372
:101A500084F84530FFF760FBA36B002B47D0FFF7FE
:101A600051FB94F845506DB2002D16DD636AA3B1A9
:101A700004F1240605E0013DEBB25DB26BB1636A8F
:101A80005BB1304600F00AFD0028F4D0013D00F0C3
:101A90009BFDEBB25DB2002BF1D1FF2384F8453002
:101AA000FFF73AFBFFF72EFB94F844506DB2002D80
:101AB00016DD2369A3B104F1100605E0013DEBB288
:101AC0005DB26BB123695BB1304600F0E7FC0028E2
:101AD000F4D0013D00F078FDEBB25DB2002BF1D106
:101AE000FF2384F84430BDE87040FFF715BB324651
:101AF000294604F1240000F07FFCB0E72DE9F84FFF
:101B000095000746284689469846FFF7F7F90028CA
:101B100000F08C8006464820FFF7F0F904460028C4
:101B200000F0888006632A463046A52103F0D4F8E9
:101B300099F8003084F83430D4F830B043B199F8D3
:101B4000013084F835301BB199F8023084F8363012
:101B50000A9E022E28BF02264FF0000A04F1040953
:101B6000E662A663484684F837A0C4F83CA0043D6A
:101B7000FFF7FEF9C6F1030604F118005D44FFF714
:101B8000F7F9C4F840A0A66125F0070084F844A046
:101B90002461646242463946FFF778FA0B9B206065
:101BA00003B11C60FFF7AEFA3A4A3B4F13680133AA
:101BB00013603B68002B43D0DFF81081E36AD8F84C
:101BC000002022B93A68D26A9A4298BF3C60334AF0
:101BD000DFF8FCC01668DCF800E0314801252E442F
:101BE000166005FA03F203EB830342EA0E0200EBF0
:101BF00083004946CCF80020FFF7BEF9FFF78CFAC6
:101C0000D8F800307BB13A68E36AD26A9A420AD2C5
:101C1000244B4FF080525A6040BFBFF34F8FBFF349
:101C20006F8F284600E02846BDE8F88F4FF0FF3060
:101C3000BDE8F88F3046FFF78DF94FF0FF30F3E73E
:101C40003C601368012B03D0E36ADFF88080BEE7B5
:101C50001348154E154DDFF87480FFF77DF91448D1
:101C6000FFF77AF91348FFF777F93046FFF774F971
:101C70002846FFF771F91048FFF76EF90F48FFF794
:101C80006BF90F48FFF768F90E4B0F4A16601D609D
:101C9000E36A9CE7D016002088160020E01600209A
:101CA0009416002000ED00E0E8160020FC1600204D
:101CB000A8160020BC1600201C1700204817002082
:101CC00034170020901600208C16002030170020BA
:101CD000E416002010B50446FFF714FA24B1E46AB4
:101CE000FFF71AFA204610BD034B1C68E46AFFF7A1
:101CF00013FA204610BD00BF8816002002292DE9E6
:101D0000F04128BF022104460D46FFF7FBF9002CE5
:101D10004FD0A36BAB4248D0284A09D21168A142E8
:101D20004AD01268D76AAF428CBF0027012704E06F
:101D300017683F1BB7FA87F77F09E66AA563B342C6
:101D4000A36908BFE562002BA4BFC5F10305A56127
:101D50001B4D626906EB860305EB83039A421AD199
:101D600004F104084046FFF72DF9164A30B913680C
:101D7000012101FA06F623EA06061660E06A1468F5
:101D80000123834000EB80002343414605EB8000A4
:101D90001360FFF7F1F847B10B4B4FF080525A60D8
:101DA00040BFBFF34F8FBFF36F8FBDE8F041FFF728
:101DB000B3B9024B1C68ACE70027BEE788160020C9
:101DC00094160020E416002000ED00E02DE9F84311
:101DD000F020FFF793F800286DD005464820FFF764
:101DE0008DF80446002868D0F022A5210563284616
:101DF00002F072FF0025504B636304F10408404673
:101E0000266BE562C4E90E55FFF7B2F804F118003D
:101E1000FFF7AEF8032306F1EC002A462564A36120
:101E20004649246120F0070084F844506462FFF7BB
:101E30002DF9434B20601C60FFF764F9414A424F83
:101E40001368013313603B68002B4AD03F4DE36AAF
:101E50002A6822B93A68D26A9A4298BF3C603C4AE2
:101E6000DFF820C11668DCF800E03A480136166059
:101E700001229A4003EB830342EA0E0200EB830047
:101E80004146CCF80020FFF777F8FFF745F92B68BB
:101E90006BB13A68E36AD26A9A4208D22E4B4FF08D
:101EA00080525A6040BFBFF34F8FBFF36F8F00F077
:101EB0005DFD012806D0BDE8F8832846BDE8F8435B
:101EC000FFF748B8402383F31188244B24494FF08F
:101ED000FF3400220C6028601A60BDE8F843FFF769
:101EE000EBB83C601368012B02D0E36A174DB6E7EC
:101EF0001848DFF894901B4E144DFFF72DF81A4840
:101F0000FFF72AF81948FFF727F84846FFF724F8A3
:101F10003046FFF721F81648FFF71EF81548FFF77F
:101F20001BF81548FFF718F8144B154AC2F8009033
:101F30001E60E36A93E700BF49444C00152200008D
:101F400010170020D016002088160020301700201F
:101F5000E01600209416002000ED00E05C17002041
:101F600014170020FC160020A8160020BC16002024
:101F70001C1700204817002034170020901600205E
:101F80008C160020E4160020E8160020024A136890
:101F900001331360704700BFDC160020014B186846
:101FA000704700BF5C170020024A13681844106095
:101FB000704700BF5C1700202DE9F04F3D4B1B68B8
:101FC00083B0002B64D13C4B1F6801371F60002F8A
:101FD0003DD03A4B01931B68BB424FD8384EDFF8D7
:101FE000F480DFF8F4A0DFF8F490002526E03368F1
:101FF000DB68DC68636804F1040B9F42584655D3E4
:10200000FEF7E0FFA36A04F118000BB1FEF7DAFF58
:10201000E06AD8F800200123834000EB80001343DE
:1020200059460AEB8000C8F80030FEF7A5FFD9F842
:102030000030E26ADB6A9A4228BF012533681B68D8
:10204000002BD4D1019A4FF0FF33136017E01C4EE0
:102050001C4B31681C4A18683060196013680133E2
:10206000136033681B68C3B9144B01931A464FF0D1
:10207000FF33136013461B68BB42AFD90025134BD7
:102080001B68002B0CBF2846012003B0BDE8F08F71
:102090000F4A136801331360F0E73368074ADB68BF
:1020A0000192DB685B681360134694E7019A136042
:1020B000E5E700BFDC1600205C17002014170020A5
:1020C0008C160020901600201817002060170020A2
:1020D000D8160020E4160020941600208816002050
:1020E0002DE9F84FFFF70EF83F4B1A68013A1A60D6
:1020F0001B68002B60D13D4B1B68002B5CD0DFF8C8
:1021000008B1DBF80030002B6AD0394DDFF8FC80D5
:10211000384FDFF8FC900126DBF80C30D3F80CA028
:102120000AF104040AF11800FEF74CFF2046FEF7FE
:1021300049FFDAF82C002A6806FA00F300EB800069
:102140001343214608EB80002B60FEF715FF3B6828
:10215000DAF82C20DB6A9A4234D3C9F80060DBF845
:102160000030002BD8D1244B1A681268002A32D0D4
:102170001A68224BD268D26852681A60204E3468BE
:1021800044B10125FFF718FF08B1C9F80050013C20
:10219000F8D13460D9F8003073B11A4B4FF0805247
:1021A0005A6040BFBFF34F8FBFF36F8F0124FEF71C
:1021B000B3FF2046BDE8F88F0024FEF7ADFF2046B0
:1021C000BDE8F88FDBF80030002BA5D10A4B1A6868
:1021D0001268002ACCD1094B4FF0FF321A60CDE7CC
:1021E000DFF82C90CAE700BFDC160020D0160020D4
:1021F000E4160020881600208C16002014170020FA
:10220000D816002000ED00E01C17002094160020D6
:10221000601700202DE9F84F334CDFF8E890334D7C
:10222000334E344FDFF8E080DFF8E0B018E0FEF71F
:1022300069FFD9F80C30D3F80CA00AF10400FEF7BE
:10224000C1FE2B68013B2B602368013B2360FEF736
:1022500063FFDAF83000FEF77DFE5046FEF77AFEA7
:102260002368002BE3D13368012B08D94FF080534A
:10227000CBF8043040BFBFF34F8FBFF36F8F3B6885
:10228000012BD8F80030DB6A03D9002BE8D1336882
:10229000E6E7002BE4D13368012BE1D8164B174A4F
:1022A0001B6812689B1A012BDAD9154A136801338F
:1022B00013603B68012BD8F80030DB6A04D903B9FE
:1022C0003368FFF70DFFCBE7002BFAD13368012B02
:1022D000F7D8094B1868094B1B68C01A0128F0D9B8
:1022E000FEF788FFEDE700BFD4160020D0160020CF
:1022F00094160020E4160020141700205C1700201C
:10230000DC160020481700208816002000ED00E0B1
:10231000104B1B681BB1104B01221A6070470E490D
:102320000E4A0B6013680E4AB3FA83F3C3F11F031E
:1023300003EB83039B00D018083341684968416070
:102340001344994204BF49684160064BCA681A6049
:10235000704700BFDC16002060170020E416002044
:10236000941600208816002070B51C4D2B680C4672
:1023700003F11801FEF70CFE194B1E6828680430A3
:10238000FEF720FE40B92B681649D86A0B68012277
:10239000824023EA02030B60631C17D02B68A41948
:1023A0005C6007D3104B18682968BDE870400431A1
:1023B000FEF7EEBD0D4B186829680431FEF7E8FD05
:1023C0000B4B1A68944238BF1C6070BD29680948DD
:1023D0000431BDE87040FEF7CFBD00BF8816002075
:1023E0005C170020E4160020901600208C160020B8
:1023F0001417002034170020F8B5214D2B680C4627
:1024000003F118011746FEF7B7FD1E4B1E6828683A
:1024100004302FBBFEF7D6FD50B92B681A49D86A95
:102420000B680122824023EA02030B60631C1DD06B
:102430002B6834195C600BD2144B1868296804317E
:10244000FEF7A6FD124B1A68944200D21C60F8BD3C
:10245000104B18682968BDE8F8400431FEF798BDB4
:10246000FEF7B0FD20B94FF0FF34D6E7002FDFD0E4
:10247000296809480431BDE8F840FEF77DBD00BF7A
:10248000881600205C170020E41600208C1600201F
:10249000141700209016002034170020F8B5C368E8
:1024A000DC6804F118052846FEF78CFD1B4B1B6801
:1024B000002B2DD1261D1A4D3046FEF783FDE26A12
:1024C0002F6818480123934002EB82023B433146B8
:1024D00000EB82002B60FEF74FFD134BE26A1B6896
:1024E000DB6A9A4282BF114B01201860104B1A68B8
:1024F000126898BF002022B90E4B4FF0FF321A60CD
:10250000F8BD1A680B4BD268D26852681A60F8BDE1
:1025100029460948FEF730FDDFE700BFDC16002042
:10252000E416002094160020881600206017002072
:102530008C160020141700201C170020034A044B9F
:1025400012681B68C0E90023704700BF18170020FD
:102550005C170020F8B50D460446FEF7D3FD2B6846
:10256000174A581C11681ED0DFF858C0D4E9006023
:10257000DCF80070BE4206D0884204D80125FEF780
:10258000CBFD2846F8BD0F1ABB4211D95B1ADCF807
:102590000010126803442B600025C4E90012FEF706
:1025A000BBFD2846F8BD0025FEF7B6FD2846F8BD60
:1025B00000232B600125FEF7AFFD2846F8BD00BFC4
:1025C0005C17002018170020014B01221A60704789
:1025D00060170020094B186818B9094B1B6813B124
:1025E000704700207047074A074B10681B68013B83
:1025F000984214BF01200220704700BF1C17002022
:102600006017002034170020D0160020054B1B68EF
:1026100033B1054B1B68002B0CBF02200020704714
:102620000120704730170020DC16002050B1F8B5AB
:10263000C36BC16A826B013B9142C36300D01BB183
:102640000020F8BD00207047071D04463846FEF7FD
:10265000B9FCC0B11448154EA36BD6F800E0E36294
:102660000125C3F1030C05FA03F203EB830342EAED
:102670000E0200EB83003946C4F818C03260FEF742
:102680007BFC2846F8BDE26A0748084E02EB82034D
:102690009B00C358002BDFD13368012101FA02F2FD
:1026A00023EA02023260D7E794160020E4160020E5
:1026B0002DE9F0431D4EDFF87C9085B04FF0000807
:1026C0000CE0DB68DC681F68251D2846FEF77AFCF5
:1026D000636A20469847E369012B0AD033681A6879
:1026E000002AEED1124A11683160136005B0BDE8CE
:1026F000F083A3693B449F42294610D3D9F80030A8
:10270000002BEBD0CDE900870294FFF77FFF002379
:102710001A466946D9F80000FEF718FEDEE7636046
:1027200024613068FEF734FCD8E700BF641700204E
:1027300068170020981700202DE9F04F864E874C2F
:10274000DFF82482864D8BB001273368D3F80090E0
:10275000B9F1000F56D0DB68D3F80090FFF716FCF4
:10276000FFF71CFC2368834283465CD881452060C8
:1027700063D90022A9EB0B012868FFF757F9FFF78F
:10278000AFFC40B9774B4FF080525A6040BFBFF367
:102790004F8FBFF36F8F2868002202A9FEF7AEFFAC
:1027A0000028D2D0029BDDF810A0002B20DBDAF845
:1027B00014301BB10AF10400FEF704FCFFF7EEFB36
:1027C00023689842834635D3029BC4F800B0092B96
:1027D000E1D807FA03F313F4047F52D113F0C70FC3
:1027E00065D19B06D7D55046FEF7B4FB2868D3E7E2
:1027F000039B059950469847029B002BCBDBDDF8E5
:1028000010A0D4E7FFF7C2FBFFF7C8FB236898428C
:10281000834608D3D8F80030C4F800B01A68B2FA7A
:1028200082F25209A6E7FFF743FFC4F800B0FFF7B2
:1028300057FCB0E7FFF73CFFC6E7FFF751FC3368F2
:10284000DB68D3F80CA00AF1040108460191FEF7F9
:10285000B9FBDAF81C200199012A04D0DAF82430F7
:102860005046984797E7DAF81800CAF810A009EB25
:1028700000025A45CAF8042049D93068FEF788FB9F
:10288000ECE7039BCAF810A003EB0B025A45CAF809
:102890001830CAF8042053D8002B3FF47CAFD8F886
:1028A00000000AF10401FEF773FB286874E7039B3C
:1028B000DAF81820CAF810A099182CBF01200020BF
:1028C0005945CAF8041037D8ABEB03039A42E6D84F
:1028D000DAF8243050469847DAF81C302868012B83
:1028E0007FF45AAF00283FF457AFDAF81820039B63
:1028F000002113440691CDE9073AFFF787FE002334
:102900001A4606A92868FEF721FD286844E7ABEBC4
:10291000090B58451BD82B68002B9FD00023CDE90D
:102920000639CDF820A0FFF771FE00231A4606A94C
:102930002868FEF70BFD91E75B4501D90028C7D059
:1029400030680AF10401FEF723FB286824E7D8F871
:102950000000FEF71DFB81E764170020941700209C
:102960009817002000ED00E068170020F0B5174C24
:1029700083B0FEF7C7FB25687DB1FEF7CDFB20686D
:1029800048B1134B019302230093502200231149B5
:102990001148FFF7B3F803B0F0BD104F104E3846A2
:1029A000FEF7DAFA3046FEF7D7FA0E4A0E4B1760FA
:1029B00010212A4620201E60FEF78EFC2060002891
:1029C000DBD00A49FFF720F8D7E700BF98170020AF
:1029D0009C170020604E0000392700006C17002073
:1029E000801700206417002068170020584E000050
:1029F00000B585B000230390194601AA44F20100F6
:102A0000CDE9013300F004F805B05DF804FB00BF28
:102A100010B572B6FEF7FAF8FDF7DCFD0028FBD121
:102A2000104B114C1149E41AE408240444F001004D
:102A3000FDF7DEFF0E4B1B68DB0700D500BE44F040
:102A400002000C49FDF7D4FFBFF34F8F0A490B4B2F
:102A5000CA6802F4E0621343CB60BFF34F8F00BF3C
:102A6000FDE700BF645000008C500000684E00007D
:102A7000F0ED00E0744E000000ED00E00400FA0507
:102A800072B6024A1368013313607047A017002022
:102A9000034A1368013B136003B962B6704700BF75
:102AA000A017002050E8002F0B4640E8003C9CF0A7
:102AB000000FF7D11046704750E8003F03EB0102CA
:102AC00040E8002C9CF0000FF6D11046704700BF84
:102AD00050E8003FA3EB010240E8002C9CF0000FFF
:102AE000F6D11046704700BF012350E8002F42EA9C
:102AF000030C40E800C191F0000FF6D1604670472A
:102B0000002350E800CF0CEA030240E8002191F0D6
:102B1000000FF6D160467047B8B130B4D0E9011269
:102B2000521A0468D2B2531E2160DBB242B101686E
:102B30000A685C1E551C0D601370E3B2FF2BF6D1C2
:102B400003680020187130BC70470E20704700BF2A
:102B500038B504460020FFF793FFD4E900311A6826
:102B60008A4215D9511E19602168A3680868258A10
:102B700012F8012CE4681B1A0879DBB2984205FBB5
:102B8000024400D20B710020FFF782FF204638BDBF
:102B900000240020FFF77CFF204638BD38B50546ED
:102BA00000200C46FFF76CFF2A681368591C11605F
:102BB000E9682A8A641AB4FBF2F41C700020BDE8AC
:102BC0003840FFF765BF00BF826842B110B50446C8
:102BD00043690168006998470023A36010BD7047EE
:102BE0000EB400B582B0039921B104AB01AA0193E0
:102BF00000F0B2F802B05DF804EB03B0704700BF1C
:102C00002DE9F04F8A4683B0924516460546984610
:102C1000DDE90CB1C0F09C8053460127B3FBF6F30D
:102C20009E4207F10107F9D9474538BF474611F0E1
:102C30000103AA68009302D1BBF1000F68D10124FF
:102C400003E008F1FF3806FB04F4B8F1010FF8D8EF
:102C5000BAFBF4F08642F6D9DFF8F8904FF00D0891
:102C600007E0B442B4FBF6F31CD3BAFBF3F0AA6856
:102C70001C4619F8003029680A2B04FB10AA01EB46
:102C8000020E02F1010028D0A8608EF80030D5E9CC
:102C900001329A42E5D32846FFF796FFB4FBF6F3DC
:102CA000B442E2D2009BABB1BBF1000F12D0BB45E6
:102CB00010D92024AB682A68591CA960D454D5E9DE
:102CC00001329A420BF1FF3B1ED2BBF1000F01D043
:102CD000BB45EFD103B0BDE8F08FA86001F80280DA
:102CE000D5E90120904204D22A6802EB000E01309F
:102CF000CAE728460193FFF767FFAA682968019B86
:102D0000501C01EB020EBFE72846FFF75DFFDCE732
:102D10008B0717D42024BB4591D92B68511CA9607F
:102D20009C54D5E901329A420BF1FF3B05D2BBF12D
:102D3000000F84D0BB45F0D181E72846FFF744FF60
:102D4000AA68F4E7B8F1000F0CBF30242024E2E7B2
:102D5000012769E7844E0000002900F0E9822DE98F
:102D6000F04F054685B091460C460E78DFF81CA75B
:102D70004FF00D0B13E0AB6828680A2E03F1010237
:102D800000EB030100F02681AA600E70D5E9013244
:102D90009A4280F011812678002E00F014810134CF
:102DA000002E00F01081252EE5D12146002711F8D4
:102DB000012B2D2A00F0E580302A00F0E6802B2A36
:102DC00000F0D6802A2A00F01181A2F13006F3B279
:102DD000092B03D922E2A3F130060146084606EB8F
:102DE000860310F8012BA2F13004092C02EB4303F7
:102DF000F1D92E2A00F006814FF0000802F0FB0303
:102E0000682B01F1010405D114F8012B02F0FB033A
:102E1000682BF9D0253A532ABDD801A353F822F0E4
:102E2000B5310000972D0000972D0000972D000070
:102E3000972D0000972D0000972D0000972D000082
:102E4000972D0000972D0000972D0000972D000072
:102E5000972D0000972D0000972D0000972D000062
:102E6000972D0000972D0000972D0000972D000052
:102E7000972D0000972D0000972D0000972D000042
:102E8000972D0000972D0000972D0000972D000032
:102E9000972D0000972D0000972D0000972D000022
:102EA000972D0000972D0000972D0000972D000012
:102EB000972D0000972D0000972D0000972D000002
:102EC000972D0000972D0000972D0000972D0000F2
:102ED000972D0000972D0000972D0000972D0000E2
:102EE000972D0000972D0000972D0000CD31000098
:102EF000972D0000972D0000972D0000972D0000C2
:102F0000972D0000972D0000972D0000972D0000B1
:102F1000972D0000972D0000932F00002F31000007
:102F2000972D0000972D0000972D0000972D000091
:102F30002F310000972D0000972D0000972D0000E5
:102F4000972D0000972D0000972D0000A73000005E
:102F5000972D0000972D00004D300000972D0000A8
:102F600031300000972D0000972D0000CD3100007A
:102F700047F004070C46214611F8012B2D2A7FF457
:102F80001BAF47F001070C46F5E747F002070C4678
:102F9000F1E7D9F800301A1DC9F800201E78AB6897
:102FA0000A2E00F04F822A68591CA960D654D5E930
:102FB00001329A42FFF4EFAE2846FFF705FE26786D
:102FC000002E7FF4ECAE2B7B002B40F0218105B06E
:102FD000BDE8F08FAA6000F803B0D5E901329A424B
:102FE00080F00E81296811440132CDE6D9F8003015
:102FF0001A1DC9F8002062781E682E2A04F102000A
:103000007FF4FAAE4A78A2F13003092B01464FF063
:1030100000083FF6F3AE08EB880802EB480811F809
:10302000012FA2F13003092BA8F13008F3D9E5E60E
:10303000D9F800301A1DC9F80020196801974346D5
:1030400000960A222846FFF7DBFDA4E6D9F80030F7
:103050001A1DC9F80020D3F80080FB0700F1EB80AF
:10306000B8F1000F00F0EC81404601F03DFE07464C
:10307000BE4240F25E81002E00F05B81202102E022
:10308000BE4200F05681AA682B68501CA860995473
:10309000D5E90123934206F1FF36F1D32846FFF725
:1030A00093FD2021ECE7D9F80020131DC9F800306A
:1030B000AB6829681768581C3022A860CA54D5E943
:1030C0000123934280F0F1802A68581C7821A8607F
:1030D000D154D5E90123934280F0E2800F2F03D928
:1030E0003A4612090F2AFCD84FF0805606E00F2E00
:1030F0004FEA16137FF64FAE1E46AB68B7FBF6F2EB
:103100001AF802802868B8F10A0F06FB127700EB64
:10311000030103F1010267D0AA6081F80080D5E9BC
:1031200001329A42E3D32846FFF74EFDDFE7D9F894
:1031300000301A1DC9F80020196881EAE172A2EB7B
:10314000E172092A4FF001000BDDDFF844C300E013
:103150001A46ACFB02E3632A00F101004FEAD303F5
:10316000F6DC4045034638BF4346029307F00203AE
:10317000002E57D00029C0F29D807A0700F19A8076
:10318000002B00F09980B8F1000F40F095800029E5
:10319000C0F237817A0700F1478107F00303022B61
:1031A00000F0FE80CDE9006743460A222846FFF77B
:1031B00027FDF0E5AB682A68581C2521A860D1548A
:1031C000D5E901329A42FFF4E6ADF5E6D9F80030D0
:1031D0001A1DC9F80020196801974346009610226D
:1031E0002846FFF70DFDD6E5AA6000F803B0D5E943
:1031F00001329A4280F094802B68991801328BE753
:103200002846FFF7E1FCAB6829685A1C1944BBE566
:10321000284605B0BDE8F04FFFF7D6BC08460026AB
:103220002146E6E52BB1B8F1000F00F02881F80740
:10323000ADD40026ABE798F80020002A00F02381E7
:10324000AB684746C8F10101D5F800E00A2A01EB56
:1032500007080EEB030C03F1010055D0A8608CF8B1
:103260000020D5E90123934243D217F8012F002A09
:10327000EAD146457FF68FAD202702E046453FF470
:103280008AADAA682B68511CA9609F54D5E9013208
:103290009A4206F1FF36F1D32846FFF795FCEDE799
:1032A0002846FFF791FCAB6818E72846FFF78CFC2F
:1032B000AB6809E7013E63E7F8073FF568AF002E0A
:1032C000B7D0029BB342BFF462AF2023AA68501C60
:1032D000A86028688354D5E90102824206F1FF36CE
:1032E00080F0BF80002EA4D0029AB242EED11646E2
:1032F0004DE728460291FFF767FC17F8012F002AD7
:10330000B7D0AB6802999FE7A8600EF803B0D5E983
:103310000130984260D22B6803EB000C01309DE72E
:103320002846FFF751FCA9682B684A1C1944F3E6AC
:10333000704798F80060002E3FF42DADAB68286808
:103340000A2E03F1010200EB030111D0AA600E70F6
:10335000D5E9012393421BD218F8016F002E3FF4E8
:103360001AAD28680A2E03F1010200EB0301EDD12A
:10337000AA6000F803B0D5E901329A4239D229682F
:1033800011440132AA600E70D5E901239342E3D3C0
:103390002846FFF719FC18F8016F002ECED1FAE489
:1033A000B8F1000F7FF4FEAE002E6AD0029BB3424C
:1033B000BFF4F8AE3023AA68501CA8602868835474
:1033C000D5E90102824206F1FF3651D2002E58D0D3
:1033D000029AB242EFD1E5E62846CDE90221FFF795
:1033E000F3FBAB682A68581C02EB030CDDE90221F1
:1033F00034E72846FFF7E8FBAB6829685A1C1944F4
:10340000A4E7AA68531CAB602B682D209854D5E91B
:1034100001329A42C1F10001FFF4BFAE2846039188
:10342000FFF7D2FB0399B8E6AA68531CAB602B6880
:103430002B209854D5E901329A42FFF4AEAEEDE765
:10344000474615E62A68591CA96002F803B0D5E979
:1034500001239342FFF4A7AD2846FFF7B5FBAB6805
:10346000A1E528460391FFF7AFFB2023039939E735
:1034700028460391FFF7A8FB30230399A6E74646A9
:1034800085E600268EE69046F3E600BF844E0000F7
:10349000CDCCCCCCFFF740BB2DE9F041058ACF1C49
:1034A000043D2F440646B7FBF5F7FFF751FB002814
:1034B00034D0FFB24FF48073013F0446C5800660EC
:1034C00083802CD08046002509E06379AF4203F168
:1034D00001036371C8F80000066080461FD03046C3
:1034E000FFF736FB01350028EFD194F805802768F7
:1034F000B8F1010316D03D46013083422D68FBD15F
:10350000B8F1000F0AD0002601E03C463F68214692
:1035100001362846FFF742FBB045F6D80024204686
:10352000BDE8F08121463846FFF738FBF6E700BFDB
:1035300004300121FFF7C0BA2DE9F0410121044612
:103540000430FFF7C5FAC0B208B1BDE8F08194F8C5
:1035500005802568B8F1010314D02E46013083425E
:103560003668FBD1B8F1000FEFD0002701E02C4600
:103570002D68214601373046FFF710FBB845F6D8D5
:10358000BDE8F08121462846BDE8F041FFF706BBC3
:103590002DE9F8430546C6884079144606FB00F23B
:1035A000043A04EB030C1F1D624538BFD41ABE4217
:1035B0008846B7FBF6F106FB117002D801392D6879
:1035C000FCD1371AA74228BF27469CB14FF000090B
:1035D0000430E41B28443A4608EB090101F06EFB75
:1035E000A642B9442D6837464FF0000028BF274651
:1035F000002CEDD1BDE8F8832DE9F8430546C688D7
:103600004079144606FB00F2043A04EB030C1F1D3C
:10361000624538BFD41ABE428846B7FBF6F006FBB7
:10362000107102D801382D68FCD1771AA74228BF43
:1036300027469CB14FF0000904312944E41B3A4667
:1036400008EB090001F03AFBA642B9442D68374661
:103650004FF0000128BF2746002CEDD1BDE8F883CC
:103660008268002393608268136182685361826874
:10367000D3608268536082681360704710B568B980
:103680000E4CA368012262703BB1D3E900230020F5
:10369000A2609847A368002BF7D110BD0128FCD188
:1036A000064C2369A070002BF7D0D3E9002301203A
:1036B000226198472369002BF7D110BDA417002081
:1036C00038B50A4C237813B18525284638BD0848FB
:1036D0006360A3602361E36000F03AF8054600F000
:1036E00043F801232370284638BD00BFA4170020EB
:1036F0007D36000038B5154DAB78044673B110B176
:103700004368012098470020FFF7BAF9EB680133BE
:10371000EB600020BDE83840FFF7BAB903F0FF00C6
:10372000FFF7AEF964B12A6942B1944208D013465A
:1037300001E09C4204D01B68002BFAD122602C616E
:10374000EB68002BE2D100F021F8DFE7A41700209E
:10375000044A137923B901211060918018467047FB
:1037600085207047B8170020074B1A68D20704D489
:10377000C021012283F800131A604FF08043012218
:10378000C3F81825704700BF00E100E010B4094BF2
:10379000094A0021196083B01B680193019C4FF016
:1037A000804102200123C1F80403136003B05DF8D7
:1037B000044B7047040100400800004010B5154B51
:1037C0001A6882B062B10021134A19601B685079EF
:1037D00000934FF080410123009CC1F80833A8B149
:1037E0000E4B1A6882B100221A601B6801934FF0D9
:1037F00080420221084B0198C2F808131B6801207F
:1038000002B0BDE81040184702B010BD11685371F6
:103810008847E5E700010040B81700200401004098
:103820002DE9F047002388B0CDE90233C84A166875
:10383000012E00F047821E46C64B1A68012A00F08E
:103840003382C54B1A68012A00F02082C34B1A68E4
:10385000012A00F00D82C24B1A68012A00F0FA8199
:10386000C04B1A68012A00F0E781BF4B1A68012A91
:1038700000F0D481BD4B1A68012A08D0BC4B1A68ED
:10388000012A00F02A820EBB08B0BDE8F087B94AD1
:10389000D2F804231706F1D500221A6019680091A6
:1038A000603319680098012946F080060ED11A602D
:1038B0001B6801934FF0A042019BD2F81025AE4B3C
:1038C0000292D3F81035039346F00046AB4F002424
:1038D0000125A30003F180432E4203F5C0434FEAC4
:1038E00045050BD0D3F8100557F82420D3F8101550
:1038F000C0F30520C1F3014102B190470134082C07
:10390000E7D1002EC0DA0DF110089C4C9A4F00232D
:10391000C8F80430049394F960304FF0FF304FF052
:10392000FF315D1CCDE906014FF0010600F0F58086
:103930005FFA83FC2CF0C00008AB4FEAD00903EB20
:10394000090E0CF007031EF8082C06FA03F312EA1E
:10395000030521D022184FEA9C1192F9302054F827
:103960002220002A00F03481032900F033811F282F
:1039700000F2E98005464FF0A04C0CEB850C1EF8D8
:10398000185CDCF800E71D40CEF3014E40F0CF801C
:10399000BEF1030F00F0B38194F96130581C32D0AE
:1039A000DBB223F0C00008AA4FEAD00E02EB0E0CE7
:1039B00003F007011CF8082C06FA01F912EA090FB6
:1039C00021D02218990992F9302054F82220002A97
:1039D00000F01081032900F010811F2800F2F4800C
:1039E00003464FF0A04E0EEB83031CF818ECD3F8FF
:1039F00000C71EEA090FCCF3014C40F0D980BCF19E
:103A0000030F00F08E8194F96230591C32D0DBB282
:103A100023F0C00008AA4FEAD00E02EB0E0C03F010
:103A200007011CF8082C06FA01F912EA090F21D047
:103A30002218990992F9302054F82220002A00F027
:103A4000CF80032900F0CF801F2800F2A580034615
:103A50004FF0A04E0EEB83031CF818ECD3F800C710
:103A60001EEA090FCCF3014C40F08A80BCF1030F31
:103A700000F06B8194F963305A1C33D0DBB223F031
:103A8000C00008AA4FEAD00E02EB0E0C03F00702AA
:103A90001CF8081C06FA02F2114223D004EB0009BC
:103AA000990999F9309054F82990B9F1000F00F074
:103AB000AB80032900F0AB801F288BBFBE464FF0C0
:103AC000A04E03F01F0303460EEB83031CF818EC13
:103AD000D3F800C71EEA020FCCF3014C60D1BCF151
:103AE000030F1CD0002D3FF4CFAE4FF0A042029B3D
:103AF000D2F81015D7F810058B4203D1039B8342EF
:103B00003FF4C2AEDDE90423CDE9062394F9603029
:103B10005D1CCDE902107FF40BAF00253CE70329C3
:103B200000F02981B9F1000FDCD0C847DAE7BEF117
:103B3000020FF2D1032900F039810025002A3FF459
:103B40002BAF904728E70CF01F05BC4615E700BFD8
:103B50000061004004610040086100400C610040C9
:103B60001061004014610040186100401C61004079
:103B70007C6100400060004000030050C01700203E
:103B8000BCF1020F7FF476AF032900F00C81002A0C
:103B90003FF470AF90476DE703F01F03BE4659E74F
:103BA000BCF1020F9ED10329BCD14FF4403CE4E0AC
:103BB000BCF1020F7FF427AF032900F0F180002A47
:103BC0003FF421AF90471EE703F01F03BE460AE70C
:103BD0000329A2D118F809501D4308F80950C6E678
:103BE00003297FF447AF18F80EA04AEA090A08F83B
:103BF0000EA029E703297FF406AF18F80EA04AEAC1
:103C0000090A08F80EA0E8E603297FF46BAF18F85C
:103C10000EA04AEA020A08F80EA04DE7654AD2F85B
:103C2000042352067FF526AE00221A601B6800931B
:103C3000009B46F040061DE65E4AD2F8042391063A
:103C40007FF513AE00221A601B680093009B46F0BC
:103C500020060AE6574AD2F80423D0067FF500AEC4
:103C600000221A601B680093009B46F01006F7E5DF
:103C7000504AD2F8042314077FF5EDAD00221A60F4
:103C80001B680093009B46F00806E4E5494AD2F819
:103C9000042355077FF5DAAD00221A601B680093F4
:103CA000009B46F00406D1E5424AD2F80423970768
:103CB0007FF5C7AD00221A601B680093009B46F099
:103CC0000206BEE53B49D1F8041311F0010150D0C2
:103CD000136013680093009BAEE500221A601B6816
:103CE00001934FF0A042019BD2F81025324B029273
:103CF000D3F810350393002E3FF405AEE4E5032915
:103D00007FF41CAF4FF40035DCF8003723F4403368
:103D1000CCF80037DCF800372B43CCF8003701250E
:103D20000CE703297FF44BAF4FF4003ED3F800C7F4
:103D30002CF4403CC3F800C7D3F800C701354EEA65
:103D40000C0CEDB2C3F800C739E703297FF41FAFAD
:103D50004FF4003ED3F800C72CF4403CC3F800C732
:103D6000D3F800C701354EEA0C0CEDB2C3F800C71A
:103D70000DE70E4660E54FF4003CD3F8002722F42F
:103D80004032C3F80027D3F80027013542EA0C027D
:103D9000EDB2C3F80027B9F1000F7FF4C6AEA4E678
:103DA0004FF4403EC2E74FF4403ED3E74FF4403576
:103DB000AAE700BF0060004000030050F8B50020F3
:103DC000FDF788FF0C4C0D4B0D4F0E4EE41AE40826
:103DD0002404851E44F0030439462046FCF708FEFF
:103DE00031462046FCF704FEFCF7F4FB0028FBD12B
:103DF0002946FDF783FFEFE78C5000006450000078
:103E00000C4F0000204F00002DE9F0410020FDF78D
:103E100061FF0E4C0E4B0F4F0F4E104DE41AE4088D
:103E2000240400F1010844F0030431462046FCF765
:103E3000DFFD29462046FCF7DBFDFCF7CBFB002825
:103E4000FBD141463868FDF759FFEEE78C50000082
:103E5000645000002C180020D44E0000E84E0000F2
:103E600010B582B0FFF72CFC002832D10120FDF7FD
:103E700017F84FF400410020FCF74AFB60BBFCF749
:103E800037FB174B17481849C01AC008000440F008
:103E90000300FCF7ADFD00240222234600921349E3
:103EA00001944FF482721248FDF728FE114B0193E2
:103EB000012223460092104910484FF48272FDF708
:103EC0001DFE0F4A136943F004031361FDF77EFFE3
:103ED000FEE7FEF78DFDC9E7FEF78AFDCFE700BFDD
:103EE000645000008C500000AC4E0000C44E000036
:103EF000093E00002C180020CC4E0000BD3D000003
:103F000000ED00E010B44FF080414FF080520020EF
:103F1000C1F80C015E4BC1F81001C1F83805D2F8A8
:103F20000414C3F82015D2F80814C3F82415D2F8E5
:103F30000C14C3F82815D2F81014C3F82C15D2F8B5
:103F40001414C3F83015D2F81814C3F83415D2F885
:103F50001C14C3F84015D2F82014C3F84415D2F845
:103F60002414C3F84815D2F82814C3F84C15D2F815
:103F70002C14C3F85015D2F83014C3F85415D2F8E5
:103F80003414C3F86015D2F83814C3F86415D2F8A5
:103F90003C04C3F86805D2F840043E49C3F86C05F8
:103FA0000968D2F84424C3F87025082924D04FF0BA
:103FB0008043D3F80024D20744BF6FF00102C3F856
:103FC0000024354AD2F8883043F47003C2F88830B0
:103FD000BFF34F8FBFF36F8F4FF01023D3F8002242
:103FE000002A23DBD3F80432002B1FDB2B4B2C4A97
:103FF0001A605DF8044B70472A4B1B68002BD6D122
:1040000029482A4A2A4C04602A492B4BFB20C2F833
:1040100018050A681B68294822F00F0203F00F03F5
:1040200013434FF400720B600260C0E7244A01237F
:10403000C2F80435D2F80034002BFBD04FF0102327
:1040400012211F4AC3F80012D2F80034002BFBD013
:104050004FF0102312211A4AC3F80412D2F8003488
:10406000002BFBD000231649C2F80435D1F80034E8
:10407000002BFBD0BFF34F8F0749124BCA6802F4E5
:10408000E0621343CB60BFF34F8F00BFFDE700BF7B
:1040900000C000403001001000ED00E01C000020D6
:1040A0000090D003340100108C56004000F0004016
:1040B00048810300E40E0040580200104096024080
:1040C00000E001400400FA0530B585B00478456889
:1040D0008DF80040D0E90240064A074B039053F8A0
:1040E000213001958DF8084052F821106846984714
:1040F00005B030BD301800203818002030B585B02C
:10410000047845688DF80040D0E90240064A074B24
:10411000039053F8213001958DF8084052F8211092
:104120006846984705B030BD301800203818002088
:104130002DE9F043DFF8748006784B7F08F80630ED
:104140000D46074696460FCD89B06C460FC495E8DC
:104150000F003D78DFF85890DFF858C018F8055088
:1041600049F826E084E80F004CF82600049665B173
:10417000BEF1000F0B4A694607F1040008BF002298
:1041800000F060FB09B0BDE8F083BEF1000F064A05
:10419000694607F10C0008BF002200F0EDF809B0F5
:1041A000BDE8F083C9400000FD400000AC180020CD
:1041B000381800203018002030B56D4AD2F804338A
:1041C00099058BB066D5D2F82431002B62D000233C
:1041D000C2F82431D2F8243103934FF40171654BB6
:1041E0000398C2F8081393F8291009B90121516006
:1041F0005F4902228DF81820D1F88024C1F880246C
:104200009869D96809920022CDE90710C3E906220E
:10421000D3E9001406A8A047554AD2F81C31C3B10F
:10422000544B186A5969884269D293F8280000F003
:10423000FF04002863D1C2F81C41D2F81C1102917E
:1042400002999C68186A196A205C01311962C2F8E7
:104250001C05474AD2F84431D3B10021454BC2F87E
:104260004411D2F8440193F82910009000980029D5
:104270005AD19A6962B10022586AD9689A610122BA
:10428000CDE907108DF8182006A8D3E90012904751
:104290000BB030BD364AD2F804335B07BCD5D2F838
:1042A0000831002BB8D0334B996900293FD0002149
:1042B000C2F80811D2F8081104910499D868596A13
:1042C000D2F8182542545A6A996901325A625A6AD8
:1042D0008A42A1D1DA691968002A31D0D8685D6AAA
:1042E0001C699A61079000220120DC60DA615A6241
:1042F0008DF8180008955B6806A898478CE71C4A5B
:104300000020C2F81C01D2F81C210192019A002958
:104310009FD09A688DF8180008915861079206A8F6
:10432000D3E90012904794E701211160A1E7C2F898
:104330000811D2F8080105900598D2F81825C6E7AB
:1043400093F8292012B90A4A01205060084A4FF414
:104350000170C2F80803586ADA6808900024012046
:1043600007928DF818005A689C6106A8904753E799
:1043700000200040401800202DE9F041DFF8D481F2
:1043800007792C2606FB078682B096F82A30002B88
:1043900040F098800C46054669490068164600F0D2
:1043A0002BFC002840F08A802368591C19D01F2B51
:1043B0004FF001028ABF63494FF0A04103F01F0391
:1043C00002FA03F3C1F8083523681F2B86BF03F0F8
:1043D0001F035C4A4FF0A04203F5E073032142F84B
:1043E000231063685A1C0BD01F2B86BF03F01F03DA
:1043F000544A4FF0A04203F5E073002142F8231025
:104400002B68A269C3F82425217D637D2A680B43AC
:10441000C2F86C35D4E900122B68C3F81425C3F830
:104420000C15237D012B57D02C2303FB07F308EB3E
:1044300003025660226948F8032066B32A68237F86
:10444000414C0021C2F81C11D2F81C2100922A68AC
:10445000009EC2F84411D2F844112A6801910199D2
:10446000C2F804432A68120B51B25B010029DBB287
:104470002CDB01F1604101F5614181F800332B68CB
:10448000324C1B0B5AB2520903F01F03012101FAEF
:1044900003F344F822302C232C6803FB078300220B
:1044A00004250121C4F8005583F82A10C3E9062227
:1044B00083F829205A6102B0BDE8F081112002B0D2
:1044C000BDE8F081082002B0BDE8F081204902F08B
:1044D0000F0211440B76D2E7A368591C0BD01F2B97
:1044E00086BF03F01F0317494FF0A04103F5E073A7
:1044F000002241F82320E3685A1C1AD01F2B8ABFE0
:1045000010494FF0A04103F01F03012202FA03F308
:10451000C1F80835E3681F2B88BF03F01F0303F5BC
:10452000E0738CBF07494FF0A041032241F82320DC
:10453000E3682A68A168C2F80835C2F8101573E765
:10454000B9410000000300508000020000E100E0DB
:10455000FCEC00E040180020F8B53A4F04790268FE
:104560002C2303FB047300215B68C2F8001583B1A0
:104570000368354AC3F808230368344D1B0B5AB24D
:104580005209203203F01F03012101FA03F345F819
:10459000223003684FF0FF3CD3F80C65D3F8145574
:1045A000D3F80825D3F81015C3F814C5C3F80CC503
:1045B00003686645C3F808C5C3F810C50CD01F2EA4
:1045C00086BF06F01F06224B4FF0A04306F5E076AB
:1045D0004FF0020C43F826C06E1C0BD01F2D86BF77
:1045E00005F01F051A4B4FF0A04305F5E0750226B4
:1045F00043F825604D1C0BD01F2986BF01F01F0119
:10460000134B4FF0A04301F5E071022543F8215010
:10461000531C0BD01F2A86BF02F01F020C4B4FF019
:10462000A04302F5E072022143F82210006800F076
:1046300001FB2C2303FB0474002384F82A306360FD
:10464000F8BD00BF401800208402020000E100E035
:1046500000030050F0B5314E05792C2303FB0563B0
:1046600085B05C69002C4DD11C62996083F82840AC
:104670005A610268C2F81C41D2F81C11026802910A
:104680000121029F91600268D3F808C0C2F81C4162
:10469000D2F81C1101910199D3F820E0196A5F68E2
:1046A0001CF80EE001311962C2F81CE517B1204672
:1046B00005B0F0BD1A6A5C690168944203D819E03C
:1046C00093F828200ABBD1F81C21002AF8D0C1F8A1
:1046D0001C71D1F81C210392039AD3F820E01A6AC6
:1046E0001CF80EE001321A62C1F81CE51A6AA242F7
:1046F000E9D30168D1F81C31002BFBD00123CB603A
:10470000002003E0112005B0F0BD0F202C2303FB97
:10471000056500236B6105B0F0BD00BF40180020A7
:10472000F0B5464BD3F8242189B0002A55D000219A
:10473000C3F82411D3F82421029202228DF810200C
:10474000029AD3F880043E4AC3F880040790D3F855
:104750003C05D3680690C2E90611059311685368B9
:1047600004A89847354BD3F844214AB10021344A74
:10477000C3F84411D3F84401916901900198D9B963
:104780002E4BD3F82021AAB10021C3F82011D3F871
:1047900020012B4A00900098506958B1D3F84C057D
:1047A000936806908DF810105161059304A8D2E922
:1047B0000013984709B0F0BDD3F83C35D168069393
:1047C00000240025012305918DF81030C2E906452B
:1047D000D2E9001304A89847D2E7D3F810110029B2
:1047E000C0D0C3F81021D3F81011154803910399D4
:1047F0008169D3F83C458C42B4D1C569C768D0E91A
:1048000000168DB1D3F800C285612CF02005C2617D
:10481000C3F800520369C3600122CDE905748DF825
:10482000102004A8B0479DE701238561CDE90574F8
:104830008DF8103004A8B04794E700BF0020004076
:10484000701800202DE9F0430779794E4FEAC70828
:1048500008EB070306EB830385B093F82030002BA9
:1048600040F0A8800D46044672490068914600F069
:10487000C3F9002840F09A802B68591C19D01F2BCF
:104880004FF001028ABF6C494FF0A04103F01F03B3
:1048900002FA03F3C1F808352B681F2B86BF03F01B
:1048A0001F03654A4FF0A04203F5E073032142F86D
:1048B00023106B685A1C0BD01F2B86BF03F01F03FD
:1048C0005D4A4FF0A04203F5E073002142F8231047
:1048D0002368AA69C3F82425297D6A7D23680A43D1
:1048E000C3F86C25D5E900312268C2F80C35C2F84E
:1048F00014152B7D012B67D008EB07029200B3182B
:10490000C3F804902B69B350B9F1000F3DD0216872
:104910002B7F4A4D0022C1F81021D1F810110091CF
:104920002168DDF800C0C1F82021D1F820110191E3
:104930002168DDF804C0C1F82421D1F824110291C6
:104940002168DDF808C0C1F84421D1F8441122687B
:1049500003910399C2F804532268120B51B25B0110
:104960000029DBB22ADB01F1604101F5614181F8E8
:1049700000332368324D1B0B5AB2520903F01F0358
:10498000012101FA03F345F822304744226806EB7F
:104990008706002301240821C2F8001586F820406C
:1049A000C6E90633736105B0BDE8F083112005B098
:1049B000BDE8F083082005B0BDE8F083214902F08E
:1049C0000F0211440B76D4E7AB68591C0BD01F2B98
:1049D00086BF03F01F0318494FF0A04103F5E073B1
:1049E000002241F82320EB685A1C1AD01F2B8ABFE3
:1049F00011494FF0A04103F01F03012202FA03F313
:104A0000C1F80835EB681F2B88BF03F01F0303F5BF
:104A1000E0738CBF08494FF0A041032241F82320E6
:104A2000EB682268A968C2F80835C2F8101563E778
:104A300070180020214700000003005010030200FE
:104A400000E100E0FCEC00E0F8B507793A4C0268C0
:104A5000FE00F31904EB830300215B68C2F8001524
:104A600083B10368354AC3F808230368344D1B0B30
:104A70005AB25209203203F01F03012101FA03F355
:104A800045F8223003684FF0FF3ED3F80CC5D3F849
:104A90001455D3F80825D3F81015C3F80CE5C3F85E
:104AA00014E50368F445C3F808E5C3F810E50DD034
:104AB000BCF11F0F86BF0CF01F0C224B4FF0A04320
:104AC0000CF5E07C4FF0020E43F82CE06B1C0CD090
:104AD0001F2D86BF05F01F051A4B4FF0A04305F5AB
:104AE000E0754FF0020C43F825C04D1C0BD01F2978
:104AF00086BF01F01F01134B4FF0A04301F5E07199
:104B0000022543F82150531C0BD01F2A86BF02F008
:104B10001F020C4B4FF0A04302F5E072022143F854
:104B200022103E4404EB8604006800F083F8002362
:104B300084F820306360F8BD701800201003020074
:104B400000E100E00003005001F06043B3F1005FBA
:104B50002DD1F0B40579244EEF007C1906EB8404C6
:104B600082B06369002B39D16261A1600268C2F82A
:104B70002031D2F820C10268CDF804C0DDF804C0AD
:104B8000C2F85831D2F8582100920268DDF800C00E
:104B9000D4F814C0C2F84415C2F848C5026801210F
:104BA000916062682AB1184602B0F0BC70471020CC
:104BB0007047036800E0AAB9D3F82011D3F8582150
:104BC0000029F8D0002A14BF0F2000207B1906EB23
:104BD000830300225A6102B0F0BC7047112002B07A
:104BE000F0BC70470F20F1E770180020014B1B68E4
:104BF000184700BF9418002038B50C4B984213D1C9
:104C000000200D46FDF73CFF094B1C7924B1002024
:104C1000FDF73EFF112038BD012220461D601A71AC
:104C2000FDF736FF204638BD002038BD002000408B
:104C300094180020034B984203D1034B00221A60C2
:104C40001A717047002000409418002008B5074BE7
:104C5000044613B10021AFF30080054B1868836A46
:104C600003B19847204600F047F800BF000000005D
:104C70005C50000070B50D4D0D4C641BA410002657
:104C8000A64209D10B4D0C4C00F038F8641BA4105F
:104C90000026A64205D170BD55F8043B9847013661
:104CA000EEE755F8043B98470136F2E78000002014
:104CB0008000002080000020840000200A449142EF
:104CC00000F1FF3300D1704710B511F8014B03F824
:104CD000014F9142F9D110BD02440346934200D1E5
:104CE000704703F8011BF9E7034613F8012B002A6C
:104CF000FBD1181A01387047FEE700BFF8B500BFB6
:104D0000F8BC08BC9E467047F8B500BFF8BC08BCAC
:104D10009E467047FFFFFFFFFFFFFFFFFFFFFFFF04
:104D2000FFFFFFFF00000000000000000000D601B0
:104D300006010000D503000041040000D10300007B
:104D4000756172745F6C6F675F6261636B656E64DF
:104D500000000000E40500207F0000006406002041
:104D60004261636B656E647320666C75736865641D
:104D70000000000061707000D44D0000004E000083
:104D8000B44D0000084E0000104E0000184E000008
:104D9000204E0000284E0000304E0000202530320A
:104DA00078000000202020007C0000002563000027
:104DB0000D0A00001B5B313B33316D0025734C6FD6
:104DC00067732064726F70706564202825642925DC
:104DD000730D0A001B5B306D00000000257300009E
:104DE0003C25733E2025733A20000000000000009F
:104DF000384E0000404E0000484E0000504E00006B
:104E00001B5B313B33306D001B5B313B33326D003C
:104E10001B5B313B33336D001B5B313B33346D0027
:104E20001B5B313B33356D001B5B313B33366D0013
:104E30001B5B313B33376D006572726F720000008F
:104E40007761726E696E6700696E666F00000000C0
:104E50006465627567000000546D725100000000C7
:104E6000546D722053766300466174616C206572E4
:104E7000726F720053797374656D20726573657417
:104E80000000000030313233343536373839414292
:104E900043444546636C6F636B000000434C4F43D3
:104EA0004B0000004750494F54450000467265656D
:104EB00052544F53205461736B204578616D706C70
:104EC000650D0A00765461736B310000765461738E
:104ED0006B3200005461736B20312069732072754E
:104EE0006E6E696E670D0A0041626F757420746F93
:104EF00020726169736520746865205461736B204A
:104F000032207072696F7269747900005461736B3A
:104F100020322069732072756E6E696E670D0A000B
:104F200041626F757420746F206C6F7765722074A6
:104F30006865205461736B2032207072696F7269EA
:104F400074790000554152540000000055415254FC
:104F50004500000050525300002020202020202037
:104F60002020282828282820202020202020202019
:104F70002020202020202020208810101010101029
:104F80001010101010101010100404040404040475
:104F9000040404101010101010104141414141410F
:104FA00001010101010101010101010101010101F1
:104FB0000101010110101010101042424242424201
:104FC00002020202020202020202020202020202C1
:104FD0000202020210101010200000000000000069
:104FE00000000000000000000000000000000000C1
:104FF00000000000000000000000000000000000B1
:1050000000000000000000000000000000000000A0
:105010000000000000000000000000000000000090
:105020000000000000000000000000000000000080
:105030000000000000000000000000000000000070
:105040000000000000000000000000000000000060
:105050000000000000000000000000002000002010
:04506000000000004C
:105064009C4E000000000000A44E00000000000060
:10507400544F000000000000444F000000000000F6
:105084004C4F000000000000744D000000000303BA
:08509400944E00000000000032
:10509C00344D000000000000404D000014000020C2
:1050AC00EC000020B4010020BC010020F400002022
:0450BC0018000000D8
:0850C00080B1FF7F0100000038
:1050C8000000000000200040000000000020004018
:1050D8000000000000000000FF0000000090D00366
:1050E80000000000000000000000000000000000B8
:1050F80000000000000000000000000000000000A8
:105108000000000000000000000000000000000097
:105118000000000000000000000000000000000087
:105128000000000000000000000000000000000077
:105138000000000000000000000000000000000067
:08514800250200000102000035
:04000003000002B542
:00000001FF
