:1000000000000420B5020000DD020000DF02000055
:10001000E1020000E3020000E50200000000000031
:100020000000000000000000000000008904000043
:10003000E902000000000000A9040000ED02000039
:1000400041240000EF020000EF020000EF02000078
:10005000EF020000EF020000A5240000EF02000004
:10006000EF020000EF020000EF020000EF020000CC
:10007000EF020000EF020000EF020000EF020000BC
:10008000EF020000B1050000EF020000EF020000E7
:10009000EF020000EF020000EF020000EF0200009C
:1000A000EF020000EF020000EF020000EF0200008C
:1000B000EF020000EF02000000000000000000005E
:1000C000EF020000EF020000EF020000EF0200006C
:1000D0007D2B0000EF020000EF020000EF020000A5
:1000E000EF020000EF020000EF020000000000003D
:1000F00000000000EF02000000000000EF0200001E
:1001000000000000000000000000000000000000EF
:1001100000000000000000000000000000000000DF
:1001200000000000000000000000000000000000CF
:1001300000000000000000000000000000000000BF
:1001400000000000000000000000000000000000AF
:10015000000000000000000000000000000000009F
:10016000000000000000000000000000000000008F
:10017000000000000000000000000000000000007F
:10018000000000000000000000000000000000006F
:10019000000000000000000000000000000000005F
:1001A000000000000000000000000000000000004F
:1001B000000000000000000000000000000000003F
:1001C000000000000000000000000000000000002F
:1001D000000000000000000000000000000000001F
:1001E000000000000000000000000000000000000F
:1001F00000000000000000000000000000000000FF
:1002000010B5054C237833B9044B13B10448AFF350
:1002100000800123237010BD70000020000000004A
:100220003040000008B5034B1BB103490348AFF34E
:10023000008008BD00000000740000203040000075
:10024000154B002B08BF134B9D46A3F5803A0021A8
:100250008B460F461348144A121A02F09DFE0F4BAC
:10026000002B00D098470E4B002B00D09847002061
:10027000002104000D000D48002802D00C48AFF307
:10028000008002F057FE2000290002F037FD02F046
:100290003DFE00BF00000800000004200000000038
:1002A0000000000070000020781200200000000014
:1002B000000000000649074A074B9B1A03DD043B78
:1002C000C858D050FBDC02F03FFDFFF7B9FF00003B
:1002D0003C4000000000002070000020FEE7FEE728
:1002E000FEE7FEE7FEE7FEE7FEE7FEE7FEE7FEE7E6
:1002F0000A4B185C1F288ABF09494FF0A04100F043
:100300001F00D1F804350122824022EA0300134085
:10031000C1F80805C1F80C35704700BF643F000004
:1003200000030050C20730B40ED483070AD54FF043
:10033000A0430C22C3F82C27C3F83027C3F860274A
:10034000C3F8642730BC70474FF0A0430322C3F8C2
:1003500034274FF40055C3F838274FF48044C3F8CE
:100360003C274FF40041C3F840274FF48032C3F8D4
:100370000855C3F80845C3F80815C3F80825D4E79D
:1003800038B5430704461CBF20F00704083401F0C9
:10039000A1F90E4A13689BB10D4A156840F6F77132
:1003A0002C448C4207D8A54205D21D44146001F0AC
:1003B0003BFA284638BD002501F036FA284638BDFC
:1003C000044B23F007031360E6E700BF8C00002016
:1003D0009010002098000020704700BF00F1080333
:1003E0004FF0FF310022816002604360C0E90333B7
:1003F000704700BF00230361704700BF43684B6034
:100400009A688A60516099600861036801330360EB
:10041000704700BF30B40D686B1C11D000F10802AA
:1004200000E01A4653681C68AC42FAD94B609960E8
:100430008A605160086103680133036030BC704713
:1004400002695368F2E700BFD0E9011203698A60CC
:10045000416851605A68824204BF82685A60002233
:1004600002611A68013A1A60186870470548006806
:1004700080F3088862B661B6BFF34F8FBFF36F8F0A
:1004800000DF00BF00000000064B19680868B0E8F4
:10049000F04F80F30988BFF36F8F4FF0000080F3B7
:1004A0001188704798100020EFF30980BFF36F8F19
:1004B000144B1A681EF0100F08BF20ED108A20E9B7
:1004C000F04F10604DF8043D4FF0400080F311886C
:1004D000BFF34F8FBFF36F8F01F0BEFA4FF00000F4
:1004E00080F3118808BC19680868B0E8F04F1EF066
:1004F000100F08BFB0EC108A80F30988BFF36F8F2C
:10050000704700BF98100020402383F31188FEE756
:1005100030B46FF002034FF08075074C40F8081CB0
:1005200040F8202C40F8045C40F80C4C40F8243C87
:1005300030BC4438704700BF090500000F4C08B5B7
:10054000E02384F8223000F077F80D4B0D4A0021AB
:100550001960D4F8883043F47003C4F888305368C5
:1005600043F040435360236943F010032361FFF7D6
:100570007DFF402383F31188FEE700BF00ED00E01C
:100580009410002030EF00E0402383F31188024AEA
:10059000136801331360704794100020034A1368F6
:1005A000013B13600BB983F311887047941000204E
:1005B00070B51D4B00221A6082B01B680193019B2D
:1005C000EFF31186402383F311881849184BD1F8B3
:1005D00004451A601B680093009B01F083F8201A01
:1005E00020F07F4323F0010320F07F459BB96C1E70
:1005F0006DB1002501F084F8013C631C45EA00055B
:10060000F8D125B10B4B4FF080525A6040BF86F3B2
:10061000118802B070BD01F09DFB0228E7D001F007
:100620006FF80546EDE700BF4011014000100140A2
:100630000011014000ED00E038B5002001F09CFE03
:100640000A4B0B480B4901221F24C3F80845022519
:10065000C3F80423E02402604FF400301A60C3F8AA
:10066000445381F81143086038BD00BF00100140B9
:100670000810014000E100E0F0B5054685B072B613
:10068000314CD4F8046501F049FB002842D02F48D2
:100690002F4BA84228BF2846321822F07F42012162
:1006A0000027C4F80813C4F840251F601A68019297
:1006B0004FF48032019FC4F80423BFF34F8F65B31A
:1006C000244B20BFD3F80011D3F804210A43F8D0FB
:1006D0001D4A1F4D20494FF48034C2F808430024BE
:1006E0002C602D680395039D0C600968029101211F
:1006F000029CC2F80413D2F80425921B22F07F4218
:10070000904228BF10464FF40032C3F8802108B150
:1007100000F0EEFF62B605B0F0BDC4F808231D601E
:100720001A680D4B0392039A1D601B680293094BD4
:10073000029AC4F804134FF40032D4F80415C3F835
:10074000802162B605B0F0BD00100140FDFFFF0042
:100750004011014000E100E00011014070B5064683
:100760000D4651B100FB01F04830FFF709FE044689
:1007700058B300F14803036005E04820FFF700FE8E
:10078000044610B32460C4E90F65FFF7FDFED4E909
:100790000F132268A26001FB03F1CB1A134400205F
:1007A0000A44FF21A063E36084F84410626084F887
:1007B000451004F11000FFF711FE04F12400FFF7CB
:1007C0000DFEFFF7EBFE204670BD0024204670BDF5
:1007D0002DE9F04F044685B01D4601928846FFF78B
:1007E000D3FEA26BE36BA74F4FF000099A424E462F
:1007F000C0F08B80022D00F013810198002800F0DA
:100800002D81B9F1000F00F00781FFF7C7FE00F05E
:1008100061FFFFF7B9FE94F84430FF2B08BF84F85E
:10082000446094F84530FF2B08BF84F84560FFF71B
:10083000B5FE01A902A801F031FA002840F01581A7
:10084000FFF7A2FEA26BE36B9A427FD0FFF7A6FEF2
:10085000FFF79AFE94F845304FFA83FABAF1000F89
:100860001ADD636AC3B104F1240907E00AF1FF331A
:10087000DBB24FFA83FA7BB1636A6BB1484601F091
:10088000B1F90028F2D001F043FA0AF1FF33DBB2EC
:100890004FFA83FA002BEFD1FF2384F84530FFF79E
:1008A0007DFEFFF771FE94F844304FFA83FABAF1F7
:1008B000000F1ADD2369C3B104F1100907E00AF142
:1008C000FF33DBB24FFA83FA7BB123696BB1484641
:1008D00001F088F90028F2D001F01AFA0AF1FF338A
:1008E000DBB24FFA83FA002BEFD1FF2384F84430B8
:1008F000FFF754FE00F098FFFFF746FEA26BE36B94
:100900009A424FF00109BFF475AF226CA66B002A22
:1009100000F08A804146002D40F02581A06802F059
:100920002DFBA368216C62680B44934206F101061B
:10093000A3607ED3A663636A2268A260002B7CD189
:10094000FFF72CFE012005B0BDE8F08F04F110097F
:10095000FFF724FE4846019901F0AAF8FFF714FEBC
:1009600094F845A04FFA8AFABAF1000F1CDD636AC9
:10097000D3B104F1240B08E00AF1FF3A5FFA8AF3DD
:100980004FFA83FA83B1636A73B1584601F02AF9CA
:100990000028F1D00AF1FF3A01F0BAF95FFA8AF3C0
:1009A0004FFA83FA002BEED1FF2384F84530FFF78E
:1009B000F5FDFFF7E9FD94F844304FFA83FABAF1F8
:1009C000000F06DC15E00AF1FF33DBB24FFA83FAC1
:1009D0007BB123696BB1484601F004F90028F2D0DD
:1009E00001F096F90AF1FF33DBB24FFA83FA002BDC
:1009F000EFD1FF2384F84430FFF7D0FD00F014FF5F
:100A000000287FF479AF4FF080537B6040BFBFF385
:100A10004F8FBFF36F8F6FE702A801F033F9F4E651
:100A2000226CA66B002A6FD125680136002D00F0DC
:100A30008380A663636A002B82D004F1240001F056
:100A4000D1F800283FF47CAF0E4B4FF080525A6033
:100A500040BFBFF34F8FBFF36F8F71E70090FFF779
:100A60009DFD009805B0BDE8F08FFFF78DFD94F86F
:100A700045506DB2002D19DD636ABBB104F1240647
:100A800008E000BF00ED00E0013DEBB25DB26BB1EC
:100A9000636A5BB1304601F0A5F80028F4D0013D4F
:100AA00001F036F9EBB25DB2002BF1D1FF2384F8EF
:100AB0004530FFF773FDFFF767FD94F844506DB2C2
:100AC000002D16DD2369A3B104F1100605E0013DF8
:100AD000EBB25DB26BB123695BB1304601F082F8D5
:100AE0000028F4D0013D01F013F9EBB25DB2002B08
:100AF000F1D1FF2384F84430FFF750FD00F094FE5D
:100B0000002005B0BDE8F08F4146E06802F036FAFB
:100B1000226CE3682168524213448B42E36018D28E
:100B200063681344E360022D13D00136A663636A41
:100B3000002B3FF405AF80E7606801F071F9A66310
:100B4000636A6560002B7FF478AF00287FF47CAF88
:100B5000F6E6002E7FF46DAF0123A363636A002BDA
:100B60003FF4EEAE69E7E06802F008FA226CE36851
:100B70002168524213448B42E360D4D2D0E700BFD5
:100B800038B5EFF31184402383F31188826BC36B74
:100B900093420ED990F8453001325BB282635A1C01
:100BA0000BD001335BB280F84530012084F311880B
:100BB00038BD002084F3118838BD436A002BF4D07F
:100BC00024300D4601F00EF80028EED0002DECD0B8
:100BD00001202860EEE700BF2DE9F047044684B00D
:100BE00088460192FFF7D0FCD4F83890B9F1000F95
:100BF00040F04C81019B002B00F0E98002A801F03D
:100C000041F8AE4F4E4604F12405FFF7C7FC00F053
:100C100061FDFFF7B9FC94F84430FF2B08BF84F85E
:100C2000446094F84530FF2B08BF84F84560FFF717
:100C3000B5FC01A902A801F031F8002866D1FFF740
:100C4000A3FCA36B002B40F0C880FFF7A7FC019921
:100C5000284600F02DFFFFF797FC94F845304FFA37
:100C600083F9B9F1000F06DC15E009F1FF33DBB2BF
:100C70004FFA83F97BB1636A6BB1284600F0B2FF8B
:100C80000028F2D001F044F809F1FF33DBB24FFA4B
:100C900083F9002BEFD1FF2384F84530FFF77EFC6A
:100CA000FFF772FC94F844304FFA83FABAF1000F60
:100CB0001ADD2369C3B104F1100907E00AF1FF331B
:100CC000DBB24FFA83FA7BB123696BB1484600F07F
:100CD00089FF0028F2D001F01BF80AF1FF33DBB2E4
:100CE0004FFA83FA002BEFD1FF2384F84430FFF74B
:100CF00055FC00F099FD00285ED14FF080537B60D9
:100D000040BFBFF34F8FBFF36F8F55E0FFF73CFC41
:100D100094F845304FFA83F9B9F1000F06DC15E07D
:100D200009F1FF33DBB24FFA83F97BB1636A6BB130
:100D3000284600F057FF0028F2D000F0E9FF09F143
:100D4000FF33DBB24FFA83F9002BEFD1FF2384F896
:100D50004530FFF723FCFFF717FC94F844304FFAB7
:100D600083FABAF1000F1ADD2369C3B104F1100947
:100D700007E00AF1FF33DBB24FFA83FA7BB1236954
:100D80006BB1484600F02EFF0028F2D000F0C0FF03
:100D90000AF1FF33DBB24FFA83FA002BEFD1FF23C6
:100DA00084F84430FFF7FAFB00F03EFDFFF7ECFB60
:100DB000A36B63B1FFF7F2FBFFF7E6FBD4F83890C3
:100DC000B9F1000F62D1019B002B7FF41EAFFFF73A
:100DD000E5FB002004B0BDE8F087FFF7DFFBFFF77D
:100DE000D3FB94F845304FFA83F9B9F1000F06DCD4
:100DF00015E009F1FF33DBB24FFA83F97BB1636A87
:100E00006BB1284600F0EEFE0028F2D000F080FF23
:100E100009F1FF33DBB24FFA83F9002BEFD1FF2347
:100E200084F84530FFF7BAFBFFF7AEFB94F8443087
:100E30004FFA83FABAF1000F1ADD2369C3B104F146
:100E4000100907E00AF1FF33DBB24FFA83FA7BB1F6
:100E500023696BB1484600F0C5FE0028F2D000F0CF
:100E600057FF0AF1FF33DBB24FFA83FA002BEFD1C1
:100E7000FF2384F84430FFF791FB00F0D5FCFFF727
:100E800083FBD4F83890B9F1000F9CD0226C52B19A
:100E9000E168636811449942E16024BF2168E16020
:100EA000404602F06BF809F1FF33A36323693BB9B5
:100EB000FFF774FB012004B0BDE8F08700ED00E00F
:100EC00004F1100000F08EFE0028F1D0044B4FF02A
:100ED00080525A6040BFBFF34F8FBFF36F8FE7E779
:100EE00000ED00E02DE9F043044685B000250191B6
:100EF000FFF74AFBA36BA64FA8462E46002B40F0F7
:100F0000FD80019B002B00F07E81B8F1000F00F006
:100F1000E780FFF743FB00F0DDFBFFF735FB94F8BC
:100F20004430FF2B08BF84F8446094F84530FF2B11
:100F300008BF84F84560FFF731FB01A902A800F063
:100F4000ADFE00286CD1FFF71FFBA36B002B40F018
:100F5000E680FFF723FB2368002B00F04B8104F1B0
:100F600024094846019900F0A3FDFFF70DFB94F812
:100F700045304FFA83F8B8F1000F06DC15E008F1B0
:100F8000FF33DBB24FFA83F87BB1636A6BB148463B
:100F900000F028FE0028F2D000F0BAFE08F1FF337E
:100FA000DBB24FFA83F8002BEFD1FF2384F84530F2
:100FB000FFF7F4FAFFF7E8FA94F844304FFA83F8B1
:100FC000B8F1000F1ADD2369C3B104F1100907E07D
:100FD00008F1FF33DBB24FFA83F87BB123696BB1C1
:100FE000484600F0FFFD0028F2D000F091FE08F125
:100FF000FF33DBB24FFA83F8002BEFD1FF2384F8E5
:101000004430FFF7CBFA00F00FFC00286ED14FF010
:1010100080537B6040BFBFF34F8FBFF36F8F65E09E
:10102000FFF7B2FA94F845304FFA83F8B8F1000FA1
:101030001ADD636AC3B104F1240907E008F1FF3344
:10104000DBB24FFA83F87BB1636A6BB1484600F0BC
:10105000C9FD0028F2D000F05BFE08F1FF33DBB2DF
:101060004FFA83F8002BEFD1FF2384F84530FFF7C8
:1010700095FAFFF789FA94F844304FFA83F8B8F1FB
:10108000000F1ADD2369C3B104F1100907E008F16C
:10109000FF33DBB24FFA83F87BB123696BB148466B
:1010A00000F0A0FD0028F2D000F032FE08F1FF337E
:1010B000DBB24FFA83F8002BEFD1FF2384F84430E2
:1010C000FFF76CFA00F0B0FBFFF75EFAA36B5BB9B9
:1010D000FFF764FA002D7BD1284605B0BDE8F08308
:1010E00002A800F0CFFD14E7FFF758FAFFF74CFA1B
:1010F000A36B4FF00108002B3FF403AF2268013BC4
:10110000A363002A00F099802369002B40F08480BB
:10111000FFF744FA0125284605B0BDE8F083FFF744
:101120003DFAFFF731FA94F845304FFA83F8B8F1F9
:10113000000F1ADD636AC3B104F1240907E008F166
:10114000FF33DBB24FFA83F87BB1636A6BB1484679
:1011500000F048FD0028F2D000F0DAFD08F1FF337E
:10116000DBB24FFA83F8002BEFD1FF2384F8453030
:10117000FFF714FAFFF708FA94F844304FFA83F8AF
:10118000B8F1000F1CDD2369D3B104F1100909E0A7
:1011900000ED00E008F1FF33DBB24FFA83F87BB1DA
:1011A00023696BB1484600F01DFD0028F2D000F025
:1011B000AFFD08F1FF33DBB24FFA83F8002BEFD11C
:1011C000FF2384F84430FFF7E9F900F02DFB8DE7A9
:1011D000FFF7DAF9616A19B1236B1968C1F10301EC
:1011E000606800F05FFEFFF7D9F90025284605B0DA
:1011F000BDE8F083FFF7C8F9606800F0BBFD054665
:10120000FFF7CCF9ABE60093FFF7C8F9009B1D464A
:10121000284605B0BDE8F08304F1100000F0E2FCC0
:1012200000283FF475AF074B4FF080525A6040BF23
:10123000BFF34F8FBFF36F8F6AE700F079FE6060F6
:1012400062E700BF00ED00E0074B1A681AB19A6828
:1012500002B17047012210B403EBC20443F832100C
:1012600060605DF8044B70475812002070B504466A
:101270000D461646FFF788F994F84430FF2B04BF5B
:10128000002384F8443094F84530FF2B04BF00233A
:1012900084F84530FFF782F9A36B002B47D0FFF7A6
:1012A00073F994F845506DB2002D16DD636AA3B151
:1012B00004F1240605E0013DEBB25DB26BB1636A57
:1012C0005BB1304600F08EFC0028F4D0013D00F008
:1012D0001FFDEBB25DB2002BF1D1FF2384F8453046
:1012E000FFF75CF9FFF750F994F844506DB2002D08
:1012F00016DD2369A3B104F1100605E0013DEBB250
:101300005DB26BB123695BB1304600F06BFC002825
:10131000F4D0013D00F0FCFCEBB25DB2002BF1D14A
:10132000FF2384F84430BDE87040FFF737B93246F8
:10133000294604F1240000F003FCB0E72DE9F84F42
:1013400095000746284689469846FFF719F8002871
:1013500000F08C8006464820FFF712F8044600286B
:1013600000F0888006632A463046A52101F014FE6D
:1013700099F8003084F83430D4F830B043B199F89B
:10138000013084F835301BB199F8023084F83630DA
:101390000A9E022E28BF02264FF0000A04F104091B
:1013A000E662A663484684F837A0C4F83CA0043D32
:1013B000FFF720F8C6F1030604F118005D44FFF7BB
:1013C00019F8C4F840A0A66125F0070084F844A0ED
:1013D0002461646242463946FFF79AF80B9B20600D
:1013E00003B11C60FFF7D0F83A4A3B4F1368013352
:1013F00013603B68002B43D0DFF81081E36AD8F814
:10140000002022B93A68D26A9A4298BF3C60334AB7
:10141000DFF8FCC01668DCF800E0314801252E44F6
:10142000166005FA03F203EB830342EA0E0200EBB7
:1014300083004946CCF80020FEF7E0FFFFF7AEF846
:10144000D8F800307BB13A68E36AD26A9A420AD28D
:10145000244B4FF080525A6040BFBFF34F8FBFF311
:101460006F8F284600E02846BDE8F88F4FF0FF3028
:10147000BDE8F88F3046FEF7AFFF4FF0FF30F3E7DF
:101480003C601368012B03D0E36ADFF88080BEE77D
:101490001348154E154DDFF87480FEF79FFF144872
:1014A000FEF79CFF1348FEF799FF3046FEF796FFC4
:1014B0002846FEF793FF1048FEF790FF0F48FEF70F
:1014C0008DFF0F48FEF78AFF0E4B0F4A16601D6016
:1014D000E36A9CE7E010002098100020F010002044
:1014E000A410002000ED00E0F81000200C110020F6
:1014F000B8100020CC1000202C1100205811002022
:1015000044110020A01000209C1000204011002059
:10151000F41000202DE9F843F020FEF731FF0028F9
:101520006DD005464820FEF72BFF0446002868D002
:10153000F022A5210563284601F02EFD0025504B21
:10154000636304F104084046266BE562C4E90E5566
:10155000FEF750FF04F11800FEF74CFF032306F1DD
:10156000EC002A462564A3614649246120F0070067
:1015700084F844506462FEF7CBFF434B20601C604C
:10158000FFF702F8414A424F1368013313603B688A
:10159000002B4AD03F4DE36A2A6822B93A68D26AE2
:1015A0009A4298BF3C603C4ADFF820C11668DCF8DC
:1015B00000E03A480136166001229A4003EB8303AB
:1015C00042EA0E0200EB83004146CCF80020FEF711
:1015D00015FFFEF7E3FF2B686BB13A68E36AD26A46
:1015E0009A4208D22E4B4FF080525A6040BFBFF350
:1015F0004F8FBFF36F8F00F005FE012806D0BDE8C6
:10160000F8832846BDE8F843FEF7E6BE402383F39F
:101610001188244B24494FF0FF3400220C602860CD
:101620001A60BDE8F843FEF789BF3C601368012BE0
:1016300002D0E36A174DB6E71848DFF894901B4EC6
:10164000144DFEF7CBFE1A48FEF7C8FE1948FEF708
:10165000C5FE4846FEF7C2FE3046FEF7BFFE1648FE
:10166000FEF7BCFE1548FEF7B9FE1548FEF7B6FEBC
:10167000144B154AC2F800901E60E36A93E700BF5E
:1016800049444C005D19000020110020E0100020AA
:101690009810002040110020F0100020A41000201D
:1016A00000ED00E06C110020241100200C1100203E
:1016B000B8100020CC1000202C1100205811002060
:1016C00044110020A01000209C100020F4100020E5
:1016D000F8100020024A136801331360704700BFFE
:1016E000EC100020014B1868704700BF6C110020FF
:1016F000024A136818441060704700BF6C11002044
:101700002DE9F04F3D4B1B6883B0002B64D13C4B5F
:101710001F6801371F60002F3DD03A4B01931B68B3
:10172000BB424FD8384EDFF8F480DFF8F4A0DFF882
:10173000F490002526E03368DB68DC68636804F118
:10174000040B9F42584655D3FEF77EFEA36A04F170
:1017500018000BB1FEF778FEE06AD8F800200123EC
:10176000834000EB8000134359460AEB8000C8F821
:101770000030FEF743FED9F80030E26ADB6A9A4295
:1017800028BF012533681B68002BD4D1019A4FF084
:10179000FF33136017E01C4E1C4B31681C4A18685D
:1017A0003060196013680133136033681B68C3B974
:1017B000144B01931A464FF0FF33136013461B6816
:1017C000BB42AFD90025134B1B68002B0CBF28462A
:1017D000012003B0BDE8F08F0F4A13680133136096
:1017E000F0E73368074ADB680192DB685B681360E7
:1017F000134694E7019A1360E5E700BFEC10002060
:101800006C110020241100209C100020A01000204A
:101810002811002070110020E8100020F410002092
:10182000A4100020981000202DE9F84FFEF7ACFE20
:101830003F4B1A68013A1A601B68002B60D13D4B80
:101840001B68002B5CD0DFF808B1DBF80030002B00
:101850006AD0394DDFF8FC80384FDFF8FC90012664
:10186000DBF80C30D3F80CA00AF104040AF11800DC
:10187000FEF7EAFD2046FEF7E7FDDAF82C002A68BD
:1018800006FA00F300EB80001343214608EB8000CA
:101890002B60FEF7B3FD3B68DAF82C20DB6A9A4236
:1018A00034D3C9F80060DBF80030002BD8D1244BCA
:1018B0001A681268002A32D01A68224BD268D2689D
:1018C00052681A60204E346844B10125FFF718FFB2
:1018D00008B1C9F80050013CF8D13460D9F80030A3
:1018E00073B11A4B4FF080525A6040BFBFF34F8F15
:1018F000BFF36F8F0124FEF751FE2046BDE8F88F3D
:101900000024FEF74BFE2046BDE8F88FDBF80030E0
:10191000002BA5D10A4B1A681268002ACCD1094BBA
:101920004FF0FF321A60CDE7DFF82C90CAE700BF16
:10193000EC100020E0100020F4100020981000208F
:101940009C10002024110020E810002000ED00E091
:101950002C110020A4100020701100202DE9F84F58
:10196000334CDFF8E890334D334E344FDFF8E080EE
:10197000DFF8E0B018E0FEF707FED9F80C30D3F836
:101980000CA00AF10400FEF75FFD2B68013B2B6001
:101990002368013B2360FEF701FEDAF83000FEF712
:1019A0001BFD5046FEF718FD2368002BE3D133687A
:1019B000012B08D94FF08053CBF8043040BFBFF360
:1019C0004F8FBFF36F8F3B68012BD8F80030DB6A75
:1019D00003D9002BE8D13368E6E7002BE4D1336864
:1019E000012BE1D8164B174A1B6812689B1A012B72
:1019F000DAD9154A1368013313603B68012BD8F814
:101A00000030DB6A04D903B93368FFF70DFFCBE779
:101A1000002BFAD13368012BF7D8094B1868094B12
:101A20001B68C01A0128F0D9FEF726FEEDE700BFBB
:101A3000E4100020E0100020A4100020F41000208A
:101A4000241100206C110020EC10002058110020FF
:101A50009810002000ED00E0104B1B681BB1104BEC
:101A600001221A6070470E490E4A0B6013680E4A35
:101A7000B3FA83F3C3F11F0303EB83039B00D01876
:101A800008334168496841601344994204BF49687A
:101A90004160064BCA681A60704700BFEC10002016
:101AA00070110020F4100020A410002098100020D5
:101AB00070B51C4D2B680C4603F11801FEF7AAFC0B
:101AC000194B1E6828680430FEF7BEFC40B92B682D
:101AD0001649D86A0B680122824023EA02030B6090
:101AE000631C17D02B68A4195C6007D3104B1868CF
:101AF0002968BDE870400431FEF78CBC0D4B1868B6
:101B000029680431FEF786FC0B4B1A68944238BFF3
:101B10001C6070BD296809480431BDE87040FEF7BB
:101B20006DBC00BF981000206C110020F410002044
:101B3000A01000209C10002024110020441100203F
:101B4000F8B5214D2B680C4603F118011746FEF736
:101B500055FC1E4B1E68286804302FBBFEF774FC32
:101B600050B92B681A49D86A0B680122824023EACF
:101B700002030B60631C1DD02B6834195C600BD210
:101B8000144B186829680431FEF744FC124B1A689C
:101B9000944200D21C60F8BD104B18682968BDE85B
:101BA000F8400431FEF736BCFEF74EFC20B94FF08A
:101BB000FF34D6E7002FDFD0296809480431BDE89B
:101BC000F840FEF71BBC00BF981000206C110020ED
:101BD000F41000209C10002024110020A0100020F0
:101BE00044110020F8B5C368DC6804F118052846E4
:101BF000FEF72AFC1B4B1B68002B2DD1261D1A4D0E
:101C00003046FEF721FCE26A2F6818480123934012
:101C100002EB82023B43314600EB82002B60FEF771
:101C2000EDFB134BE26A1B68DB6A9A4282BF114BE1
:101C300001201860104B1A68126898BF002022B962
:101C40000E4B4FF0FF321A60F8BD1A680B4BD2688A
:101C5000D26852681A60F8BD29460948FEF7CEFBE3
:101C6000DFE700BFEC100020F4100020A4100020DB
:101C700098100020701100209C10002024110020DA
:101C80002C110020034A044B12681B68C0E9002392
:101C9000704700BF281100206C110020F8B50D46D8
:101CA0000446FEF771FC2B68174A581C11681ED0B9
:101CB000DFF858C0D4E90060DCF80070BE4206D0FE
:101CC000884204D80125FEF769FC2846F8BD0F1AA2
:101CD000BB4211D95B1ADCF80010126803442B6078
:101CE0000025C4E90012FEF759FC2846F8BD00257E
:101CF000FEF754FC2846F8BD00232B600125FEF7B3
:101D00004DFC2846F8BD00BF6C11002028110020B2
:101D1000014B01221A60704770110020094B1868AE
:101D200018B9094B1B6813B1704700207047074A68
:101D3000074B10681B68013B984214BF012002202A
:101D4000704700BF2C1100207011002044110020AA
:101D5000E0100020054B1B6833B1054B1B68002BBE
:101D60000CBF022000207047012070474011002066
:101D7000EC10002018B3F8B5264CC36A2268D26A6A
:101D8000934214D28269002A04DB2268D26AC2F12B
:101D900003028261204D426903EB830305EB830359
:101DA0009A420DD02368DB6AC3620120F8BD236824
:101DB000806BDB6A98422CBF00200120F8BD704781
:101DC000071D06463846FEF73FFB70B9F16A134A15
:101DD00001EB81039B00EB5843B91368012000FA23
:101DE00001F123EA0103136000E00C4A2368D2F8F2
:101DF00000C0D86AF062012404FA00F300EB80000E
:101E000005EB800043EA0C0339461360FEF7F6FA4F
:101E10002046F8BD98100020A4100020F4100020E7
:101E200050B1F8B5C36BC16A826B013B9142C36389
:101E300000D01BB10020F8BD00207047071D0446EC
:101E40003846FEF701FBC0B11448154EA36BD6F817
:101E500000E0E3620125C3F1030C05FA03F203EB92
:101E6000830342EA0E0200EB83003946C4F818C02F
:101E70003260FEF7C3FA2846F8BDE26A0748084E0A
:101E800002EB82039B00C358002BDFD13368012192
:101E900001FA02F223EA02023260D7E7A41000201E
:101EA000F410002058B1F8B5826BC36A914238BF74
:101EB00011468B4202D0C26B012A01D0F8BD704797
:101EC0008269194DC162002A03EB83034269A8BFEE
:101ED000C1F1030105EB8303A8BF81619A42EDD1F3
:101EE000071D04463846FEF7AFFAE36A70B10122D7
:101EF0000E4E9A40980034681844224305EB800047
:101F000039463260BDE8F840FEF778BA9800C1184B
:101F1000890001226958054E9A400029EBD13168A9
:101F200021EA02013160E6E7A4100020F41000204D
:101F3000044B1A681AB11968CA6B0132CA6318686F
:101F4000704700BF981000202DE9F0431D4EDFF8C8
:101F50007C9085B04FF000080CE0DB68DC681F68FF
:101F6000251D2846FEF770FA636A20469847E36904
:101F7000012B0AD033681A68002AEED1124A116880
:101F80003160136005B0BDE8F083A3693B449F4214
:101F9000294610D3D9F80030002BEBD0CDE90087CB
:101FA0000294FFF7D7FE00231A466946D9F80000CD
:101FB000FEF70EFCDEE7636024613068FEF72AFA64
:101FC000D8E700BF7411002078110020A81100206C
:101FD0002DE9F04F864E874CDFF82482864D8BB07A
:101FE00001273368D3F80090B9F1000F56D0DB68B1
:101FF000D3F80090FFF76EFBFFF774FB2368834272
:1020000083465CD88145206063D90022A9EB0B018F
:102010002868FFF72BF9FFF707FC40B9774B4FF023
:1020200080525A6040BFBFF34F8FBFF36F8F286855
:10203000002202A9FEF7D0FD0028D2D0029BDDF8D5
:1020400010A0002B20DBDAF814301BB10AF10400D9
:10205000FEF7FAF9FFF746FB23689842834635D32B
:10206000029BC4F800B0092BE1D807FA03F313F47C
:10207000047F52D113F0C70F65D19B06D7D55046C8
:10208000FEF7AAF92868D3E7039B059950469847BD
:10209000029B002BCBDBDDF810A0D4E7FFF71AFB87
:1020A000FFF720FB23689842834608D3D8F8003016
:1020B000C4F800B01A68B2FA82F25209A6E7FFF734
:1020C00043FFC4F800B0FFF7AFFBB0E7FFF73CFFFA
:1020D000C6E7FFF7A9FB3368DB68D3F80CA00AF169
:1020E000040108460191FEF7AFF9DAF81C200199C6
:1020F000012A04D0DAF824305046984797E7DAF8F6
:102100001800CAF810A009EB00025A45CAF80420CA
:1021100049D93068FEF77EF9ECE7039BCAF810A0B6
:1021200003EB0B025A45CAF81830CAF8042053D8FA
:10213000002B3FF47CAFD8F800000AF10401FEF751
:1021400069F9286874E7039BDAF81820CAF810A028
:1021500099182CBF012000205945CAF8041037D81F
:10216000ABEB03039A42E6D8DAF82430504698479E
:10217000DAF81C302868012B7FF45AAF00283FF4AE
:1021800057AFDAF81820039B002113440691CDE9DC
:10219000073AFFF7DFFD00231A4606A92868FEF775
:1021A00017FB286844E7ABEB090B58451BD82B6895
:1021B000002B9FD00023CDE90639CDF820A0FFF7F2
:1021C000C9FD00231A4606A92868FEF701FB91E71E
:1021D0005B4501D90028C7D030680AF10401FEF739
:1021E00019F9286824E7D8F80000FEF713F981E709
:1021F00074110020A4110020A811002000ED00E0BF
:1022000078110020F0B5174C83B0FEF7BDF92568B2
:102210007DB1FEF7C3F9206848B1134B0193022347
:1022200000935022002311491148FFF787F803B0AB
:10223000F0BD104F104E3846FEF7D0F83046FEF78E
:10224000CDF80E4A0E4B176010212A4620201E6042
:10225000FEF784FA20600028DBD00A49FEF7F4FF7D
:10226000D7E700BFA8110020AC110020703F00008C
:10227000D11F00007C11002090110020741100205B
:1022800078110020683F000000B585B0002303905E
:10229000194601AA44F20100CDE9013300F004F827
:1022A00005B05DF804FB00BF72B6094B1B68DB0785
:1022B00000D500BEBFF34F8F0649074BCA6802F432
:1022C000E0621343CB60BFF34F8F00BFFDE700BF59
:1022D000F0ED00E000ED00E00400FA0572B6024AFD
:1022E0001368013313607047B0110020034A13686C
:1022F000013B136003B962B6704700BFB011002004
:1023000010B568B90E4CA368012262703BB1D3E9E5
:1023100000230020A2609847A368002BF7D110BDCE
:102320000128FCD1064C2369A070002BF7D0D3E91B
:1023300000230120226198472369002BF7D110BDAB
:10234000B411002038B50A4C237813B185252846EE
:1023500038BD08486360A3602361E36000F03AF889
:10236000054600F043F801232370284638BD00BF1E
:10237000B41100200123000038B5154DAB78044698
:1023800073B110B14368012098470020FFF7A6FF02
:10239000EB680133EB600020BDE83840FFF7A6BFD3
:1023A00003F0FF00FFF79AFF64B12A6942B194423B
:1023B00008D0134601E09C4204D01B68002BFAD1E0
:1023C00022602C61EB68002BE2D100F021F8DFE7FE
:1023D000B4110020044A137923B9012110609180BF
:1023E0001846704785207047C8110020074B1A68AF
:1023F000D20704D4C021012283F800131A604FF0E1
:1024000080430122C3F81825704700BF00E100E0B7
:1024100010B4094B094A0021196083B01B6801936D
:10242000019C4FF0804102200123C1F80403136096
:1024300003B05DF8044B7047040100400800004001
:1024400010B5154B1A6882B062B10021134A1960A9
:102450001B68507900934FF080410123009CC1F824
:102460000833A8B10E4B1A6882B100221A601B68AB
:1024700001934FF080420221084B0198C2F80813E3
:102480001B68012002B0BDE81040184702B010BD23
:10249000116853718847E5E700010040C81100202A
:1024A000040100402DE9F047002388B0CDE9023354
:1024B000C84A1168012900F047821E46C64B1A68B7
:1024C000012A00F03382C54B1A68012A00F02082ED
:1024D000C34B1A68012A00F00D82C24B1A68012A08
:1024E00000F0FA81C04B1A68012A00F0E781BF4B67
:1024F0001A68012A00F0D481BD4B1A68012A08D05D
:10250000BC4B1A68012A00F02B820EBB08B0BDE854
:10251000F087B94AD2F804231706F1D500221A60D1
:1025200019680091603319680098012946F0800607
:102530000ED11A601B6801934FF0A042019BD2F8A4
:102540001025AE4B0292D3F81035039346F00046A7
:10255000AB4F01250024A30003F180432E4203F575
:10256000C0434FEA45050BD0D3F8100557F8242097
:10257000D3F81015C0F30520C1F3014102B1904713
:102580000134082CE7D1002EC0DA0DF110089C4C64
:102590009A4F0023C8F80430049394F960304FF048
:1025A000FF304FF0FF315D1CCDE906014FF0010611
:1025B00000F0F5805FFA83FC2CF0C00008AB4FEA16
:1025C000D00903EB090E0CF007031EF8082C06FADD
:1025D00003F312EA030521D022184FEA9C1192F965
:1025E000302054F82220002A00F03481032900F022
:1025F00033811F2800F2E98005464FF0A04C0CEB18
:10260000850C1EF8185CDCF800E71D40CEF3014E87
:1026100040F0CF80BEF1030F00F0B48194F9613037
:10262000581C32D0DBB223F0C00008AA4FEAD00E0B
:1026300002EB0E0C03F007011CF8082C06FA01F956
:1026400012EA090F21D02218990992F9302054F882
:102650002220002A00F01081032900F010811F2899
:1026600000F2F48003464FF0A04E0EEB83031CF8FB
:1026700018ECD3F800C71EEA090FCCF3014C40F068
:10268000D980BCF1030F00F08F8194F96230591C9E
:1026900032D0DBB223F0C00008AA4FEAD00E02EB22
:1026A0000E0C03F007011CF8082C06FA01F912EAD7
:1026B000090F21D02218990992F9302054F82220CC
:1026C000002A00F0CF80032900F0CF801F2800F2FD
:1026D000A58003464FF0A04E0EEB83031CF818ECC8
:1026E000D3F800C71EEA090FCCF3014C40F08A80F2
:1026F000BCF1030F00F06C8194F963305A1C33D0A5
:10270000DBB223F0C00008AA4FEAD00E02EB0E0C99
:1027100003F007021CF8081C06FA02F2114223D04B
:1027200004EB0009990999F9309054F82990B9F10E
:10273000000F00F0AB80032900F0AB801F288BBF97
:10274000BE464FF0A04E03F01F0303460EEB83037B
:102750001CF818ECD3F800C71EEA020FCCF3014CAA
:1027600060D1BCF1030F1CD0002D3FF4CFAE4FF071
:10277000A042029BD2F81015D7F810058B4203D166
:10278000039B83423FF4C2AEDDE90423CDE9062377
:1027900094F960305D1CCDE902107FF40BAF002589
:1027A0003CE7032900F02881B9F1000FDCD0C847CD
:1027B000DAE7BEF1020FF2D1032900F038810025DB
:1027C000002A3FF42BAF904728E70CF01F05BC46CA
:1027D00015E700BF0061004004610040086100404F
:1027E0000C6100401061004014610040186100401D
:1027F0001C6100407C61004000600040000300500C
:10280000D0110020BCF1020F7FF476AF032900F055
:102810000B81002A3FF470AF90476DE703F01F0370
:10282000BE4659E7BCF1020F9ED10329BCD14FF43B
:10283000403CE3E0BCF1020F7FF427AF032900F036
:10284000F080002A3FF421AF90471EE703F01F03FA
:10285000BE460AE70329A2D118F809501D4308F81B
:102860000950C6E603297FF447AF18F80EA04AEADC
:10287000090A08F80EA029E703297FF406AF18F823
:102880000EA04AEA090A08F80EA0E8E603297FF438
:102890006BAF18F80EA04AEA020A08F80EA04DE73E
:1028A000644AD2F8042352067FF526AE00221A604D
:1028B0001B680093009B46F040061DE65D4AD2F877
:1028C000042391067FF513AE00221A601B68009363
:1028D000009B46F020060AE6564AD2F80423D006AA
:1028E0007FF500AE00221A601B680093009B46F043
:1028F0001006F7E54F4AD2F8042314077FF5EDAD33
:1029000000221A601B680093009B46F00806E4E56D
:10291000484AD2F8042355077FF5DAAD00221A6041
:102920001B680093009B46F00406D1E5414AD2F8AB
:10293000042397077FF5C7AD00221A601B68009338
:10294000009B46F00206BEE53A49D1F8046316F052
:1029500001063FF4B3AD136013680093009BADE52F
:1029600000221A601B6801934FF0A042019BD2F82D
:102970001025314B0292D3F810350393002E3FF40B
:1029800004AEE3E503297FF41BAF4FF40035DCF818
:10299000003723F44033CCF80037DCF800372B4302
:1029A000CCF8003701250BE703297FF44AAF4FF439
:1029B000003ED3F800C72CF4403CC3F800C7D3F85E
:1029C00000C701354EEA0C0CEDB2C3F800C738E77A
:1029D00003297FF41EAF4FF4003ED3F800C72CF458
:1029E000403CC3F800C7D3F800C701354EEA0C0CD1
:1029F000EDB2C3F800C70CE74FF4003CD3F8002752
:102A000022F44032C3F80027D3F80027013542EA08
:102A10000C02EDB2C3F80027B9F1000F7FF4C7AE86
:102A2000A5E64FF4403EC4E74FF4403ED5E74FF4EF
:102A30004035ACE7006000400003005070B41D4D0D
:102A400043791D4C45F8232003EB4303E35C6BBB48
:102A50008A7890F904305201002BD2B220DB03F1C6
:102A6000604303F5614383F8002390F90430134E6B
:102A7000012503F01F025B0905FA02F246F8232044
:102A800003680A88C3F8082543790879C97803EBF5
:102A90004303E218E55450709170002070BC7047F9
:102AA000074D03F00F031D442A76DEE7082070BCB3
:102AB000704700BF401200203C12002000E100E0FF
:102AC000FCEC00E00368044A01211960437903EB40
:102AD00043030221D15470473C120020F0B44FF45C
:102AE00080350468244E8D40C4F848530468C4F807
:102AF0000853447904EB4404344482B0647822F0EF
:102B00007F425CB3046801F5A87744F82720046885
:102B1000D4F804C5ACEB02076245427902EB4202ED
:102B2000164488BF07F1FF17B27888BF07F57F47C3
:102B300097421CDB2BB90020C4F8445302B0F0BC10
:102B400070475031890089B200236350625803688E
:102B50000192019AC3F804530468ECE7046801F594
:102B6000A87644F826200468002BE4D0E9E70D207D
:102B700002B0F0BC704700BF3C1200202DE9F041CC
:102B8000274F284EDFF8A08084B000244FF4803512
:102B9000D7F804332B4211D056F824200023E0B29A
:102BA00062B1C7F84853C7F8085346F8243056F8BE
:102BB00024300393D8F80030039A98470134042C4A
:102BC0004FEA4505E4D1164BD3F80423D10702D5CB
:102BD000D3F80021C2B9124BD3F80423920710D5C1
:102BE000D3F804216AB10022C3F80421D3F80421E8
:102BF0000D4B0192019A1B68052004B0BDE8F0411D
:102C0000184704B0BDE8F0810022C3F80021064A4D
:102C1000D3F80031029320461368029A9847DAE706
:102C200000400240404102404012002038B5154AA1
:102C300015491648FFF702FFF0B901234FF480420F
:102C400000211248FFF74AFFC8B91048104C114D37
:102C5000FFF738FF032200210120FDF77FFD2060F0
:102C6000284600F0A1F90020FDF742FB4FF0FF31AC
:102C70002068FEF737F9F3E7FFF706FBDDE7FFF71C
:102C800003FBE2E7992C0000883F0000803F000032
:102C900044120020783F000010B582B000240120CB
:102CA0000194FDF725FB114B1148D3F8402502F59F
:102CB0008042214622F07F420123FFF70FFF88B9AF
:102CC0000C4B01A91868FDF75BFF019B43B10A4B50
:102CD0004FF080525A6040BFBFF34F8FBFF36F8FEA
:102CE00002B010BDFFF7D0FAEAE700BF0040024093
:102CF000803F00004412002000ED00E000B583B0EA
:102D0000FFF720FBA8B90120FDF70CFB0A4B01934C
:102D1000022300934FF48272002308490848FEF70B
:102D20000DFB084A136943F004031361FEF7F2FB3D
:102D3000FEE7FFF7A9FAE6E748120020903F0000FF
:102D40002D2C000000ED00E010B44FF080414FF05A
:102D500080520020C1F80C015E4BC1F81001C1F88F
:102D60003805D2F80414C3F82015D2F80814C3F8B3
:102D70002415D2F80C14C3F82815D2F81014C3F88F
:102D80002C15D2F81414C3F83015D2F81814C3F85F
:102D90003415D2F81C14C3F84015D2F82014C3F827
:102DA0004415D2F82414C3F84815D2F82814C3F8EF
:102DB0004C15D2F82C14C3F85015D2F83014C3F8BF
:102DC0005415D2F83414C3F86015D2F83814C3F887
:102DD0006415D2F83C04C3F86805D2F840043E49B3
:102DE000C3F86C050968D2F84424C3F87025082993
:102DF00024D04FF08043D3F80024D20744BF6FF0B3
:102E00000102C3F80024354AD2F8883043F4700335
:102E1000C2F88830BFF34F8FBFF36F8F4FF010238E
:102E2000D3F80022002A23DBD3F80432002B1FDB67
:102E30002B4B2C4A1A605DF8044B70472A4B1B68D9
:102E4000002BD6D129482A4A2A4C04602A492B4B08
:102E5000FB20C2F818050A681B68294822F00F02F7
:102E600003F00F0313434FF400720B600260C0E7DE
:102E7000244A0123C2F80435D2F80034002BFBD0D9
:102E80004FF0102312211F4AC3F80012D2F8003469
:102E9000002BFBD04FF0102312211A4AC3F8041262
:102EA000D2F80034002BFBD000231649C2F80435B9
:102EB000D1F80034002BFBD0BFF34F8F0749124BE2
:102EC000CA6802F4E0621343CB60BFF34F8F00BFC8
:102ED000FDE700BF00C000403001001000ED00E041
:102EE000000000200090D003340100108C560040F8
:102EF00000F0004048810300E40E0040580200103A
:102F00004096024000E001400400FA0508B5074B76
:102F1000044613B10021AFF30080054B1868836AA3
:102F200003B19847204601F00FF800BF00000000F1
:102F3000983F000070B50D4D0D4C641BA410002689
:102F4000A64209D10B4D0C4C01F000F8641BA410F3
:102F50000026A64205D170BD55F8043B98470136BE
:102F6000EEE755F8043B98470136F2E76800002089
:102F700068000020680000206C0000200A44914294
:102F800000F1FF3300D1704710B511F8014B03F881
:102F9000014F9142F9D110BD02440346934200D142
:102FA000704703F8011BF9E70FB40A4B13B51C680F
:102FB00024B1A36913B9204600F066F805AB049A62
:102FC000A1680193204600F083F902B0BDE81040EB
:102FD00004B0704704000020002310B50446C0E987
:102FE0000033836081814366C281C0E90433836119
:102FF000194608225C30FFF7CFFF054B6362054B93
:10300000A362054BE362054B2462236310BD00BF3E
:103010005538000077380000AF380000D338000082
:10302000014900F0AFB800BFAD3B000070B54A1ECB
:10303000682555430E4605F1740100F0C5F80446B5
:1030400040B10021C0E900160C30A06005F1680213
:10305000FFF7A2FF204670BD014800F0B2B800BFE4
:1030600070120020014800F0ADB800BF70120020BF
:10307000014800F0A6B800BF6B120020014800F024
:10308000A1B800BF6B12002010B50446FFF7F0FF97
:10309000A3691BB1BDE81040FFF7F0BFC4E91233CC
:1030A0002365134B134A1B68A262A34204BF01238A
:1030B000A361204600F020F86060204600F01CF874
:1030C000A060204600F018F80022E060042160684B
:1030D000FFF782FF01220921A068FFF77DFF02228E
:1030E0001221E068FFF778FF0123A361D2E700BF58
:1030F000983F000021300000F8B50746FFF7ACFF0D
:103100001E4B1E68B36913B93046FFF7BDFF483642
:10311000D6E90134013B03D533680BB33668F7E7D2
:10312000B4F90C50D5B9164BE36004F1580065664C
:1031300000F046F8FFF796FF2560C4E90155C4E9A1
:103140000455A5610822294604F15C00FFF724FF1D
:10315000C4E90D55C4E912552046F8BD6834D9E7D5
:1031600004213846FFF762FF044630600028D5D1BD
:10317000FFF778FF0C233B60EEE700BF983F0000AD
:103180000100FFFF2DE9F8438046894600F148041D
:10319000002614B93046BDE8F883D4E90175013F33
:1031A00001D52468F5E7AB89012B07D9B5F90E30B5
:1031B000013303D029464046C84706436835EEE749
:1031C0007047704770470000F8B5CD1C25F0030527
:1031D00008350C2D38BF0C25002D064601DBA94211
:1031E00003D90C2333600020F8BD00F0E1FD214934
:1031F0000A6814469CB9204F3B6823B921463046E3
:1032000000F018FB38602946304600F013FB431CE1
:1032100023D10C233360304600F0D0FDE3E7236870
:103220005B1B17D40B2B03D923601C44256004E0DF
:103230006368A2420CBF0B605360304600F0BEFDD5
:1032400004F10B00231D20F00700C21ACCD01B1A7A
:10325000A350C9E722466468CCE7C41C24F00304E9
:10326000A042E3D0211A304600F0E4FA0130DDD16B
:10327000CFE700BF4C120020501200209368013BA2
:10328000002B10B4936008DA9469A34201DB0A2989
:1032900003D15DF8044B00F021BB1368581C10608B
:1032A000197008465DF8044B7047F8B506460F469E
:1032B0001446D518AC4201D1002007E03A4614F874
:1032C000011B3046FFF7DAFF431CF3D1F8BD0000C5
:1032D0002DE9F04F0D469DB014461E46074618B125
:1032E00083690BB9FFF7D0FE854B9D421BD17D68EA
:1032F0006B6ED90705D4AB899A0502D4A86DFFF788
:1033000060FFAB891B0701D52B69EBB9294638460D
:1033100000F048FBC0B16B6ED8070ED54FF0FF3000
:103320001DB0BDE8F08F774B9D4201D1BD68DFE74E
:10333000754B9D4208BFFD68DAE7AB899905EDD46E
:10334000A86DFFF73FFFE9E70023099320238DF8DD
:103350002930DFF8B891039630238DF82A304FF0EA
:10336000010A23461E4613F8012B0AB1252AF9D17A
:10337000B6EB040B0BD05B46224629463846FFF7D6
:1033800094FF013000F0A380099B5B4409933378DC
:10339000002B00F09C8000234FF0FF32CDE9052385
:1033A0000136049307938DF853301A93344605225F
:1033B00014F8011B554800F0ABFC049BC0B9DA06B9
:1033C00044BF20228DF85320180744BF2B228DF8CC
:1033D000532032782A2A13D0079A344600200A262E
:1033E000214611F8013B303B092B4BD970B914E051
:1033F000A0EB09000AFA00F0184304902646D5E72E
:10340000039A111D12680391002A01DB079204E060
:10341000524243F002030792049323782E2B0CD1DF
:1034200063782A2B33D1039B1A1D1B680392002B50
:10343000B8BF4FF0FF3302340593354E2178032295
:10344000304600F065FC38B14023801B03FA00F0E1
:10345000049B03430134049314F8011B2D488DF899
:103460002810062200F054FC00283FD02A4B13BB42
:10347000039B073323F0070308330393099B43445B
:1034800009936EE706FB023201200C46A8E70023F1
:103490000134059319460A26204610F8012B303ACC
:1034A000092A03D9002BC8D00591C6E706FB0121E4
:1034B00001230446F0E703AB00932A46174B04A907
:1034C0003846AFF30080B0F1FF3F8046D6D16B6E37
:1034D000D90705D4AB899A0502D4A86DFFF772FE0F
:1034E000AB895B063FF51AAF099819E703AB009368
:1034F0002A460A4B04A9384600F088F8E3E700BFE3
:10350000BC3F0000DC3F00009C3F0000FC3F00008F
:10351000024000000640000000000000AB32000046
:103520002DE9F04791461F468A680B69DDF8208037
:103530009342B8BF1346C9F8003091F843200646BD
:103540000C4612B10133C9F800302368990642BF16
:10355000D9F800300233C9F80030256815F00605A7
:1035600007D104F1190AE368D9F800209B1AAB428D
:1035700028DC94F843302268003318BF01239206F8
:103580002DD404F1430239463046C047013020D0E3
:103590002368E568D9F8002003F00603042B08BF70
:1035A000AD1AA36822690CBF25EAE5750025934290
:1035B000C4BF9B1AED184FF000091A344D451AD1BB
:1035C000002008E00123524639463046C04701300A
:1035D00003D14FF0FF30BDE8F0870135C3E7E118B4
:1035E0005A1C302081F84300224494F8451082F898
:1035F00043100233C5E70123224639463046C0470F
:103600000130E6D009F10109D8E700002DE9F043C7
:1036100006460C4601F14300097E85B06E299846A6
:1036200017460C9B00F0BA8024D8632939D00AD8F9
:10363000002900F0C380582900F0918004F1420570
:1036400084F8421035E0642901D06929F6D1256853
:103650001A6815F0800F02F104012CD0126819606D
:10366000002A03DA2D23524284F84330DFF8BCC12C
:103670000A233FE0732900F0A58008D86F2921D0E4
:103680007029DBD1226842F02002226003E0752914
:1036900018D07829D2D1782284F84520DFF890C15B
:1036A00061E01A68111D1960136884F8423004F152
:1036B0004205012393E01268196015F0400F18BF0E
:1036C00012B2CDE7D4F800C01A681CF0800F02F1E6
:1036D00004051D6001D0126803E01CF0400FFAD011
:1036E0001288DFF848C16F290CBF08230A23002184
:1036F00084F843106568A560002DA2BF216821F001
:10370000040121600AB9002D46D00546B2FBF3F151
:1037100003FB112E93421CF80EE005F801ED39D998
:10372000082B0BD12368DA0708D5236962689A420F
:10373000DEBF302305F8013C05F1FF35401B206159
:10374000CDF800803B4603AA21463046FFF7E8FE4D
:10375000013049D14FF0FF3005B0BDE8F083DFF80C
:10376000CCC084F845101D68216855F8042B1D60F5
:103770000D060BD5CD0744BF41F0200121601AB9D9
:10378000236823F0200323601023B0E74B0648BFD3
:1037900092B2EFE70A46B9E70546C1E71A68D4F8DE
:1037A00000C06169151D1D601CF0800F136801D0F9
:1037B000196003E01CF0400FFAD019800023236148
:1037C0000546BDE71A68111D196015686268002179
:1037D000284600F09DFA08B1401B606063682361D1
:1037E000002384F84330ABE723692A463946304644
:1037F000C0470130AED023689B0713D4E068039B19
:103800009842B8BF1846A7E701234A4639463046D2
:10381000C04701309ED00135E368039A9B1AAB4242
:10382000F2DCEBE7002504F11909F5E70D40000093
:103830001E40000038B5064C0023054608462360AC
:1038400000F06CFB431C02D1236803B12B6038BD30
:103850007412002010B50C46B1F90E1000F002FBF6
:103860000028ABBF636DA3891B1823F48053ACBF42
:103870006365A38110BD2DE9F0411F468B89DB05EF
:1038800005460C46164605D502230022B1F90E1056
:1038900000F0C8F9A389B4F90E1023F48053A38172
:1038A00032463B462846BDE8F04100F069B810B505
:1038B0000C46B1F90E1000F0B5F9431CA38915BFF1
:1038C000606523F4805343F48053A38118BFA38120
:1038D00010BDB1F90E1000F0D3B80000F8B50E46D7
:1038E0001446054618B183690BB9FFF7CDFB214B90
:1038F0009C422BD16C68A369A360A3891A072FD5BA
:1039000023696BB323692068C01A6369F6B28342E6
:10391000374604DC2146284600F048F930BBA3684E
:10392000013BA36023685A1C22601E70636901304A
:10393000834204D0A389DB0706D50A2E04D1214691
:10394000284600F033F988B93846F8BD0A4B9C4246
:1039500001D1AC68CFE7094B9C4208BFEC68CAE7CD
:103960002146284600F01EF80028CBD04FF0FF3744
:10397000EAE700BFBC3F0000DC3F00009C3F0000C6
:1039800038B5074C054608461146002222601A4603
:1039900000F0D2FA431C02D1236803B12B6038BD7A
:1039A00074120020324B70B51D6806460C4625B1D6
:1039B000AB6913B92846FFF767FB2E4B9C420FD12A
:1039C0006C68B4F90C309AB215072CD4D00611D417
:1039D0000922326043F04003A3814FF0FF303EE004
:1039E000254B9C4201D1AC68EBE7244B9C4208BFBD
:1039F000EC68E6E7510712D5616B41B104F144036D
:103A0000994202D0304600F0DFF900236363A389B6
:103A100023F02403A3810023636023692360A38927
:103A200043F00803A38123694BB9A38903F42073EE
:103A3000B3F5007F03D02146304600F029F9A28972
:103A400012F001030CD00023A36063695B42A36101
:103A5000236953B9B4F90C3013F08000BAD170BDAA
:103A6000920758BF6369A360F2E70020F7E700BF41
:103A700004000020BC3F0000DC3F00009C3F000031
:103A800038B5064C002305460846236000F01EFAB0
:103A9000431C02D1236803B12B6038BD741200208F
:103AA0008A892DE9F041054610070C4658D44B6829
:103AB000002B05DC0B6C002B02DC0020BDE8F08144
:103AC000E66A002EF9D0002312F480522F682B6092
:103AD00032D0606DA3895A0705D56368C01A636B3D
:103AE0000BB1236CC01A00230246E66A216A2846FD
:103AF000B047431CA38906D129681D2949D82A4A01
:103B0000CA40D60745D500226260D90422692260E6
:103B100004D5421C01D12B6803B96065616B2F602D
:103B20000029CAD004F14403994202D0284600F08B
:103B30004BF900206063C1E7216A01232846B047A2
:103B4000411CC7D12B68002BC4D01D2B01D0162BD4
:103B500001D12F60B1E7A38943F04003A381ADE712
:103B60000F69002FA9D093070E6808BF4B690F603B
:103B700018BF0023A6EB07088B60B8F1000F9CDD8F
:103B800043463A46216AA66A2846B047002806DC22
:103B9000A38943F04003A3814FF0FF308EE7074431
:103BA000A8EB0008E9E700BF0100402038B50B6929
:103BB00005460C4613B90025284638BD18B183695F
:103BC0000BB9FFF761FA144B9C421BD16C68B4F936
:103BD0000C30002BEFD0626ED00704D4990502D4CC
:103BE000A06DFFF7EEFA28462146FFF759FF636EF6
:103BF000DA070546E0D4A3899B05DDD4A06DFFF765
:103C0000E1FAD9E7054B9C4201D1AC68DFE7044BF0
:103C10009C4208BFEC68DAE7BC3F0000DC3F0000D4
:103C20009C3F000038B5074C054608461146002267
:103C300022601A4600F062F9431C02D1236803B1E6
:103C40002B6038BD7412002070B50E46B1F90E100D
:103C5000002996B014461D4607DA00232B60B3896D
:103C60001A0610D44FF480630EE06A4600F00CF997
:103C70000028F2DB019A02F47042A2F500535A4286
:103C80005A412A60EEE740230020236016B070BD41
:103C90008B8973B59D0706460C4607D504F147038B
:103CA000236023610123636102B070BD01AB6A46EA
:103CB000FFF7CAFF009905463046FFF785FA48B975
:103CC000B4F90C309A05EFD423F0030343F0020358
:103CD000A381E3E70D4BB362A389206043F0800327
:103CE000A381009B6361019B20615BB1B4F90E105D
:103CF000304600F0DBF828B1A38923F0030343F03A
:103D00000103A381A3891D43A581CDE721300000D4
:103D100001F0FF01102A2BDB10F0070F08D010F87C
:103D2000013B013A8B422DD010F0070F42B3F6D180
:103D3000F0B441EA012141EA014122F007047FF099
:103D400000070023F0E80256083C85EA010586EAF0
:103D5000010685FA47F5A3FA87F586FA47F6A5FA2C
:103D600087F68EB9EED1F0BC01F0FF0102F0070238
:103D700032B110F8013B013A83EA010313B1F8D1E3
:103D80000020704701387047002D06BF35460338C4
:103D9000073815F0010F07D1013015F4807F02BFFD
:103DA000013015F4C03F0130F0BC0138704700BF4E
:103DB0000148FFF706BA00BF6C1200200148FFF768
:103DC00001BA00BF6C12002038B50546002945D065
:103DD00051F8043C0C1F002BB8BFE418FFF7E8FFB4
:103DE0001F4A1368104633B9636014602846BDE863
:103DF0003840FFF7E3BFA3420CD921686218934211
:103E000004BF1A685B68636004BF521822600460D4
:103E1000ECE713465A680AB1A242FAD91968581851
:103E2000A0420BD120680144581882421960DDD1AC
:103E3000106852685A6001441960D7E702D90C2310
:103E40002B60D3E7206821188A4204BF11685268AA
:103E5000626004BF091821605C60C7E738BD00BF1D
:103E60004C12002038B5074C054608461146002282
:103E700022601A4600F04AF8431C02D1236803B1BD
:103E80002B6038BD7412002038B5074C002305465E
:103E900008461146236000F021F8431C02D1236834
:103EA00003B12B6038BD00BF7412002038B5064C3A
:103EB000002305460846236000F018F8431C02D191
:103EC000236803B12B6038BD74120020024B5822C6
:103ED0001A604FF0FF30704774120020024B5822D6
:103EE0001A604FF0FF30704774120020024B5822C6
:103EF0001A600020704700BF74120020024B582245
:103F00001A604FF0FF30704774120020024B5822A5
:103F10001A604FF0FF30704774120020044A0549C0
:103F20001368002B08BF0B461844106018467047F2
:103F30005412002078120020024B58221A604FF0D1
:103F4000FF30704774120020FEE700BFF8B500BFD5
:103F5000F8BC08BC9E467047F8B500BFF8BC08BC6A
:103F60009E4670470D0E0F10546D725100000000F8
:103F7000546D72205376630048656C6C6F0D0A00B7
:103F80000040024024000400000006410000000040
:103F90004C454430000000000800002000000000F4
:103FA0000000000000000000000000000000000011
:103FB0000000000000000000000000000000000001
:103FC00000000000000000000000000000000000F1
:103FD00000000000000000000000000000000000E1
:103FE00000000000000000000000000000000000D1
:103FF000000000000000000000000000232D302B16
:104000002000686C4C0065666745464700303132D9
:104010003334353637383941424344454600303130
:10402000323334353637383961626364656600008F
:04403000000000008C
:084034000CC2FF7F0100000037
:10403C000090D0030800002000000000BC3F0000EE
:10404C00DC3F00009C3F000000000000000000006E
:10405C000000000000000000000000000000000054
:10406C000000000000000000000000000000000044
:10407C000000000000000000000000000000000034
:10408C000000000000000000000000000000000024
:10409C0000000000000000002502000001020000EA
:04000003000002B542
:00000001FF
