:1000000000000420B5020000DD020000DF02000055
:10001000E1020000E3020000E50200000000000031
:10002000000000000000000000000000E7020000E7
:10003000E902000000000000EB020000ED020000F9
:10004000EF020000EF02000069310000EF02000043
:10005000EF020000EF020000CD2B0000EF020000D5
:10006000EF020000EF020000EF020000EF020000CC
:10007000EF020000EF020000EF020000EF020000BC
:10008000EF020000F9140000EF020000EF02000090
:1000900099150000EF020000EF020000EF020000DF
:1000A000EF020000EF020000EF020000EF0200008C
:1000B000EF020000EF02000000000000000000005E
:1000C000EF020000EF020000EF020000EF0200006C
:1000D000EF020000EF020000EF020000EF0200005C
:1000E000EF020000EF020000EF020000000000003D
:1000F00000000000EF02000000000000EF0200001E
:1001000000000000000000000000000000000000EF
:1001100000000000000000000000000000000000DF
:1001200000000000000000000000000000000000CF
:1001300000000000000000000000000000000000BF
:1001400000000000000000000000000000000000AF
:10015000000000000000000000000000000000009F
:10016000000000000000000000000000000000008F
:10017000000000000000000000000000000000007F
:10018000000000000000000000000000000000006F
:10019000000000000000000000000000000000005F
:1001A000000000000000000000000000000000004F
:1001B000000000000000000000000000000000003F
:1001C000000000000000000000000000000000002F
:1001D000000000000000000000000000000000001F
:1001E000000000000000000000000000000000000F
:1001F00000000000000000000000000000000000FF
:1002000010B5054C237833B9044B13B10448AFF350
:1002100000800123237010BD880000200000000032
:10022000484D000008B5034B1BB103490348AFF329
:10023000008008BD000000008C000020484D000038
:10024000154B002B08BF134B9D46A3F5803A0021A8
:100250008B460F461348144A121A04F0F3F80F4B5A
:10026000002B00D098470E4B002B00D09847002061
:10027000002104000D000D48002802D00C48AFF307
:10028000008004F0ADF82000290003F075FF04F0B1
:1002900093F800BF000008000000042000000000E8
:1002A0000000000088000020480900200000000035
:1002B000000000000649074A074B9B1A03DD043B78
:1002C000C858D050FBDC03F095FFFFF7B9FF0000E2
:1002D000A04D00000000002088000020FEE7FEE79F
:1002E000FEE7FEE7FEE7FEE7FEE7FEE7FEE7FEE7E6
:1002F000F0B595B0002415460F4608461E4602F09C
:100300007DF9384623460895082205A91A9D0996C5
:100310000D950A948DF82C400C9402F0D3F99DF8B9
:1003200014308DF81140DDE9061003F00302012AB4
:10033000CDE9020127D0022A04D0384602F062F942
:1003400015B0F0BDBDF81650C3F3C2038DF81030E0
:10035000AD090826082D2C4628BF0824334622461E
:100360000EA9384602F0AEF92D1B214608AB02AAB1
:100370000EA8264400F0F0FD002DEBD1384602F027
:1003800041F915B0F0BDBDF81460059DC6F38316A4
:10039000C3F3C204B2000EA9384608238DF81040FA
:1003A000C5F3952502F08EF908AB324628460EA912
:1003B000009302AB00F05AFD384602F023F915B065
:1003C000F0BD00BF014B01221A707047E800002009
:1003D000704700BF00B583B0044B0093044A40232C
:1003E000FFF786FF03B05DF804FB00BFF5030000D4
:1003F000A800002038B50E480E4D03780E4CEB5C7B
:100400000025D2B2257053B1043003F0A5FB58B9D2
:100410000A4B1B7813B12378002BFCD038BD0C306D
:1004200003F020F90028F3D001F01EF8F0E700BF38
:100430000000002044090020E8000020A400002063
:1004400030B51448144A0378D35C89B0BBB104308A
:1004500003F002FB114D0FCD6C460FC495E80F0061
:10046000062584E80F00002269460A48009502F03C
:100470009FF940B90A4B00221A7009B030BD0C3008
:1004800003F072F8E6E700F0EFFF054B00221A7068
:1004900009B030BD0000002044090020844700005E
:1004A000A400002030B50E4D0FCD89B06C460FC4AE
:1004B00095E80F00062584E80F000A4A0A480095CF
:1004C000694602F075F920B9084B01221A7009B08B
:1004D00030BD00F0C9FF054B01221A7009B030BDD4
:1004E00084470000C503000000000020A400002095
:1004F00008B5FFF7D7FF0421034800F027FC034BA2
:1005000001225A7108BD00BF744D00001400002084
:1005100038B50C4B0C48002400250022FF21C3E90C
:100520000045C3F81824996083F82024C3F81424E4
:1005300002F016F8044610B9044802F0F7F8204615
:1005400038BD00BFC0010020844D0000C44700003A
:10055000A9B1124B12495B1ADB081AD030B4114C06
:100560002288824217D0002203E034F822508542CC
:100570000AD001329342F8D1002030BC7047084ABB
:1005800002EBC0021068704701EBC202106830BC79
:100590007047184670470A46F8E700BF744D0000E0
:1005A0004C4D000088000020094B013903EBC000CE
:1005B00003290BD8DFE801F0020806040220704787
:1005C00040797047007970470420704700207047D9
:1005D0004C4D00002DE9F04F9D4CD4E900239A4288
:1005E00089B000F030810023C4F81834BFF34F8F76
:1005F000D4E9013503EA0501CA1C04EB820614F8AC
:10060000222050071BD52768327802F00302012A06
:1006100000F00781022A03D17288023303EB9213A0
:1006200003EA0501D4F81804CA1C04EB820630B9A9
:100630009F4240F2048114F822205207E4D404EBD4
:1006400081015A1CC96802912A4004EB820201F020
:100650000301D2680392022903F1020600F002812D
:10066000012900F06581D4F810543DB12B6828466B
:100670009B689847EB681D68002DF7D1754A764B4B
:10068000D4F808809B1ADB080020019301F05EFA81
:10069000D4E90132D4F8009013440133A3EB0903E9
:1006A000012B00F294816D4D2F1FA5F10806012149
:1006B000284601F067FA384601F07CFA304601F02E
:1006C00079FAD4E9013E03EA0E01C81C04EB80026A
:1006D00014F8200010F0040000F0A08003F1020CD8
:1006E00092F800B00BF0030BBBF1010FE24600F0F3
:1006F0009080BBF1020F7CD0CA1C04EB8202002860
:10070000EED104EB81010133CA68059203EA0E03BE
:1007100004EB830302F00302012AD96800F087800A
:10072000022A5CD1BDF816309B0903334FEA114B06
:100730000AEB930A304601F049FA5946002856D090
:100740002846C4F804A001F01DFAD4E9013221685A
:10075000134401335B1A012BA9D90A400332052344
:100760000231002044F82230216001F0F7F9002125
:100770003A4801F0FDF980F3100009F1010303EAA2
:100780000803BDF8042004EB830308EA090808F114
:10079000030842EA0042DA6054F82820304B63F341
:1007A0009F2222F47F7323F0030343F0110344F8E4
:1007B000282024F8283094F820343BB9D4E90030BC
:1007C000C01A18BF012009B0BDE8F08FFFF702FF83
:1007D0000028F3D0FFF7FEFE0028F7D1EEE7304601
:1007E00001F0F4F94FF0000B59460028A8D1284633
:1007F000A9E753880CEB93130EEA0301CA1C03F11B
:10080000020C14F82200E24604EB820200F004001D
:1008100075E71388C3F383136344EDE703F1020A1A
:100820006FE732880233C2F383121344F8E6BDF84F
:100830001430C3F383134FEA114B9A447AE767608D
:1008400009B0BDE8F08F002009B0BDE8F08F00BF0F
:10085000C00100204C4D00006C4D0000DC05002064
:10086000D0470000BDF80A305F484FEA9319B9F14C
:10087000500FC84628BF4FF0500868F38F1308F197
:100880000801ADF80A3001F06DFE074600283FF47C
:10089000EAAE01F0B3FE082200230DEB0201384658
:1008A00001F0DCFE25EA060301339B0098457BD965
:1008B000002B00F08E8005EA0601A8EB0308DDB2EC
:1008C000033104EB81012A46082338465FFA88F891
:1008D00001F0C4FE424605F108034449384601F0E0
:1008E000BDFE09F1030906EB9909D4F81834002B71
:1008F00069D1D4F8105465B1EB685A792846394665
:10090000002A5CD02B681B689847EB681D68002D97
:10091000F2D1384601F076FE002001F017F9D4F844
:1009200018340BB9C4F80490002001F017F945E71A
:10093000BDF808202C48C2F38313062B28BF0623DA
:1009400063F3891202339900ADF8082001F00AFE22
:10095000074600283FF487AE01F050FE082200232E
:100960000DEB0201384601F079FEBDF8083013F4B2
:10097000707F36D04FF0000805EA06014FEA880381
:100980000331083304EB81010422384601F066FE8E
:10099000BDF8083008F10108C3F3831306F101091B
:1009A00043454E46E8D8A0E705EA0601033104EBCB
:1009B000810142460823384601F050FE91E71D6848
:1009C000002D99D1A5E7384601F01CFEF6E6494610
:1009D000C3E65FFA88F208230449384601F03EFE78
:1009E0007FE7B14681E700BF844D0000CC010020C5
:1009F0002DE9F04F654C87B0804600200191A56835
:100A000001F0A4F8D4E9012326681A440132921BAC
:100A1000012A00F2B88004F21C4704F214490121B3
:100A2000384601F0AFF85A4801F0C4F8484601F0E2
:100A3000C1F8D4E9013E03EA0E00C21C04EB8201B6
:100A400014F8222012F0040200F09A8003F1020C44
:100A500091F800B00BF0030BBBF1010FE24600F080
:100A60008A80BBF1020F00F1030B74D004EB8B0101
:100A7000002AEDD104EB80000133C268039203EA3F
:100A80000E0304EB830302F00302012AD9685AD053
:100A9000022A55D1BDF80E309B0903334FEA114BA2
:100AA0000AEB930A484601F091F85946002845D0D0
:100AB0003846C4F804A001F065F8D4E901132268AF
:100AC00019440131891A0129A9D91340033302328B
:100AD0000521002044F82310226001F03FF8002196
:100AE0002C4801F045F880F31000731C2B4004EBF8
:100AF000830300043540033540EA1840D86014F8F9
:100B0000253068F3C50304F82530019B54F82520EF
:100B100063F39F2222F4717323F0030343F0010374
:100B200044F8252024F8253094F820341BB1FFF731
:100B300051FD0028FBD107B0BDE8F08F3846BAE779
:100B40004FF0000BAEE7BDF80C30C3F383134FEA50
:100B5000114B9A44A6E74B880CEB93130EEA030063
:100B6000C11C03F1020C14F82120E24604EB8101C0
:100B700002F004027CE70B88C3F383136344EDE7C0
:100B800003F1020A76E732469FE700BFC00100206A
:100B9000D8050020DC0500202DE9F04F684C87B017
:100BA00080460020CDE90012A56800F0CFFFD4E90F
:100BB000012326681A440132921B022A00F2BE80E9
:100BC00004F21C4704F214490121384600F0DAFF10
:100BD0005C4800F0EFFF484600F0ECFFD4E9013E2E
:100BE00003EA0E00C21C04EB820114F8222012F06A
:100BF000040200F0A08003F1020C91F800B00BF0A9
:100C0000030BBBF1010FE24600F09080BBF1020F35
:100C100000F1030B7AD004EB8B01002AEDD104EB39
:100C200080000133C268039203EA0E0304EB8303DE
:100C300002F00302012AD96860D0022A5BD1BDF814
:100C40000E309B0903334FEA114B0AEB930A4846D7
:100C500000F0BCFF594600284BD03846C4F804A029
:100C600000F090FFD4E90113226819440131891A78
:100C70000229A9D91340033303324521002044F847
:100C80002310226000F06AFFB31C2B4004EB8303A7
:100C9000019A2D48DA60002100F06AFF80F310000D
:100CA000731C2B4004EB830300043540033540EAFA
:100CB0001840D86014F8253068F3C50304F82530CF
:100CC000009B54F8252063F39F2222F4717323F0D4
:100CD000030343F0410344F8252024F8253094F819
:100CE00020341BB1FFF776FC0028FBD107B0BDE82C
:100CF000F08F3846B4E74FF0000BA8E7BDF80C3092
:100D0000C3F383134FEA114B9A44A0E74B880CEBD3
:100D100093130EEA0300C11C03F1020C14F8212006
:100D2000E24604EB810102F0040276E70B88C3F38C
:100D300083136344EDE703F1020A70E7324699E753
:100D4000C0010020D8050020DC050020F0B41B4EB7
:100D5000D6F810340746002B2DD0DC682579002109
:100D6000A942084617D0234603E0DB681A798A4275
:100D700011D01B68002BF8D1FB681871D6F810341D
:100D80009BB1DA68FB6812681A60D6F81034DB6829
:100D90001F60F0BC7047092901F1010301D0194619
:100DA000DEE74FF0FF30F0BC7047C6F81074FA6809
:100DB0001360F0BC70471846DEE700BFC00100209A
:100DC00038B5094BD3F81044012583F820544CB1B1
:100DD000E3685D71236820465B689847E3681C6898
:100DE000002CF5D138BD00BFC001002030B5C3884C
:100DF00083B004460D4613BB217A05291DD0637AC2
:100E0000A08873B9124B53F821400021FFF7A0FBD3
:100E1000104903462246284603B0BDE8304000F0A2
:100E200045BFFFF7C1FB0C4B0C4953F82020284667
:100E300000F03CFF217AA088E4E703B030BD084A07
:100E400000920849084A284600F030FFD4E700BF66
:100E50005C48000050480000E84700004C48000093
:100E6000444800002C480000244800002DE9F043CD
:100E700085B01D460C9C002381460E46174694F80B
:100E80000C80237321462846FFF7B0FF062F09D8B0
:100E9000DFE807F0042E343B444F1F00494620464C
:100EA00000F004FF2B7A052B05D06B7A5BB927493C
:100EB000204600F0FBFE204600F0ECFE84F80C809B
:100EC00005B0BDE8F083224A2249204600F0EEFE3C
:100ED000EDE7D6E90413F2680393B3680291CDE914
:100EE00000324946D6E90023204600F0DFFED9E76C
:100EF00032684946204600F0D9FED3E74946D6E994
:100F00000023204600F0D2FECCE7B36800934946A8
:100F1000D6E90023204600F0C9FEC3E7D6E9023235
:100F2000019200934946D6E90023204600F0BEFE18
:100F3000B8E7D6E90321B3680291CDE9003249460A
:100F4000D6E90023204600F0B1FEABE720480000C0
:100F5000444800004C480000082900D970472DE99A
:100F6000F04F1D4683B000241B7B2C7307460E46B2
:100F70001046294691460193DFF8C8A0DFF8C880E3
:100F8000FFF734FF05E03A5D013400F08FFE082CD6
:100F900009D0A64241462846F5D85146013400F012
:100FA00085FE082CF5D12249DFF8A0A0214CDFF8FE
:100FB000A080284600F07AFE4FF0000B0EE012F8F9
:100FC000081011F0970F08BF2E22214628460BF17A
:100FD000010B00F06BFEBBF1080F10D05E4505D988
:100FE00017F80B207E2AEAD92E22EEE75146284632
:100FF0000BF1010B00F05AFEBBF1080FEED199F88E
:101000000830052B02D099F809305BB90A49284607
:1010100000F04CFE284600F03DFE019B2B7303B010
:10102000BDE8F08F054A0649284600F03FFEEDE78F
:10103000184800001C4800002048000044480000F8
:101040004C480000144800000C48000058480000BC
:10105000414C0000074B1B5C1F2B8ABF064A4FF018
:10106000A04203F01F03D2F80405D840C04300F0AB
:1010700001007047C848000000030050064B1A5C8E
:101080001F2A86BF02F01F0204494FF0A04101232E
:101090009340C1F80C357047C84800000003005069
:1010A000064B1A5C1F2A86BF02F01F0204494FF04C
:1010B000A04101239340C1F808357047C84800009B
:1010C000000300504FF0A04310B44FF480404FF4A1
:1010D00000544FF400414FF48032C3F80845C3F880
:1010E0000805C3F80815C3F808255DF8044B7047D8
:1010F0004FF0A04310B44FF480404FF400544FF42D
:1011000000414FF48032C3F80C45C3F80C05C3F816
:101110000C15C3F80C255DF8044B70470A4B185C9E
:101120001F288ABF09494FF0A04100F01F00D1F8E5
:1011300004350122824022EA03001340C1F8080569
:10114000C1F80C35704700BFC848000000030050CC
:101150000B2809D00C2809D0182809D019280CBF51
:1011600003204FF0FF307047002070470120704788
:1011700002207047C20730B40ED483070AD54FF05F
:10118000A0430C22C3F82C27C3F83027C3F86027EC
:10119000C3F8642730BC70474FF0A0430322C3F864
:1011A00034274FF40055C3F838274FF48044C3F870
:1011B0003C274FF40041C3F840274FF48032C3F876
:1011C0000855C3F80845C3F80815C3F80825D4E73F
:1011D0002DE9F04F424B93F800E089B0BEF1000FCB
:1011E0006AD000263F4F34460125B24605E00AF199
:1011F000010A5FFA8AF4A6455ED93B4B39681E683E
:101200007A6816F83400A0F1200BC0F1200305FA2B
:101210000BFB25FA03F34BEA030305FA00FC02EA91
:10122000030901EA0C08009358EA090B06EBC40312
:101230000593DCD0009B21EA0C0122EA0303C7E9F5
:10124000001301F0B3FC294B16F834C0C2B2D3E945
:1012500000640023CDE90023009AACF120018A400C
:101260000392009ACCF1200322FA03F3039A1A4363
:10127000CCF1200305FA01F125FA03F30B4305FA3B
:101280000CF1039201EA06020692009A234002FA48
:101290000CF202920793DDE90634DDE90212944272
:1012A00008BF8B420BD00E4B0AF1010A93F800E005
:1012B0005FFA8AF4A645A0D809B0BDE8F08F059A78
:1012C0005368002BEFD05178A1F10101B1FA81F1FF
:1012D0004909091AB1FA81F1490960469847E2E7DC
:1012E0007C060020B0060020B8060020A8060020DA
:1012F0002DE9F8438046214800F0F4FBD0B9204D99
:101300000127D5E90023A8F12004C8F1200607FA37
:1013100004F427FA06F607FA08F9344302EA09004A
:1013200003EA0401014307D022EA090223EA040484
:10133000C5E90024BDE8F883404601F037FC114BB5
:101340001E68A8B9586826EA090620EA0400D5E90B
:1013500000211E600C4E586042EA09020C432A60CC
:1013600031686C6005480022BDE8F84300F06CBBB2
:10137000586849EA06062043E9E700BF84060020D2
:10138000B0060020A806002080060020042A3BD9D1
:101390002DE9F04182B00E460546144601F09AFA56
:1013A00068B31E491E4A1F4B0D601F481F491C6031
:1013B000167000230022741EC0E90023C1E9002337
:1013C000E4B21EB305EBC4044FF000080327184E27
:1013D00002E0A5421AD01C46A37820788DF805308B
:1013E000324601A98DF806808DF8047001F07CFA70
:1013F000A4F108030028ECD002B0BDE8F08101F0B0
:101400001BFA0028CDD0F7E707207047094A0A48A1
:10141000002100F007FB02B0BDE8F081B806002013
:101420007C06002080060020A8060020B0060020D0
:10143000F1120000D1110000CC48000070B5084D39
:101440002B785BB1074E00243368012113F8340078
:1014500001F032FB2B780134A342F5D8002070BD97
:101460007C060020B806002000B585B0002303905C
:10147000194601AA44F20100CDE9013300F004F855
:1014800005B05DF804FB00BF10B572B6FFF798FC1D
:10149000FFF7A0F80028FBD1104B114C1149E41ABA
:1014A000E408240444F00100FFF7A2FA0E4B1B6885
:1014B000DB0700D500BE44F002000C49FFF798FAA4
:1014C000BFF34F8F0A490B4BCA6802F4E062134323
:1014D000CB60BFF34F8F00BFFDE700BF4C4D000056
:1014E0006C4D0000D0480000F0ED00E0DC4800004A
:1014F00000ED00E00400FA05F8B52049204B002477
:10150000C1F84041C1F84441C1F84841C1F84C41DB
:10151000C1F80041C1F804411B6833B31948D1F840
:10152000045501681A686D1A25F07F45AA422746BE
:101530000DD8197CDE69AD1A144419B11F74D3E9B2
:10154000052090471EB133461A68AA42F1D90E49C8
:101550000E4A0B7812789A4208D00D490D4A41F88C
:1015600023404FF48013C2F80031F8BD531CDBB2A6
:10157000022B08BF00230B70EFE700BF00100140F3
:10158000DC070020D8070020D5070020D407002062
:10159000CC07002000E100E02DE9F04FB14AB2494C
:1015A00013780978B14E994285B0356800F0898189
:1015B0000133DBB2022B08BF0023AD491370AD4AE3
:1015C000D1F800C052F823200CEB020323F07F4334
:1015D0000B60002D00F0C2812B689A42C0F0C081E0
:1015E00000273846BE4603E00B68934200F26C8148
:1015F000EC68C5F800E0D21A1844E9693CB10CEB7C
:10160000000323F07F43C5E90134EF612F460D4607
:101610000029E9D1316000254FF0010A964B974926
:10162000DFF86C9243F0010301934FF00008002FA4
:1016300033D0D7E901BE3C46FF698D4B90481A680C
:10164000ABEB020323F07F43834200F2018173443A
:10165000236000203268E061C4E9010001202074A9
:10166000002A00F0F3801068984208D3DFE0DEF82B
:1016700000C0DC4580F0E08072465B466046D2F8F0
:101680001CE0A3EB000BBEF1000FF0D1C4F800B0DA
:10169000C4F81CE0D461002FCBD191F801E00878A8
:1016A00070454AD084460CEB4C0C8B7801EBCC0C8B
:1016B000421CD0B283429CF80430087004BF002062
:1016C0000870022BDCF8084025D0032B19D0012B21
:1016D000E6D1237C002BE3D1DCF80CB0C4F804B0D5
:1016E000DCF810E0C4F808E0DCF81420E26099F8B7
:1016F0000020DCF81800A061002A9ED063609B46A1
:101700009BE73368002BCBD000221A74DB69002BD7
:10171000FBD13360C1E733685BB19C4200F0BA8013
:101720009B4602E0944261D09346DBF81C20002ADD
:10173000F8D1002323747045B4D13668B8F1000F96
:1017400001D1B5422CD086B3494A4E4B1468D3F828
:101750000475DFF83881366898F800203D1B25F0C5
:101760007F450335002A00F0B680AE422CBFA41995
:101770006419444A24F07F44C2F84045D2F8043545
:10178000DB1BE41B23F07F4324F07F440333A3429D
:1017900000F2BA80002389F8003005B0BDE8F08F70
:1017A000BAF1000FF6D0002ECED1364D364A324C6B
:1017B0004FF400314FF480330127C2F880103C43CE
:1017C000C5F848334FF43C60C5F808336F60A04754
:1017D000274BAF604FF43C601E60A0472B4B1E7040
:1017E000002389F8003005B0BDE8F08F5C4553D088
:1017F000E069D4F800E0CBF81C0000285BD09C46E0
:10180000026872440260634518BF4FF0010800236C
:10181000087891F801E023748DE7326800230120F5
:10182000C4E90033A360E36120747AB110683460C6
:10183000C31A1360E261FAE66044C31ACEF80030BE
:10184000C4F800B0C4F81CE0D46124E73460EEE6CC
:10185000A2EB0B0222F07F427245DED2AEEB020316
:101860002360F6E6D4070020D5070020DC0700201F
:10187000D8070020CC070020F0480000BC0600205C
:10188000FEFF7F000010014000E100E0C9070020DA
:10189000C8070020A3462246D3F81CC0C6F800C0E3
:1018A000BCF1000F45D0D069D2F800E0CBF81C00A5
:1018B0000028A5D1A7E70023087891F801E0237458
:1018C00039E70027BA46A9E631600D469B1A0B603E
:1018D0004FF0010AA2E62449244A4FF48030C3F8AD
:1018E00044034FF0010AC3F804034FF40030C1F879
:1018F000800142F001020860C3F800A04FF43C6090
:10190000904788F800A030E7184BD2F80415C2F8C9
:10191000401543F001034FF43C609847124B4FF4DD
:101920000032C3F80021002389F8003005B0BDE87B
:10193000F08FCDE902320E4BDFF83CE001209860D9
:10194000019B89F80000CEF800C04FF43C60984736
:10195000D6F800C00749DDE90232A4E72F465AE66F
:1019600029460027B2E700BF00E100E0F048000090
:1019700000100140BC060020D80700202DE9F843E4
:101980001F4D204E204FDFF898804FF480334FF4E6
:1019900000324FF001090024C6F8802047EA090709
:1019A000C5F848334FF43C60C5F80833C5F80490D7
:1019B000B847C5F808904FF43C60C8F80040B847F5
:1019C000124A134B13491C601470134B134A0C70CA
:1019D0000B2114701C8099704FF48012C023C6F83C
:1019E000802186F814333260C5F8084586F8113333
:1019F000D5F80435C8F800302046BDE8F88300BFAC
:101A00000010014000E100E0F0480000C90700209C
:101A1000DC070020D4070020BC060020D5070020EA
:101A2000D8070020074B9B783BB142B138B103681F
:101A3000187C10B959745A61704708207047072004
:101A4000704700BFBC0600202DE9F843224CA37864
:101A5000002B35D0002833D0042934D943697BB317
:101A6000437C0646012B4FF000000CBF88468046A1
:101A70001746894600F06AF86378A17822785D1CE1
:101A8000EDB2A94208BF0025AA421FD003EB4303D1
:101A900004EBC3030121114A9E601971D2F8042599
:101AA000DA600020C3E904989F61657000F056F881
:101AB0000B4B4FF48012C3F800210020BDE8F883DF
:101AC0000820BDE8F8830720BDE8F883002000F077
:101AD00045F80420F2E700BFBC06002000100140DA
:101AE00000E100E070B5174DAB7823B318B343693C
:101AF0000BB3002404740646204600F027F86B78E8
:101B0000A87829785A1CD2B2904208BF2246914246
:101B100013D003EB430305EBC30302219E60204671
:101B200019716A7000F01AF8074B4FF48012C3F86D
:101B30000021204670BD082070BD204600F00EF840
:101B4000042070BDBC06002000E100E072B6024A2D
:101B50001368013313607047E0070020034A1368DD
:101B6000013B136003B962B6704700BFE007002075
:101B700050E8002F0B4640E8003C9CF0000FF7D1E6
:101B80001046704750E8003F03EB010240E8002C8C
:101B90009CF0000FF6D11046704700BF50E8003FA0
:101BA000A3EB010240E8002C9CF0000FF6D1104698
:101BB000704700BF012350E8002F42EA030C40E8C1
:101BC00000C191F0000FF6D160467047002350E845
:101BD00000CF0CEA030240E8002191F0000FF6D19B
:101BE00060467047B8B130B4D0E90112521A0468A7
:101BF000D2B2531E2160DBB242B101680A685C1E9A
:101C0000551C0D601370E3B2FF2BF6D10368002062
:101C1000187130BC70470E20704700BF38B50446BD
:101C20000020FFF793FFD4E900311A688A4215D9E2
:101C3000511E19602168A3680868258A12F8012CD2
:101C4000E4681B1A0879DBB2984205FB024400D213
:101C50000B710020FFF782FF204638BD00240020D2
:101C6000FFF77CFF204638BD38B5054600200C46FE
:101C7000FFF76CFF2A681368591C1160E9682A8A0B
:101C8000641AB4FBF2F41C700020BDE83840FFF782
:101C900065BF00BF826842B110B504464369016860
:101CA000006998470023A36010BD70470EB400B5CB
:101CB00082B0039921B104AB01AA019300F0B2F8FC
:101CC00002B05DF804EB03B0704700BF2DE9F04FA0
:101CD0008A4683B09245164605469846DDE90CB122
:101CE000C0F09C8053460127B3FBF6F39E4207F1F8
:101CF0000107F9D9474538BF474611F00103AA68E3
:101D0000009302D1BBF1000F68D1012403E008F178
:101D1000FF3806FB04F4B8F1010FF8D8BAFBF4F071
:101D20008642F6D9DFF8F8904FF00D0807E0B4428C
:101D3000B4FBF6F31CD3BAFBF3F0AA681C4619F8FF
:101D4000003029680A2B04FB10AA01EB020E02F1F5
:101D5000010028D0A8608EF80030D5E901329A42FF
:101D6000E5D32846FFF796FFB4FBF6F3B442E2D280
:101D7000009BABB1BBF1000F12D0BB4510D92024A2
:101D8000AB682A68591CA960D454D5E901329A423B
:101D90000BF1FF3B1ED2BBF1000F01D0BB45EFD1D1
:101DA00003B0BDE8F08FA86001F80280D5E90120FA
:101DB000904204D22A6802EB000E0130CAE728469E
:101DC0000193FFF767FFAA682968019B501C01EB8C
:101DD000020EBFE72846FFF75DFFDCE78B0717D44D
:101DE0002024BB4591D92B68511CA9609C54D5E98E
:101DF00001329A420BF1FF3B05D2BBF1000F84D0B8
:101E0000BB45F0D181E72846FFF744FFAA68F4E715
:101E1000B8F1000F0CBF30242024E2E7012769E766
:101E2000F8480000002900F0E9822DE9F04F05464E
:101E300085B091460C460E78DFF81CA74FF00D0BCD
:101E400013E0AB6828680A2E03F1010200EB0301DE
:101E500000F02681AA600E70D5E901329A4280F026
:101E600011812678002E00F014810134002E00F03C
:101E70001081252EE5D12146002711F8012B2D2AAE
:101E800000F0E580302A00F0E6802B2A00F0D680B2
:101E90002A2A00F01181A2F13006F3B2092B03D9EE
:101EA00022E2A3F130060146084606EB860310F84D
:101EB000012BA2F13004092C02EB4303F1D92E2AA5
:101EC00000F006814FF0000802F0FB03682B01F1DF
:101ED000010405D114F8012B02F0FB03682BF9D0A3
:101EE000253A532ABDD801A353F822F081220000DD
:101EF000631E0000631E0000631E0000631E0000DE
:101F0000631E0000631E0000631E0000631E0000CD
:101F1000631E0000631E0000631E0000631E0000BD
:101F2000631E0000631E0000631E0000631E0000AD
:101F3000631E0000631E0000631E0000631E00009D
:101F4000631E0000631E0000631E0000631E00008D
:101F5000631E0000631E0000631E0000631E00007D
:101F6000631E0000631E0000631E0000631E00006D
:101F7000631E0000631E0000631E0000631E00005D
:101F8000631E0000631E0000631E0000631E00004D
:101F9000631E0000631E0000631E0000631E00003D
:101FA000631E0000631E0000631E0000631E00002D
:101FB000631E0000631E000099220000631E0000E3
:101FC000631E0000631E0000631E0000631E00000D
:101FD000631E0000631E0000631E0000631E0000FD
:101FE000631E00005F200000FB210000631E000054
:101FF000631E0000631E0000631E0000FB21000042
:10200000631E0000631E0000631E0000631E0000CC
:10201000631E0000631E000073210000631E0000A9
:10202000631E000019210000631E0000FD20000057
:10203000631E0000631E00009922000047F00407A1
:102040000C46214611F8012B2D2A7FF41BAF47F0D7
:1020500001070C46F5E747F002070C46F1E7D9F80F
:1020600000301A1DC9F800201E78AB680A2E00F057
:102070004F822A68591CA960D654D5E901329A4288
:10208000FFF4EFAE2846FFF705FE2678002E7FF41A
:10209000ECAE2B7B002B40F0218105B0BDE8F08F2A
:1020A000AA6000F803B0D5E901329A4280F00E81AF
:1020B000296811440132CDE6D9F800301A1DC9F85B
:1020C000002062781E682E2A04F102007FF4FAAE26
:1020D0004A78A2F13003092B01464FF000083FF681
:1020E000F3AE08EB880802EB480811F8012FA2F1C3
:1020F0003003092BA8F13008F3D9E5E6D9F8003010
:102100001A1DC9F8002019680197434600960A2253
:102110002846FFF7DBFDA4E6D9F800301A1DC9F800
:102120000020D3F80080FB0700F1EB80B8F1000F2E
:1021300000F0EC81404602F08DF90746BE4240F2C5
:102140005E81002E00F05B81202102E0BE4200F0A3
:102150005681AA682B68501CA8609954D5E90123C0
:10216000934206F1FF36F1D32846FFF793FD202175
:10217000ECE7D9F80020131DC9F80030AB682968D6
:102180001768581C3022A860CA54D5E9012393422D
:1021900080F0F1802A68581C7821A860D154D5E9D4
:1021A0000123934280F0E2800F2F03D93A461209AF
:1021B0000F2AFCD84FF0805606E00F2E4FEA161378
:1021C0007FF64FAE1E46AB68B7FBF6F21AF80280F8
:1021D0002868B8F10A0F06FB127700EB030103F140
:1021E000010267D0AA6081F80080D5E901329A42E5
:1021F000E3D32846FFF74EFDDFE7D9F800301A1D7C
:10220000C9F80020196881EAE172A2EBE172092A9B
:102210004FF001000BDDDFF844C300E01A46ACFBD1
:1022200002E3632A00F101004FEAD303F6DC4045E4
:10223000034638BF4346029307F00203002E57D0EF
:102240000029C0F29D807A0700F19A80002B00F0EF
:102250009980B8F1000F40F095800029C0F23781D5
:102260007A0700F1478107F00303022B00F0FE809C
:10227000CDE9006743460A222846FFF727FDF0E52F
:10228000AB682A68581C2521A860D154D5E90132D1
:102290009A42FFF4E6ADF5E6D9F800301A1DC9F808
:1022A0000020196801974346009610222846FFF740
:1022B0000DFDD6E5AA6000F803B0D5E901329A42D7
:1022C00080F094802B68991801328BE72846FFF73D
:1022D000E1FCAB6829685A1C1944BBE5284605B0E7
:1022E000BDE8F04FFFF7D6BC084600262146E6E5DC
:1022F0002BB1B8F1000F00F02881F807ADD400260B
:10230000ABE798F80020002A00F02381AB6847462D
:10231000C8F10101D5F800E00A2A01EB07080EEB2D
:10232000030C03F1010055D0A8608CF80020D5E91A
:102330000123934243D217F8012F002AEAD14645E0
:102340007FF68FAD202702E046453FF48AADAA68AC
:102350002B68511CA9609F54D5E901329A4206F1BD
:10236000FF36F1D32846FFF795FCEDE72846FFF747
:1023700091FCAB6818E72846FFF78CFCAB6809E7CF
:10238000013E63E7F8073FF568AF002EB7D0029B28
:10239000B342BFF462AF2023AA68501CA86028682B
:1023A0008354D5E90102824206F1FF3680F0BF80F6
:1023B000002EA4D0029AB242EED116464DE728462E
:1023C0000291FFF767FC17F8012F002AB7D0AB681E
:1023D00002999FE7A8600EF803B0D5E90130984252
:1023E00060D22B6803EB000C01309DE72846FFF715
:1023F00051FCA9682B684A1C1944F3E6704798F809
:102400000060002E3FF42DADAB6828680A2E03F162
:10241000010200EB030111D0AA600E70D5E901237F
:1024200093421BD218F8016F002E3FF41AAD2868B2
:102430000A2E03F1010200EB0301EDD1AA6000F8BE
:1024400003B0D5E901329A4239D2296811440132E8
:10245000AA600E70D5E901239342E3D32846FFF723
:1024600019FC18F8016F002ECED1FAE4B8F1000F74
:102470007FF4FEAE002E6AD0029BB342BFF4F8AEEA
:102480003023AA68501CA86028688354D5E901024B
:10249000824206F1FF3651D2002E58D0029AB24243
:1024A000EFD1E5E62846CDE90221FFF7F3FBAB6863
:1024B0002A68581C02EB030CDDE9022134E72846A8
:1024C000FFF7E8FBAB6829685A1C1944A4E7AA681F
:1024D000531CAB602B682D209854D5E901329A42E9
:1024E000C1F10001FFF4BFAE28460391FFF7D2FB14
:1024F0000399B8E6AA68531CAB602B682B2098544C
:10250000D5E901329A42FFF4AEAEEDE7474615E653
:102510002A68591CA96002F803B0D5E90123934247
:10252000FFF4A7AD2846FFF7B5FBAB68A1E5284649
:102530000391FFF7AFFB2023039939E72846039166
:10254000FFF7A8FB30230399A6E7464685E6002659
:102550008EE69046F3E600BFF8480000CDCCCCCC28
:10256000FFF740BB2DE9F041058ACF1C043D2F4405
:102570000646B7FBF5F7FFF751FB002834D0FFB252
:102580004FF48073013F0446C580066083802CD0E1
:102590008046002509E06379AF4203F101036371CE
:1025A000C8F80000066080461FD03046FFF736FBB3
:1025B00001350028EFD194F805802768B8F10103B0
:1025C00016D03D46013083422D68FBD1B8F1000F93
:1025D0000AD0002601E03C463F68214601362846E5
:1025E000FFF742FBB045F6D800242046BDE8F08155
:1025F00021463846FFF738FBF6E700BF04300121DB
:10260000FFF7C0BA2DE9F041012104460430FFF77D
:10261000C5FAC0B208B1BDE8F08194F8058025681C
:10262000B8F1010314D02E46013083423668FBD145
:10263000B8F1000FEFD0002701E02C462D682146AD
:1026400001373046FFF710FBB845F6D8BDE8F081FA
:1026500021462846BDE8F041FFF706BB2DE9F843C7
:102660000546C6884079144606FB00F2043A04EB9E
:10267000030C1F1D624538BFD41ABE428846B7FB03
:10268000F6F106FB117002D801392D68FCD1371A1A
:10269000A74228BF27469CB14FF000090430E41B35
:1026A00028443A4608EB090101F0BEFEA642B944AF
:1026B0002D6837464FF0000028BF2746002CEDD18B
:1026C000BDE8F8832DE9F8430546C68840791446ED
:1026D00006FB00F2043A04EB030C1F1D624538BFF1
:1026E000D41ABE428846B7FBF6F006FB107102D83A
:1026F00001382D68FCD1771AA74228BF27469CB124
:102700004FF0000904312944E41B3A4608EB090064
:1027100001F08AFEA642B9442D6837464FF0000109
:1027200028BF2746002CEDD1BDE8F883826800233E
:10273000936082681361826853618268D3608268A3
:10274000536082681360704730B585B0047845687F
:102750008DF80040D0E90240064A074B039053F839
:10276000213001958DF8084052F8211068469847AD
:1027700005B030BDE4070020EC07002030B585B07F
:10278000047845688DF80040D0E90240064A074BBE
:10279000039053F8213001958DF8084052F821102C
:1027A0006846984705B030BDE4070020EC070020DC
:1027B0002DE9F043DFF8748006784B7F08F8063087
:1027C0000D46074696460FCD89B06C460FC495E876
:1027D0000F003D78DFF85890DFF858C018F8055022
:1027E00049F826E084E80F004CF82600049665B10D
:1027F000BEF1000F0B4A694607F1040008BF002232
:1028000001F028F809B0BDE8F083BEF1000F064AD8
:10281000694607F10C0008BF002200F0B5FD09B0C1
:10282000BDE8F083492700007D270000440900200F
:10283000EC070020E4070020F0B5224C94F86A5021
:1028400083B0002D3AD14FF0FF334FF0FF364FF0F9
:10285000FF372946062204F16400C4E90033C4E9C5
:102860000233C4E90433C4E90633C4E90833C4E9D4
:102870000A332366C4E90C67C4E90E67C4E910672C
:10288000C4E91267C4E91467C4E9166701F0DAFD08
:102890000D4A0E4B0E491D60C02082F806034020F1
:1028A00010601B68019301984FF0004301222846F5
:1028B00084F86A20C1F8043303B0F0BD082003B0E7
:1028C000F0BD00BFF807002000E100E07C6100409F
:1028D00000600040034B93F86A00003018BF0120ED
:1028E000704700BFF8070020F0B5704B1C1894F932
:1028F0003050002D63DA8E78C6F340069646002EDF
:1029000057D01D68013500F0C3800124082553F815
:102910002470013756D004F1010C53F82C700137A4
:102920004FD0A71CAF4242D253F82720013200F00B
:10293000AD8004F1030CAC4539D253F82C7001374B
:102940003FD004F1040CAC4531D253F82C70013760
:1029500037D004F1050CAC4529D253F82C7001375F
:102960002FD004F1060CAC4521D253F82C7001375E
:1029700027D004F1070CAC4519D253F82C7001375D
:102980001FD004F1080CAC4511D253F82C7001375C
:1029900017D004F1090CAC4509D253F82C7001375B
:1029A0000FD00A34AC4202D2DC6A01346CD004206D
:1029B000F0BD1D6A013571D009240C25A7E7082058
:1029C000F0BD64461F1865B243F824E087F8305024
:1029D00016B91C4484F858008A7854071AD4D607CC
:1029E00041D41F284C7887BF314E00F01F020246A9
:1029F0004FF0A04602F5E072A40046F822402D4EAA
:102A0000C40800F0070C375D012202FA0CF23A43C9
:102A100032558A78097812F002021AD0AB0003F11D
:102A2000804303F5C0430202D3F8100520F44F3071
:102A300020F44070C3F810050904D3F8100501F420
:102A4000403102F47C520A430243C3F810250020AF
:102A5000F0BD083D2B44104693F8602042EA8111F6
:102A600083F86010F0BD1F2887BF114A00F01F04D3
:102A700004464FF0A04202EB8402D2F8004724F053
:102A80000204C2F80047BAE70B249BE73C4699E7EB
:102A90000025C3F800E084F830509DE7082684F84C
:102AA00030601A623546344693E700BFF8070020CD
:102AB000000300505C08002070B4394C251883B026
:102AC00095F93030072B10DD234493F858309B09DB
:102AD000032B34D0012B0CBF4FF400314FF44031A5
:102AE0001F284CD84FF0A04339E0DAB2072A23D888
:102AF000980000F1804000F5C04003F140029200D0
:102B0000D0F8106592B202F1804202F5C04246F060
:102B10000106C0F810650020106012680192019A49
:102B200051B195F9302054F822202AB101221D49D3
:102B300002FA03F3C1F8043303B070BC70471F28D6
:102B400020D9194BD3F8103500F01F00C34013F003
:102B5000010F14BF4FF440314FF40031124B03EB1F
:102B60008000D0F8002722F44032C0F80027D0F8C7
:102B700000370B43C0F8003703B070BC704700F05B
:102B80001F00EBE74FF0A0421346D2F81025C240D9
:102B900012F0010F0CBF4FF400314FF44031DEE76B
:102BA000F807002000600040000300501F288ABF83
:102BB000054B4FF0A04300F01F00D3F8103523FA67
:102BC00000F000F001007047000300502DE9F047CD
:102BD000002388B0CDE90233C84A1668012E00F000
:102BE00047821E46C64B1A68012A00F03382C54B45
:102BF0001A68012A00F02082C34B1A68012A00F0EB
:102C00000D82C24B1A68012A00F0FA81C04B1A6883
:102C1000012A00F0E781BF4B1A68012A00F0D48135
:102C2000BD4B1A68012A08D0BC4B1A68012A00F073
:102C30002A820EBB08B0BDE8F087B94AD2F8042357
:102C40001706F1D500221A601968009160331968DF
:102C50000098012946F080060ED11A601B68019386
:102C60004FF0A042019BD2F81025AE4B0292D3F850
:102C70001035039346F00046AB4F00240125A30016
:102C800003F180432E4203F5C0434FEA45050BD0C4
:102C9000D3F8100557F82420D3F81015C0F30520F9
:102CA000C1F3014102B190470134082CE7D1002E55
:102CB000C0DA0DF110089C4C9A4F0023C8F804307C
:102CC000049394F960304FF0FF304FF0FF315D1CFA
:102CD000CDE906014FF0010600F0F5805FFA83FCB4
:102CE0002CF0C00008AB4FEAD00903EB090E0CF042
:102CF00007031EF8082C06FA03F312EA030521D095
:102D000022184FEA9C1192F9302054F82220002A10
:102D100000F03481032900F033811F2800F2E9809C
:102D200005464FF0A04C0CEB850C1EF8185CDCF847
:102D300000E71D40CEF3014E40F0CF80BEF1030FFF
:102D400000F0B38194F96130581C32D0DBB223F02B
:102D5000C00008AA4FEAD00E02EB0E0C03F00701E8
:102D60001CF8082C06FA01F912EA090F21D02218E2
:102D7000990992F9302054F82220002A00F010819D
:102D8000032900F010811F2800F2F48003464FF061
:102D9000A04E0EEB83031CF818ECD3F800C71EEA14
:102DA000090FCCF3014C40F0D980BCF1030F00F0C7
:102DB0008E8194F96230591C32D0DBB223F0C0000E
:102DC00008AA4FEAD00E02EB0E0C03F007011CF824
:102DD000082C06FA01F912EA090F21D022189909E4
:102DE00092F9302054F82220002A00F0CF800329E5
:102DF00000F0CF801F2800F2A58003464FF0A04EC0
:102E00000EEB83031CF818ECD3F800C71EEA090F79
:102E1000CCF3014C40F08A80BCF1030F00F06B81D1
:102E200094F963305A1C33D0DBB223F0C00008AAF7
:102E30004FEAD00E02EB0E0C03F007021CF8081C40
:102E400006FA02F2114223D004EB0009990999F91C
:102E5000309054F82990B9F1000F00F0AB800329AD
:102E600000F0AB801F288BBFBE464FF0A04E03F092
:102E70001F0303460EEB83031CF818ECD3F800C7BE
:102E80001EEA020FCCF3014C60D1BCF1030F1CD041
:102E9000002D3FF4CFAE4FF0A042029BD2F81015A8
:102EA000D7F810058B4203D1039B83423FF4C2AE97
:102EB000DDE90423CDE9062394F960305D1CCDE9FA
:102EC00002107FF40BAF00253CE7032900F02981B5
:102ED000B9F1000FDCD0C847DAE7BEF1020FF2D13A
:102EE000032900F039810025002A3FF42BAF9047D9
:102EF00028E70CF01F05BC4615E700BF0061004045
:102F000004610040086100400C6100401061004015
:102F100014610040186100401C6100407C61004069
:102F20000060004000030050F8070020BCF1020FD1
:102F30007FF476AF032900F00C81002A3FF470AFD4
:102F400090476DE703F01F03BE4659E7BCF1020F3F
:102F50009ED10329BCD14FF4403CE4E0BCF1020F08
:102F60007FF427AF032900F0F180002A3FF421AF5E
:102F700090471EE703F01F03BE460AE70329A2D1CC
:102F800018F809501D4308F80950C6E603297FF4D4
:102F900047AF18F80EA04AEA090A08F80EA029E778
:102FA00003297FF406AF18F80EA04AEA090A08F8C8
:102FB0000EA0E8E603297FF46BAF18F80EA04AEAEA
:102FC000020A08F80EA04DE7654AD2F8042352061B
:102FD0007FF526AE00221A601B680093009B46F026
:102FE00040061DE65E4AD2F8042391067FF513AE33
:102FF00000221A601B680093009B46F020060AE638
:10300000574AD2F80423D0067FF500AE00221A609A
:103010001B680093009B46F01006F7E5504AD2F873
:10302000042314077FF5EDAD00221A601B6800939E
:10303000009B46F00806E4E5494AD2F80423550708
:103040007FF5DAAD00221A601B680093009B46F002
:103050000406D1E5424AD2F8042397077FF5C7ADAD
:1030600000221A601B680093009B46F00206BEE532
:103070003B49D1F8041311F0010150D013601368DB
:103080000093009BAEE500221A601B6801934FF08D
:10309000A042019BD2F81025324B0292D3F8103592
:1030A0000393002E3FF405AEE4E503297FF41CAF43
:1030B0004FF40035DCF8003723F44033CCF8003708
:1030C000DCF800372B43CCF8003701250CE7032947
:1030D0007FF44BAF4FF4003ED3F800C72CF4403CD4
:1030E000C3F800C7D3F800C701354EEA0C0CEDB2A7
:1030F000C3F800C739E703297FF41FAF4FF4003E40
:10310000D3F800C72CF4403CC3F800C7D3F800C77D
:1031100001354EEA0C0CEDB2C3F800C70DE70E46C0
:1031200060E54FF4003CD3F8002722F44032C3F8A6
:103130000027D3F80027013542EA0C02EDB2C3F8AC
:103140000027B9F1000F7FF4C6AEA4E64FF4403E6D
:10315000C2E74FF4403ED3E74FF44035AAE700BF43
:103160000060004000030050014B1B68184700BF7F
:103170006408002038B50C4B984213D100200D464E
:10318000FEF7E4FC094B1C7924B10020FEF7E6FCB5
:10319000112038BD012220461D601A71FEF7DEFCA9
:1031A000204638BD002038BD0020004064080020C3
:1031B000034B984203D1034B00221A601A717047E7
:1031C000002000406408002030B56D4AD2F8043376
:1031D00099058BB066D5D2F82431002B62D000233C
:1031E000C2F82431D2F8243103934FF40171654BB6
:1031F0000398C2F8081393F8291009B90121516006
:103200005F4902228DF81820D1F88024C1F880246B
:103210009869D96809920022CDE90710C3E906220E
:10322000D3E9001406A8A047554AD2F81C31C3B10F
:10323000544B186A5969884269D293F8280000F003
:10324000FF04002863D1C2F81C41D2F81C1102917E
:1032500002999C68186A196A205C01311962C2F8E7
:103260001C05474AD2F84431D3B10021454BC2F87E
:103270004411D2F8440193F82910009000980029D5
:103280005AD19A6962B10022586AD9689A610122BA
:10329000CDE907108DF8182006A8D3E90012904751
:1032A0000BB030BD364AD2F804335B07BCD5D2F838
:1032B0000831002BB8D0334B996900293FD0002149
:1032C000C2F80811D2F8081104910499D868596A13
:1032D000D2F8182542545A6A996901325A625A6AD8
:1032E0008A42A1D1DA691968002A31D0D8685D6AAA
:1032F0001C699A61079000220120DC60DA615A6241
:103300008DF8180008955B6806A898478CE71C4A5A
:103310000020C2F81C01D2F81C210192019A002958
:103320009FD09A688DF8180008915861079206A8F6
:10333000D3E90012904794E701211160A1E7C2F898
:103340000811D2F8080105900598D2F81825C6E7AB
:1033500093F8292012B90A4A01205060084A4FF414
:103360000170C2F80803586ADA6808900024012046
:1033700007928DF818005A689C6106A8904753E799
:10338000002000406C0800202DE9F041DFF8D481D6
:1033900007792C2606FB078682B096F82A30002B88
:1033A00040F098800C460546694900681646FFF7CC
:1033B000E1FE002840F08A802368591C19D01F2B99
:1033C0004FF001028ABF63494FF0A04103F01F0391
:1033D00002FA03F3C1F8083523681F2B86BF03F0F8
:1033E0001F035C4A4FF0A04203F5E073032142F84B
:1033F000231063685A1C0BD01F2B86BF03F01F03DA
:10340000544A4FF0A04203F5E073002142F8231024
:103410002B68A269C3F82425217D637D2A680B43AC
:10342000C2F86C35D4E900122B68C3F81425C3F830
:103430000C15237D012B57D02C2303FB07F308EB3E
:1034400003025660226948F8032066B32A68237F86
:10345000414C0021C2F81C11D2F81C2100922A68AC
:10346000009EC2F84411D2F844112A6801910199D2
:10347000C2F804432A68120B51B25B010029DBB287
:103480002CDB01F1604101F5614181F800332B68CB
:10349000324C1B0B5AB2520903F01F03012101FAEF
:1034A00003F344F822302C232C6803FB078300220B
:1034B00004250121C4F8005583F82A10C3E9062227
:1034C00083F829205A6102B0BDE8F081112002B0D2
:1034D000BDE8F081082002B0BDE8F081204902F08B
:1034E0000F0211440B76D2E7A368591C0BD01F2B97
:1034F00086BF03F01F0317494FF0A04103F5E073A7
:10350000002241F82320E3685A1C1AD01F2B8ABFDF
:1035100010494FF0A04103F01F03012202FA03F308
:10352000C1F80835E3681F2B88BF03F01F0303F5BC
:10353000E0738CBF07494FF0A041032241F82320DC
:10354000E3682A68A168C2F80835C2F8101573E765
:10355000C9310000000300508000020000E100E0DB
:10356000FCEC00E06C080020F8B53A4F04790268E2
:103570002C2303FB047300215B68C2F8001583B1A0
:103580000368354AC3F808230368344D1B0B5AB24D
:103590005209203203F01F03012101FA03F345F819
:1035A000223003684FF0FF3CD3F80C65D3F8145574
:1035B000D3F80825D3F81015C3F814C5C3F80CC503
:1035C00003686645C3F808C5C3F810C50CD01F2EA4
:1035D00086BF06F01F06224B4FF0A04306F5E076AB
:1035E0004FF0020C43F826C06E1C0BD01F2D86BF77
:1035F00005F01F051A4B4FF0A04305F5E0750226B4
:1036000043F825604D1C0BD01F2986BF01F01F0118
:10361000134B4FF0A04301F5E071022543F8215010
:10362000531C0BD01F2A86BF02F01F020C4B4FF019
:10363000A04302F5E072022143F822100068FFF770
:10364000B7FD2C2303FB0474002384F82A30636045
:10365000F8BD00BF6C0800208402020000E100E019
:1036600000030050F0B5314E05792C2303FB0563B0
:1036700085B05C69002C4DD11C62996083F82840AC
:103680005A610268C2F81C41D2F81C11026802910A
:103690000121029F91600268D3F808C0C2F81C4162
:1036A000D2F81C1101910199D3F820E0196A5F68E2
:1036B0001CF80EE001311962C2F81CE517B1204672
:1036C00005B0F0BD1A6A5C690168944203D819E03C
:1036D00093F828200ABBD1F81C21002AF8D0C1F8A1
:1036E0001C71D1F81C210392039AD3F820E01A6AC6
:1036F0001CF80EE001321A62C1F81CE51A6AA242F7
:10370000E9D30168D1F81C31002BFBD00123CB6039
:10371000002003E0112005B0F0BD0F202C2303FB97
:10372000056500236B6105B0F0BD00BF6C0800208B
:10373000F0B5464BD3F8242189B0002A55D000219A
:10374000C3F82411D3F82421029202228DF810200C
:10375000029AD3F880043E4AC3F880040790D3F855
:103760003C05D3680690C2E90611059311685368B9
:1037700004A89847354BD3F844214AB10021344A74
:10378000C3F84411D3F84401916901900198D9B963
:103790002E4BD3F82021AAB10021C3F82011D3F871
:1037A00020012B4A00900098506958B1D3F84C057D
:1037B000936806908DF810105161059304A8D2E922
:1037C0000013984709B0F0BDD3F83C35D168069393
:1037D00000240025012305918DF81030C2E906452B
:1037E000D2E9001304A89847D2E7D3F810110029B2
:1037F000C0D0C3F81021D3F81011154803910399D4
:103800008169D3F83C458C42B4D1C569C768D0E919
:1038100000168DB1D3F800C285612CF02005C2617D
:10382000C3F800520369C3600122CDE905748DF825
:10383000102004A8B0479DE701238561CDE90574F8
:103840008DF8103004A8B04794E700BF0020004076
:10385000980800202DE9F0430779794E4FEAC70810
:1038600008EB070306EB830385B093F82030002BA9
:1038700040F0A8800D460446724900689146FFF763
:1038800079FC002840F09A802B68591C19D01F2B16
:103890004FF001028ABF6C494FF0A04103F01F03B3
:1038A00002FA03F3C1F808352B681F2B86BF03F01B
:1038B0001F03654A4FF0A04203F5E073032142F86D
:1038C00023106B685A1C0BD01F2B86BF03F01F03FD
:1038D0005D4A4FF0A04203F5E073002142F8231047
:1038E0002368AA69C3F82425297D6A7D23680A43D1
:1038F000C3F86C25D5E900312268C2F80C35C2F84E
:1039000014152B7D012B67D008EB07029200B3182A
:10391000C3F804902B69B350B9F1000F3DD0216872
:103920002B7F4A4D0022C1F81021D1F810110091CF
:103930002168DDF800C0C1F82021D1F820110191E3
:103940002168DDF804C0C1F82421D1F824110291C6
:103950002168DDF808C0C1F84421D1F8441122687B
:1039600003910399C2F804532268120B51B25B0110
:103970000029DBB22ADB01F1604101F5614181F8E8
:1039800000332368324D1B0B5AB2520903F01F0358
:10399000012101FA03F345F822304744226806EB7F
:1039A0008706002301240821C2F8001586F820406C
:1039B000C6E90633736105B0BDE8F083112005B098
:1039C000BDE8F083082005B0BDE8F083214902F08E
:1039D0000F0211440B76D4E7AB68591C0BD01F2B98
:1039E00086BF03F01F0318494FF0A04103F5E073B1
:1039F000002241F82320EB685A1C1AD01F2B8ABFE3
:103A000011494FF0A04103F01F03012202FA03F312
:103A1000C1F80835EB681F2B88BF03F01F0303F5BF
:103A2000E0738CBF08494FF0A041032241F82320E6
:103A3000EB682268A968C2F80835C2F8101563E778
:103A400098080020313700000003005010030200E6
:103A500000E100E0FCEC00E0F8B507793A4C0268C0
:103A6000FE00F31904EB830300215B68C2F8001524
:103A700083B10368354AC3F808230368344D1B0B30
:103A80005AB25209203203F01F03012101FA03F355
:103A900045F8223003684FF0FF3ED3F80CC5D3F849
:103AA0001455D3F80825D3F81015C3F80CE5C3F85E
:103AB00014E50368F445C3F808E5C3F810E50DD034
:103AC000BCF11F0F86BF0CF01F0C224B4FF0A04320
:103AD0000CF5E07C4FF0020E43F82CE06B1C0CD090
:103AE0001F2D86BF05F01F051A4B4FF0A04305F5AB
:103AF000E0754FF0020C43F825C04D1C0BD01F2978
:103B000086BF01F01F01134B4FF0A04301F5E07198
:103B1000022543F82150531C0BD01F2A86BF02F008
:103B20001F020C4B4FF0A04302F5E072022143F854
:103B300022103E4404EB86040068FFF739FB0023A3
:103B400084F820306360F8BD98080020100302005C
:103B500000E100E00003005001F06043B3F1005FBA
:103B60002DD1F0B40579244EEF007C1906EB8404C6
:103B700082B06369002B39D16261A1600268C2F82A
:103B80002031D2F820C10268CDF804C0DDF804C0AD
:103B9000C2F85831D2F8582100920268DDF800C00E
:103BA000D4F814C0C2F84415C2F848C5026801210F
:103BB000916062682AB1184602B0F0BC70471020CC
:103BC0007047036800E0AAB9D3F82011D3F8582150
:103BD0000029F8D0002A14BF0F2000207B1906EB23
:103BE000830300225A6102B0F0BC7047112002B07A
:103BF000F0BC70470F20F1E7980800200220FDF785
:103C00008DBA00BF2DE9F0470D460646FDF7A0FA34
:103C100003281ED8012D04461DD075B1022D18D1E0
:103C20001C4B00EB40041C44657895B11A4B1B6893
:103C30007BB12846BDE8F04718471848FDF752FF0A
:103C4000144B174A04EB44010B44125D9D78AA42C1
:103C5000EBD0BDE8F0870F4F4FEA400808EB0003B8
:103C6000FA18FD5C53783BB9A04447440C4BBA7832
:103C70001A55002DEDD0D9E7DFF8289007484A46BD
:103C80004FF40041FDF7E0FE0028EDD189F8006017
:103C9000EAE700BF2009002034090020E0080020E6
:103CA0003C090020BC08002010B50078FDF750FA50
:103CB00003280BD8064B00EB40001844407828B18D
:103CC000044B1B6813B1BDE81040184710BD00BF7E
:103CD000200900203409002038B5C14D2B78044656
:103CE00063B1C04B1B780020287023B3FDF7D8F9CF
:103CF0000120FDF7D5F90320FDF7D2F9172C00F2CA
:103D00006C81DFE814F0E600FB00FB00A000B300CC
:103D1000C600D8004E001B0028001B0028005D00D4
:103D2000640064006400640064008D0011012601D9
:103D3000350057005700FDF7C5F9DFE701231846A6
:103D40002B70FDF7EBF9002240F6CD41A648BDE807
:103D50003840FDF779BE012318462B70FDF7DEF9D8
:103D600000224FF48041A048BDE83840FDF76CBE0A
:103D70009C4B1B78002B00F027810020FDF790F969
:103D80000120FDF78DF90320FDF78AF90020FDF7EA
:103D900075F90120FDF772F9944B15221A70002570
:103DA00006E00020FDF76AF9904B07221A70002503
:103DB000284638BDFDF79CF98C4B00251C70F7E7B1
:103DC000FDF796F9894B0C221A700025F0E7884818
:103DD000FDF788FED4F11104054600F0E8800028C4
:103DE00040F0E580012C14D0C82303FB04F44FF409
:103DF000FA704FF400430021C3FB04014FF47A72C0
:103E0000002300F031FB2A4601467948FDF71CFEED
:103E100005460220FDF732F9724B01221A70C7E7FE
:103E2000704B1B78002B00F0D2800020FDF738F992
:103E30000120FDF735F90320FDF732F96B4B122213
:103E40001A700025B4E70020FDF704F9002840F0BF
:103E5000A880FDF713F941F69A11644B62480324D8
:103E60001C700022BDE83840FDF7EEBD0020FDF7D4
:103E7000F1F8002840F08F80FDF700F943F233316C
:103E80005A4B594804241C700022BDE83840FDF705
:103E9000DBBD0020FDF7DEF8002878D1FDF7EEF855
:103EA000524B514805241C70002241F69A11BDE87E
:103EB0003840FDF7C9BD0020FDF730F94B4B4A48AB
:103EC00006241C70002240F6CD41BDE83840FDF7C5
:103ED000BBBD444B1B78002B73D00020FDF7E0F8EE
:103EE0000120FDF7DDF80320FDF7DAF83E48FDF785
:103EF000F9FD3E4B002205461A7059E70020FDF7F8
:103F0000A9F8002839D1FDF7B9F841F69A1143F222
:103F10003333022C18BF1946344B33481C7000222F
:103F2000BDE83840FDF790BD2E4B1B78002B45D0E7
:103F30000020FDF7B5F80120FDF7B2F80320FDF7EA
:103F4000AFF80020FDF79AF8284B13221A700025CD
:103F50002EE7244B1B78EBB30020FDF7A1F80120DE
:103F6000FDF79EF80320FDF79BF80120FDF786F88A
:103F70001E4B14221A7000251AE70020FDF790F856
:103F8000022C4EF2666118BF4FF40031C4E70020E6
:103F9000FDF786F884E70020FDF782F84FF4003142
:103FA0006EE70020FDF77CF846F2666155E70220D7
:103FB000FDF776F80B4B00221A70F9E6FDF782F850
:103FC000BFE7FDF77FF891E7FDF77CF8DEE6FDF748
:103FD00079F833E7FDF776F8C7E70025E8E600BF94
:103FE00030090020BD080020000900203809002009
:103FF000C0080020044B1B68DB0700D47047034B4C
:104000001878FFF769BE00BF2C090020380900208E
:10401000044B1B6813F0010301D118467047FFF7EA
:104020005BBE00BF2C09002038B5254B254A19601E
:104030008307106000F0010503D44DBB2C462046D9
:1040400038BD214B21480E240F2210211C70112451
:10405000DA7099715C7240F266620421FDF796F99C
:10406000044610B135BB204638BDFDF7E7F90446DC
:104070000028F7D10146164A1648FDF7D3FC04463E
:10408000002DF0D00120FDF775F8002CEBD102E0F7
:104090000120FDF76FF8104A10480021FDF7C2FC1F
:1040A00004460028DFD10E4A0E480121BDE8384001
:1040B000FDF7B8BC0120FDF75DF8204638BD00BF14
:1040C000340900202C090020200900202449000088
:1040D000A93C000048490000F53F00004C490000A1
:1040E000FD3B0000444900000E2838B521D00F28C0
:1040F00019D1154C207817281ABF0130C0B2002002
:104100002070FFF785FF114B2478114A114952F8AE
:10411000242005461048C01AC008000440F00300DF
:10412000FCF73AFD05B938BD2846BDE83840FDF733
:104130009BB9054C207818B10138C0B22070E0E777
:1041400017202070DDE700BF400900204C4D000023
:10415000504900004C4800006C4D000008B505496E
:104160000320FFF761FF00B908BDBDE80840FDF777
:104170007BB900BFE940000008B54FF08043012241
:104180000021C3F818251846C3F804119A60D0F826
:104190000431002BFBD0FDF7F1FBF8B94FF40041DF
:1041A0000020FCF7B5F9E0B9FCF7A2F90E4B0F4877
:1041B0000F49C01AC008000440F00300FCF718FCC7
:1041C000FFF7CCFFFCF706FA0028FBD140BF20BF69
:1041D00020BFFCF7FFF90028F4D1F7E7FDF744F919
:1041E000DCE7FDF741F9DFE74C4D00006C4D0000C6
:1041F000B049000010B44FF080414FF080520020D1
:10420000C1F80C015E4BC1F81001C1F83805D2F8B5
:104210000414C3F82015D2F80814C3F82415D2F8F2
:104220000C14C3F82815D2F81014C3F82C15D2F8C2
:104230001414C3F83015D2F81814C3F83415D2F892
:104240001C14C3F84015D2F82014C3F84415D2F852
:104250002414C3F84815D2F82814C3F84C15D2F822
:104260002C14C3F85015D2F83014C3F85415D2F8F2
:104270003414C3F86015D2F83814C3F86415D2F8B2
:104280003C04C3F86805D2F840043E49C3F86C0505
:104290000968D2F84424C3F87025082924D04FF0C7
:1042A0008043D3F80024D20744BF6FF00102C3F863
:1042B0000024354AD2F8883043F47003C2F88830BD
:1042C000BFF34F8FBFF36F8F4FF01023D3F800224F
:1042D000002A23DBD3F80432002B1FDB2B4B2C4AA4
:1042E0001A605DF8044B70472A4B1B68002BD6D12F
:1042F00029482A4A2A4C04602A492B4BFB20C2F841
:1043000018050A681B68294822F00F0203F00F0302
:1043100013434FF400720B600260C0E7244A01238C
:10432000C2F80435D2F80034002BFBD04FF0102334
:1043300012211F4AC3F80012D2F80034002BFBD020
:104340004FF0102312211A4AC3F80412D2F8003495
:10435000002BFBD000231649C2F80435D1F80034F5
:10436000002BFBD0BFF34F8F0749124BCA6802F4F2
:10437000E0621343CB60BFF34F8F00BFFDE700BF88
:1043800000C000403001001000ED00E01C000020E3
:104390000090D003340100108C56004000F0004023
:1043A00048810300E40E004058020010409602408D
:1043B00000E001400400FA0508B5074B044613B1BC
:1043C0000021AFF30080054B1868836A03B198475A
:1043D000204600F047F800BF00000000444D0000F8
:1043E00070B50D4D0D4C641BA4100026A64209D1DA
:1043F0000B4D0C4C00F0BAF9641BA4100026A64229
:1044000005D170BD55F8043B98470136EEE755F8E5
:10441000043B98470136F2E780000020800000202E
:1044200080000020840000200A44914200F1FF3304
:1044300000D1704710B511F8014B03F8014F9142BC
:10444000F9D110BD02440346934200D1704703F8EE
:10445000011BF9E7034613F8012B002AFBD1181AB8
:1044600001387047FEE700BF53B94AB9002908BFB9
:1044700000281CBF4FF0FF314FF0FF3000F074B93F
:10448000ADF1080C6DE904CE00F006F8DDF804E0AB
:10449000DDE9022304B070472DE9F047089E044689
:1044A0008846002B40F085808A42154648D9B2FAEA
:1044B00082F24AB1C2F1200701FA02F320FA07F7AB
:1044C000954047EA030894404FEA154E230CB8FB89
:1044D000FEF71FFA85FC0EFB178843EA084307FB2B
:1044E0000CF1994209D9EB1807F1FF3080F0E38015
:1044F000994240F2E080023F2B445B1AA4B2B3FB26
:10450000FEF00EFB103344EA034400FB0CFCA44510
:1045100009D92C1900F1FF3380F0CB80A44540F27B
:10452000C88002382C4440EA0740A4EB0C04002762
:104530001EB1D4400023C6E900433946BDE8F087E8
:10454000002A53D0B2FA82F2002A40F0B680491B0A
:104550004FEA154E1FFA85F80127B1FBFEFC230C2C
:104560000EFB1C1143EA014308FB0CF1994207D9E9
:10457000EB180CF1FF3002D2994200F2EC80844635
:10458000591AA3B2B1FBFEF00EFB101443EA044427
:1045900008FB00F8A04507D92C1900F1FF3302D21F
:1045A000A04500F2DC801846A4EB080440EA0C4069
:1045B000BEE78B4208D9002E78D00027C6E900015B
:1045C00038463946BDE8F087B3FA83F77FB98B42A6
:1045D00002D3824200F2BD80841A61EB0303012002
:1045E0009846002EA9D0C6E90048A6E7FFDEC7F12D
:1045F0002005BB4022FA05FC4CEA030C01FA07F443
:1046000020FA05F821FA05F34FEA1C4E48EA0404A3
:10461000B3FBFEF9210C0EFB19331FFA8CF841EAAB
:10462000034309FB08FA9A4502FA07F200FA07F178
:104630000BD91CEB030309F1FF3080F088809A4509
:1046400040F28580A9F102096344A3EB0A03A4B2F6
:10465000B3FBFEF00EFB103344EA034400FB08F802
:10466000A04508D91CEB040400F1FF336BD2A04530
:1046700069D90238644440EA0940A4EB0804A0FB6D
:1046800002894C45C6464B4654D351D0002E69D0C2
:10469000B1EB0E0264EB030404FA05F522FA07F30A
:1046A000FC401D43C6E90054002746E73746304624
:1046B00043E7184637E707461FE7C2F1200320FA11
:1046C00003F7954001FA02F021FA03F34FEA154E81
:1046D0003843010CB3FBFEF71FFA85F80EFB1733C6
:1046E00041EA034107FB08F38B4204FA02F407D9BD
:1046F000691807F1FF3C28D28B4226D9023F294492
:10470000CB1A81B2B3FBFEF00EFB103341EA03413A
:1047100000FB08F38B4207D9691800F1FF3C10D267
:104720008B420ED902382944C91A40EA074714E7D8
:104730004145ABD2B8EB020E69EB0C0201381346CF
:10474000A4E76046F0E7184695E76746D8E7814654
:104750007BE7384645E7ACF1020C2B4410E7023802
:104760002C4421E73746E8E6704700BFF8B500BFA4
:10477000F8BC08BC9E467047F8B500BFF8BC08BC42
:104780009E467047FFFFFFFFFFFFFFFFFFFFFFFF9A
:10479000FFFFFFFF00000000000000000000D60146
:1047A00006010000D503000041040000D103000011
:1047B000756172745F6C6F675F6261636B656E6475
:1047C00000000000E40500207F00000064060020D7
:1047D0004261636B656E647320666C7573686564B3
:1047E0000000000061707000444800007048000044
:1047F00024480000784800008048000088480000F5
:104800009048000098480000A04800002025303261
:1048100078000000202020007C00000025630000BC
:104820000D0A00001B5B313B33316D0025734C6F6B
:1048300067732064726F7070656420282564292571
:10484000730D0A001B5B306D000000002573000033
:104850003C25733E2025733A200000000000000034
:10486000A8480000B0480000B8480000C048000058
:104870001B5B313B33306D001B5B313B33326D00D2
:104880001B5B313B33336D001B5B313B33346D00BD
:104890001B5B313B33356D001B5B313B33366D00A9
:1048A0001B5B313B33376D006572726F7200000025
:1048B0007761726E696E6700696E666F0000000056
:1048C00064656275670000000D0E0F1084060020FD
:1048D000466174616C206572726F720053797374F3
:1048E000656D2072657365740000000000000000B3
:1048F0000338FDD870470000303132333435363755
:1049000038394142434445464750494F54450000D9
:10491000505253005541525400000000554152542A
:10492000450000000B000300053C00000C000300E4
:10493000053C000018000300053C000019000300BE
:10494000053C0000C0080020E0080020000900200D
:10495000C8490000DC490000F4490000104A00008A
:10496000344A0000544A0000784A0000904A00008F
:10497000A84A0000C04A0000D84A0000EC4A0000E3
:10498000044B0000204B0000384B0000504B00004F
:10499000684B0000804B0000984B0000B44B0000B7
:1049A000D04B0000EC4B0000084C0000244C0000F1
:1049B000425350206578616D706C6520737461722C
:1049C0007465642E000000004253505F494E444914
:1049D000434154455F49444C450000004253505FF9
:1049E000494E4449434154455F5343414E4E494E1D
:1049F000470000004253505F494E444943415445EB
:104A00005F4144564552544953494E470000000007
:104A10004253505F494E4449434154455F414456D7
:104A20004552544953494E475F57484954454C49AC
:104A3000535400004253505F494E4449434154454A
:104A40005F4144564552544953494E475F534C4F7A
:104A5000570000004253505F494E4449434154457A
:104A60005F4144564552544953494E475F44495269
:104A700045435445440000004253505F494E444969
:104A8000434154455F424F4E44494E4700000000A9
:104A90004253505F494E4449434154455F434F4E52
:104AA0004E454354454400004253505F494E4449EB
:104AB000434154455F53454E545F4F4B0000000047
:104AC0004253505F494E4449434154455F53454E1C
:104AD000445F4552524F52004253505F494E444941
:104AE000434154455F5243565F4F4B004253505F22
:104AF000494E4449434154455F5243565F455252E3
:104B00004F5200004253505F494E4449434154457F
:104B10005F464154414C5F4552524F5200000000E5
:104B20004253505F494E4449434154455F414C45CF
:104B300052545F30000000004253505F494E4449D8
:104B4000434154455F414C4552545F3100000000E1
:104B50004253505F494E4449434154455F414C459F
:104B600052545F32000000004253505F494E4449A6
:104B7000434154455F414C4552545F3300000000AF
:104B80004253505F494E4449434154455F414C456F
:104B900052545F4F464600004253505F494E4449CD
:104BA000434154455F555345525F53544154455F0B
:104BB0004F4646004253505F494E44494341544595
:104BC0005F555345525F53544154455F30000000D8
:104BD0004253505F494E4449434154455F55534504
:104BE000525F53544154455F310000004253505FBF
:104BF000494E4449434154455F555345525F5354D0
:104C00004154455F320000004253505F494E4449D1
:104C1000434154455F555345525F53544154455F9A
:104C2000330000004253505F494E444943415445CC
:104C30005F555345525F53544154455F4F4E0000FA
:104C4000002020202020202020202828282828205C
:104C50002020202020202020202020202020202054
:104C600020881010101010101010101010101010BC
:104C700010040404040404040404041010101010AC
:104C80001010414141414141010101010101010176
:104C900001010101010101010101010110101010C8
:104CA0001010424242424242020202020202020248
:104CB000020202020202020202020202101010109C
:104CC00020000000000000000000000000000000C4
:104CD00000000000000000000000000000000000D4
:104CE00000000000000000000000000000000000C4
:104CF00000000000000000000000000000000000B4
:104D000000000000000000000000000000000000A3
:104D10000000000000000000000000000000000093
:104D20000000000000000000000000000000000083
:104D30000000000000000000000000000000000073
:0C4D400000000000200000200000000027
:104D4C0008490000000000001049000000000000AD
:104D5C0014490000000000001C4900000000000085
:084D6C00E4470000000003030E
:104D7400A447000000000000B04700001400002019
:104D8400EC000020B4010020BC010020F40000204D
:044D94001800000003
:084D9800A8B4FF7F0100000038
:104DA0000000000000200040000000000020004043
:104DB0000000000000000000FF0000000090D00391
:104DC00000000000000000000000000000000000E3
:104DD00000000000000000000000000000000000D3
:104DE00000000000000000000000000000000000C3
:104DF00000000000000000000000000000000000B3
:104E000000000000000000000000000000000000A2
:104E10000000000000000000000000000000000092
:084E2000250200000102000060
:04000003000002B542
:00000001FF
