:1000000000000420B5020000DD020000DF02000055
:10001000E1020000E3020000E50200000000000031
:10002000000000000000000000000000E7020000E7
:10003000E902000000000000EB020000ED020000F9
:10004000EF020000EF0200002D290000EF02000087
:10005000EF020000EF020000EF020000EF020000DC
:10006000EF020000EF020000EF020000EF020000CC
:10007000EF020000EF020000EF020000EF020000BC
:10008000EF020000EF020000EF020000EF020000AC
:10009000EF020000EF020000EF020000EF0200009C
:1000A000EF020000EF020000EF020000EF0200008C
:1000B000EF020000EF02000000000000000000005E
:1000C000EF020000EF020000EF020000EF0200006C
:1000D000EF020000EF020000EF020000EF0200005C
:1000E000EF020000EF020000EF020000000000003D
:1000F00000000000EF02000000000000EF0200001E
:1001000000000000000000000000000000000000EF
:1001100000000000000000000000000000000000DF
:1001200000000000000000000000000000000000CF
:1001300000000000000000000000000000000000BF
:1001400000000000000000000000000000000000AF
:10015000000000000000000000000000000000009F
:10016000000000000000000000000000000000008F
:10017000000000000000000000000000000000007F
:10018000000000000000000000000000000000006F
:10019000000000000000000000000000000000005F
:1001A000000000000000000000000000000000004F
:1001B000000000000000000000000000000000003F
:1001C000000000000000000000000000000000002F
:1001D000000000000000000000000000000000001F
:1001E000000000000000000000000000000000000F
:1001F00000000000000000000000000000000000FF
:1002000010B5054C237833B9044B13B10448AFF350
:1002100000800123237010BD880000200000000032
:10022000202D000008B5034B1BB103490348AFF371
:10023000008008BD000000008C000020202D000080
:10024000154B002B08BF134B9D46A3F5803A0021A8
:100250008B460F461348144A121A02F0DDFB0F4B6F
:10026000002B00D098470E4B002B00D09847002061
:10027000002104000D000D48002802D00C48AFF307
:10028000008002F097FB2000290001F097FC02F0AB
:100290007DFB00BF000008000000042000000000FB
:1002A0000000000088000020F00600200000000090
:1002B000000000000649074A074B9B1A03DD043B78
:1002C000C858D050FBDC01F0BDFCFFF7B9FF0000BF
:1002D000702D00000000002088000020FEE7FEE7EF
:1002E000FEE7FEE7FEE7FEE7FEE7FEE7FEE7FEE7E6
:1002F000F0B595B0002415460F4608461E4601F09D
:10030000B7FB384623460895082205A91A9D099689
:100310000D950A948DF82C400C9401F00DFC9DF87D
:1003200014308DF81140DDE9061003F00302012AB4
:10033000CDE9020127D0022A04D0384601F09CFB07
:1003400015B0F0BDBDF81650C3F3C2038DF81030E0
:10035000AD090826082D2C4628BF0824334622461E
:100360000EA9384601F0E8FB2D1B214608AB02AA76
:100370000EA8264400F016FD002DEBD1384601F002
:100380007BFB15B0F0BDBDF81460059DC6F3831668
:10039000C3F3C204B2000EA9384608238DF81040FA
:1003A000C5F3952501F0C8FB08AB324628460EA9D7
:1003B000009302AB00F080FC384601F05DFB15B005
:1003C000F0BD00BF014B01221A707047E800002009
:1003D000704700BF00B583B0044B0093044A40232C
:1003E000FFF786FF03B05DF804FB00BFF5030000D4
:1003F000A800002038B50E480E4D03780E4CEB5C7B
:100400000025D2B2257053B1043002F03DFA58B93C
:100410000A4B1B7813B12378002BFCD038BD0C306D
:1004200001F0B8FF0028F3D000F082FDF0E700BF34
:1004300000000020EC060020E8000020A4000020BE
:1004400030B51448144A0378D35C89B0BBB104308A
:1004500002F09AF9114D0FCD6C460FC495E80F00CC
:10046000062584E80F00002269460A48009501F03D
:10047000FFFC40B90A4B00221A7009B030BD0C30A5
:1004800001F00AFFE6E700F053FD054B00221A7069
:1004900009B030BD00000020EC060020542A000006
:1004A000A400002030B50E4D0FCD89B06C460FC4AE
:1004B00095E80F00062584E80F000A4A0A480095CF
:1004C000694601F0D5FC20B9084B01221A7009B029
:1004D00030BD00F02DFD054B01221A7009B030BD72
:1004E000542A0000C503000000000020A4000020E2
:1004F00008B5FFF7D7FF0421034800F04DFB034B7D
:1005000001225A7108BD00BF442D000014000020D4
:1005100038B50C4B0C48002400250022FF21C3E90C
:100520000045C3F81824996083F82024C3F81424E4
:1005300001F050FA044610B9044801F031FB20469E
:1005400038BD00BFC0010020542D0000942A0000D7
:10055000A9B1124B12495B1ADB081AD030B4114C06
:100560002288824217D0002203E034F822508542CC
:100570000AD001329342F8D1002030BC7047084ABB
:1005800002EBC0021068704701EBC202106830BC79
:100590007047184670470A46F8E700BF442D000030
:1005A000242D000088000020094B013903EBC00016
:1005B00003290BD8DFE801F0020806040220704787
:1005C00040797047007970470420704700207047D9
:1005D000242D00002DE9F04F9D4CD4E900239A42D0
:1005E00089B000F030810023C4F81834BFF34F8F76
:1005F000D4E9013503EA0501CA1C04EB820614F8AC
:10060000222050071BD52768327802F00302012A06
:1006100000F00781022A03D17288023303EB9213A0
:1006200003EA0501D4F81804CA1C04EB820630B9A9
:100630009F4240F2048114F822205207E4D404EBD4
:1006400081015A1CC96802912A4004EB820201F020
:100650000301D2680392022903F1020600F002812D
:10066000012900F06581D4F810543DB12B6828466B
:100670009B689847EB681D68002DF7D1754A764B4B
:10068000D4F808809B1ADB080020019300F098FC46
:10069000D4E90132D4F8009013440133A3EB0903E9
:1006A000012B00F294816D4D2F1FA5F10806012149
:1006B000284600F0A1FC384600F0B6FC304600F0B9
:1006C000B3FCD4E9013E03EA0E01C81C04EB80022E
:1006D00014F8200010F0040000F0A08003F1020CD8
:1006E00092F800B00BF0030BBBF1010FE24600F0F3
:1006F0009080BBF1020F7CD0CA1C04EB8202002860
:10070000EED104EB81010133CA68059203EA0E03BE
:1007100004EB830302F00302012AD96800F087800A
:10072000022A5CD1BDF816309B0903334FEA114B06
:100730000AEB930A304600F083FC5946002856D055
:100740002846C4F804A000F057FCD4E9013221681F
:10075000134401335B1A012BA9D90A400332052344
:100760000231002044F82230216000F031FC0021E9
:100770003A4800F037FC80F3100009F1010303EA66
:100780000803BDF8042004EB830308EA090808F114
:10079000030842EA0042DA6054F82820304B63F341
:1007A0009F2222F47F7323F0030343F0110344F8E4
:1007B000282024F8283094F820343BB9D4E90030BC
:1007C000C01A18BF012009B0BDE8F08FFFF702FF83
:1007D0000028F3D0FFF7FEFE0028F7D1EEE7304601
:1007E00000F02EFC4FF0000B59460028A8D12846F7
:1007F000A9E753880CEB93130EEA0301CA1C03F11B
:10080000020C14F82200E24604EB820200F004001D
:1008100075E71388C3F383136344EDE703F1020A1A
:100820006FE732880233C2F383121344F8E6BDF84F
:100830001430C3F383134FEA114B9A447AE767608D
:1008400009B0BDE8F08F002009B0BDE8F08F00BF0F
:10085000C0010020242D00003C2D0000DC050020FC
:10086000A02A0000BDF80A305F484FEA9319B9F199
:10087000500FC84628BF4FF0500868F38F1308F197
:100880000801ADF80A3001F0A7F8074600283FF448
:10089000EAAE01F0EDF8082200230DEB0201384624
:1008A00001F016F925EA060301339B0098457BD930
:1008B000002B00F08E8005EA0601A8EB0308DDB2EC
:1008C000033104EB81012A46082338465FFA88F891
:1008D00001F0FEF8424605F108034449384601F0AC
:1008E000F7F809F1030906EB9909D4F81834002B3D
:1008F00069D1D4F8105465B1EB685A792846394665
:10090000002A5CD02B681B689847EB681D68002D97
:10091000F2D1384601F0B0F8002000F051FBD4F8D5
:1009200018340BB9C4F80490002000F051FB45E7DF
:10093000BDF808202C48C2F38313062B28BF0623DA
:1009400063F3891202339900ADF8082001F044F8EE
:10095000074600283FF487AE01F08AF808220023FA
:100960000DEB0201384601F0B3F8BDF8083013F47E
:10097000707F36D04FF0000805EA06014FEA880381
:100980000331083304EB81010422384601F0A0F85A
:10099000BDF8083008F10108C3F3831306F101091B
:1009A00043454E46E8D8A0E705EA0601033104EBCB
:1009B000810142460823384601F08AF891E71D6814
:1009C000002D99D1A5E7384601F056F8F6E64946DC
:1009D000C3E65FFA88F208230449384601F078F844
:1009E0007FE7B14681E700BF542D0000CC01002015
:1009F0002DE9F04F654C87B0804600200191A56835
:100A000000F0DEFAD4E9012326681A440132921B71
:100A1000012A00F2B88004F21C4704F214490121B3
:100A2000384600F0E9FA5A4800F0FEFA484600F06D
:100A3000FBFAD4E9013E03EA0E00C21C04EB82017A
:100A400014F8222012F0040200F09A8003F1020C44
:100A500091F800B00BF0030BBBF1010FE24600F080
:100A60008A80BBF1020F00F1030B74D004EB8B0101
:100A7000002AEDD104EB80000133C268039203EA3F
:100A80000E0304EB830302F00302012AD9685AD053
:100A9000022A55D1BDF80E309B0903334FEA114BA2
:100AA0000AEB930A484600F0CBFA5946002845D095
:100AB0003846C4F804A000F09FFAD4E90113226874
:100AC00019440131891A0129A9D91340033302328B
:100AD0000521002044F82310226000F079FA00215B
:100AE0002C4800F07FFA80F31000731C2B4004EBBD
:100AF000830300043540033540EA1840D86014F8F9
:100B0000253068F3C50304F82530019B54F82520EF
:100B100063F39F2222F4717323F0030343F0010374
:100B200044F8252024F8253094F820341BB1FFF731
:100B300051FD0028FBD107B0BDE8F08F3846BAE779
:100B40004FF0000BAEE7BDF80C30C3F383134FEA50
:100B5000114B9A44A6E74B880CEB93130EEA030063
:100B6000C11C03F1020C14F82120E24604EB8101C0
:100B700002F004027CE70B88C3F383136344EDE7C0
:100B800003F1020A76E732469FE700BFC00100206A
:100B9000D8050020DC050020F0B41B4ED6F8103438
:100BA0000746002B2DD0DC6825790021A942084694
:100BB00017D0234603E0DB681A798A4211D01B68FC
:100BC000002BF8D1FB681871D6F810349BB1DA68A5
:100BD000FB6812681A60D6F81034DB681F60F0BC3E
:100BE0007047092901F1010301D01946DEE74FF0F2
:100BF000FF30F0BC7047C6F81074FA681360F0BCA0
:100C000070471846DEE700BFC001002038B5094B29
:100C1000D3F81044012583F820544CB1E3685D718A
:100C2000236820465B689847E3681C68002CF5D170
:100C300038BD00BFC001002030B5C38883B0044672
:100C40000D4613BB217A05291DD0637AA08873B99C
:100C5000124B53F821400021FFF77AFC104903465C
:100C60002246284603B0BDE8304000F059BAFFF7ED
:100C70009BFC0C4B0C4953F82020284600F050FAFE
:100C8000217AA088E4E703B030BD084A0092084901
:100C9000084A284600F044FAD4E700BF2C2B000095
:100CA000202B0000B82A00001C2B0000142B000091
:100CB000FC2A0000F42A00002DE9F04385B01D460F
:100CC0000C9C002381460E46174694F80C80237333
:100CD00021462846FFF7B0FF062F09D8DFE807F0C6
:100CE000042E343B444F1F004946204600F018FABA
:100CF0002B7A052B05D06B7A5BB92749204600F08B
:100D00000FFA204600F000FA84F80C8005B0BDE828
:100D1000F083224A2249204600F002FAEDE7D6E9A4
:100D20000413F2680393B3680291CDE90032494697
:100D3000D6E90023204600F0F3F9D9E732684946A6
:100D4000204600F0EDF9D3E74946D6E900232046D6
:100D500000F0E6F9CCE7B36800934946D6E90023F2
:100D6000204600F0DDF9C3E7D6E902320192009394
:100D70004946D6E90023204600F0D2F9B8E7D6E983
:100D80000321B3680291CDE900324946D6E9002338
:100D9000204600F0C5F9ABE7F02A0000142B000054
:100DA0001C2B0000082900D970472DE9F04F1D4683
:100DB00083B000241B7B2C7307460E461046294641
:100DC00091460193DFF8C8A0DFF8C880FFF734FF31
:100DD00005E03A5D013400F0A3F9082C09D0A642E1
:100DE00041462846F5D85146013400F099F9082CBF
:100DF000F5D12249DFF8A0A0214CDFF8A0802846D9
:100E000000F08EF94FF0000B0EE012F8081011F010
:100E1000970F08BF2E22214628460BF1010B00F048
:100E20007FF9BBF1080F10D05E4505D917F80B20EC
:100E30007E2AEAD92E22EEE7514628460BF1010B15
:100E400000F06EF9BBF1080FEED199F80830052BD0
:100E500002D099F809305BB90A49284600F060F9D8
:100E6000284600F051F9019B2B7303B0BDE8F08FC9
:100E7000054A0649284600F053F9EDE7E82A000044
:100E8000EC2A0000F02A0000142B00001C2B0000AC
:100E9000E42A0000DC2A0000282B0000192C0000A6
:100EA0000A4B185C1F288ABF09494FF0A04100F087
:100EB0001F00D1F804350122824022EA03001340CA
:100EC000C1F80805C1F80C35704700BF982B000029
:100ED00000030050C20730B40ED483070AD54FF088
:100EE000A0430C22C3F82C27C3F83027C3F860278F
:100EF000C3F8642730BC70474FF0A0430322C3F807
:100F000034274FF40055C3F838274FF48044C3F812
:100F10003C274FF40041C3F840274FF48032C3F818
:100F20000855C3F80845C3F80815C3F80825D4E7E1
:100F300000B585B000230390194601AA44F20100D0
:100F4000CDE9013300F004F805B05DF804FB00BF03
:100F500010B572B6FFF75AFEFFF73CFB0028FBD135
:100F6000104B114C1149E41AE408240444F0010028
:100F7000FFF73EFD0E4B1B68DB0700D500BE44F0BB
:100F800002000C49FFF734FDBFF34F8F0A490B4BAA
:100F9000CA6802F4E0621343CB60BFF34F8F00BF17
:100FA000FDE700BF242D00003C2D00009C2B00001D
:100FB000F0ED00E0A82B000000ED00E00400FA05D1
:100FC00072B6024A13680133136070477C06002032
:100FD000034A1368013B136003B962B6704700BF50
:100FE0007C06002050E8002F0B4640E8003C9CF0B7
:100FF000000FF7D11046704750E8003F03EB0102A5
:1010000040E8002C9CF0000FF6D11046704700BF5E
:1010100050E8003FA3EB010240E8002C9CF0000FD9
:10102000F6D11046704700BF012350E8002F42EA76
:10103000030C40E800C191F0000FF6D16046704704
:10104000002350E800CF0CEA030240E8002191F0B1
:10105000000FF6D160467047B8B130B4D0E9011244
:10106000521A0468D2B2531E2160DBB242B1016849
:101070000A685C1E551C0D601370E3B2FF2BF6D19D
:1010800003680020187130BC70470E20704700BF05
:1010900038B504460020FFF793FFD4E900311A6801
:1010A0008A4215D9511E19602168A3680868258AEB
:1010B00012F8012CE4681B1A0879DBB2984205FB90
:1010C000024400D20B710020FFF782FF204638BD9A
:1010D00000240020FFF77CFF204638BD38B50546C8
:1010E00000200C46FFF76CFF2A681368591C11603A
:1010F000E9682A8A641AB4FBF2F41C700020BDE887
:101100003840FFF765BF00BF826842B110B50446A2
:1011100043690168006998470023A36010BD7047C8
:101120000EB400B582B0039921B104AB01AA0193BA
:1011300000F0B2F802B05DF804EB03B0704700BFF6
:101140002DE9F04F8A4683B09245164605469846EB
:10115000DDE90CB1C0F09C8053460127B3FBF6F3E8
:101160009E4207F10107F9D9474538BF474611F0BC
:101170000103AA68009302D1BBF1000F68D10124DA
:1011800003E008F1FF3806FB04F4B8F1010FF8D8CA
:10119000BAFBF4F08642F6D9DFF8F8904FF00D086C
:1011A00007E0B442B4FBF6F31CD3BAFBF3F0AA6831
:1011B0001C4619F8003029680A2B04FB10AA01EB21
:1011C000020E02F1010028D0A8608EF80030D5E9A7
:1011D00001329A42E5D32846FFF796FFB4FBF6F3B7
:1011E000B442E2D2009BABB1BBF1000F12D0BB45C1
:1011F00010D92024AB682A68591CA960D454D5E9B9
:1012000001329A420BF1FF3B1ED2BBF1000F01D01D
:10121000BB45EFD103B0BDE8F08FA86001F80280B4
:10122000D5E90120904204D22A6802EB000E013079
:10123000CAE728460193FFF767FFAA682968019B60
:10124000501C01EB020EBFE72846FFF75DFFDCE70D
:101250008B0717D42024BB4591D92B68511CA9605A
:101260009C54D5E901329A420BF1FF3B05D2BBF108
:10127000000F84D0BB45F0D181E72846FFF744FF3B
:10128000AA68F4E7B8F1000F0CBF30242024E2E78D
:10129000012769E7B82B0000002900F0E9822DE959
:1012A000F04F054685B091460C460E78DFF81CA736
:1012B0004FF00D0B13E0AB6828680A2E03F1010212
:1012C00000EB030100F02681AA600E70D5E901321F
:1012D0009A4280F011812678002E00F014810134AA
:1012E000002E00F01081252EE5D12146002711F8AF
:1012F000012B2D2A00F0E580302A00F0E6802B2A11
:1013000000F0D6802A2A00F01181A2F13006F3B253
:10131000092B03D922E2A3F130060146084606EB69
:10132000860310F8012BA2F13004092C02EB4303D1
:10133000F1D92E2A00F006814FF0000802F0FB03DD
:10134000682B01F1010405D114F8012B02F0FB0315
:10135000682BF9D0253A532ABDD801A353F822F0BF
:10136000F5160000D7120000D7120000D7120000B7
:10137000D7120000D7120000D7120000D7120000C9
:10138000D7120000D7120000D7120000D7120000B9
:10139000D7120000D7120000D7120000D7120000A9
:1013A000D7120000D7120000D7120000D712000099
:1013B000D7120000D7120000D7120000D712000089
:1013C000D7120000D7120000D7120000D712000079
:1013D000D7120000D7120000D7120000D712000069
:1013E000D7120000D7120000D7120000D712000059
:1013F000D7120000D7120000D7120000D712000049
:10140000D7120000D7120000D7120000D712000038
:10141000D7120000D7120000D7120000D712000028
:10142000D7120000D7120000D71200000D170000DD
:10143000D7120000D7120000D7120000D712000008
:10144000D7120000D7120000D7120000D7120000F8
:10145000D7120000D7120000D31400006F1600004E
:10146000D7120000D7120000D7120000D7120000D8
:101470006F160000D7120000D7120000D71200002C
:10148000D7120000D7120000D7120000E7150000A5
:10149000D7120000D71200008D150000D7120000EF
:1014A00071150000D7120000D71200000D170000C0
:1014B00047F004070C46214611F8012B2D2A7FF432
:1014C0001BAF47F001070C46F5E747F002070C4653
:1014D000F1E7D9F800301A1DC9F800201E78AB6872
:1014E0000A2E00F04F822A68591CA960D654D5E90B
:1014F00001329A42FFF4EFAE2846FFF705FE267848
:10150000002E7FF4ECAE2B7B002B40F0218105B048
:10151000BDE8F08FAA6000F803B0D5E901329A4225
:1015200080F00E81296811440132CDE6D9F80030EF
:101530001A1DC9F8002062781E682E2A04F10200E4
:101540007FF4FAAE4A78A2F13003092B01464FF03E
:1015500000083FF6F3AE08EB880802EB480811F8E4
:10156000012FA2F13003092BA8F13008F3D9E5E6E9
:10157000D9F800301A1DC9F80020196801974346B0
:1015800000960A222846FFF7DBFDA4E6D9F80030D2
:101590001A1DC9F80020D3F80080FB0700F1EB808A
:1015A000B8F1000F00F0EC81404601F03DFA07462B
:1015B000BE4240F25E81002E00F05B81202102E0FD
:1015C000BE4200F05681AA682B68501CA86099544E
:1015D000D5E90123934206F1FF36F1D32846FFF700
:1015E00093FD2021ECE7D9F80020131DC9F8003045
:1015F000AB6829681768581C3022A860CA54D5E91E
:101600000123934280F0F1802A68581C7821A86059
:10161000D154D5E90123934280F0E2800F2F03D902
:101620003A4612090F2AFCD84FF0805606E00F2EDA
:101630004FEA16137FF64FAE1E46AB68B7FBF6F2C5
:101640001AF802802868B8F10A0F06FB127700EB3F
:10165000030103F1010267D0AA6081F80080D5E997
:1016600001329A42E3D32846FFF74EFDDFE7D9F86F
:1016700000301A1DC9F80020196881EAE172A2EB56
:10168000E172092A4FF001000BDDDFF844C300E0EE
:101690001A46ACFB02E3632A00F101004FEAD303D0
:1016A000F6DC4045034638BF4346029307F0020389
:1016B000002E57D00029C0F29D807A0700F19A8051
:1016C000002B00F09980B8F1000F40F095800029C0
:1016D000C0F237817A0700F1478107F00303022B3C
:1016E00000F0FE80CDE9006743460A222846FFF756
:1016F00027FDF0E5AB682A68581C2521A860D15465
:10170000D5E901329A42FFF4E6ADF5E6D9F80030AA
:101710001A1DC9F800201968019743460096102247
:101720002846FFF70DFDD6E5AA6000F803B0D5E91D
:1017300001329A4280F094802B68991801328BE72D
:101740002846FFF7E1FCAB6829685A1C1944BBE541
:10175000284605B0BDE8F04FFFF7D6BC0846002686
:101760002146E6E52BB1B8F1000F00F02881F8071B
:10177000ADD40026ABE798F80020002A00F02381C2
:10178000AB684746C8F10101D5F800E00A2A01EB31
:1017900007080EEB030C03F1010055D0A8608CF88C
:1017A0000020D5E90123934243D217F8012F002AE4
:1017B000EAD146457FF68FAD202702E046453FF44B
:1017C0008AADAA682B68511CA9609F54D5E90132E3
:1017D0009A4206F1FF36F1D32846FFF795FCEDE774
:1017E0002846FFF791FCAB6818E72846FFF78CFC0A
:1017F000AB6809E7013E63E7F8073FF568AF002EE5
:10180000B7D0029BB342BFF462AF2023AA68501C3A
:10181000A86028688354D5E90102824206F1FF36A8
:1018200080F0BF80002EA4D0029AB242EED11646BC
:101830004DE728460291FFF767FC17F8012F002AB1
:10184000B7D0AB6802999FE7A8600EF803B0D5E95E
:101850000130984260D22B6803EB000C01309DE709
:101860002846FFF751FCA9682B684A1C1944F3E687
:10187000704798F80060002E3FF42DADAB682868E3
:101880000A2E03F1010200EB030111D0AA600E70D1
:10189000D5E9012393421BD218F8016F002E3FF4C3
:1018A0001AAD28680A2E03F1010200EB0301EDD105
:1018B000AA6000F803B0D5E901329A4239D229680A
:1018C00011440132AA600E70D5E901239342E3D39B
:1018D0002846FFF719FC18F8016F002ECED1FAE464
:1018E000B8F1000F7FF4FEAE002E6AD0029BB34227
:1018F000BFF4F8AE3023AA68501CA860286883544F
:10190000D5E90102824206F1FF3651D2002E58D0AD
:10191000029AB242EFD1E5E62846CDE90221FFF76F
:10192000F3FBAB682A68581C02EB030CDDE90221CB
:1019300034E72846FFF7E8FBAB6829685A1C1944CE
:10194000A4E7AA68531CAB602B682D209854D5E9F6
:1019500001329A42C1F10001FFF4BFAE2846039163
:10196000FFF7D2FB0399B8E6AA68531CAB602B685B
:101970002B209854D5E901329A42FFF4AEAEEDE740
:10198000474615E62A68591CA96002F803B0D5E954
:1019900001239342FFF4A7AD2846FFF7B5FBAB68E0
:1019A000A1E528460391FFF7AFFB2023039939E710
:1019B00028460391FFF7A8FB30230399A6E7464684
:1019C00085E600268EE69046F3E600BFB82B0000C1
:1019D000CDCCCCCCFFF740BB2DE9F041058ACF1C24
:1019E000043D2F440646B7FBF5F7FFF751FB0028EF
:1019F00034D0FFB24FF48073013F0446C5800660C7
:101A000083802CD08046002509E06379AF4203F142
:101A100001036371C8F80000066080461FD030469D
:101A2000FFF736FB01350028EFD194F805802768D1
:101A3000B8F1010316D03D46013083422D68FBD139
:101A4000B8F1000F0AD0002601E03C463F6821466D
:101A500001362846FFF742FBB045F6D80024204661
:101A6000BDE8F08121463846FFF738FBF6E700BFB6
:101A700004300121FFF7C0BA2DE9F04101210446ED
:101A80000430FFF7C5FAC0B208B1BDE8F08194F8A0
:101A900005802568B8F1010314D02E460130834239
:101AA0003668FBD1B8F1000FEFD0002701E02C46DB
:101AB0002D68214601373046FFF710FBB845F6D8B0
:101AC000BDE8F08121462846BDE8F041FFF706BB9E
:101AD0002DE9F8430546C6884079144606FB00F216
:101AE000043A04EB030C1F1D624538BFD41ABE42F2
:101AF0008846B7FBF6F106FB117002D801392D6854
:101B0000FCD1371AA74228BF27469CB14FF00009E5
:101B10000430E41B28443A4608EB090100F06EFF4C
:101B2000A642B9442D6837464FF0000028BF27462B
:101B3000002CEDD1BDE8F8832DE9F8430546C688B1
:101B40004079144606FB00F2043A04EB030C1F1D17
:101B5000624538BFD41ABE428846B7FBF6F006FB92
:101B6000107102D801382D68FCD1771AA74228BF1E
:101B700027469CB14FF0000904312944E41B3A4642
:101B800008EB090000F03AFFA642B9442D68374639
:101B90004FF0000128BF2746002CEDD1BDE8F883A7
:101BA000826800239360826813618268536182684F
:101BB000D360826853608268136070472DE9F041FA
:101BC0000120FFF787F900210846FEF7A1FC60BB62
:101BD000FEF78EFC164F174B1749184DDFF8608043
:101BE000FF1AFF083F0447F003073846FEF700FFDF
:101BF00045F0010541463846FEF7FAFE002630461C
:101C0000FFF74EF94FF4FA744FF47A40A847013CBD
:101C1000FAD10136042EF2D1FEF7DCFC0028E9D01F
:101C2000FEF7D8FC0028F7D1E4E7FFF781F9CFE70A
:101C30003C2D0000242D0000D82B0000D02B0000EC
:101C4000F02B000010B44FF080414FF08052002084
:101C5000C1F80C015E4BC1F81001C1F83805D2F88B
:101C60000414C3F82015D2F80814C3F82415D2F8C8
:101C70000C14C3F82815D2F81014C3F82C15D2F898
:101C80001414C3F83015D2F81814C3F83415D2F868
:101C90001C14C3F84015D2F82014C3F84415D2F828
:101CA0002414C3F84815D2F82814C3F84C15D2F8F8
:101CB0002C14C3F85015D2F83014C3F85415D2F8C8
:101CC0003414C3F86015D2F83814C3F86415D2F888
:101CD0003C04C3F86805D2F840043E49C3F86C05DB
:101CE0000968D2F84424C3F87025082924D04FF09D
:101CF0008043D3F80024D20744BF6FF00102C3F839
:101D00000024354AD2F8883043F47003C2F8883092
:101D1000BFF34F8FBFF36F8F4FF01023D3F8002224
:101D2000002A23DBD3F80432002B1FDB2B4B2C4A79
:101D30001A605DF8044B70472A4B1B68002BD6D104
:101D400029482A4A2A4C04602A492B4BFB20C2F816
:101D500018050A681B68294822F00F0203F00F03D8
:101D600013434FF400720B600260C0E7244A012362
:101D7000C2F80435D2F80034002BFBD04FF010230A
:101D800012211F4AC3F80012D2F80034002BFBD0F6
:101D90004FF0102312211A4AC3F80412D2F800346B
:101DA000002BFBD000231649C2F80435D1F80034CB
:101DB000002BFBD0BFF34F8F0749124BCA6802F4C8
:101DC000E0621343CB60BFF34F8F00BFFDE700BF5E
:101DD00000C000403001001000ED00E01C000020B9
:101DE0000090D003340100108C56004000F00040F9
:101DF00048810300E40E0040580200104096024063
:101E000000E001400400FA0530B585B0047845686B
:101E10008DF80040D0E90240064A074B039053F882
:101E2000213001958DF8084052F8211068469847F6
:101E300005B030BD800600208806002030B585B092
:101E4000047845688DF80040D0E90240064A074B07
:101E5000039053F8213001958DF8084052F8211075
:101E60006846984705B030BD8006002088060020EF
:101E70002DE9F043DFF8748006784B7F08F80630D0
:101E80000D46074696460FCD89B06C460FC495E8BF
:101E90000F003D78DFF85890DFF858C018F805506B
:101EA00049F826E084E80F004CF82600049665B156
:101EB000BEF1000F0B4A694607F1040008BF00227B
:101EC00000F060FB09B0BDE8F083BEF1000F064AE8
:101ED000694607F10C0008BF002200F0EDF809B0D8
:101EE000BDE8F083091E00003D1E0000EC06002046
:101EF000880600208006002030B56D4AD2F80433F1
:101F000099058BB066D5D2F82431002B62D000231E
:101F1000C2F82431D2F8243103934FF40171654B98
:101F20000398C2F8081393F8291009B901215160E8
:101F30005F4902228DF81820D1F88024C1F880244E
:101F40009869D96809920022CDE90710C3E90622F1
:101F5000D3E9001406A8A047554AD2F81C31C3B1F2
:101F6000544B186A5969884269D293F8280000F0E6
:101F7000FF04002863D1C2F81C41D2F81C11029161
:101F800002999C68186A196A205C01311962C2F8CA
:101F90001C05474AD2F84431D3B10021454BC2F861
:101FA0004411D2F8440193F82910009000980029B8
:101FB0005AD19A6962B10022586AD9689A6101229D
:101FC000CDE907108DF8182006A8D3E90012904734
:101FD0000BB030BD364AD2F804335B07BCD5D2F81B
:101FE0000831002BB8D0334B996900293FD000212C
:101FF000C2F80811D2F8081104910499D868596AF6
:10200000D2F8182542545A6A996901325A625A6ABA
:102010008A42A1D1DA691968002A31D0D8685D6A8C
:102020001C699A61079000220120DC60DA615A6223
:102030008DF8180008955B6806A898478CE71C4A3D
:102040000020C2F81C01D2F81C210192019A00293B
:102050009FD09A688DF8180008915861079206A8D9
:10206000D3E90012904794E701211160A1E7C2F87B
:102070000811D2F8080105900598D2F81825C6E78E
:1020800093F8292012B90A4A01205060084A4FF4F7
:102090000170C2F80803586ADA6808900024012029
:1020A00007928DF818005A689C6106A8904753E77C
:1020B00000200040900600202DE9F041DFF8D48197
:1020C00007792C2606FB078682B096F82A30002B6B
:1020D00040F098800C46054669490068164600F0B5
:1020E0002BFC002840F08A802368591C19D01F2B34
:1020F0004FF001028ABF63494FF0A04103F01F0374
:1021000002FA03F3C1F8083523681F2B86BF03F0DA
:102110001F035C4A4FF0A04203F5E073032142F82D
:10212000231063685A1C0BD01F2B86BF03F01F03BC
:10213000544A4FF0A04203F5E073002142F8231007
:102140002B68A269C3F82425217D637D2A680B438F
:10215000C2F86C35D4E900122B68C3F81425C3F813
:102160000C15237D012B57D02C2303FB07F308EB21
:1021700003025660226948F8032066B32A68237F69
:10218000414C0021C2F81C11D2F81C2100922A688F
:10219000009EC2F84411D2F844112A6801910199B5
:1021A000C2F804432A68120B51B25B010029DBB26A
:1021B0002CDB01F1604101F5614181F800332B68AE
:1021C000324C1B0B5AB2520903F01F03012101FAD2
:1021D00003F344F822302C232C6803FB07830022EE
:1021E00004250121C4F8005583F82A10C3E906220A
:1021F00083F829205A6102B0BDE8F081112002B0B5
:10220000BDE8F081082002B0BDE8F081204902F06D
:102210000F0211440B76D2E7A368591C0BD01F2B79
:1022200086BF03F01F0317494FF0A04103F5E07389
:10223000002241F82320E3685A1C1AD01F2B8ABFC2
:1022400010494FF0A04103F01F03012202FA03F3EB
:10225000C1F80835E3681F2B88BF03F01F0303F59F
:10226000E0738CBF07494FF0A041032241F82320BF
:10227000E3682A68A168C2F80835C2F8101573E748
:10228000F91E0000000300508000020000E100E0A1
:10229000FCEC00E090060020F8B53A4F04790268A3
:1022A0002C2303FB047300215B68C2F8001583B183
:1022B0000368354AC3F808230368344D1B0B5AB230
:1022C0005209203203F01F03012101FA03F345F8FC
:1022D000223003684FF0FF3CD3F80C65D3F8145557
:1022E000D3F80825D3F81015C3F814C5C3F80CC5E6
:1022F00003686645C3F808C5C3F810C50CD01F2E87
:1023000086BF06F01F06224B4FF0A04306F5E0768D
:102310004FF0020C43F826C06E1C0BD01F2D86BF59
:1023200005F01F051A4B4FF0A04305F5E075022696
:1023300043F825604D1C0BD01F2986BF01F01F01FB
:10234000134B4FF0A04301F5E071022543F82150F3
:10235000531C0BD01F2A86BF02F01F020C4B4FF0FC
:10236000A04302F5E072022143F82210006800F059
:1023700001FB2C2303FB0474002384F82A306360E0
:10238000F8BD00BF900600208402020000E100E0DA
:1023900000030050F0B5314E05792C2303FB056393
:1023A00085B05C69002C4DD11C62996083F828408F
:1023B0005A610268C2F81C41D2F81C1102680291ED
:1023C0000121029F91600268D3F808C0C2F81C4145
:1023D000D2F81C1101910199D3F820E0196A5F68C5
:1023E0001CF80EE001311962C2F81CE517B1204655
:1023F00005B0F0BD1A6A5C690168944203D819E01F
:1024000093F828200ABBD1F81C21002AF8D0C1F883
:102410001C71D1F81C210392039AD3F820E01A6AA8
:102420001CF80EE001321A62C1F81CE51A6AA242D9
:10243000E9D30168D1F81C31002BFBD00123CB601C
:10244000002003E0112005B0F0BD0F202C2303FB7A
:10245000056500236B6105B0F0BD00BF900600204C
:10246000F0B5464BD3F8242189B0002A55D000217D
:10247000C3F82411D3F82421029202228DF81020EF
:10248000029AD3F880043E4AC3F880040790D3F838
:102490003C05D3680690C2E906110593116853689C
:1024A00004A89847354BD3F844214AB10021344A57
:1024B000C3F84411D3F84401916901900198D9B946
:1024C0002E4BD3F82021AAB10021C3F82011D3F854
:1024D00020012B4A00900098506958B1D3F84C0560
:1024E000936806908DF810105161059304A8D2E905
:1024F0000013984709B0F0BDD3F83C35D168069376
:1025000000240025012305918DF81030C2E906450D
:10251000D2E9001304A89847D2E7D3F81011002994
:10252000C0D0C3F81021D3F81011154803910399B6
:102530008169D3F83C458C42B4D1C569C768D0E9FC
:1025400000168DB1D3F800C285612CF02005C26160
:10255000C3F800520369C3600122CDE905748DF808
:10256000102004A8B0479DE701238561CDE90574DB
:102570008DF8103004A8B04794E700BF0020004059
:10258000C00600202DE9F0430779794E4FEAC708CD
:1025900008EB070306EB830385B093F82030002B8C
:1025A00040F0A8800D46044672490068914600F04C
:1025B000C3F9002840F09A802B68591C19D01F2BB2
:1025C0004FF001028ABF6C494FF0A04103F01F0396
:1025D00002FA03F3C1F808352B681F2B86BF03F0FE
:1025E0001F03654A4FF0A04203F5E073032142F850
:1025F00023106B685A1C0BD01F2B86BF03F01F03E0
:102600005D4A4FF0A04203F5E073002142F8231029
:102610002368AA69C3F82425297D6A7D23680A43B3
:10262000C3F86C25D5E900312268C2F80C35C2F830
:1026300014152B7D012B67D008EB07029200B3180D
:10264000C3F804902B69B350B9F1000F3DD0216855
:102650002B7F4A4D0022C1F81021D1F810110091B2
:102660002168DDF800C0C1F82021D1F820110191C6
:102670002168DDF804C0C1F82421D1F824110291A9
:102680002168DDF808C0C1F84421D1F8441122685E
:1026900003910399C2F804532268120B51B25B01F3
:1026A0000029DBB22ADB01F1604101F5614181F8CB
:1026B00000332368324D1B0B5AB2520903F01F033B
:1026C000012101FA03F345F822304744226806EB62
:1026D0008706002301240821C2F8001586F820404F
:1026E000C6E90633736105B0BDE8F083112005B07B
:1026F000BDE8F083082005B0BDE8F083214902F071
:102700000F0211440B76D4E7AB68591C0BD01F2B7A
:1027100086BF03F01F0318494FF0A04103F5E07393
:10272000002241F82320EB685A1C1AD01F2B8ABFC5
:1027300011494FF0A04103F01F03012202FA03F3F5
:10274000C1F80835EB681F2B88BF03F01F0303F5A2
:10275000E0738CBF08494FF0A041032241F82320C9
:10276000EB682268A968C2F80835C2F8101563E75B
:10277000C006002061240000000300501003020086
:1027800000E100E0FCEC00E0F8B507793A4C0268A3
:10279000FE00F31904EB830300215B68C2F8001507
:1027A00083B10368354AC3F808230368344D1B0B13
:1027B0005AB25209203203F01F03012101FA03F338
:1027C00045F8223003684FF0FF3ED3F80CC5D3F82C
:1027D0001455D3F80825D3F81015C3F80CE5C3F841
:1027E00014E50368F445C3F808E5C3F810E50DD017
:1027F000BCF11F0F86BF0CF01F0C224B4FF0A04303
:102800000CF5E07C4FF0020E43F82CE06B1C0CD072
:102810001F2D86BF05F01F051A4B4FF0A04305F58D
:10282000E0754FF0020C43F825C04D1C0BD01F295A
:1028300086BF01F01F01134B4FF0A04301F5E0717B
:10284000022543F82150531C0BD01F2A86BF02F0EB
:102850001F020C4B4FF0A04302F5E072022143F837
:1028600022103E4404EB8604006800F083F8002345
:1028700084F820306360F8BDC00600201003020019
:1028800000E100E00003005001F06043B3F1005F9D
:102890002DD1F0B40579244EEF007C1906EB8404A9
:1028A00082B06369002B39D16261A1600268C2F80D
:1028B0002031D2F820C10268CDF804C0DDF804C090
:1028C000C2F85831D2F8582100920268DDF800C0F1
:1028D000D4F814C0C2F84415C2F848C502680121F2
:1028E000916062682AB1184602B0F0BC70471020AF
:1028F0007047036800E0AAB9D3F82011D3F8582133
:102900000029F8D0002A14BF0F2000207B1906EB05
:10291000830300225A6102B0F0BC7047112002B05C
:10292000F0BC70470F20F1E7C0060020014B1B6888
:10293000184700BFE406002038B50C4B984213D16D
:1029400000200D46FEF73CFB094B1C7924B100200A
:10295000FEF73EFB112038BD012220461D601A7192
:10296000FEF736FB204638BD002038BD0020004071
:10297000E4060020034B984203D1034B00221A6067
:102980001A71704700200040E406002008B5074B8C
:10299000044613B10021AFF30080054B1868836A29
:1029A00003B19847204600F047F800BF0000000040
:1029B0001C2D000070B50D4D0D4C641BA41000269D
:1029C000A64209D10B4D0C4C00F038F8641BA41042
:1029D0000026A64205D170BD55F8043B9847013644
:1029E000EEE755F8043B98470136F2E780000020F7
:1029F0008000002080000020840000200A449142D2
:102A000000F1FF3300D1704710B511F8014B03F806
:102A1000014F9142F9D110BD02440346934200D1C7
:102A2000704703F8011BF9E7034613F8012B002A4E
:102A3000FBD1181A01387047FEE700BFF8B500BF98
:102A4000F8BC08BC9E467047F8B500BFF8BC08BC8F
:102A50009E467047FFFFFFFFFFFFFFFFFFFFFFFFE7
:102A6000FFFFFFFF00000000000000000000D60193
:102A700006010000D503000041040000D10300005E
:102A8000756172745F6C6F675F6261636B656E64C2
:102A900000000000E40500207F0000006406002024
:102AA0004261636B656E647320666C757368656400
:102AB0000000000061707000142B0000402B00002B
:102AC000F42A0000482B0000502B0000582B000077
:102AD000602B0000682B0000702B00002025303296
:102AE00078000000202020007C000000256300000A
:102AF0000D0A00001B5B313B33316D0025734C6FB9
:102B000067732064726F70706564202825642925BE
:102B1000730D0A001B5B306D000000002573000080
:102B20003C25733E2025733A200000000000000081
:102B3000782B0000802B0000882B0000902B0000D9
:102B40001B5B313B33306D001B5B313B33326D001F
:102B50001B5B313B33336D001B5B313B33346D000A
:102B60001B5B313B33356D001B5B313B33366D00F6
:102B70001B5B313B33376D006572726F7200000072
:102B80007761726E696E6700696E666F00000000A3
:102B900064656275670000000D0E0F104661746178
:102BA0006C206572726F720053797374656D207258
:102BB00065736574000000003031323334353637C8
:102BC00038394142434445460000000000000000FF
:102BD0000338FDD870470000426C696E6B79206540
:102BE00078616D706C6520737461727465642E0019
:102BF00054686973206973206120746573740D0AC9
:102C0000000000005541525400000000554152544C
:102C1000450000005052530000202020202020209A
:102C2000202028282828282020202020202020207C
:102C3000202020202020202020881010101010108C
:102C400010101010101010101004040404040404D8
:102C50000404041010101010101041414141414172
:102C60000101010101010101010101010101010154
:102C70000101010110101010101042424242424264
:102C80000202020202020202020202020202020224
:102C900002020202101010102000000000000000CC
:102CA0000000000000000000000000000000000024
:102CB0000000000000000000000000000000000014
:102CC0000000000000000000000000000000000004
:102CD00000000000000000000000000000000000F4
:102CE00000000000000000000000000000000000E4
:102CF00000000000000000000000000000000000D4
:102D000000000000000000000000000000000000C3
:102D10000000000000000000000000002000002073
:042D200000000000AF
:102D2400142C000000000000042C0000000000002F
:102D34000C2C000000000000B42A00000000030373
:102D4400742A000000000000802A00001400002003
:102D5400EC000020B4010020BC010020F40000209D
:042D64001800000053
:082D6800D8D4FF7F0100000038
:102D70000000000000200040000000000020004093
:102D80000000000000000000FF0000000090D003E1
:102D90000000000000000000000000000000000033
:102DA0000000000000000000000000000000000023
:102DB0000000000000000000000000000000000013
:102DC0000000000000000000000000000000000003
:102DD00000000000000000000000000000000000F3
:102DE00000000000000000000000000000000000E3
:082DF0002502000001020000B1
:04000003000002B542
:00000001FF
